{
	"buyerToSeller2.sol": {
		"bTs": {
			"abi": [
				{
					"inputs": [
						{
							"internalType": "string",
							"name": "email",
							"type": "string"
						}
					],
					"name": "addSeller",
					"outputs": [],
					"stateMutability": "nonpayable",
					"type": "function"
				},
				{
					"inputs": [
						{
							"internalType": "string",
							"name": "mail",
							"type": "string"
						}
					],
					"name": "getAllItems",
					"outputs": [
						{
							"internalType": "uint256[]",
							"name": "arr",
							"type": "uint256[]"
						}
					],
					"stateMutability": "view",
					"type": "function"
				},
				{
					"inputs": [
						{
							"internalType": "uint256",
							"name": "id",
							"type": "uint256"
						}
					],
					"name": "getItem",
					"outputs": [
						{
							"internalType": "string",
							"name": "",
							"type": "string"
						}
					],
					"stateMutability": "view",
					"type": "function"
				},
				{
					"inputs": [
						{
							"internalType": "uint256",
							"name": "id",
							"type": "uint256"
						}
					],
					"name": "getQuote",
					"outputs": [
						{
							"internalType": "string[]",
							"name": "",
							"type": "string[]"
						},
						{
							"internalType": "string[]",
							"name": "",
							"type": "string[]"
						}
					],
					"stateMutability": "view",
					"type": "function"
				},
				{
					"inputs": [],
					"name": "getQuotes",
					"outputs": [
						{
							"internalType": "uint256",
							"name": "",
							"type": "uint256"
						}
					],
					"stateMutability": "view",
					"type": "function"
				},
				{
					"inputs": [
						{
							"internalType": "string[]",
							"name": "_emails",
							"type": "string[]"
						},
						{
							"internalType": "string",
							"name": "_item",
							"type": "string"
						}
					],
					"name": "setItems",
					"outputs": [],
					"stateMutability": "nonpayable",
					"type": "function"
				},
				{
					"inputs": [
						{
							"internalType": "string",
							"name": "_quote",
							"type": "string"
						},
						{
							"internalType": "string",
							"name": "id",
							"type": "string"
						},
						{
							"internalType": "string",
							"name": "_email",
							"type": "string"
						}
					],
					"name": "setQuote",
					"outputs": [],
					"stateMutability": "nonpayable",
					"type": "function"
				}
			],
			"devdoc": {
				"kind": "dev",
				"methods": {},
				"version": 1
			},
			"evm": {
				"assembly": "    /* \"buyerToSeller2.sol\":58:2010  contract bTs{... */\n  mstore(0x40, 0x80)\n    /* \"buyerToSeller2.sol\":116:117  0 */\n  0x00\n    /* \"buyerToSeller2.sol\":105:117  uint count=0 */\n  0x01\n  sstore\n    /* \"buyerToSeller2.sol\":58:2010  contract bTs{... */\n  callvalue\n  dup1\n  iszero\n  tag_1\n  jumpi\n  0x00\n  dup1\n  revert\ntag_1:\n  pop\n  dataSize(sub_0)\n  dup1\n  dataOffset(sub_0)\n  0x00\n  codecopy\n  0x00\n  return\nstop\n\nsub_0: assembly {\n        /* \"buyerToSeller2.sol\":58:2010  contract bTs{... */\n      mstore(0x40, 0x80)\n      callvalue\n      dup1\n      iszero\n      tag_1\n      jumpi\n      0x00\n      dup1\n      revert\n    tag_1:\n      pop\n      jumpi(tag_2, lt(calldatasize, 0x04))\n      shr(0xe0, calldataload(0x00))\n      dup1\n      0x7841eb9f\n      gt\n      tag_10\n      jumpi\n      dup1\n      0x7841eb9f\n      eq\n      tag_6\n      jumpi\n      dup1\n      0xa08bc01a\n      eq\n      tag_7\n      jumpi\n      dup1\n      0xa4204e39\n      eq\n      tag_8\n      jumpi\n      dup1\n      0xcf39918e\n      eq\n      tag_9\n      jumpi\n      jump(tag_2)\n    tag_10:\n      dup1\n      0x245349d3\n      eq\n      tag_3\n      jumpi\n      dup1\n      0x2b912369\n      eq\n      tag_4\n      jumpi\n      dup1\n      0x3129e773\n      eq\n      tag_5\n      jumpi\n    tag_2:\n      0x00\n      dup1\n      revert\n        /* \"buyerToSeller2.sol\":401:560  function addSeller(string memory email)public{... */\n    tag_3:\n      tag_11\n      0x04\n      dup1\n      calldatasize\n      sub\n      dup2\n      add\n      swap1\n      tag_12\n      swap2\n      swap1\n      tag_13\n      jump\t// in\n    tag_12:\n      tag_14\n      jump\t// in\n    tag_11:\n      stop\n        /* \"buyerToSeller2.sol\":566:862  function setItems(string[] memory _emails,string memory _item)public{... */\n    tag_4:\n      tag_15\n      0x04\n      dup1\n      calldatasize\n      sub\n      dup2\n      add\n      swap1\n      tag_16\n      swap2\n      swap1\n      tag_17\n      jump\t// in\n    tag_16:\n      tag_18\n      jump\t// in\n    tag_15:\n      stop\n        /* \"buyerToSeller2.sol\":992:1087  function getItem(uint id)public view returns(string memory){... */\n    tag_5:\n      tag_19\n      0x04\n      dup1\n      calldatasize\n      sub\n      dup2\n      add\n      swap1\n      tag_20\n      swap2\n      swap1\n      tag_21\n      jump\t// in\n    tag_20:\n      tag_22\n      jump\t// in\n    tag_19:\n      mload(0x40)\n      tag_23\n      swap2\n      swap1\n      tag_24\n      jump\t// in\n    tag_23:\n      mload(0x40)\n      dup1\n      swap2\n      sub\n      swap1\n      return\n        /* \"buyerToSeller2.sol\":868:986  function getAllItems(string memory mail)public view returns(uint[] memory arr){... */\n    tag_6:\n      tag_25\n      0x04\n      dup1\n      calldatasize\n      sub\n      dup2\n      add\n      swap1\n      tag_26\n      swap2\n      swap1\n      tag_13\n      jump\t// in\n    tag_26:\n      tag_27\n      jump\t// in\n    tag_25:\n      mload(0x40)\n      tag_28\n      swap2\n      swap1\n      tag_29\n      jump\t// in\n    tag_28:\n      mload(0x40)\n      dup1\n      swap2\n      sub\n      swap1\n      return\n        /* \"buyerToSeller2.sol\":1093:1365  function setQuote(string memory _quote,string memory id,string memory _email)public{... */\n    tag_7:\n      tag_30\n      0x04\n      dup1\n      calldatasize\n      sub\n      dup2\n      add\n      swap1\n      tag_31\n      swap2\n      swap1\n      tag_32\n      jump\t// in\n    tag_31:\n      tag_33\n      jump\t// in\n    tag_30:\n      stop\n        /* \"buyerToSeller2.sol\":1929:2007  function getQuotes()public view returns(uint){... */\n    tag_8:\n      tag_34\n      tag_35\n      jump\t// in\n    tag_34:\n      mload(0x40)\n      tag_36\n      swap2\n      swap1\n      tag_37\n      jump\t// in\n    tag_36:\n      mload(0x40)\n      dup1\n      swap2\n      sub\n      swap1\n      return\n        /* \"buyerToSeller2.sol\":1371:1702  function getQuote(uint id)public view returns(string[] memory,string[] memory){... */\n    tag_9:\n      tag_38\n      0x04\n      dup1\n      calldatasize\n      sub\n      dup2\n      add\n      swap1\n      tag_39\n      swap2\n      swap1\n      tag_21\n      jump\t// in\n    tag_39:\n      tag_40\n      jump\t// in\n    tag_38:\n      mload(0x40)\n      tag_41\n      swap3\n      swap2\n      swap1\n      tag_42\n      jump\t// in\n    tag_41:\n      mload(0x40)\n      dup1\n      swap2\n      sub\n      swap1\n      return\n        /* \"buyerToSeller2.sol\":401:560  function addSeller(string memory email)public{... */\n    tag_14:\n        /* \"buyerToSeller2.sol\":461:483  tender[email].order=\"\" */\n      mload(0x40)\n      dup1\n      0x20\n      add\n      0x40\n      mstore\n      dup1\n      0x00\n      dup2\n      mstore\n      pop\n        /* \"buyerToSeller2.sol\":461:467  tender */\n      0x03\n        /* \"buyerToSeller2.sol\":468:473  email */\n      dup3\n        /* \"buyerToSeller2.sol\":461:474  tender[email] */\n      mload(0x40)\n      tag_44\n      swap2\n      swap1\n      tag_45\n      jump\t// in\n    tag_44:\n      swap1\n      dup2\n      mstore\n      0x20\n      add\n      mload(0x40)\n      dup1\n      swap2\n      sub\n      swap1\n      keccak256\n        /* \"buyerToSeller2.sol\":461:480  tender[email].order */\n      0x00\n      add\n        /* \"buyerToSeller2.sol\":461:483  tender[email].order=\"\" */\n      swap1\n      dup2\n      tag_46\n      swap2\n      swap1\n      tag_47\n      jump\t// in\n    tag_46:\n      pop\n        /* \"buyerToSeller2.sol\":498:520  tender[email].quote=\"\" */\n      mload(0x40)\n      dup1\n      0x20\n      add\n      0x40\n      mstore\n      dup1\n      0x00\n      dup2\n      mstore\n      pop\n        /* \"buyerToSeller2.sol\":498:504  tender */\n      0x03\n        /* \"buyerToSeller2.sol\":505:510  email */\n      dup3\n        /* \"buyerToSeller2.sol\":498:511  tender[email] */\n      mload(0x40)\n      tag_48\n      swap2\n      swap1\n      tag_45\n      jump\t// in\n    tag_48:\n      swap1\n      dup2\n      mstore\n      0x20\n      add\n      mload(0x40)\n      dup1\n      swap2\n      sub\n      swap1\n      keccak256\n        /* \"buyerToSeller2.sol\":498:517  tender[email].quote */\n      0x01\n      add\n        /* \"buyerToSeller2.sol\":498:520  tender[email].quote=\"\" */\n      swap1\n      dup2\n      tag_49\n      swap2\n      swap1\n      tag_47\n      jump\t// in\n    tag_49:\n      pop\n        /* \"buyerToSeller2.sol\":535:541  tender */\n      0x03\n        /* \"buyerToSeller2.sol\":542:547  email */\n      dup2\n        /* \"buyerToSeller2.sol\":535:548  tender[email] */\n      mload(0x40)\n      tag_50\n      swap2\n      swap1\n      tag_45\n      jump\t// in\n    tag_50:\n      swap1\n      dup2\n      mstore\n      0x20\n      add\n      mload(0x40)\n      dup1\n      swap2\n      sub\n      swap1\n      keccak256\n        /* \"buyerToSeller2.sol\":535:550  tender[email].n */\n      pop\n        /* \"buyerToSeller2.sol\":401:560  function addSeller(string memory email)public{... */\n      pop\n      jump\t// out\n        /* \"buyerToSeller2.sol\":566:862  function setItems(string[] memory _emails,string memory _item)public{... */\n    tag_18:\n        /* \"buyerToSeller2.sol\":661:668  _emails */\n      dup2\n        /* \"buyerToSeller2.sol\":645:646  B */\n      0x02\n        /* \"buyerToSeller2.sol\":645:653  B[count] */\n      0x00\n        /* \"buyerToSeller2.sol\":647:652  count */\n      sload(0x01)\n        /* \"buyerToSeller2.sol\":645:653  B[count] */\n      dup2\n      mstore\n      0x20\n      add\n      swap1\n      dup2\n      mstore\n      0x20\n      add\n      0x00\n      keccak256\n        /* \"buyerToSeller2.sol\":645:660  B[count].emails */\n      0x00\n      add\n        /* \"buyerToSeller2.sol\":645:668  B[count].emails=_emails */\n      swap1\n      dup1\n      mload\n      swap1\n      0x20\n      add\n      swap1\n      tag_52\n      swap3\n      swap2\n      swap1\n      tag_53\n      jump\t// in\n    tag_52:\n      pop\n        /* \"buyerToSeller2.sol\":693:698  _item */\n      dup1\n        /* \"buyerToSeller2.sol\":679:680  B */\n      0x02\n        /* \"buyerToSeller2.sol\":679:687  B[count] */\n      0x00\n        /* \"buyerToSeller2.sol\":681:686  count */\n      sload(0x01)\n        /* \"buyerToSeller2.sol\":679:687  B[count] */\n      dup2\n      mstore\n      0x20\n      add\n      swap1\n      dup2\n      mstore\n      0x20\n      add\n      0x00\n      keccak256\n        /* \"buyerToSeller2.sol\":679:692  B[count].item */\n      0x01\n      add\n        /* \"buyerToSeller2.sol\":679:698  B[count].item=_item */\n      swap1\n      dup2\n      tag_54\n      swap2\n      swap1\n      tag_47\n      jump\t// in\n    tag_54:\n      pop\n        /* \"buyerToSeller2.sol\":720:725  count */\n      sload(0x01)\n        /* \"buyerToSeller2.sol\":709:710  B */\n      0x02\n        /* \"buyerToSeller2.sol\":709:717  B[count] */\n      0x00\n        /* \"buyerToSeller2.sol\":711:716  count */\n      sload(0x01)\n        /* \"buyerToSeller2.sol\":709:717  B[count] */\n      dup2\n      mstore\n      0x20\n      add\n      swap1\n      dup2\n      mstore\n      0x20\n      add\n      0x00\n      keccak256\n        /* \"buyerToSeller2.sol\":709:719  B[count].p */\n      0x03\n      add\n        /* \"buyerToSeller2.sol\":709:725  B[count].p=count */\n      dup2\n      swap1\n      sstore\n      pop\n        /* \"buyerToSeller2.sol\":740:746  uint i */\n      0x00\n        /* \"buyerToSeller2.sol\":736:829  for(uint i=0;i<_emails.length;i++){... */\n    tag_55:\n        /* \"buyerToSeller2.sol\":751:758  _emails */\n      dup3\n        /* \"buyerToSeller2.sol\":751:765  _emails.length */\n      mload\n        /* \"buyerToSeller2.sol\":749:750  i */\n      dup2\n        /* \"buyerToSeller2.sol\":749:765  i<_emails.length */\n      lt\n        /* \"buyerToSeller2.sol\":736:829  for(uint i=0;i<_emails.length;i++){... */\n      iszero\n      tag_56\n      jumpi\n        /* \"buyerToSeller2.sol\":785:791  tender */\n      0x03\n        /* \"buyerToSeller2.sol\":792:799  _emails */\n      dup4\n        /* \"buyerToSeller2.sol\":800:801  i */\n      dup3\n        /* \"buyerToSeller2.sol\":792:802  _emails[i] */\n      dup2\n      mload\n      dup2\n      lt\n      tag_58\n      jumpi\n      tag_59\n      tag_60\n      jump\t// in\n    tag_59:\n    tag_58:\n      0x20\n      mul\n      0x20\n      add\n      add\n      mload\n        /* \"buyerToSeller2.sol\":785:803  tender[_emails[i]] */\n      mload(0x40)\n      tag_61\n      swap2\n      swap1\n      tag_45\n      jump\t// in\n    tag_61:\n      swap1\n      dup2\n      mstore\n      0x20\n      add\n      mload(0x40)\n      dup1\n      swap2\n      sub\n      swap1\n      keccak256\n        /* \"buyerToSeller2.sol\":785:805  tender[_emails[i]].n */\n      0x02\n      add\n        /* \"buyerToSeller2.sol\":811:816  count */\n      sload(0x01)\n        /* \"buyerToSeller2.sol\":785:817  tender[_emails[i]].n.push(count) */\n      swap1\n      dup1\n      0x01\n      dup2\n      sload\n      add\n      dup1\n      dup3\n      sstore\n      dup1\n      swap2\n      pop\n      pop\n      0x01\n      swap1\n      sub\n      swap1\n      0x00\n      mstore\n      keccak256(0x00, 0x20)\n      add\n      0x00\n      swap1\n      swap2\n      swap1\n      swap2\n      swap1\n      swap2\n      pop\n      sstore\n        /* \"buyerToSeller2.sol\":766:769  i++ */\n      dup1\n      dup1\n      tag_63\n      swap1\n      tag_64\n      jump\t// in\n    tag_63:\n      swap2\n      pop\n      pop\n        /* \"buyerToSeller2.sol\":736:829  for(uint i=0;i<_emails.length;i++){... */\n      jump(tag_55)\n    tag_56:\n      pop\n        /* \"buyerToSeller2.sol\":839:844  count */\n      0x01\n      0x00\n        /* \"buyerToSeller2.sol\":839:846  count++ */\n      dup2\n      sload\n      dup1\n      swap3\n      swap2\n      swap1\n      tag_65\n      swap1\n      tag_64\n      jump\t// in\n    tag_65:\n      swap2\n      swap1\n      pop\n      sstore\n      pop\n        /* \"buyerToSeller2.sol\":566:862  function setItems(string[] memory _emails,string memory _item)public{... */\n      pop\n      pop\n      jump\t// out\n        /* \"buyerToSeller2.sol\":992:1087  function getItem(uint id)public view returns(string memory){... */\n    tag_22:\n        /* \"buyerToSeller2.sol\":1037:1050  string memory */\n      0x60\n        /* \"buyerToSeller2.sol\":1069:1070  B */\n      0x02\n        /* \"buyerToSeller2.sol\":1069:1074  B[id] */\n      0x00\n        /* \"buyerToSeller2.sol\":1071:1073  id */\n      dup4\n        /* \"buyerToSeller2.sol\":1069:1074  B[id] */\n      dup2\n      mstore\n      0x20\n      add\n      swap1\n      dup2\n      mstore\n      0x20\n      add\n      0x00\n      keccak256\n        /* \"buyerToSeller2.sol\":1069:1079  B[id].item */\n      0x01\n      add\n        /* \"buyerToSeller2.sol\":1062:1079  return B[id].item */\n      dup1\n      sload\n      tag_67\n      swap1\n      tag_68\n      jump\t// in\n    tag_67:\n      dup1\n      0x1f\n      add\n      0x20\n      dup1\n      swap2\n      div\n      mul\n      0x20\n      add\n      mload(0x40)\n      swap1\n      dup2\n      add\n      0x40\n      mstore\n      dup1\n      swap3\n      swap2\n      swap1\n      dup2\n      dup2\n      mstore\n      0x20\n      add\n      dup3\n      dup1\n      sload\n      tag_69\n      swap1\n      tag_68\n      jump\t// in\n    tag_69:\n      dup1\n      iszero\n      tag_70\n      jumpi\n      dup1\n      0x1f\n      lt\n      tag_71\n      jumpi\n      0x0100\n      dup1\n      dup4\n      sload\n      div\n      mul\n      dup4\n      mstore\n      swap2\n      0x20\n      add\n      swap2\n      jump(tag_70)\n    tag_71:\n      dup3\n      add\n      swap2\n      swap1\n      0x00\n      mstore\n      keccak256(0x00, 0x20)\n      swap1\n    tag_72:\n      dup2\n      sload\n      dup2\n      mstore\n      swap1\n      0x01\n      add\n      swap1\n      0x20\n      add\n      dup1\n      dup4\n      gt\n      tag_72\n      jumpi\n      dup3\n      swap1\n      sub\n      0x1f\n      and\n      dup3\n      add\n      swap2\n    tag_70:\n      pop\n      pop\n      pop\n      pop\n      pop\n      swap1\n      pop\n        /* \"buyerToSeller2.sol\":992:1087  function getItem(uint id)public view returns(string memory){... */\n      swap2\n      swap1\n      pop\n      jump\t// out\n        /* \"buyerToSeller2.sol\":868:986  function getAllItems(string memory mail)public view returns(uint[] memory arr){... */\n    tag_27:\n        /* \"buyerToSeller2.sol\":928:945  uint[] memory arr */\n      0x60\n        /* \"buyerToSeller2.sol\":964:970  tender */\n      0x03\n        /* \"buyerToSeller2.sol\":971:975  mail */\n      dup3\n        /* \"buyerToSeller2.sol\":964:976  tender[mail] */\n      mload(0x40)\n      tag_74\n      swap2\n      swap1\n      tag_45\n      jump\t// in\n    tag_74:\n      swap1\n      dup2\n      mstore\n      0x20\n      add\n      mload(0x40)\n      dup1\n      swap2\n      sub\n      swap1\n      keccak256\n        /* \"buyerToSeller2.sol\":964:978  tender[mail].n */\n      0x02\n      add\n        /* \"buyerToSeller2.sol\":957:978  return tender[mail].n */\n      dup1\n      sload\n      dup1\n      0x20\n      mul\n      0x20\n      add\n      mload(0x40)\n      swap1\n      dup2\n      add\n      0x40\n      mstore\n      dup1\n      swap3\n      swap2\n      swap1\n      dup2\n      dup2\n      mstore\n      0x20\n      add\n      dup3\n      dup1\n      sload\n      dup1\n      iszero\n      tag_75\n      jumpi\n      0x20\n      mul\n      dup3\n      add\n      swap2\n      swap1\n      0x00\n      mstore\n      keccak256(0x00, 0x20)\n      swap1\n    tag_76:\n      dup2\n      sload\n      dup2\n      mstore\n      0x20\n      add\n      swap1\n      0x01\n      add\n      swap1\n      dup1\n      dup4\n      gt\n      tag_76\n      jumpi\n    tag_75:\n      pop\n      pop\n      pop\n      pop\n      pop\n      swap1\n      pop\n        /* \"buyerToSeller2.sol\":868:986  function getAllItems(string memory mail)public view returns(uint[] memory arr){... */\n      swap2\n      swap1\n      pop\n      jump\t// out\n        /* \"buyerToSeller2.sol\":1093:1365  function setQuote(string memory _quote,string memory id,string memory _email)public{... */\n    tag_33:\n        /* \"buyerToSeller2.sol\":1209:1211  id */\n      dup2\n        /* \"buyerToSeller2.sol\":1190:1212  string.concat(\"  \",id) */\n      add(0x20, mload(0x40))\n      tag_78\n      swap2\n      swap1\n      tag_79\n      jump\t// in\n    tag_78:\n      mload(0x40)\n      0x20\n      dup2\n      dup4\n      sub\n      sub\n      dup2\n      mstore\n      swap1\n      0x40\n      mstore\n        /* \"buyerToSeller2.sol\":1187:1212  id=string.concat(\"  \",id) */\n      swap2\n      pop\n        /* \"buyerToSeller2.sol\":1241:1243  id */\n      dup2\n        /* \"buyerToSeller2.sol\":1226:1249  string.concat((id),\" \") */\n      add(0x20, mload(0x40))\n      tag_80\n      swap2\n      swap1\n      tag_81\n      jump\t// in\n    tag_80:\n      mload(0x40)\n      0x20\n      dup2\n      dup4\n      sub\n      sub\n      dup2\n      mstore\n      swap1\n      0x40\n      mstore\n        /* \"buyerToSeller2.sol\":1223:1249  id=string.concat((id),\" \") */\n      swap2\n      pop\n        /* \"buyerToSeller2.sol\":1277:1279  id */\n      dup2\n        /* \"buyerToSeller2.sol\":1280:1286  _quote */\n      dup4\n        /* \"buyerToSeller2.sol\":1263:1287  string.concat(id,_quote) */\n      add(0x20, mload(0x40))\n      tag_82\n      swap3\n      swap2\n      swap1\n      tag_83\n      jump\t// in\n    tag_82:\n      mload(0x40)\n      0x20\n      dup2\n      dup4\n      sub\n      sub\n      dup2\n      mstore\n      swap1\n      0x40\n      mstore\n        /* \"buyerToSeller2.sol\":1260:1287  id=string.concat(id,_quote) */\n      swap2\n      pop\n        /* \"buyerToSeller2.sol\":1333:1339  tender */\n      0x03\n        /* \"buyerToSeller2.sol\":1340:1346  _email */\n      dup2\n        /* \"buyerToSeller2.sol\":1333:1347  tender[_email] */\n      mload(0x40)\n      tag_84\n      swap2\n      swap1\n      tag_45\n      jump\t// in\n    tag_84:\n      swap1\n      dup2\n      mstore\n      0x20\n      add\n      mload(0x40)\n      dup1\n      swap2\n      sub\n      swap1\n      keccak256\n        /* \"buyerToSeller2.sol\":1333:1353  tender[_email].quote */\n      0x01\n      add\n        /* \"buyerToSeller2.sol\":1354:1356  id */\n      dup3\n        /* \"buyerToSeller2.sol\":1319:1357  string.concat(tender[_email].quote,id) */\n      add(0x20, mload(0x40))\n      tag_85\n      swap3\n      swap2\n      swap1\n      tag_86\n      jump\t// in\n    tag_85:\n      mload(0x40)\n      0x20\n      dup2\n      dup4\n      sub\n      sub\n      dup2\n      mstore\n      swap1\n      0x40\n      mstore\n        /* \"buyerToSeller2.sol\":1298:1304  tender */\n      0x03\n        /* \"buyerToSeller2.sol\":1305:1311  _email */\n      dup3\n        /* \"buyerToSeller2.sol\":1298:1312  tender[_email] */\n      mload(0x40)\n      tag_87\n      swap2\n      swap1\n      tag_45\n      jump\t// in\n    tag_87:\n      swap1\n      dup2\n      mstore\n      0x20\n      add\n      mload(0x40)\n      dup1\n      swap2\n      sub\n      swap1\n      keccak256\n        /* \"buyerToSeller2.sol\":1298:1318  tender[_email].quote */\n      0x01\n      add\n        /* \"buyerToSeller2.sol\":1298:1357  tender[_email].quote=string.concat(tender[_email].quote,id) */\n      swap1\n      dup2\n      tag_88\n      swap2\n      swap1\n      tag_47\n      jump\t// in\n    tag_88:\n      pop\n        /* \"buyerToSeller2.sol\":1093:1365  function setQuote(string memory _quote,string memory id,string memory _email)public{... */\n      pop\n      pop\n      pop\n      jump\t// out\n        /* \"buyerToSeller2.sol\":1929:2007  function getQuotes()public view returns(uint){... */\n    tag_35:\n        /* \"buyerToSeller2.sol\":1969:1973  uint */\n      0x00\n        /* \"buyerToSeller2.sol\":1998:1999  1 */\n      0x01\n        /* \"buyerToSeller2.sol\":1992:1997  count */\n      dup1\n      sload\n        /* \"buyerToSeller2.sol\":1992:1999  count-1 */\n      tag_90\n      swap2\n      swap1\n      tag_91\n      jump\t// in\n    tag_90:\n        /* \"buyerToSeller2.sol\":1985:1999  return count-1 */\n      swap1\n      pop\n        /* \"buyerToSeller2.sol\":1929:2007  function getQuotes()public view returns(uint){... */\n      swap1\n      jump\t// out\n        /* \"buyerToSeller2.sol\":1371:1702  function getQuote(uint id)public view returns(string[] memory,string[] memory){... */\n    tag_40:\n        /* \"buyerToSeller2.sol\":1417:1432  string[] memory */\n      0x60\n        /* \"buyerToSeller2.sol\":1433:1448  string[] memory */\n      dup1\n        /* \"buyerToSeller2.sol\":1460:1466  uint i */\n      0x00\n        /* \"buyerToSeller2.sol\":1477:1496  string[] memory str */\n      dup1\n        /* \"buyerToSeller2.sol\":1497:1498  B */\n      0x02\n        /* \"buyerToSeller2.sol\":1497:1502  B[id] */\n      0x00\n        /* \"buyerToSeller2.sol\":1499:1501  id */\n      dup7\n        /* \"buyerToSeller2.sol\":1497:1502  B[id] */\n      dup2\n      mstore\n      0x20\n      add\n      swap1\n      dup2\n      mstore\n      0x20\n      add\n      0x00\n      keccak256\n        /* \"buyerToSeller2.sol\":1497:1509  B[id].emails */\n      0x00\n      add\n        /* \"buyerToSeller2.sol\":1477:1509  string[] memory str=B[id].emails */\n      dup1\n      sload\n      dup1\n      0x20\n      mul\n      0x20\n      add\n      mload(0x40)\n      swap1\n      dup2\n      add\n      0x40\n      mstore\n      dup1\n      swap3\n      swap2\n      swap1\n      dup2\n      dup2\n      mstore\n      0x20\n      add\n      0x00\n      swap1\n    tag_93:\n      dup3\n      dup3\n      lt\n      iszero\n      tag_94\n      jumpi\n      dup4\n      dup3\n      swap1\n      0x00\n      mstore\n      keccak256(0x00, 0x20)\n      add\n      dup1\n      sload\n      tag_96\n      swap1\n      tag_68\n      jump\t// in\n    tag_96:\n      dup1\n      0x1f\n      add\n      0x20\n      dup1\n      swap2\n      div\n      mul\n      0x20\n      add\n      mload(0x40)\n      swap1\n      dup2\n      add\n      0x40\n      mstore\n      dup1\n      swap3\n      swap2\n      swap1\n      dup2\n      dup2\n      mstore\n      0x20\n      add\n      dup3\n      dup1\n      sload\n      tag_97\n      swap1\n      tag_68\n      jump\t// in\n    tag_97:\n      dup1\n      iszero\n      tag_98\n      jumpi\n      dup1\n      0x1f\n      lt\n      tag_99\n      jumpi\n      0x0100\n      dup1\n      dup4\n      sload\n      div\n      mul\n      dup4\n      mstore\n      swap2\n      0x20\n      add\n      swap2\n      jump(tag_98)\n    tag_99:\n      dup3\n      add\n      swap2\n      swap1\n      0x00\n      mstore\n      keccak256(0x00, 0x20)\n      swap1\n    tag_100:\n      dup2\n      sload\n      dup2\n      mstore\n      swap1\n      0x01\n      add\n      swap1\n      0x20\n      add\n      dup1\n      dup4\n      gt\n      tag_100\n      jumpi\n      dup3\n      swap1\n      sub\n      0x1f\n      and\n      dup3\n      add\n      swap2\n    tag_98:\n      pop\n      pop\n      pop\n      pop\n      pop\n      dup2\n      mstore\n      0x20\n      add\n      swap1\n      0x01\n      add\n      swap1\n      jump(tag_93)\n    tag_94:\n      pop\n      pop\n      pop\n      pop\n      swap1\n      pop\n        /* \"buyerToSeller2.sol\":1520:1537  string[] memory q */\n      0x00\n        /* \"buyerToSeller2.sol\":1551:1552  B */\n      0x02\n        /* \"buyerToSeller2.sol\":1551:1556  B[id] */\n      0x00\n        /* \"buyerToSeller2.sol\":1553:1555  id */\n      dup8\n        /* \"buyerToSeller2.sol\":1551:1556  B[id] */\n      dup2\n      mstore\n      0x20\n      add\n      swap1\n      dup2\n      mstore\n      0x20\n      add\n      0x00\n      keccak256\n        /* \"buyerToSeller2.sol\":1551:1563  B[id].emails */\n      0x00\n      add\n        /* \"buyerToSeller2.sol\":1551:1570  B[id].emails.length */\n      dup1\n      sload\n      swap1\n      pop\n        /* \"buyerToSeller2.sol\":1538:1571  new string[](B[id].emails.length) */\n      0xffffffffffffffff\n      dup2\n      gt\n      iszero\n      tag_101\n      jumpi\n      tag_102\n      tag_103\n      jump\t// in\n    tag_102:\n    tag_101:\n      mload(0x40)\n      swap1\n      dup1\n      dup3\n      mstore\n      dup1\n      0x20\n      mul\n      0x20\n      add\n      dup3\n      add\n      0x40\n      mstore\n      dup1\n      iszero\n      tag_104\n      jumpi\n      dup2\n      0x20\n      add\n    tag_105:\n      0x60\n      dup2\n      mstore\n      0x20\n      add\n      swap1\n      0x01\n      swap1\n      sub\n      swap1\n      dup2\n      tag_105\n      jumpi\n      swap1\n      pop\n    tag_104:\n      pop\n        /* \"buyerToSeller2.sol\":1520:1571  string[] memory q=new string[](B[id].emails.length) */\n      swap1\n      pop\n        /* \"buyerToSeller2.sol\":1588:1589  0 */\n      0x00\n        /* \"buyerToSeller2.sol\":1586:1589  i=0 */\n      swap3\n      pop\n        /* \"buyerToSeller2.sol\":1582:1661  for(i=0;i<str.length;i++){... */\n    tag_106:\n        /* \"buyerToSeller2.sol\":1592:1595  str */\n      dup2\n        /* \"buyerToSeller2.sol\":1592:1602  str.length */\n      mload\n        /* \"buyerToSeller2.sol\":1590:1591  i */\n      dup4\n        /* \"buyerToSeller2.sol\":1590:1602  i<str.length */\n      lt\n        /* \"buyerToSeller2.sol\":1582:1661  for(i=0;i<str.length;i++){... */\n      iszero\n      tag_107\n      jumpi\n        /* \"buyerToSeller2.sol\":1627:1633  tender */\n      0x03\n        /* \"buyerToSeller2.sol\":1634:1637  str */\n      dup3\n        /* \"buyerToSeller2.sol\":1638:1639  i */\n      dup5\n        /* \"buyerToSeller2.sol\":1634:1640  str[i] */\n      dup2\n      mload\n      dup2\n      lt\n      tag_109\n      jumpi\n      tag_110\n      tag_60\n      jump\t// in\n    tag_110:\n    tag_109:\n      0x20\n      mul\n      0x20\n      add\n      add\n      mload\n        /* \"buyerToSeller2.sol\":1627:1641  tender[str[i]] */\n      mload(0x40)\n      tag_111\n      swap2\n      swap1\n      tag_45\n      jump\t// in\n    tag_111:\n      swap1\n      dup2\n      mstore\n      0x20\n      add\n      mload(0x40)\n      dup1\n      swap2\n      sub\n      swap1\n      keccak256\n        /* \"buyerToSeller2.sol\":1627:1647  tender[str[i]].quote */\n      0x01\n      add\n        /* \"buyerToSeller2.sol\":1621:1648  q[i]=(tender[str[i]].quote) */\n      dup1\n      sload\n      tag_112\n      swap1\n      tag_68\n      jump\t// in\n    tag_112:\n      dup1\n      0x1f\n      add\n      0x20\n      dup1\n      swap2\n      div\n      mul\n      0x20\n      add\n      mload(0x40)\n      swap1\n      dup2\n      add\n      0x40\n      mstore\n      dup1\n      swap3\n      swap2\n      swap1\n      dup2\n      dup2\n      mstore\n      0x20\n      add\n      dup3\n      dup1\n      sload\n      tag_113\n      swap1\n      tag_68\n      jump\t// in\n    tag_113:\n      dup1\n      iszero\n      tag_114\n      jumpi\n      dup1\n      0x1f\n      lt\n      tag_115\n      jumpi\n      0x0100\n      dup1\n      dup4\n      sload\n      div\n      mul\n      dup4\n      mstore\n      swap2\n      0x20\n      add\n      swap2\n      jump(tag_114)\n    tag_115:\n      dup3\n      add\n      swap2\n      swap1\n      0x00\n      mstore\n      keccak256(0x00, 0x20)\n      swap1\n    tag_116:\n      dup2\n      sload\n      dup2\n      mstore\n      swap1\n      0x01\n      add\n      swap1\n      0x20\n      add\n      dup1\n      dup4\n      gt\n      tag_116\n      jumpi\n      dup3\n      swap1\n      sub\n      0x1f\n      and\n      dup3\n      add\n      swap2\n    tag_114:\n      pop\n      pop\n      pop\n      pop\n      pop\n        /* \"buyerToSeller2.sol\":1621:1622  q */\n      dup2\n        /* \"buyerToSeller2.sol\":1623:1624  i */\n      dup5\n        /* \"buyerToSeller2.sol\":1621:1625  q[i] */\n      dup2\n      mload\n      dup2\n      lt\n      tag_117\n      jumpi\n      tag_118\n      tag_60\n      jump\t// in\n    tag_118:\n    tag_117:\n      0x20\n      mul\n      0x20\n      add\n      add\n        /* \"buyerToSeller2.sol\":1621:1648  q[i]=(tender[str[i]].quote) */\n      dup2\n      swap1\n      mstore\n      pop\n        /* \"buyerToSeller2.sol\":1603:1606  i++ */\n      dup3\n      dup1\n      tag_119\n      swap1\n      tag_64\n      jump\t// in\n    tag_119:\n      swap4\n      pop\n      pop\n        /* \"buyerToSeller2.sol\":1582:1661  for(i=0;i<str.length;i++){... */\n      jump(tag_106)\n    tag_107:\n        /* \"buyerToSeller2.sol\":1679:1680  q */\n      dup1\n        /* \"buyerToSeller2.sol\":1681:1682  B */\n      0x02\n        /* \"buyerToSeller2.sol\":1681:1686  B[id] */\n      0x00\n        /* \"buyerToSeller2.sol\":1683:1685  id */\n      dup9\n        /* \"buyerToSeller2.sol\":1681:1686  B[id] */\n      dup2\n      mstore\n      0x20\n      add\n      swap1\n      dup2\n      mstore\n      0x20\n      add\n      0x00\n      keccak256\n        /* \"buyerToSeller2.sol\":1681:1693  B[id].emails */\n      0x00\n      add\n        /* \"buyerToSeller2.sol\":1671:1694  return (q,B[id].emails) */\n      dup1\n      dup1\n      sload\n      dup1\n      0x20\n      mul\n      0x20\n      add\n      mload(0x40)\n      swap1\n      dup2\n      add\n      0x40\n      mstore\n      dup1\n      swap3\n      swap2\n      swap1\n      dup2\n      dup2\n      mstore\n      0x20\n      add\n      0x00\n      swap1\n    tag_120:\n      dup3\n      dup3\n      lt\n      iszero\n      tag_121\n      jumpi\n      dup4\n      dup3\n      swap1\n      0x00\n      mstore\n      keccak256(0x00, 0x20)\n      add\n      dup1\n      sload\n      tag_123\n      swap1\n      tag_68\n      jump\t// in\n    tag_123:\n      dup1\n      0x1f\n      add\n      0x20\n      dup1\n      swap2\n      div\n      mul\n      0x20\n      add\n      mload(0x40)\n      swap1\n      dup2\n      add\n      0x40\n      mstore\n      dup1\n      swap3\n      swap2\n      swap1\n      dup2\n      dup2\n      mstore\n      0x20\n      add\n      dup3\n      dup1\n      sload\n      tag_124\n      swap1\n      tag_68\n      jump\t// in\n    tag_124:\n      dup1\n      iszero\n      tag_125\n      jumpi\n      dup1\n      0x1f\n      lt\n      tag_126\n      jumpi\n      0x0100\n      dup1\n      dup4\n      sload\n      div\n      mul\n      dup4\n      mstore\n      swap2\n      0x20\n      add\n      swap2\n      jump(tag_125)\n    tag_126:\n      dup3\n      add\n      swap2\n      swap1\n      0x00\n      mstore\n      keccak256(0x00, 0x20)\n      swap1\n    tag_127:\n      dup2\n      sload\n      dup2\n      mstore\n      swap1\n      0x01\n      add\n      swap1\n      0x20\n      add\n      dup1\n      dup4\n      gt\n      tag_127\n      jumpi\n      dup3\n      swap1\n      sub\n      0x1f\n      and\n      dup3\n      add\n      swap2\n    tag_125:\n      pop\n      pop\n      pop\n      pop\n      pop\n      dup2\n      mstore\n      0x20\n      add\n      swap1\n      0x01\n      add\n      swap1\n      jump(tag_120)\n    tag_121:\n      pop\n      pop\n      pop\n      pop\n      swap1\n      pop\n      swap5\n      pop\n      swap5\n      pop\n      pop\n      pop\n      pop\n        /* \"buyerToSeller2.sol\":1371:1702  function getQuote(uint id)public view returns(string[] memory,string[] memory){... */\n      swap2\n      pop\n      swap2\n      jump\t// out\n    tag_53:\n      dup3\n      dup1\n      sload\n      dup3\n      dup3\n      sstore\n      swap1\n      0x00\n      mstore\n      keccak256(0x00, 0x20)\n      swap1\n      dup2\n      add\n      swap3\n      dup3\n      iszero\n      tag_128\n      jumpi\n      swap2\n      0x20\n      mul\n      dup3\n      add\n    tag_129:\n      dup3\n      dup2\n      gt\n      iszero\n      tag_130\n      jumpi\n      dup3\n      mload\n      dup3\n      swap1\n      dup2\n      tag_131\n      swap2\n      swap1\n      tag_47\n      jump\t// in\n    tag_131:\n      pop\n      swap2\n      0x20\n      add\n      swap2\n      swap1\n      0x01\n      add\n      swap1\n      jump(tag_129)\n    tag_130:\n    tag_128:\n      pop\n      swap1\n      pop\n      tag_132\n      swap2\n      swap1\n      tag_133\n      jump\t// in\n    tag_132:\n      pop\n      swap1\n      jump\t// out\n    tag_133:\n    tag_134:\n      dup1\n      dup3\n      gt\n      iszero\n      tag_135\n      jumpi\n      0x00\n      dup2\n      dup2\n      tag_136\n      swap2\n      swap1\n      tag_137\n      jump\t// in\n    tag_136:\n      pop\n      0x01\n      add\n      jump(tag_134)\n    tag_135:\n      pop\n      swap1\n      jump\t// out\n    tag_137:\n      pop\n      dup1\n      sload\n      tag_138\n      swap1\n      tag_68\n      jump\t// in\n    tag_138:\n      0x00\n      dup3\n      sstore\n      dup1\n      0x1f\n      lt\n      tag_140\n      jumpi\n      pop\n      jump(tag_139)\n    tag_140:\n      0x1f\n      add\n      0x20\n      swap1\n      div\n      swap1\n      0x00\n      mstore\n      keccak256(0x00, 0x20)\n      swap1\n      dup2\n      add\n      swap1\n      tag_141\n      swap2\n      swap1\n      tag_142\n      jump\t// in\n    tag_141:\n    tag_139:\n      pop\n      jump\t// out\n    tag_142:\n    tag_143:\n      dup1\n      dup3\n      gt\n      iszero\n      tag_144\n      jumpi\n      0x00\n      dup2\n      0x00\n      swap1\n      sstore\n      pop\n      0x01\n      add\n      jump(tag_143)\n    tag_144:\n      pop\n      swap1\n      jump\t// out\n        /* \"#utility.yul\":7:82   */\n    tag_145:\n        /* \"#utility.yul\":40:46   */\n      0x00\n        /* \"#utility.yul\":73:75   */\n      0x40\n        /* \"#utility.yul\":67:76   */\n      mload\n        /* \"#utility.yul\":57:76   */\n      swap1\n      pop\n        /* \"#utility.yul\":7:82   */\n      swap1\n      jump\t// out\n        /* \"#utility.yul\":88:205   */\n    tag_146:\n        /* \"#utility.yul\":197:198   */\n      0x00\n        /* \"#utility.yul\":194:195   */\n      dup1\n        /* \"#utility.yul\":187:199   */\n      revert\n        /* \"#utility.yul\":211:328   */\n    tag_147:\n        /* \"#utility.yul\":320:321   */\n      0x00\n        /* \"#utility.yul\":317:318   */\n      dup1\n        /* \"#utility.yul\":310:322   */\n      revert\n        /* \"#utility.yul\":334:451   */\n    tag_148:\n        /* \"#utility.yul\":443:444   */\n      0x00\n        /* \"#utility.yul\":440:441   */\n      dup1\n        /* \"#utility.yul\":433:445   */\n      revert\n        /* \"#utility.yul\":457:574   */\n    tag_149:\n        /* \"#utility.yul\":566:567   */\n      0x00\n        /* \"#utility.yul\":563:564   */\n      dup1\n        /* \"#utility.yul\":556:568   */\n      revert\n        /* \"#utility.yul\":580:682   */\n    tag_150:\n        /* \"#utility.yul\":621:627   */\n      0x00\n        /* \"#utility.yul\":672:674   */\n      0x1f\n        /* \"#utility.yul\":668:675   */\n      not\n        /* \"#utility.yul\":663:665   */\n      0x1f\n        /* \"#utility.yul\":656:661   */\n      dup4\n        /* \"#utility.yul\":652:666   */\n      add\n        /* \"#utility.yul\":648:676   */\n      and\n        /* \"#utility.yul\":638:676   */\n      swap1\n      pop\n        /* \"#utility.yul\":580:682   */\n      swap2\n      swap1\n      pop\n      jump\t// out\n        /* \"#utility.yul\":688:868   */\n    tag_103:\n        /* \"#utility.yul\":736:813   */\n      0x4e487b7100000000000000000000000000000000000000000000000000000000\n        /* \"#utility.yul\":733:734   */\n      0x00\n        /* \"#utility.yul\":726:814   */\n      mstore\n        /* \"#utility.yul\":833:837   */\n      0x41\n        /* \"#utility.yul\":830:831   */\n      0x04\n        /* \"#utility.yul\":823:838   */\n      mstore\n        /* \"#utility.yul\":857:861   */\n      0x24\n        /* \"#utility.yul\":854:855   */\n      0x00\n        /* \"#utility.yul\":847:862   */\n      revert\n        /* \"#utility.yul\":874:1155   */\n    tag_151:\n        /* \"#utility.yul\":957:984   */\n      tag_215\n        /* \"#utility.yul\":979:983   */\n      dup3\n        /* \"#utility.yul\":957:984   */\n      tag_150\n      jump\t// in\n    tag_215:\n        /* \"#utility.yul\":949:955   */\n      dup2\n        /* \"#utility.yul\":945:985   */\n      add\n        /* \"#utility.yul\":1087:1093   */\n      dup2\n        /* \"#utility.yul\":1075:1085   */\n      dup2\n        /* \"#utility.yul\":1072:1094   */\n      lt\n        /* \"#utility.yul\":1051:1069   */\n      0xffffffffffffffff\n        /* \"#utility.yul\":1039:1049   */\n      dup3\n        /* \"#utility.yul\":1036:1070   */\n      gt\n        /* \"#utility.yul\":1033:1095   */\n      or\n        /* \"#utility.yul\":1030:1118   */\n      iszero\n      tag_216\n      jumpi\n        /* \"#utility.yul\":1098:1116   */\n      tag_217\n      tag_103\n      jump\t// in\n    tag_217:\n        /* \"#utility.yul\":1030:1118   */\n    tag_216:\n        /* \"#utility.yul\":1138:1148   */\n      dup1\n        /* \"#utility.yul\":1134:1136   */\n      0x40\n        /* \"#utility.yul\":1127:1149   */\n      mstore\n        /* \"#utility.yul\":917:1155   */\n      pop\n        /* \"#utility.yul\":874:1155   */\n      pop\n      pop\n      jump\t// out\n        /* \"#utility.yul\":1161:1290   */\n    tag_152:\n        /* \"#utility.yul\":1195:1201   */\n      0x00\n        /* \"#utility.yul\":1222:1242   */\n      tag_219\n      tag_145\n      jump\t// in\n    tag_219:\n        /* \"#utility.yul\":1212:1242   */\n      swap1\n      pop\n        /* \"#utility.yul\":1251:1284   */\n      tag_220\n        /* \"#utility.yul\":1279:1283   */\n      dup3\n        /* \"#utility.yul\":1271:1277   */\n      dup3\n        /* \"#utility.yul\":1251:1284   */\n      tag_151\n      jump\t// in\n    tag_220:\n        /* \"#utility.yul\":1161:1290   */\n      swap2\n      swap1\n      pop\n      jump\t// out\n        /* \"#utility.yul\":1296:1604   */\n    tag_153:\n        /* \"#utility.yul\":1358:1362   */\n      0x00\n        /* \"#utility.yul\":1448:1466   */\n      0xffffffffffffffff\n        /* \"#utility.yul\":1440:1446   */\n      dup3\n        /* \"#utility.yul\":1437:1467   */\n      gt\n        /* \"#utility.yul\":1434:1490   */\n      iszero\n      tag_222\n      jumpi\n        /* \"#utility.yul\":1470:1488   */\n      tag_223\n      tag_103\n      jump\t// in\n    tag_223:\n        /* \"#utility.yul\":1434:1490   */\n    tag_222:\n        /* \"#utility.yul\":1508:1537   */\n      tag_224\n        /* \"#utility.yul\":1530:1536   */\n      dup3\n        /* \"#utility.yul\":1508:1537   */\n      tag_150\n      jump\t// in\n    tag_224:\n        /* \"#utility.yul\":1500:1537   */\n      swap1\n      pop\n        /* \"#utility.yul\":1592:1596   */\n      0x20\n        /* \"#utility.yul\":1586:1590   */\n      dup2\n        /* \"#utility.yul\":1582:1597   */\n      add\n        /* \"#utility.yul\":1574:1597   */\n      swap1\n      pop\n        /* \"#utility.yul\":1296:1604   */\n      swap2\n      swap1\n      pop\n      jump\t// out\n        /* \"#utility.yul\":1610:1756   */\n    tag_154:\n        /* \"#utility.yul\":1707:1713   */\n      dup3\n        /* \"#utility.yul\":1702:1705   */\n      dup2\n        /* \"#utility.yul\":1697:1700   */\n      dup4\n        /* \"#utility.yul\":1684:1714   */\n      calldatacopy\n        /* \"#utility.yul\":1748:1749   */\n      0x00\n        /* \"#utility.yul\":1739:1745   */\n      dup4\n        /* \"#utility.yul\":1734:1737   */\n      dup4\n        /* \"#utility.yul\":1730:1746   */\n      add\n        /* \"#utility.yul\":1723:1750   */\n      mstore\n        /* \"#utility.yul\":1610:1756   */\n      pop\n      pop\n      pop\n      jump\t// out\n        /* \"#utility.yul\":1762:2187   */\n    tag_155:\n        /* \"#utility.yul\":1840:1845   */\n      0x00\n        /* \"#utility.yul\":1865:1931   */\n      tag_227\n        /* \"#utility.yul\":1881:1930   */\n      tag_228\n        /* \"#utility.yul\":1923:1929   */\n      dup5\n        /* \"#utility.yul\":1881:1930   */\n      tag_153\n      jump\t// in\n    tag_228:\n        /* \"#utility.yul\":1865:1931   */\n      tag_152\n      jump\t// in\n    tag_227:\n        /* \"#utility.yul\":1856:1931   */\n      swap1\n      pop\n        /* \"#utility.yul\":1954:1960   */\n      dup3\n        /* \"#utility.yul\":1947:1952   */\n      dup2\n        /* \"#utility.yul\":1940:1961   */\n      mstore\n        /* \"#utility.yul\":1992:1996   */\n      0x20\n        /* \"#utility.yul\":1985:1990   */\n      dup2\n        /* \"#utility.yul\":1981:1997   */\n      add\n        /* \"#utility.yul\":2030:2033   */\n      dup5\n        /* \"#utility.yul\":2021:2027   */\n      dup5\n        /* \"#utility.yul\":2016:2019   */\n      dup5\n        /* \"#utility.yul\":2012:2028   */\n      add\n        /* \"#utility.yul\":2009:2034   */\n      gt\n        /* \"#utility.yul\":2006:2118   */\n      iszero\n      tag_229\n      jumpi\n        /* \"#utility.yul\":2037:2116   */\n      tag_230\n      tag_149\n      jump\t// in\n    tag_230:\n        /* \"#utility.yul\":2006:2118   */\n    tag_229:\n        /* \"#utility.yul\":2127:2181   */\n      tag_231\n        /* \"#utility.yul\":2174:2180   */\n      dup5\n        /* \"#utility.yul\":2169:2172   */\n      dup3\n        /* \"#utility.yul\":2164:2167   */\n      dup6\n        /* \"#utility.yul\":2127:2181   */\n      tag_154\n      jump\t// in\n    tag_231:\n        /* \"#utility.yul\":1846:2187   */\n      pop\n        /* \"#utility.yul\":1762:2187   */\n      swap4\n      swap3\n      pop\n      pop\n      pop\n      jump\t// out\n        /* \"#utility.yul\":2207:2547   */\n    tag_156:\n        /* \"#utility.yul\":2263:2268   */\n      0x00\n        /* \"#utility.yul\":2312:2315   */\n      dup3\n        /* \"#utility.yul\":2305:2309   */\n      0x1f\n        /* \"#utility.yul\":2297:2303   */\n      dup4\n        /* \"#utility.yul\":2293:2310   */\n      add\n        /* \"#utility.yul\":2289:2316   */\n      slt\n        /* \"#utility.yul\":2279:2401   */\n      tag_233\n      jumpi\n        /* \"#utility.yul\":2320:2399   */\n      tag_234\n      tag_148\n      jump\t// in\n    tag_234:\n        /* \"#utility.yul\":2279:2401   */\n    tag_233:\n        /* \"#utility.yul\":2437:2443   */\n      dup2\n        /* \"#utility.yul\":2424:2444   */\n      calldataload\n        /* \"#utility.yul\":2462:2541   */\n      tag_235\n        /* \"#utility.yul\":2537:2540   */\n      dup5\n        /* \"#utility.yul\":2529:2535   */\n      dup3\n        /* \"#utility.yul\":2522:2526   */\n      0x20\n        /* \"#utility.yul\":2514:2520   */\n      dup7\n        /* \"#utility.yul\":2510:2527   */\n      add\n        /* \"#utility.yul\":2462:2541   */\n      tag_155\n      jump\t// in\n    tag_235:\n        /* \"#utility.yul\":2453:2541   */\n      swap2\n      pop\n        /* \"#utility.yul\":2269:2547   */\n      pop\n        /* \"#utility.yul\":2207:2547   */\n      swap3\n      swap2\n      pop\n      pop\n      jump\t// out\n        /* \"#utility.yul\":2553:3062   */\n    tag_13:\n        /* \"#utility.yul\":2622:2628   */\n      0x00\n        /* \"#utility.yul\":2671:2673   */\n      0x20\n        /* \"#utility.yul\":2659:2668   */\n      dup3\n        /* \"#utility.yul\":2650:2657   */\n      dup5\n        /* \"#utility.yul\":2646:2669   */\n      sub\n        /* \"#utility.yul\":2642:2674   */\n      slt\n        /* \"#utility.yul\":2639:2758   */\n      iszero\n      tag_237\n      jumpi\n        /* \"#utility.yul\":2677:2756   */\n      tag_238\n      tag_146\n      jump\t// in\n    tag_238:\n        /* \"#utility.yul\":2639:2758   */\n    tag_237:\n        /* \"#utility.yul\":2825:2826   */\n      0x00\n        /* \"#utility.yul\":2814:2823   */\n      dup3\n        /* \"#utility.yul\":2810:2827   */\n      add\n        /* \"#utility.yul\":2797:2828   */\n      calldataload\n        /* \"#utility.yul\":2855:2873   */\n      0xffffffffffffffff\n        /* \"#utility.yul\":2847:2853   */\n      dup2\n        /* \"#utility.yul\":2844:2874   */\n      gt\n        /* \"#utility.yul\":2841:2958   */\n      iszero\n      tag_239\n      jumpi\n        /* \"#utility.yul\":2877:2956   */\n      tag_240\n      tag_147\n      jump\t// in\n    tag_240:\n        /* \"#utility.yul\":2841:2958   */\n    tag_239:\n        /* \"#utility.yul\":2982:3045   */\n      tag_241\n        /* \"#utility.yul\":3037:3044   */\n      dup5\n        /* \"#utility.yul\":3028:3034   */\n      dup3\n        /* \"#utility.yul\":3017:3026   */\n      dup6\n        /* \"#utility.yul\":3013:3035   */\n      add\n        /* \"#utility.yul\":2982:3045   */\n      tag_156\n      jump\t// in\n    tag_241:\n        /* \"#utility.yul\":2972:3045   */\n      swap2\n      pop\n        /* \"#utility.yul\":2768:3055   */\n      pop\n        /* \"#utility.yul\":2553:3062   */\n      swap3\n      swap2\n      pop\n      pop\n      jump\t// out\n        /* \"#utility.yul\":3068:3389   */\n    tag_157:\n        /* \"#utility.yul\":3155:3159   */\n      0x00\n        /* \"#utility.yul\":3245:3263   */\n      0xffffffffffffffff\n        /* \"#utility.yul\":3237:3243   */\n      dup3\n        /* \"#utility.yul\":3234:3264   */\n      gt\n        /* \"#utility.yul\":3231:3287   */\n      iszero\n      tag_243\n      jumpi\n        /* \"#utility.yul\":3267:3285   */\n      tag_244\n      tag_103\n      jump\t// in\n    tag_244:\n        /* \"#utility.yul\":3231:3287   */\n    tag_243:\n        /* \"#utility.yul\":3317:3321   */\n      0x20\n        /* \"#utility.yul\":3309:3315   */\n      dup3\n        /* \"#utility.yul\":3305:3322   */\n      mul\n        /* \"#utility.yul\":3297:3322   */\n      swap1\n      pop\n        /* \"#utility.yul\":3377:3381   */\n      0x20\n        /* \"#utility.yul\":3371:3375   */\n      dup2\n        /* \"#utility.yul\":3367:3382   */\n      add\n        /* \"#utility.yul\":3359:3382   */\n      swap1\n      pop\n        /* \"#utility.yul\":3068:3389   */\n      swap2\n      swap1\n      pop\n      jump\t// out\n        /* \"#utility.yul\":3395:3512   */\n    tag_158:\n        /* \"#utility.yul\":3504:3505   */\n      0x00\n        /* \"#utility.yul\":3501:3502   */\n      dup1\n        /* \"#utility.yul\":3494:3506   */\n      revert\n        /* \"#utility.yul\":3534:4479   */\n    tag_159:\n        /* \"#utility.yul\":3640:3645   */\n      0x00\n        /* \"#utility.yul\":3665:3756   */\n      tag_247\n        /* \"#utility.yul\":3681:3755   */\n      tag_248\n        /* \"#utility.yul\":3748:3754   */\n      dup5\n        /* \"#utility.yul\":3681:3755   */\n      tag_157\n      jump\t// in\n    tag_248:\n        /* \"#utility.yul\":3665:3756   */\n      tag_152\n      jump\t// in\n    tag_247:\n        /* \"#utility.yul\":3656:3756   */\n      swap1\n      pop\n        /* \"#utility.yul\":3776:3781   */\n      dup1\n        /* \"#utility.yul\":3805:3811   */\n      dup4\n        /* \"#utility.yul\":3798:3803   */\n      dup3\n        /* \"#utility.yul\":3791:3812   */\n      mstore\n        /* \"#utility.yul\":3839:3843   */\n      0x20\n        /* \"#utility.yul\":3832:3837   */\n      dup3\n        /* \"#utility.yul\":3828:3844   */\n      add\n        /* \"#utility.yul\":3821:3844   */\n      swap1\n      pop\n        /* \"#utility.yul\":3892:3896   */\n      0x20\n        /* \"#utility.yul\":3884:3890   */\n      dup5\n        /* \"#utility.yul\":3880:3897   */\n      mul\n        /* \"#utility.yul\":3872:3878   */\n      dup4\n        /* \"#utility.yul\":3868:3898   */\n      add\n        /* \"#utility.yul\":3921:3924   */\n      dup6\n        /* \"#utility.yul\":3913:3919   */\n      dup2\n        /* \"#utility.yul\":3910:3925   */\n      gt\n        /* \"#utility.yul\":3907:4029   */\n      iszero\n      tag_249\n      jumpi\n        /* \"#utility.yul\":3940:4019   */\n      tag_250\n      tag_158\n      jump\t// in\n    tag_250:\n        /* \"#utility.yul\":3907:4029   */\n    tag_249:\n        /* \"#utility.yul\":4055:4061   */\n      dup4\n        /* \"#utility.yul\":4038:4473   */\n    tag_251:\n        /* \"#utility.yul\":4072:4078   */\n      dup2\n        /* \"#utility.yul\":4067:4070   */\n      dup2\n        /* \"#utility.yul\":4064:4079   */\n      lt\n        /* \"#utility.yul\":4038:4473   */\n      iszero\n      tag_253\n      jumpi\n        /* \"#utility.yul\":4161:4164   */\n      dup1\n        /* \"#utility.yul\":4148:4165   */\n      calldataload\n        /* \"#utility.yul\":4197:4215   */\n      0xffffffffffffffff\n        /* \"#utility.yul\":4184:4195   */\n      dup2\n        /* \"#utility.yul\":4181:4216   */\n      gt\n        /* \"#utility.yul\":4178:4300   */\n      iszero\n      tag_254\n      jumpi\n        /* \"#utility.yul\":4219:4298   */\n      tag_255\n      tag_148\n      jump\t// in\n    tag_255:\n        /* \"#utility.yul\":4178:4300   */\n    tag_254:\n        /* \"#utility.yul\":4343:4354   */\n      dup1\n        /* \"#utility.yul\":4335:4341   */\n      dup7\n        /* \"#utility.yul\":4331:4355   */\n      add\n        /* \"#utility.yul\":4381:4428   */\n      tag_256\n        /* \"#utility.yul\":4424:4427   */\n      dup10\n        /* \"#utility.yul\":4412:4422   */\n      dup3\n        /* \"#utility.yul\":4381:4428   */\n      tag_156\n      jump\t// in\n    tag_256:\n        /* \"#utility.yul\":4376:4379   */\n      dup6\n        /* \"#utility.yul\":4369:4429   */\n      mstore\n        /* \"#utility.yul\":4458:4462   */\n      0x20\n        /* \"#utility.yul\":4453:4456   */\n      dup6\n        /* \"#utility.yul\":4449:4463   */\n      add\n        /* \"#utility.yul\":4442:4463   */\n      swap5\n      pop\n        /* \"#utility.yul\":4114:4473   */\n      pop\n      pop\n        /* \"#utility.yul\":4098:4102   */\n      0x20\n        /* \"#utility.yul\":4093:4096   */\n      dup2\n        /* \"#utility.yul\":4089:4103   */\n      add\n        /* \"#utility.yul\":4082:4103   */\n      swap1\n      pop\n        /* \"#utility.yul\":4038:4473   */\n      jump(tag_251)\n    tag_253:\n        /* \"#utility.yul\":4042:4063   */\n      pop\n        /* \"#utility.yul\":3646:4479   */\n      pop\n      pop\n        /* \"#utility.yul\":3534:4479   */\n      swap4\n      swap3\n      pop\n      pop\n      pop\n      jump\t// out\n        /* \"#utility.yul\":4501:4891   */\n    tag_160:\n        /* \"#utility.yul\":4582:4587   */\n      0x00\n        /* \"#utility.yul\":4631:4634   */\n      dup3\n        /* \"#utility.yul\":4624:4628   */\n      0x1f\n        /* \"#utility.yul\":4616:4622   */\n      dup4\n        /* \"#utility.yul\":4612:4629   */\n      add\n        /* \"#utility.yul\":4608:4635   */\n      slt\n        /* \"#utility.yul\":4598:4720   */\n      tag_258\n      jumpi\n        /* \"#utility.yul\":4639:4718   */\n      tag_259\n      tag_148\n      jump\t// in\n    tag_259:\n        /* \"#utility.yul\":4598:4720   */\n    tag_258:\n        /* \"#utility.yul\":4756:4762   */\n      dup2\n        /* \"#utility.yul\":4743:4763   */\n      calldataload\n        /* \"#utility.yul\":4781:4885   */\n      tag_260\n        /* \"#utility.yul\":4881:4884   */\n      dup5\n        /* \"#utility.yul\":4873:4879   */\n      dup3\n        /* \"#utility.yul\":4866:4870   */\n      0x20\n        /* \"#utility.yul\":4858:4864   */\n      dup7\n        /* \"#utility.yul\":4854:4871   */\n      add\n        /* \"#utility.yul\":4781:4885   */\n      tag_159\n      jump\t// in\n    tag_260:\n        /* \"#utility.yul\":4772:4885   */\n      swap2\n      pop\n        /* \"#utility.yul\":4588:4891   */\n      pop\n        /* \"#utility.yul\":4501:4891   */\n      swap3\n      swap2\n      pop\n      pop\n      jump\t// out\n        /* \"#utility.yul\":4897:5781   */\n    tag_17:\n        /* \"#utility.yul\":5010:5016   */\n      0x00\n        /* \"#utility.yul\":5018:5024   */\n      dup1\n        /* \"#utility.yul\":5067:5069   */\n      0x40\n        /* \"#utility.yul\":5055:5064   */\n      dup4\n        /* \"#utility.yul\":5046:5053   */\n      dup6\n        /* \"#utility.yul\":5042:5065   */\n      sub\n        /* \"#utility.yul\":5038:5070   */\n      slt\n        /* \"#utility.yul\":5035:5154   */\n      iszero\n      tag_262\n      jumpi\n        /* \"#utility.yul\":5073:5152   */\n      tag_263\n      tag_146\n      jump\t// in\n    tag_263:\n        /* \"#utility.yul\":5035:5154   */\n    tag_262:\n        /* \"#utility.yul\":5221:5222   */\n      0x00\n        /* \"#utility.yul\":5210:5219   */\n      dup4\n        /* \"#utility.yul\":5206:5223   */\n      add\n        /* \"#utility.yul\":5193:5224   */\n      calldataload\n        /* \"#utility.yul\":5251:5269   */\n      0xffffffffffffffff\n        /* \"#utility.yul\":5243:5249   */\n      dup2\n        /* \"#utility.yul\":5240:5270   */\n      gt\n        /* \"#utility.yul\":5237:5354   */\n      iszero\n      tag_264\n      jumpi\n        /* \"#utility.yul\":5273:5352   */\n      tag_265\n      tag_147\n      jump\t// in\n    tag_265:\n        /* \"#utility.yul\":5237:5354   */\n    tag_264:\n        /* \"#utility.yul\":5378:5466   */\n      tag_266\n        /* \"#utility.yul\":5458:5465   */\n      dup6\n        /* \"#utility.yul\":5449:5455   */\n      dup3\n        /* \"#utility.yul\":5438:5447   */\n      dup7\n        /* \"#utility.yul\":5434:5456   */\n      add\n        /* \"#utility.yul\":5378:5466   */\n      tag_160\n      jump\t// in\n    tag_266:\n        /* \"#utility.yul\":5368:5466   */\n      swap3\n      pop\n        /* \"#utility.yul\":5164:5476   */\n      pop\n        /* \"#utility.yul\":5543:5545   */\n      0x20\n        /* \"#utility.yul\":5532:5541   */\n      dup4\n        /* \"#utility.yul\":5528:5546   */\n      add\n        /* \"#utility.yul\":5515:5547   */\n      calldataload\n        /* \"#utility.yul\":5574:5592   */\n      0xffffffffffffffff\n        /* \"#utility.yul\":5566:5572   */\n      dup2\n        /* \"#utility.yul\":5563:5593   */\n      gt\n        /* \"#utility.yul\":5560:5677   */\n      iszero\n      tag_267\n      jumpi\n        /* \"#utility.yul\":5596:5675   */\n      tag_268\n      tag_147\n      jump\t// in\n    tag_268:\n        /* \"#utility.yul\":5560:5677   */\n    tag_267:\n        /* \"#utility.yul\":5701:5764   */\n      tag_269\n        /* \"#utility.yul\":5756:5763   */\n      dup6\n        /* \"#utility.yul\":5747:5753   */\n      dup3\n        /* \"#utility.yul\":5736:5745   */\n      dup7\n        /* \"#utility.yul\":5732:5754   */\n      add\n        /* \"#utility.yul\":5701:5764   */\n      tag_156\n      jump\t// in\n    tag_269:\n        /* \"#utility.yul\":5691:5764   */\n      swap2\n      pop\n        /* \"#utility.yul\":5486:5774   */\n      pop\n        /* \"#utility.yul\":4897:5781   */\n      swap3\n      pop\n      swap3\n      swap1\n      pop\n      jump\t// out\n        /* \"#utility.yul\":5787:5864   */\n    tag_161:\n        /* \"#utility.yul\":5824:5831   */\n      0x00\n        /* \"#utility.yul\":5853:5858   */\n      dup2\n        /* \"#utility.yul\":5842:5858   */\n      swap1\n      pop\n        /* \"#utility.yul\":5787:5864   */\n      swap2\n      swap1\n      pop\n      jump\t// out\n        /* \"#utility.yul\":5870:5992   */\n    tag_162:\n        /* \"#utility.yul\":5943:5967   */\n      tag_272\n        /* \"#utility.yul\":5961:5966   */\n      dup2\n        /* \"#utility.yul\":5943:5967   */\n      tag_161\n      jump\t// in\n    tag_272:\n        /* \"#utility.yul\":5936:5941   */\n      dup2\n        /* \"#utility.yul\":5933:5968   */\n      eq\n        /* \"#utility.yul\":5923:5986   */\n      tag_273\n      jumpi\n        /* \"#utility.yul\":5982:5983   */\n      0x00\n        /* \"#utility.yul\":5979:5980   */\n      dup1\n        /* \"#utility.yul\":5972:5984   */\n      revert\n        /* \"#utility.yul\":5923:5986   */\n    tag_273:\n        /* \"#utility.yul\":5870:5992   */\n      pop\n      jump\t// out\n        /* \"#utility.yul\":5998:6137   */\n    tag_163:\n        /* \"#utility.yul\":6044:6049   */\n      0x00\n        /* \"#utility.yul\":6082:6088   */\n      dup2\n        /* \"#utility.yul\":6069:6089   */\n      calldataload\n        /* \"#utility.yul\":6060:6089   */\n      swap1\n      pop\n        /* \"#utility.yul\":6098:6131   */\n      tag_275\n        /* \"#utility.yul\":6125:6130   */\n      dup2\n        /* \"#utility.yul\":6098:6131   */\n      tag_162\n      jump\t// in\n    tag_275:\n        /* \"#utility.yul\":5998:6137   */\n      swap3\n      swap2\n      pop\n      pop\n      jump\t// out\n        /* \"#utility.yul\":6143:6472   */\n    tag_21:\n        /* \"#utility.yul\":6202:6208   */\n      0x00\n        /* \"#utility.yul\":6251:6253   */\n      0x20\n        /* \"#utility.yul\":6239:6248   */\n      dup3\n        /* \"#utility.yul\":6230:6237   */\n      dup5\n        /* \"#utility.yul\":6226:6249   */\n      sub\n        /* \"#utility.yul\":6222:6254   */\n      slt\n        /* \"#utility.yul\":6219:6338   */\n      iszero\n      tag_277\n      jumpi\n        /* \"#utility.yul\":6257:6336   */\n      tag_278\n      tag_146\n      jump\t// in\n    tag_278:\n        /* \"#utility.yul\":6219:6338   */\n    tag_277:\n        /* \"#utility.yul\":6377:6378   */\n      0x00\n        /* \"#utility.yul\":6402:6455   */\n      tag_279\n        /* \"#utility.yul\":6447:6454   */\n      dup5\n        /* \"#utility.yul\":6438:6444   */\n      dup3\n        /* \"#utility.yul\":6427:6436   */\n      dup6\n        /* \"#utility.yul\":6423:6445   */\n      add\n        /* \"#utility.yul\":6402:6455   */\n      tag_163\n      jump\t// in\n    tag_279:\n        /* \"#utility.yul\":6392:6455   */\n      swap2\n      pop\n        /* \"#utility.yul\":6348:6465   */\n      pop\n        /* \"#utility.yul\":6143:6472   */\n      swap3\n      swap2\n      pop\n      pop\n      jump\t// out\n        /* \"#utility.yul\":6478:6577   */\n    tag_164:\n        /* \"#utility.yul\":6530:6536   */\n      0x00\n        /* \"#utility.yul\":6564:6569   */\n      dup2\n        /* \"#utility.yul\":6558:6570   */\n      mload\n        /* \"#utility.yul\":6548:6570   */\n      swap1\n      pop\n        /* \"#utility.yul\":6478:6577   */\n      swap2\n      swap1\n      pop\n      jump\t// out\n        /* \"#utility.yul\":6583:6752   */\n    tag_165:\n        /* \"#utility.yul\":6667:6678   */\n      0x00\n        /* \"#utility.yul\":6701:6707   */\n      dup3\n        /* \"#utility.yul\":6696:6699   */\n      dup3\n        /* \"#utility.yul\":6689:6708   */\n      mstore\n        /* \"#utility.yul\":6741:6745   */\n      0x20\n        /* \"#utility.yul\":6736:6739   */\n      dup3\n        /* \"#utility.yul\":6732:6746   */\n      add\n        /* \"#utility.yul\":6717:6746   */\n      swap1\n      pop\n        /* \"#utility.yul\":6583:6752   */\n      swap3\n      swap2\n      pop\n      pop\n      jump\t// out\n        /* \"#utility.yul\":6758:7004   */\n    tag_166:\n        /* \"#utility.yul\":6839:6840   */\n      0x00\n        /* \"#utility.yul\":6849:6962   */\n    tag_283:\n        /* \"#utility.yul\":6863:6869   */\n      dup4\n        /* \"#utility.yul\":6860:6861   */\n      dup2\n        /* \"#utility.yul\":6857:6870   */\n      lt\n        /* \"#utility.yul\":6849:6962   */\n      iszero\n      tag_285\n      jumpi\n        /* \"#utility.yul\":6948:6949   */\n      dup1\n        /* \"#utility.yul\":6943:6946   */\n      dup3\n        /* \"#utility.yul\":6939:6950   */\n      add\n        /* \"#utility.yul\":6933:6951   */\n      mload\n        /* \"#utility.yul\":6929:6930   */\n      dup2\n        /* \"#utility.yul\":6924:6927   */\n      dup5\n        /* \"#utility.yul\":6920:6931   */\n      add\n        /* \"#utility.yul\":6913:6952   */\n      mstore\n        /* \"#utility.yul\":6885:6887   */\n      0x20\n        /* \"#utility.yul\":6882:6883   */\n      dup2\n        /* \"#utility.yul\":6878:6888   */\n      add\n        /* \"#utility.yul\":6873:6888   */\n      swap1\n      pop\n        /* \"#utility.yul\":6849:6962   */\n      jump(tag_283)\n    tag_285:\n        /* \"#utility.yul\":6996:6997   */\n      0x00\n        /* \"#utility.yul\":6987:6993   */\n      dup5\n        /* \"#utility.yul\":6982:6985   */\n      dup5\n        /* \"#utility.yul\":6978:6994   */\n      add\n        /* \"#utility.yul\":6971:6998   */\n      mstore\n        /* \"#utility.yul\":6820:7004   */\n      pop\n        /* \"#utility.yul\":6758:7004   */\n      pop\n      pop\n      pop\n      jump\t// out\n        /* \"#utility.yul\":7010:7387   */\n    tag_167:\n        /* \"#utility.yul\":7098:7101   */\n      0x00\n        /* \"#utility.yul\":7126:7165   */\n      tag_287\n        /* \"#utility.yul\":7159:7164   */\n      dup3\n        /* \"#utility.yul\":7126:7165   */\n      tag_164\n      jump\t// in\n    tag_287:\n        /* \"#utility.yul\":7181:7252   */\n      tag_288\n        /* \"#utility.yul\":7245:7251   */\n      dup2\n        /* \"#utility.yul\":7240:7243   */\n      dup6\n        /* \"#utility.yul\":7181:7252   */\n      tag_165\n      jump\t// in\n    tag_288:\n        /* \"#utility.yul\":7174:7252   */\n      swap4\n      pop\n        /* \"#utility.yul\":7261:7326   */\n      tag_289\n        /* \"#utility.yul\":7319:7325   */\n      dup2\n        /* \"#utility.yul\":7314:7317   */\n      dup6\n        /* \"#utility.yul\":7307:7311   */\n      0x20\n        /* \"#utility.yul\":7300:7305   */\n      dup7\n        /* \"#utility.yul\":7296:7312   */\n      add\n        /* \"#utility.yul\":7261:7326   */\n      tag_166\n      jump\t// in\n    tag_289:\n        /* \"#utility.yul\":7351:7380   */\n      tag_290\n        /* \"#utility.yul\":7373:7379   */\n      dup2\n        /* \"#utility.yul\":7351:7380   */\n      tag_150\n      jump\t// in\n    tag_290:\n        /* \"#utility.yul\":7346:7349   */\n      dup5\n        /* \"#utility.yul\":7342:7381   */\n      add\n        /* \"#utility.yul\":7335:7381   */\n      swap2\n      pop\n        /* \"#utility.yul\":7102:7387   */\n      pop\n        /* \"#utility.yul\":7010:7387   */\n      swap3\n      swap2\n      pop\n      pop\n      jump\t// out\n        /* \"#utility.yul\":7393:7706   */\n    tag_24:\n        /* \"#utility.yul\":7506:7510   */\n      0x00\n        /* \"#utility.yul\":7544:7546   */\n      0x20\n        /* \"#utility.yul\":7533:7542   */\n      dup3\n        /* \"#utility.yul\":7529:7547   */\n      add\n        /* \"#utility.yul\":7521:7547   */\n      swap1\n      pop\n        /* \"#utility.yul\":7593:7602   */\n      dup2\n        /* \"#utility.yul\":7587:7591   */\n      dup2\n        /* \"#utility.yul\":7583:7603   */\n      sub\n        /* \"#utility.yul\":7579:7580   */\n      0x00\n        /* \"#utility.yul\":7568:7577   */\n      dup4\n        /* \"#utility.yul\":7564:7581   */\n      add\n        /* \"#utility.yul\":7557:7604   */\n      mstore\n        /* \"#utility.yul\":7621:7699   */\n      tag_292\n        /* \"#utility.yul\":7694:7698   */\n      dup2\n        /* \"#utility.yul\":7685:7691   */\n      dup5\n        /* \"#utility.yul\":7621:7699   */\n      tag_167\n      jump\t// in\n    tag_292:\n        /* \"#utility.yul\":7613:7699   */\n      swap1\n      pop\n        /* \"#utility.yul\":7393:7706   */\n      swap3\n      swap2\n      pop\n      pop\n      jump\t// out\n        /* \"#utility.yul\":7712:7826   */\n    tag_168:\n        /* \"#utility.yul\":7779:7785   */\n      0x00\n        /* \"#utility.yul\":7813:7818   */\n      dup2\n        /* \"#utility.yul\":7807:7819   */\n      mload\n        /* \"#utility.yul\":7797:7819   */\n      swap1\n      pop\n        /* \"#utility.yul\":7712:7826   */\n      swap2\n      swap1\n      pop\n      jump\t// out\n        /* \"#utility.yul\":7832:8016   */\n    tag_169:\n        /* \"#utility.yul\":7931:7942   */\n      0x00\n        /* \"#utility.yul\":7965:7971   */\n      dup3\n        /* \"#utility.yul\":7960:7963   */\n      dup3\n        /* \"#utility.yul\":7953:7972   */\n      mstore\n        /* \"#utility.yul\":8005:8009   */\n      0x20\n        /* \"#utility.yul\":8000:8003   */\n      dup3\n        /* \"#utility.yul\":7996:8010   */\n      add\n        /* \"#utility.yul\":7981:8010   */\n      swap1\n      pop\n        /* \"#utility.yul\":7832:8016   */\n      swap3\n      swap2\n      pop\n      pop\n      jump\t// out\n        /* \"#utility.yul\":8022:8154   */\n    tag_170:\n        /* \"#utility.yul\":8089:8093   */\n      0x00\n        /* \"#utility.yul\":8112:8115   */\n      dup2\n        /* \"#utility.yul\":8104:8115   */\n      swap1\n      pop\n        /* \"#utility.yul\":8142:8146   */\n      0x20\n        /* \"#utility.yul\":8137:8140   */\n      dup3\n        /* \"#utility.yul\":8133:8147   */\n      add\n        /* \"#utility.yul\":8125:8147   */\n      swap1\n      pop\n        /* \"#utility.yul\":8022:8154   */\n      swap2\n      swap1\n      pop\n      jump\t// out\n        /* \"#utility.yul\":8160:8268   */\n    tag_171:\n        /* \"#utility.yul\":8237:8261   */\n      tag_297\n        /* \"#utility.yul\":8255:8260   */\n      dup2\n        /* \"#utility.yul\":8237:8261   */\n      tag_161\n      jump\t// in\n    tag_297:\n        /* \"#utility.yul\":8232:8235   */\n      dup3\n        /* \"#utility.yul\":8225:8262   */\n      mstore\n        /* \"#utility.yul\":8160:8268   */\n      pop\n      pop\n      jump\t// out\n        /* \"#utility.yul\":8274:8453   */\n    tag_172:\n        /* \"#utility.yul\":8343:8353   */\n      0x00\n        /* \"#utility.yul\":8364:8410   */\n      tag_299\n        /* \"#utility.yul\":8406:8409   */\n      dup4\n        /* \"#utility.yul\":8398:8404   */\n      dup4\n        /* \"#utility.yul\":8364:8410   */\n      tag_171\n      jump\t// in\n    tag_299:\n        /* \"#utility.yul\":8442:8446   */\n      0x20\n        /* \"#utility.yul\":8437:8440   */\n      dup4\n        /* \"#utility.yul\":8433:8447   */\n      add\n        /* \"#utility.yul\":8419:8447   */\n      swap1\n      pop\n        /* \"#utility.yul\":8274:8453   */\n      swap3\n      swap2\n      pop\n      pop\n      jump\t// out\n        /* \"#utility.yul\":8459:8572   */\n    tag_173:\n        /* \"#utility.yul\":8529:8533   */\n      0x00\n        /* \"#utility.yul\":8561:8565   */\n      0x20\n        /* \"#utility.yul\":8556:8559   */\n      dup3\n        /* \"#utility.yul\":8552:8566   */\n      add\n        /* \"#utility.yul\":8544:8566   */\n      swap1\n      pop\n        /* \"#utility.yul\":8459:8572   */\n      swap2\n      swap1\n      pop\n      jump\t// out\n        /* \"#utility.yul\":8608:9340   */\n    tag_174:\n        /* \"#utility.yul\":8727:8730   */\n      0x00\n        /* \"#utility.yul\":8756:8810   */\n      tag_302\n        /* \"#utility.yul\":8804:8809   */\n      dup3\n        /* \"#utility.yul\":8756:8810   */\n      tag_168\n      jump\t// in\n    tag_302:\n        /* \"#utility.yul\":8826:8912   */\n      tag_303\n        /* \"#utility.yul\":8905:8911   */\n      dup2\n        /* \"#utility.yul\":8900:8903   */\n      dup6\n        /* \"#utility.yul\":8826:8912   */\n      tag_169\n      jump\t// in\n    tag_303:\n        /* \"#utility.yul\":8819:8912   */\n      swap4\n      pop\n        /* \"#utility.yul\":8936:8992   */\n      tag_304\n        /* \"#utility.yul\":8986:8991   */\n      dup4\n        /* \"#utility.yul\":8936:8992   */\n      tag_170\n      jump\t// in\n    tag_304:\n        /* \"#utility.yul\":9015:9022   */\n      dup1\n        /* \"#utility.yul\":9046:9047   */\n      0x00\n        /* \"#utility.yul\":9031:9315   */\n    tag_305:\n        /* \"#utility.yul\":9056:9062   */\n      dup4\n        /* \"#utility.yul\":9053:9054   */\n      dup2\n        /* \"#utility.yul\":9050:9063   */\n      lt\n        /* \"#utility.yul\":9031:9315   */\n      iszero\n      tag_307\n      jumpi\n        /* \"#utility.yul\":9132:9138   */\n      dup2\n        /* \"#utility.yul\":9126:9139   */\n      mload\n        /* \"#utility.yul\":9159:9222   */\n      tag_308\n        /* \"#utility.yul\":9218:9221   */\n      dup9\n        /* \"#utility.yul\":9203:9216   */\n      dup3\n        /* \"#utility.yul\":9159:9222   */\n      tag_172\n      jump\t// in\n    tag_308:\n        /* \"#utility.yul\":9152:9222   */\n      swap8\n      pop\n        /* \"#utility.yul\":9245:9305   */\n      tag_309\n        /* \"#utility.yul\":9298:9304   */\n      dup4\n        /* \"#utility.yul\":9245:9305   */\n      tag_173\n      jump\t// in\n    tag_309:\n        /* \"#utility.yul\":9235:9305   */\n      swap3\n      pop\n        /* \"#utility.yul\":9091:9315   */\n      pop\n        /* \"#utility.yul\":9078:9079   */\n      0x01\n        /* \"#utility.yul\":9075:9076   */\n      dup2\n        /* \"#utility.yul\":9071:9080   */\n      add\n        /* \"#utility.yul\":9066:9080   */\n      swap1\n      pop\n        /* \"#utility.yul\":9031:9315   */\n      jump(tag_305)\n    tag_307:\n        /* \"#utility.yul\":9035:9049   */\n      pop\n        /* \"#utility.yul\":9331:9334   */\n      dup6\n        /* \"#utility.yul\":9324:9334   */\n      swap4\n      pop\n        /* \"#utility.yul\":8732:9340   */\n      pop\n      pop\n      pop\n        /* \"#utility.yul\":8608:9340   */\n      swap3\n      swap2\n      pop\n      pop\n      jump\t// out\n        /* \"#utility.yul\":9346:9719   */\n    tag_29:\n        /* \"#utility.yul\":9489:9493   */\n      0x00\n        /* \"#utility.yul\":9527:9529   */\n      0x20\n        /* \"#utility.yul\":9516:9525   */\n      dup3\n        /* \"#utility.yul\":9512:9530   */\n      add\n        /* \"#utility.yul\":9504:9530   */\n      swap1\n      pop\n        /* \"#utility.yul\":9576:9585   */\n      dup2\n        /* \"#utility.yul\":9570:9574   */\n      dup2\n        /* \"#utility.yul\":9566:9586   */\n      sub\n        /* \"#utility.yul\":9562:9563   */\n      0x00\n        /* \"#utility.yul\":9551:9560   */\n      dup4\n        /* \"#utility.yul\":9547:9564   */\n      add\n        /* \"#utility.yul\":9540:9587   */\n      mstore\n        /* \"#utility.yul\":9604:9712   */\n      tag_311\n        /* \"#utility.yul\":9707:9711   */\n      dup2\n        /* \"#utility.yul\":9698:9704   */\n      dup5\n        /* \"#utility.yul\":9604:9712   */\n      tag_174\n      jump\t// in\n    tag_311:\n        /* \"#utility.yul\":9596:9712   */\n      swap1\n      pop\n        /* \"#utility.yul\":9346:9719   */\n      swap3\n      swap2\n      pop\n      pop\n      jump\t// out\n        /* \"#utility.yul\":9725:10884   */\n    tag_32:\n        /* \"#utility.yul\":9832:9838   */\n      0x00\n        /* \"#utility.yul\":9840:9846   */\n      dup1\n        /* \"#utility.yul\":9848:9854   */\n      0x00\n        /* \"#utility.yul\":9897:9899   */\n      0x60\n        /* \"#utility.yul\":9885:9894   */\n      dup5\n        /* \"#utility.yul\":9876:9883   */\n      dup7\n        /* \"#utility.yul\":9872:9895   */\n      sub\n        /* \"#utility.yul\":9868:9900   */\n      slt\n        /* \"#utility.yul\":9865:9984   */\n      iszero\n      tag_313\n      jumpi\n        /* \"#utility.yul\":9903:9982   */\n      tag_314\n      tag_146\n      jump\t// in\n    tag_314:\n        /* \"#utility.yul\":9865:9984   */\n    tag_313:\n        /* \"#utility.yul\":10051:10052   */\n      0x00\n        /* \"#utility.yul\":10040:10049   */\n      dup5\n        /* \"#utility.yul\":10036:10053   */\n      add\n        /* \"#utility.yul\":10023:10054   */\n      calldataload\n        /* \"#utility.yul\":10081:10099   */\n      0xffffffffffffffff\n        /* \"#utility.yul\":10073:10079   */\n      dup2\n        /* \"#utility.yul\":10070:10100   */\n      gt\n        /* \"#utility.yul\":10067:10184   */\n      iszero\n      tag_315\n      jumpi\n        /* \"#utility.yul\":10103:10182   */\n      tag_316\n      tag_147\n      jump\t// in\n    tag_316:\n        /* \"#utility.yul\":10067:10184   */\n    tag_315:\n        /* \"#utility.yul\":10208:10271   */\n      tag_317\n        /* \"#utility.yul\":10263:10270   */\n      dup7\n        /* \"#utility.yul\":10254:10260   */\n      dup3\n        /* \"#utility.yul\":10243:10252   */\n      dup8\n        /* \"#utility.yul\":10239:10261   */\n      add\n        /* \"#utility.yul\":10208:10271   */\n      tag_156\n      jump\t// in\n    tag_317:\n        /* \"#utility.yul\":10198:10271   */\n      swap4\n      pop\n        /* \"#utility.yul\":9994:10281   */\n      pop\n        /* \"#utility.yul\":10348:10350   */\n      0x20\n        /* \"#utility.yul\":10337:10346   */\n      dup5\n        /* \"#utility.yul\":10333:10351   */\n      add\n        /* \"#utility.yul\":10320:10352   */\n      calldataload\n        /* \"#utility.yul\":10379:10397   */\n      0xffffffffffffffff\n        /* \"#utility.yul\":10371:10377   */\n      dup2\n        /* \"#utility.yul\":10368:10398   */\n      gt\n        /* \"#utility.yul\":10365:10482   */\n      iszero\n      tag_318\n      jumpi\n        /* \"#utility.yul\":10401:10480   */\n      tag_319\n      tag_147\n      jump\t// in\n    tag_319:\n        /* \"#utility.yul\":10365:10482   */\n    tag_318:\n        /* \"#utility.yul\":10506:10569   */\n      tag_320\n        /* \"#utility.yul\":10561:10568   */\n      dup7\n        /* \"#utility.yul\":10552:10558   */\n      dup3\n        /* \"#utility.yul\":10541:10550   */\n      dup8\n        /* \"#utility.yul\":10537:10559   */\n      add\n        /* \"#utility.yul\":10506:10569   */\n      tag_156\n      jump\t// in\n    tag_320:\n        /* \"#utility.yul\":10496:10569   */\n      swap3\n      pop\n        /* \"#utility.yul\":10291:10579   */\n      pop\n        /* \"#utility.yul\":10646:10648   */\n      0x40\n        /* \"#utility.yul\":10635:10644   */\n      dup5\n        /* \"#utility.yul\":10631:10649   */\n      add\n        /* \"#utility.yul\":10618:10650   */\n      calldataload\n        /* \"#utility.yul\":10677:10695   */\n      0xffffffffffffffff\n        /* \"#utility.yul\":10669:10675   */\n      dup2\n        /* \"#utility.yul\":10666:10696   */\n      gt\n        /* \"#utility.yul\":10663:10780   */\n      iszero\n      tag_321\n      jumpi\n        /* \"#utility.yul\":10699:10778   */\n      tag_322\n      tag_147\n      jump\t// in\n    tag_322:\n        /* \"#utility.yul\":10663:10780   */\n    tag_321:\n        /* \"#utility.yul\":10804:10867   */\n      tag_323\n        /* \"#utility.yul\":10859:10866   */\n      dup7\n        /* \"#utility.yul\":10850:10856   */\n      dup3\n        /* \"#utility.yul\":10839:10848   */\n      dup8\n        /* \"#utility.yul\":10835:10857   */\n      add\n        /* \"#utility.yul\":10804:10867   */\n      tag_156\n      jump\t// in\n    tag_323:\n        /* \"#utility.yul\":10794:10867   */\n      swap2\n      pop\n        /* \"#utility.yul\":10589:10877   */\n      pop\n        /* \"#utility.yul\":9725:10884   */\n      swap3\n      pop\n      swap3\n      pop\n      swap3\n      jump\t// out\n        /* \"#utility.yul\":10890:11008   */\n    tag_175:\n        /* \"#utility.yul\":10977:11001   */\n      tag_325\n        /* \"#utility.yul\":10995:11000   */\n      dup2\n        /* \"#utility.yul\":10977:11001   */\n      tag_161\n      jump\t// in\n    tag_325:\n        /* \"#utility.yul\":10972:10975   */\n      dup3\n        /* \"#utility.yul\":10965:11002   */\n      mstore\n        /* \"#utility.yul\":10890:11008   */\n      pop\n      pop\n      jump\t// out\n        /* \"#utility.yul\":11014:11236   */\n    tag_37:\n        /* \"#utility.yul\":11107:11111   */\n      0x00\n        /* \"#utility.yul\":11145:11147   */\n      0x20\n        /* \"#utility.yul\":11134:11143   */\n      dup3\n        /* \"#utility.yul\":11130:11148   */\n      add\n        /* \"#utility.yul\":11122:11148   */\n      swap1\n      pop\n        /* \"#utility.yul\":11158:11229   */\n      tag_327\n        /* \"#utility.yul\":11226:11227   */\n      0x00\n        /* \"#utility.yul\":11215:11224   */\n      dup4\n        /* \"#utility.yul\":11211:11228   */\n      add\n        /* \"#utility.yul\":11202:11208   */\n      dup5\n        /* \"#utility.yul\":11158:11229   */\n      tag_175\n      jump\t// in\n    tag_327:\n        /* \"#utility.yul\":11014:11236   */\n      swap3\n      swap2\n      pop\n      pop\n      jump\t// out\n        /* \"#utility.yul\":11242:11366   */\n    tag_176:\n        /* \"#utility.yul\":11319:11325   */\n      0x00\n        /* \"#utility.yul\":11353:11358   */\n      dup2\n        /* \"#utility.yul\":11347:11359   */\n      mload\n        /* \"#utility.yul\":11337:11359   */\n      swap1\n      pop\n        /* \"#utility.yul\":11242:11366   */\n      swap2\n      swap1\n      pop\n      jump\t// out\n        /* \"#utility.yul\":11372:11566   */\n    tag_177:\n        /* \"#utility.yul\":11481:11492   */\n      0x00\n        /* \"#utility.yul\":11515:11521   */\n      dup3\n        /* \"#utility.yul\":11510:11513   */\n      dup3\n        /* \"#utility.yul\":11503:11522   */\n      mstore\n        /* \"#utility.yul\":11555:11559   */\n      0x20\n        /* \"#utility.yul\":11550:11553   */\n      dup3\n        /* \"#utility.yul\":11546:11560   */\n      add\n        /* \"#utility.yul\":11531:11560   */\n      swap1\n      pop\n        /* \"#utility.yul\":11372:11566   */\n      swap3\n      swap2\n      pop\n      pop\n      jump\t// out\n        /* \"#utility.yul\":11572:11714   */\n    tag_178:\n        /* \"#utility.yul\":11649:11653   */\n      0x00\n        /* \"#utility.yul\":11672:11675   */\n      dup2\n        /* \"#utility.yul\":11664:11675   */\n      swap1\n      pop\n        /* \"#utility.yul\":11702:11706   */\n      0x20\n        /* \"#utility.yul\":11697:11700   */\n      dup3\n        /* \"#utility.yul\":11693:11707   */\n      add\n        /* \"#utility.yul\":11685:11707   */\n      swap1\n      pop\n        /* \"#utility.yul\":11572:11714   */\n      swap2\n      swap1\n      pop\n      jump\t// out\n        /* \"#utility.yul\":11720:11879   */\n    tag_179:\n        /* \"#utility.yul\":11794:11805   */\n      0x00\n        /* \"#utility.yul\":11828:11834   */\n      dup3\n        /* \"#utility.yul\":11823:11826   */\n      dup3\n        /* \"#utility.yul\":11816:11835   */\n      mstore\n        /* \"#utility.yul\":11868:11872   */\n      0x20\n        /* \"#utility.yul\":11863:11866   */\n      dup3\n        /* \"#utility.yul\":11859:11873   */\n      add\n        /* \"#utility.yul\":11844:11873   */\n      swap1\n      pop\n        /* \"#utility.yul\":11720:11879   */\n      swap3\n      swap2\n      pop\n      pop\n      jump\t// out\n        /* \"#utility.yul\":11885:12242   */\n    tag_180:\n        /* \"#utility.yul\":11963:11966   */\n      0x00\n        /* \"#utility.yul\":11991:12030   */\n      tag_333\n        /* \"#utility.yul\":12024:12029   */\n      dup3\n        /* \"#utility.yul\":11991:12030   */\n      tag_164\n      jump\t// in\n    tag_333:\n        /* \"#utility.yul\":12046:12107   */\n      tag_334\n        /* \"#utility.yul\":12100:12106   */\n      dup2\n        /* \"#utility.yul\":12095:12098   */\n      dup6\n        /* \"#utility.yul\":12046:12107   */\n      tag_179\n      jump\t// in\n    tag_334:\n        /* \"#utility.yul\":12039:12107   */\n      swap4\n      pop\n        /* \"#utility.yul\":12116:12181   */\n      tag_335\n        /* \"#utility.yul\":12174:12180   */\n      dup2\n        /* \"#utility.yul\":12169:12172   */\n      dup6\n        /* \"#utility.yul\":12162:12166   */\n      0x20\n        /* \"#utility.yul\":12155:12160   */\n      dup7\n        /* \"#utility.yul\":12151:12167   */\n      add\n        /* \"#utility.yul\":12116:12181   */\n      tag_166\n      jump\t// in\n    tag_335:\n        /* \"#utility.yul\":12206:12235   */\n      tag_336\n        /* \"#utility.yul\":12228:12234   */\n      dup2\n        /* \"#utility.yul\":12206:12235   */\n      tag_150\n      jump\t// in\n    tag_336:\n        /* \"#utility.yul\":12201:12204   */\n      dup5\n        /* \"#utility.yul\":12197:12236   */\n      add\n        /* \"#utility.yul\":12190:12236   */\n      swap2\n      pop\n        /* \"#utility.yul\":11967:12242   */\n      pop\n        /* \"#utility.yul\":11885:12242   */\n      swap3\n      swap2\n      pop\n      pop\n      jump\t// out\n        /* \"#utility.yul\":12248:12444   */\n    tag_181:\n        /* \"#utility.yul\":12337:12347   */\n      0x00\n        /* \"#utility.yul\":12372:12438   */\n      tag_338\n        /* \"#utility.yul\":12434:12437   */\n      dup4\n        /* \"#utility.yul\":12426:12432   */\n      dup4\n        /* \"#utility.yul\":12372:12438   */\n      tag_180\n      jump\t// in\n    tag_338:\n        /* \"#utility.yul\":12358:12438   */\n      swap1\n      pop\n        /* \"#utility.yul\":12248:12444   */\n      swap3\n      swap2\n      pop\n      pop\n      jump\t// out\n        /* \"#utility.yul\":12450:12573   */\n    tag_182:\n        /* \"#utility.yul\":12530:12534   */\n      0x00\n        /* \"#utility.yul\":12562:12566   */\n      0x20\n        /* \"#utility.yul\":12557:12560   */\n      dup3\n        /* \"#utility.yul\":12553:12567   */\n      add\n        /* \"#utility.yul\":12545:12567   */\n      swap1\n      pop\n        /* \"#utility.yul\":12450:12573   */\n      swap2\n      swap1\n      pop\n      jump\t// out\n        /* \"#utility.yul\":12607:13598   */\n    tag_183:\n        /* \"#utility.yul\":12746:12749   */\n      0x00\n        /* \"#utility.yul\":12775:12839   */\n      tag_341\n        /* \"#utility.yul\":12833:12838   */\n      dup3\n        /* \"#utility.yul\":12775:12839   */\n      tag_176\n      jump\t// in\n    tag_341:\n        /* \"#utility.yul\":12855:12951   */\n      tag_342\n        /* \"#utility.yul\":12944:12950   */\n      dup2\n        /* \"#utility.yul\":12939:12942   */\n      dup6\n        /* \"#utility.yul\":12855:12951   */\n      tag_177\n      jump\t// in\n    tag_342:\n        /* \"#utility.yul\":12848:12951   */\n      swap4\n      pop\n        /* \"#utility.yul\":12977:12980   */\n      dup4\n        /* \"#utility.yul\":13022:13026   */\n      0x20\n        /* \"#utility.yul\":13014:13020   */\n      dup3\n        /* \"#utility.yul\":13010:13027   */\n      mul\n        /* \"#utility.yul\":13005:13008   */\n      dup6\n        /* \"#utility.yul\":13001:13028   */\n      add\n        /* \"#utility.yul\":13052:13118   */\n      tag_343\n        /* \"#utility.yul\":13112:13117   */\n      dup6\n        /* \"#utility.yul\":13052:13118   */\n      tag_178\n      jump\t// in\n    tag_343:\n        /* \"#utility.yul\":13141:13148   */\n      dup1\n        /* \"#utility.yul\":13172:13173   */\n      0x00\n        /* \"#utility.yul\":13157:13553   */\n    tag_344:\n        /* \"#utility.yul\":13182:13188   */\n      dup6\n        /* \"#utility.yul\":13179:13180   */\n      dup2\n        /* \"#utility.yul\":13176:13189   */\n      lt\n        /* \"#utility.yul\":13157:13553   */\n      iszero\n      tag_346\n      jumpi\n        /* \"#utility.yul\":13253:13262   */\n      dup5\n        /* \"#utility.yul\":13247:13251   */\n      dup5\n        /* \"#utility.yul\":13243:13263   */\n      sub\n        /* \"#utility.yul\":13238:13241   */\n      dup10\n        /* \"#utility.yul\":13231:13264   */\n      mstore\n        /* \"#utility.yul\":13304:13310   */\n      dup2\n        /* \"#utility.yul\":13298:13311   */\n      mload\n        /* \"#utility.yul\":13332:13416   */\n      tag_347\n        /* \"#utility.yul\":13411:13415   */\n      dup6\n        /* \"#utility.yul\":13396:13409   */\n      dup3\n        /* \"#utility.yul\":13332:13416   */\n      tag_181\n      jump\t// in\n    tag_347:\n        /* \"#utility.yul\":13324:13416   */\n      swap5\n      pop\n        /* \"#utility.yul\":13439:13509   */\n      tag_348\n        /* \"#utility.yul\":13502:13508   */\n      dup4\n        /* \"#utility.yul\":13439:13509   */\n      tag_182\n      jump\t// in\n    tag_348:\n        /* \"#utility.yul\":13429:13509   */\n      swap3\n      pop\n        /* \"#utility.yul\":13538:13542   */\n      0x20\n        /* \"#utility.yul\":13533:13536   */\n      dup11\n        /* \"#utility.yul\":13529:13543   */\n      add\n        /* \"#utility.yul\":13522:13543   */\n      swap10\n      pop\n        /* \"#utility.yul\":13217:13553   */\n      pop\n        /* \"#utility.yul\":13204:13205   */\n      0x01\n        /* \"#utility.yul\":13201:13202   */\n      dup2\n        /* \"#utility.yul\":13197:13206   */\n      add\n        /* \"#utility.yul\":13192:13206   */\n      swap1\n      pop\n        /* \"#utility.yul\":13157:13553   */\n      jump(tag_344)\n    tag_346:\n        /* \"#utility.yul\":13161:13175   */\n      pop\n        /* \"#utility.yul\":13569:13573   */\n      dup3\n        /* \"#utility.yul\":13562:13573   */\n      swap8\n      pop\n        /* \"#utility.yul\":13589:13592   */\n      dup8\n        /* \"#utility.yul\":13582:13592   */\n      swap6\n      pop\n        /* \"#utility.yul\":12751:13598   */\n      pop\n      pop\n      pop\n      pop\n      pop\n        /* \"#utility.yul\":12607:13598   */\n      swap3\n      swap2\n      pop\n      pop\n      jump\t// out\n        /* \"#utility.yul\":13604:14318   */\n    tag_42:\n        /* \"#utility.yul\":13865:13869   */\n      0x00\n        /* \"#utility.yul\":13903:13905   */\n      0x40\n        /* \"#utility.yul\":13892:13901   */\n      dup3\n        /* \"#utility.yul\":13888:13906   */\n      add\n        /* \"#utility.yul\":13880:13906   */\n      swap1\n      pop\n        /* \"#utility.yul\":13952:13961   */\n      dup2\n        /* \"#utility.yul\":13946:13950   */\n      dup2\n        /* \"#utility.yul\":13942:13962   */\n      sub\n        /* \"#utility.yul\":13938:13939   */\n      0x00\n        /* \"#utility.yul\":13927:13936   */\n      dup4\n        /* \"#utility.yul\":13923:13940   */\n      add\n        /* \"#utility.yul\":13916:13963   */\n      mstore\n        /* \"#utility.yul\":13980:14108   */\n      tag_350\n        /* \"#utility.yul\":14103:14107   */\n      dup2\n        /* \"#utility.yul\":14094:14100   */\n      dup6\n        /* \"#utility.yul\":13980:14108   */\n      tag_183\n      jump\t// in\n    tag_350:\n        /* \"#utility.yul\":13972:14108   */\n      swap1\n      pop\n        /* \"#utility.yul\":14155:14164   */\n      dup2\n        /* \"#utility.yul\":14149:14153   */\n      dup2\n        /* \"#utility.yul\":14145:14165   */\n      sub\n        /* \"#utility.yul\":14140:14142   */\n      0x20\n        /* \"#utility.yul\":14129:14138   */\n      dup4\n        /* \"#utility.yul\":14125:14143   */\n      add\n        /* \"#utility.yul\":14118:14166   */\n      mstore\n        /* \"#utility.yul\":14183:14311   */\n      tag_351\n        /* \"#utility.yul\":14306:14310   */\n      dup2\n        /* \"#utility.yul\":14297:14303   */\n      dup5\n        /* \"#utility.yul\":14183:14311   */\n      tag_183\n      jump\t// in\n    tag_351:\n        /* \"#utility.yul\":14175:14311   */\n      swap1\n      pop\n        /* \"#utility.yul\":13604:14318   */\n      swap4\n      swap3\n      pop\n      pop\n      pop\n      jump\t// out\n        /* \"#utility.yul\":14324:14472   */\n    tag_184:\n        /* \"#utility.yul\":14426:14437   */\n      0x00\n        /* \"#utility.yul\":14463:14466   */\n      dup2\n        /* \"#utility.yul\":14448:14466   */\n      swap1\n      pop\n        /* \"#utility.yul\":14324:14472   */\n      swap3\n      swap2\n      pop\n      pop\n      jump\t// out\n        /* \"#utility.yul\":14478:14868   */\n    tag_185:\n        /* \"#utility.yul\":14584:14587   */\n      0x00\n        /* \"#utility.yul\":14612:14651   */\n      tag_354\n        /* \"#utility.yul\":14645:14650   */\n      dup3\n        /* \"#utility.yul\":14612:14651   */\n      tag_164\n      jump\t// in\n    tag_354:\n        /* \"#utility.yul\":14667:14756   */\n      tag_355\n        /* \"#utility.yul\":14749:14755   */\n      dup2\n        /* \"#utility.yul\":14744:14747   */\n      dup6\n        /* \"#utility.yul\":14667:14756   */\n      tag_184\n      jump\t// in\n    tag_355:\n        /* \"#utility.yul\":14660:14756   */\n      swap4\n      pop\n        /* \"#utility.yul\":14765:14830   */\n      tag_356\n        /* \"#utility.yul\":14823:14829   */\n      dup2\n        /* \"#utility.yul\":14818:14821   */\n      dup6\n        /* \"#utility.yul\":14811:14815   */\n      0x20\n        /* \"#utility.yul\":14804:14809   */\n      dup7\n        /* \"#utility.yul\":14800:14816   */\n      add\n        /* \"#utility.yul\":14765:14830   */\n      tag_166\n      jump\t// in\n    tag_356:\n        /* \"#utility.yul\":14855:14861   */\n      dup1\n        /* \"#utility.yul\":14850:14853   */\n      dup5\n        /* \"#utility.yul\":14846:14862   */\n      add\n        /* \"#utility.yul\":14839:14862   */\n      swap2\n      pop\n        /* \"#utility.yul\":14588:14868   */\n      pop\n        /* \"#utility.yul\":14478:14868   */\n      swap3\n      swap2\n      pop\n      pop\n      jump\t// out\n        /* \"#utility.yul\":14874:15149   */\n    tag_45:\n        /* \"#utility.yul\":15006:15009   */\n      0x00\n        /* \"#utility.yul\":15028:15123   */\n      tag_358\n        /* \"#utility.yul\":15119:15122   */\n      dup3\n        /* \"#utility.yul\":15110:15116   */\n      dup5\n        /* \"#utility.yul\":15028:15123   */\n      tag_185\n      jump\t// in\n    tag_358:\n        /* \"#utility.yul\":15021:15123   */\n      swap2\n      pop\n        /* \"#utility.yul\":15140:15143   */\n      dup2\n        /* \"#utility.yul\":15133:15143   */\n      swap1\n      pop\n        /* \"#utility.yul\":14874:15149   */\n      swap3\n      swap2\n      pop\n      pop\n      jump\t// out\n        /* \"#utility.yul\":15155:15335   */\n    tag_186:\n        /* \"#utility.yul\":15203:15280   */\n      0x4e487b7100000000000000000000000000000000000000000000000000000000\n        /* \"#utility.yul\":15200:15201   */\n      0x00\n        /* \"#utility.yul\":15193:15281   */\n      mstore\n        /* \"#utility.yul\":15300:15304   */\n      0x22\n        /* \"#utility.yul\":15297:15298   */\n      0x04\n        /* \"#utility.yul\":15290:15305   */\n      mstore\n        /* \"#utility.yul\":15324:15328   */\n      0x24\n        /* \"#utility.yul\":15321:15322   */\n      0x00\n        /* \"#utility.yul\":15314:15329   */\n      revert\n        /* \"#utility.yul\":15341:15661   */\n    tag_68:\n        /* \"#utility.yul\":15385:15391   */\n      0x00\n        /* \"#utility.yul\":15422:15423   */\n      0x02\n        /* \"#utility.yul\":15416:15420   */\n      dup3\n        /* \"#utility.yul\":15412:15424   */\n      div\n        /* \"#utility.yul\":15402:15424   */\n      swap1\n      pop\n        /* \"#utility.yul\":15469:15470   */\n      0x01\n        /* \"#utility.yul\":15463:15467   */\n      dup3\n        /* \"#utility.yul\":15459:15471   */\n      and\n        /* \"#utility.yul\":15490:15508   */\n      dup1\n        /* \"#utility.yul\":15480:15561   */\n      tag_361\n      jumpi\n        /* \"#utility.yul\":15546:15550   */\n      0x7f\n        /* \"#utility.yul\":15538:15544   */\n      dup3\n        /* \"#utility.yul\":15534:15551   */\n      and\n        /* \"#utility.yul\":15524:15551   */\n      swap2\n      pop\n        /* \"#utility.yul\":15480:15561   */\n    tag_361:\n        /* \"#utility.yul\":15608:15610   */\n      0x20\n        /* \"#utility.yul\":15600:15606   */\n      dup3\n        /* \"#utility.yul\":15597:15611   */\n      lt\n        /* \"#utility.yul\":15577:15595   */\n      dup2\n        /* \"#utility.yul\":15574:15612   */\n      sub\n        /* \"#utility.yul\":15571:15655   */\n      tag_362\n      jumpi\n        /* \"#utility.yul\":15627:15645   */\n      tag_363\n      tag_186\n      jump\t// in\n    tag_363:\n        /* \"#utility.yul\":15571:15655   */\n    tag_362:\n        /* \"#utility.yul\":15392:15661   */\n      pop\n        /* \"#utility.yul\":15341:15661   */\n      swap2\n      swap1\n      pop\n      jump\t// out\n        /* \"#utility.yul\":15667:15808   */\n    tag_187:\n        /* \"#utility.yul\":15716:15720   */\n      0x00\n        /* \"#utility.yul\":15739:15742   */\n      dup2\n        /* \"#utility.yul\":15731:15742   */\n      swap1\n      pop\n        /* \"#utility.yul\":15762:15765   */\n      dup2\n        /* \"#utility.yul\":15759:15760   */\n      0x00\n        /* \"#utility.yul\":15752:15766   */\n      mstore\n        /* \"#utility.yul\":15796:15800   */\n      0x20\n        /* \"#utility.yul\":15793:15794   */\n      0x00\n        /* \"#utility.yul\":15783:15801   */\n      keccak256\n        /* \"#utility.yul\":15775:15801   */\n      swap1\n      pop\n        /* \"#utility.yul\":15667:15808   */\n      swap2\n      swap1\n      pop\n      jump\t// out\n        /* \"#utility.yul\":15814:15907   */\n    tag_188:\n        /* \"#utility.yul\":15851:15857   */\n      0x00\n        /* \"#utility.yul\":15898:15900   */\n      0x20\n        /* \"#utility.yul\":15893:15895   */\n      0x1f\n        /* \"#utility.yul\":15886:15891   */\n      dup4\n        /* \"#utility.yul\":15882:15896   */\n      add\n        /* \"#utility.yul\":15878:15901   */\n      div\n        /* \"#utility.yul\":15868:15901   */\n      swap1\n      pop\n        /* \"#utility.yul\":15814:15907   */\n      swap2\n      swap1\n      pop\n      jump\t// out\n        /* \"#utility.yul\":15913:16020   */\n    tag_189:\n        /* \"#utility.yul\":15957:15965   */\n      0x00\n        /* \"#utility.yul\":16007:16012   */\n      dup3\n        /* \"#utility.yul\":16001:16005   */\n      dup3\n        /* \"#utility.yul\":15997:16013   */\n      shl\n        /* \"#utility.yul\":15976:16013   */\n      swap1\n      pop\n        /* \"#utility.yul\":15913:16020   */\n      swap3\n      swap2\n      pop\n      pop\n      jump\t// out\n        /* \"#utility.yul\":16026:16419   */\n    tag_190:\n        /* \"#utility.yul\":16095:16101   */\n      0x00\n        /* \"#utility.yul\":16145:16146   */\n      0x08\n        /* \"#utility.yul\":16133:16143   */\n      dup4\n        /* \"#utility.yul\":16129:16147   */\n      mul\n        /* \"#utility.yul\":16168:16265   */\n      tag_368\n        /* \"#utility.yul\":16198:16264   */\n      0xffffffffffffffffffffffffffffffffffffffffffffffffffffffffffffffff\n        /* \"#utility.yul\":16187:16196   */\n      dup3\n        /* \"#utility.yul\":16168:16265   */\n      tag_189\n      jump\t// in\n    tag_368:\n        /* \"#utility.yul\":16286:16325   */\n      tag_369\n        /* \"#utility.yul\":16316:16324   */\n      dup7\n        /* \"#utility.yul\":16305:16314   */\n      dup4\n        /* \"#utility.yul\":16286:16325   */\n      tag_189\n      jump\t// in\n    tag_369:\n        /* \"#utility.yul\":16274:16325   */\n      swap6\n      pop\n        /* \"#utility.yul\":16358:16362   */\n      dup1\n        /* \"#utility.yul\":16354:16363   */\n      not\n        /* \"#utility.yul\":16347:16352   */\n      dup5\n        /* \"#utility.yul\":16343:16364   */\n      and\n        /* \"#utility.yul\":16334:16364   */\n      swap4\n      pop\n        /* \"#utility.yul\":16407:16411   */\n      dup1\n        /* \"#utility.yul\":16397:16405   */\n      dup7\n        /* \"#utility.yul\":16393:16412   */\n      and\n        /* \"#utility.yul\":16386:16391   */\n      dup5\n        /* \"#utility.yul\":16383:16413   */\n      or\n        /* \"#utility.yul\":16373:16413   */\n      swap3\n      pop\n        /* \"#utility.yul\":16102:16419   */\n      pop\n      pop\n        /* \"#utility.yul\":16026:16419   */\n      swap4\n      swap3\n      pop\n      pop\n      pop\n      jump\t// out\n        /* \"#utility.yul\":16425:16485   */\n    tag_191:\n        /* \"#utility.yul\":16453:16456   */\n      0x00\n        /* \"#utility.yul\":16474:16479   */\n      dup2\n        /* \"#utility.yul\":16467:16479   */\n      swap1\n      pop\n        /* \"#utility.yul\":16425:16485   */\n      swap2\n      swap1\n      pop\n      jump\t// out\n        /* \"#utility.yul\":16491:16633   */\n    tag_192:\n        /* \"#utility.yul\":16541:16550   */\n      0x00\n        /* \"#utility.yul\":16574:16627   */\n      tag_372\n        /* \"#utility.yul\":16592:16626   */\n      tag_373\n        /* \"#utility.yul\":16601:16625   */\n      tag_374\n        /* \"#utility.yul\":16619:16624   */\n      dup5\n        /* \"#utility.yul\":16601:16625   */\n      tag_161\n      jump\t// in\n    tag_374:\n        /* \"#utility.yul\":16592:16626   */\n      tag_191\n      jump\t// in\n    tag_373:\n        /* \"#utility.yul\":16574:16627   */\n      tag_161\n      jump\t// in\n    tag_372:\n        /* \"#utility.yul\":16561:16627   */\n      swap1\n      pop\n        /* \"#utility.yul\":16491:16633   */\n      swap2\n      swap1\n      pop\n      jump\t// out\n        /* \"#utility.yul\":16639:16714   */\n    tag_193:\n        /* \"#utility.yul\":16682:16685   */\n      0x00\n        /* \"#utility.yul\":16703:16708   */\n      dup2\n        /* \"#utility.yul\":16696:16708   */\n      swap1\n      pop\n        /* \"#utility.yul\":16639:16714   */\n      swap2\n      swap1\n      pop\n      jump\t// out\n        /* \"#utility.yul\":16720:16989   */\n    tag_194:\n        /* \"#utility.yul\":16830:16869   */\n      tag_377\n        /* \"#utility.yul\":16861:16868   */\n      dup4\n        /* \"#utility.yul\":16830:16869   */\n      tag_192\n      jump\t// in\n    tag_377:\n        /* \"#utility.yul\":16891:16982   */\n      tag_378\n        /* \"#utility.yul\":16940:16981   */\n      tag_379\n        /* \"#utility.yul\":16964:16980   */\n      dup3\n        /* \"#utility.yul\":16940:16981   */\n      tag_193\n      jump\t// in\n    tag_379:\n        /* \"#utility.yul\":16932:16938   */\n      dup5\n        /* \"#utility.yul\":16925:16929   */\n      dup5\n        /* \"#utility.yul\":16919:16930   */\n      sload\n        /* \"#utility.yul\":16891:16982   */\n      tag_190\n      jump\t// in\n    tag_378:\n        /* \"#utility.yul\":16885:16889   */\n      dup3\n        /* \"#utility.yul\":16878:16983   */\n      sstore\n        /* \"#utility.yul\":16796:16989   */\n      pop\n        /* \"#utility.yul\":16720:16989   */\n      pop\n      pop\n      pop\n      jump\t// out\n        /* \"#utility.yul\":16995:17068   */\n    tag_195:\n        /* \"#utility.yul\":17040:17043   */\n      0x00\n        /* \"#utility.yul\":16995:17068   */\n      swap1\n      jump\t// out\n        /* \"#utility.yul\":17074:17263   */\n    tag_196:\n        /* \"#utility.yul\":17151:17183   */\n      tag_382\n      tag_195\n      jump\t// in\n    tag_382:\n        /* \"#utility.yul\":17192:17257   */\n      tag_383\n        /* \"#utility.yul\":17250:17256   */\n      dup2\n        /* \"#utility.yul\":17242:17248   */\n      dup5\n        /* \"#utility.yul\":17236:17240   */\n      dup5\n        /* \"#utility.yul\":17192:17257   */\n      tag_194\n      jump\t// in\n    tag_383:\n        /* \"#utility.yul\":17127:17263   */\n      pop\n        /* \"#utility.yul\":17074:17263   */\n      pop\n      pop\n      jump\t// out\n        /* \"#utility.yul\":17269:17455   */\n    tag_197:\n        /* \"#utility.yul\":17329:17449   */\n    tag_385:\n        /* \"#utility.yul\":17346:17349   */\n      dup2\n        /* \"#utility.yul\":17339:17344   */\n      dup2\n        /* \"#utility.yul\":17336:17350   */\n      lt\n        /* \"#utility.yul\":17329:17449   */\n      iszero\n      tag_387\n      jumpi\n        /* \"#utility.yul\":17400:17439   */\n      tag_388\n        /* \"#utility.yul\":17437:17438   */\n      0x00\n        /* \"#utility.yul\":17430:17435   */\n      dup3\n        /* \"#utility.yul\":17400:17439   */\n      tag_196\n      jump\t// in\n    tag_388:\n        /* \"#utility.yul\":17373:17374   */\n      0x01\n        /* \"#utility.yul\":17366:17371   */\n      dup2\n        /* \"#utility.yul\":17362:17375   */\n      add\n        /* \"#utility.yul\":17353:17375   */\n      swap1\n      pop\n        /* \"#utility.yul\":17329:17449   */\n      jump(tag_385)\n    tag_387:\n        /* \"#utility.yul\":17269:17455   */\n      pop\n      pop\n      jump\t// out\n        /* \"#utility.yul\":17461:18004   */\n    tag_198:\n        /* \"#utility.yul\":17562:17564   */\n      0x1f\n        /* \"#utility.yul\":17557:17560   */\n      dup3\n        /* \"#utility.yul\":17554:17565   */\n      gt\n        /* \"#utility.yul\":17551:17997   */\n      iszero\n      tag_390\n      jumpi\n        /* \"#utility.yul\":17596:17634   */\n      tag_391\n        /* \"#utility.yul\":17628:17633   */\n      dup2\n        /* \"#utility.yul\":17596:17634   */\n      tag_187\n      jump\t// in\n    tag_391:\n        /* \"#utility.yul\":17680:17709   */\n      tag_392\n        /* \"#utility.yul\":17698:17708   */\n      dup5\n        /* \"#utility.yul\":17680:17709   */\n      tag_188\n      jump\t// in\n    tag_392:\n        /* \"#utility.yul\":17670:17678   */\n      dup2\n        /* \"#utility.yul\":17666:17710   */\n      add\n        /* \"#utility.yul\":17863:17865   */\n      0x20\n        /* \"#utility.yul\":17851:17861   */\n      dup6\n        /* \"#utility.yul\":17848:17866   */\n      lt\n        /* \"#utility.yul\":17845:17894   */\n      iszero\n      tag_393\n      jumpi\n        /* \"#utility.yul\":17884:17892   */\n      dup2\n        /* \"#utility.yul\":17869:17892   */\n      swap1\n      pop\n        /* \"#utility.yul\":17845:17894   */\n    tag_393:\n        /* \"#utility.yul\":17907:17987   */\n      tag_394\n        /* \"#utility.yul\":17963:17985   */\n      tag_395\n        /* \"#utility.yul\":17981:17984   */\n      dup6\n        /* \"#utility.yul\":17963:17985   */\n      tag_188\n      jump\t// in\n    tag_395:\n        /* \"#utility.yul\":17953:17961   */\n      dup4\n        /* \"#utility.yul\":17949:17986   */\n      add\n        /* \"#utility.yul\":17936:17947   */\n      dup3\n        /* \"#utility.yul\":17907:17987   */\n      tag_197\n      jump\t// in\n    tag_394:\n        /* \"#utility.yul\":17566:17997   */\n      pop\n      pop\n        /* \"#utility.yul\":17551:17997   */\n    tag_390:\n        /* \"#utility.yul\":17461:18004   */\n      pop\n      pop\n      pop\n      jump\t// out\n        /* \"#utility.yul\":18010:18127   */\n    tag_199:\n        /* \"#utility.yul\":18064:18072   */\n      0x00\n        /* \"#utility.yul\":18114:18119   */\n      dup3\n        /* \"#utility.yul\":18108:18112   */\n      dup3\n        /* \"#utility.yul\":18104:18120   */\n      shr\n        /* \"#utility.yul\":18083:18120   */\n      swap1\n      pop\n        /* \"#utility.yul\":18010:18127   */\n      swap3\n      swap2\n      pop\n      pop\n      jump\t// out\n        /* \"#utility.yul\":18133:18302   */\n    tag_200:\n        /* \"#utility.yul\":18177:18183   */\n      0x00\n        /* \"#utility.yul\":18210:18261   */\n      tag_398\n        /* \"#utility.yul\":18258:18259   */\n      0x00\n        /* \"#utility.yul\":18254:18260   */\n      not\n        /* \"#utility.yul\":18246:18251   */\n      dup5\n        /* \"#utility.yul\":18243:18244   */\n      0x08\n        /* \"#utility.yul\":18239:18252   */\n      mul\n        /* \"#utility.yul\":18210:18261   */\n      tag_199\n      jump\t// in\n    tag_398:\n        /* \"#utility.yul\":18206:18262   */\n      not\n        /* \"#utility.yul\":18291:18295   */\n      dup1\n        /* \"#utility.yul\":18285:18289   */\n      dup4\n        /* \"#utility.yul\":18281:18296   */\n      and\n        /* \"#utility.yul\":18271:18296   */\n      swap2\n      pop\n        /* \"#utility.yul\":18184:18302   */\n      pop\n        /* \"#utility.yul\":18133:18302   */\n      swap3\n      swap2\n      pop\n      pop\n      jump\t// out\n        /* \"#utility.yul\":18307:18602   */\n    tag_201:\n        /* \"#utility.yul\":18383:18387   */\n      0x00\n        /* \"#utility.yul\":18529:18558   */\n      tag_400\n        /* \"#utility.yul\":18554:18557   */\n      dup4\n        /* \"#utility.yul\":18548:18552   */\n      dup4\n        /* \"#utility.yul\":18529:18558   */\n      tag_200\n      jump\t// in\n    tag_400:\n        /* \"#utility.yul\":18521:18558   */\n      swap2\n      pop\n        /* \"#utility.yul\":18591:18594   */\n      dup3\n        /* \"#utility.yul\":18588:18589   */\n      0x02\n        /* \"#utility.yul\":18584:18595   */\n      mul\n        /* \"#utility.yul\":18578:18582   */\n      dup3\n        /* \"#utility.yul\":18575:18596   */\n      or\n        /* \"#utility.yul\":18567:18596   */\n      swap1\n      pop\n        /* \"#utility.yul\":18307:18602   */\n      swap3\n      swap2\n      pop\n      pop\n      jump\t// out\n        /* \"#utility.yul\":18607:20002   */\n    tag_47:\n        /* \"#utility.yul\":18724:18761   */\n      tag_402\n        /* \"#utility.yul\":18757:18760   */\n      dup3\n        /* \"#utility.yul\":18724:18761   */\n      tag_164\n      jump\t// in\n    tag_402:\n        /* \"#utility.yul\":18826:18844   */\n      0xffffffffffffffff\n        /* \"#utility.yul\":18818:18824   */\n      dup2\n        /* \"#utility.yul\":18815:18845   */\n      gt\n        /* \"#utility.yul\":18812:18868   */\n      iszero\n      tag_403\n      jumpi\n        /* \"#utility.yul\":18848:18866   */\n      tag_404\n      tag_103\n      jump\t// in\n    tag_404:\n        /* \"#utility.yul\":18812:18868   */\n    tag_403:\n        /* \"#utility.yul\":18892:18930   */\n      tag_405\n        /* \"#utility.yul\":18924:18928   */\n      dup3\n        /* \"#utility.yul\":18918:18929   */\n      sload\n        /* \"#utility.yul\":18892:18930   */\n      tag_68\n      jump\t// in\n    tag_405:\n        /* \"#utility.yul\":18977:19044   */\n      tag_406\n        /* \"#utility.yul\":19037:19043   */\n      dup3\n        /* \"#utility.yul\":19029:19035   */\n      dup3\n        /* \"#utility.yul\":19023:19027   */\n      dup6\n        /* \"#utility.yul\":18977:19044   */\n      tag_198\n      jump\t// in\n    tag_406:\n        /* \"#utility.yul\":19071:19072   */\n      0x00\n        /* \"#utility.yul\":19095:19099   */\n      0x20\n        /* \"#utility.yul\":19082:19099   */\n      swap1\n      pop\n        /* \"#utility.yul\":19127:19129   */\n      0x1f\n        /* \"#utility.yul\":19119:19125   */\n      dup4\n        /* \"#utility.yul\":19116:19130   */\n      gt\n        /* \"#utility.yul\":19144:19145   */\n      0x01\n        /* \"#utility.yul\":19139:19757   */\n      dup2\n      eq\n      tag_408\n      jumpi\n        /* \"#utility.yul\":19801:19802   */\n      0x00\n        /* \"#utility.yul\":19818:19824   */\n      dup5\n        /* \"#utility.yul\":19815:19892   */\n      iszero\n      tag_409\n      jumpi\n        /* \"#utility.yul\":19867:19876   */\n      dup3\n        /* \"#utility.yul\":19862:19865   */\n      dup8\n        /* \"#utility.yul\":19858:19877   */\n      add\n        /* \"#utility.yul\":19852:19878   */\n      mload\n        /* \"#utility.yul\":19843:19878   */\n      swap1\n      pop\n        /* \"#utility.yul\":19815:19892   */\n    tag_409:\n        /* \"#utility.yul\":19918:19985   */\n      tag_410\n        /* \"#utility.yul\":19978:19984   */\n      dup6\n        /* \"#utility.yul\":19971:19976   */\n      dup3\n        /* \"#utility.yul\":19918:19985   */\n      tag_201\n      jump\t// in\n    tag_410:\n        /* \"#utility.yul\":19912:19916   */\n      dup7\n        /* \"#utility.yul\":19905:19986   */\n      sstore\n        /* \"#utility.yul\":19774:19996   */\n      pop\n        /* \"#utility.yul\":19109:19996   */\n      jump(tag_407)\n        /* \"#utility.yul\":19139:19757   */\n    tag_408:\n        /* \"#utility.yul\":19191:19195   */\n      0x1f\n        /* \"#utility.yul\":19187:19196   */\n      not\n        /* \"#utility.yul\":19179:19185   */\n      dup5\n        /* \"#utility.yul\":19175:19197   */\n      and\n        /* \"#utility.yul\":19225:19262   */\n      tag_411\n        /* \"#utility.yul\":19257:19261   */\n      dup7\n        /* \"#utility.yul\":19225:19262   */\n      tag_187\n      jump\t// in\n    tag_411:\n        /* \"#utility.yul\":19284:19285   */\n      0x00\n        /* \"#utility.yul\":19298:19506   */\n    tag_412:\n        /* \"#utility.yul\":19312:19319   */\n      dup3\n        /* \"#utility.yul\":19309:19310   */\n      dup2\n        /* \"#utility.yul\":19306:19320   */\n      lt\n        /* \"#utility.yul\":19298:19506   */\n      iszero\n      tag_414\n      jumpi\n        /* \"#utility.yul\":19391:19400   */\n      dup5\n        /* \"#utility.yul\":19386:19389   */\n      dup10\n        /* \"#utility.yul\":19382:19401   */\n      add\n        /* \"#utility.yul\":19376:19402   */\n      mload\n        /* \"#utility.yul\":19368:19374   */\n      dup3\n        /* \"#utility.yul\":19361:19403   */\n      sstore\n        /* \"#utility.yul\":19442:19443   */\n      0x01\n        /* \"#utility.yul\":19434:19440   */\n      dup3\n        /* \"#utility.yul\":19430:19444   */\n      add\n        /* \"#utility.yul\":19420:19444   */\n      swap2\n      pop\n        /* \"#utility.yul\":19489:19491   */\n      0x20\n        /* \"#utility.yul\":19478:19487   */\n      dup6\n        /* \"#utility.yul\":19474:19492   */\n      add\n        /* \"#utility.yul\":19461:19492   */\n      swap5\n      pop\n        /* \"#utility.yul\":19335:19339   */\n      0x20\n        /* \"#utility.yul\":19332:19333   */\n      dup2\n        /* \"#utility.yul\":19328:19340   */\n      add\n        /* \"#utility.yul\":19323:19340   */\n      swap1\n      pop\n        /* \"#utility.yul\":19298:19506   */\n      jump(tag_412)\n    tag_414:\n        /* \"#utility.yul\":19534:19540   */\n      dup7\n        /* \"#utility.yul\":19525:19532   */\n      dup4\n        /* \"#utility.yul\":19522:19541   */\n      lt\n        /* \"#utility.yul\":19519:19698   */\n      iszero\n      tag_415\n      jumpi\n        /* \"#utility.yul\":19592:19601   */\n      dup5\n        /* \"#utility.yul\":19587:19590   */\n      dup10\n        /* \"#utility.yul\":19583:19602   */\n      add\n        /* \"#utility.yul\":19577:19603   */\n      mload\n        /* \"#utility.yul\":19635:19683   */\n      tag_416\n        /* \"#utility.yul\":19677:19681   */\n      0x1f\n        /* \"#utility.yul\":19669:19675   */\n      dup10\n        /* \"#utility.yul\":19665:19682   */\n      and\n        /* \"#utility.yul\":19654:19663   */\n      dup3\n        /* \"#utility.yul\":19635:19683   */\n      tag_200\n      jump\t// in\n    tag_416:\n        /* \"#utility.yul\":19627:19633   */\n      dup4\n        /* \"#utility.yul\":19620:19684   */\n      sstore\n        /* \"#utility.yul\":19542:19698   */\n      pop\n        /* \"#utility.yul\":19519:19698   */\n    tag_415:\n        /* \"#utility.yul\":19744:19745   */\n      0x01\n        /* \"#utility.yul\":19740:19741   */\n      0x02\n        /* \"#utility.yul\":19732:19738   */\n      dup9\n        /* \"#utility.yul\":19728:19742   */\n      mul\n        /* \"#utility.yul\":19724:19746   */\n      add\n        /* \"#utility.yul\":19718:19722   */\n      dup9\n        /* \"#utility.yul\":19711:19747   */\n      sstore\n        /* \"#utility.yul\":19146:19757   */\n      pop\n      pop\n      pop\n        /* \"#utility.yul\":19109:19996   */\n    tag_407:\n      pop\n        /* \"#utility.yul\":18699:20002   */\n      pop\n      pop\n      pop\n        /* \"#utility.yul\":18607:20002   */\n      pop\n      pop\n      jump\t// out\n        /* \"#utility.yul\":20008:20188   */\n    tag_60:\n        /* \"#utility.yul\":20056:20133   */\n      0x4e487b7100000000000000000000000000000000000000000000000000000000\n        /* \"#utility.yul\":20053:20054   */\n      0x00\n        /* \"#utility.yul\":20046:20134   */\n      mstore\n        /* \"#utility.yul\":20153:20157   */\n      0x32\n        /* \"#utility.yul\":20150:20151   */\n      0x04\n        /* \"#utility.yul\":20143:20158   */\n      mstore\n        /* \"#utility.yul\":20177:20181   */\n      0x24\n        /* \"#utility.yul\":20174:20175   */\n      0x00\n        /* \"#utility.yul\":20167:20182   */\n      revert\n        /* \"#utility.yul\":20194:20374   */\n    tag_202:\n        /* \"#utility.yul\":20242:20319   */\n      0x4e487b7100000000000000000000000000000000000000000000000000000000\n        /* \"#utility.yul\":20239:20240   */\n      0x00\n        /* \"#utility.yul\":20232:20320   */\n      mstore\n        /* \"#utility.yul\":20339:20343   */\n      0x11\n        /* \"#utility.yul\":20336:20337   */\n      0x04\n        /* \"#utility.yul\":20329:20344   */\n      mstore\n        /* \"#utility.yul\":20363:20367   */\n      0x24\n        /* \"#utility.yul\":20360:20361   */\n      0x00\n        /* \"#utility.yul\":20353:20368   */\n      revert\n        /* \"#utility.yul\":20380:20613   */\n    tag_64:\n        /* \"#utility.yul\":20419:20422   */\n      0x00\n        /* \"#utility.yul\":20442:20466   */\n      tag_420\n        /* \"#utility.yul\":20460:20465   */\n      dup3\n        /* \"#utility.yul\":20442:20466   */\n      tag_161\n      jump\t// in\n    tag_420:\n        /* \"#utility.yul\":20433:20466   */\n      swap2\n      pop\n        /* \"#utility.yul\":20488:20554   */\n      0xffffffffffffffffffffffffffffffffffffffffffffffffffffffffffffffff\n        /* \"#utility.yul\":20481:20486   */\n      dup3\n        /* \"#utility.yul\":20478:20555   */\n      sub\n        /* \"#utility.yul\":20475:20578   */\n      tag_421\n      jumpi\n        /* \"#utility.yul\":20558:20576   */\n      tag_422\n      tag_202\n      jump\t// in\n    tag_422:\n        /* \"#utility.yul\":20475:20578   */\n    tag_421:\n        /* \"#utility.yul\":20605:20606   */\n      0x01\n        /* \"#utility.yul\":20598:20603   */\n      dup3\n        /* \"#utility.yul\":20594:20607   */\n      add\n        /* \"#utility.yul\":20587:20607   */\n      swap1\n      pop\n        /* \"#utility.yul\":20380:20613   */\n      swap2\n      swap1\n      pop\n      jump\t// out\n        /* \"#utility.yul\":20619:20798   */\n    tag_203:\n        /* \"#utility.yul\":20787:20791   */\n      0x2020000000000000000000000000000000000000000000000000000000000000\n        /* \"#utility.yul\":20782:20785   */\n      dup2\n        /* \"#utility.yul\":20775:20792   */\n      mstore\n        /* \"#utility.yul\":20619:20798   */\n      pop\n      jump\t// out\n        /* \"#utility.yul\":20804:21343   */\n    tag_79:\n        /* \"#utility.yul\":21026:21029   */\n      0x00\n        /* \"#utility.yul\":21041:21178   */\n      tag_425\n        /* \"#utility.yul\":21174:21177   */\n      dup3\n        /* \"#utility.yul\":21041:21178   */\n      tag_203\n      jump\t// in\n    tag_425:\n        /* \"#utility.yul\":21203:21204   */\n      0x02\n        /* \"#utility.yul\":21198:21201   */\n      dup3\n        /* \"#utility.yul\":21194:21205   */\n      add\n        /* \"#utility.yul\":21187:21205   */\n      swap2\n      pop\n        /* \"#utility.yul\":21222:21317   */\n      tag_426\n        /* \"#utility.yul\":21313:21316   */\n      dup3\n        /* \"#utility.yul\":21304:21310   */\n      dup5\n        /* \"#utility.yul\":21222:21317   */\n      tag_185\n      jump\t// in\n    tag_426:\n        /* \"#utility.yul\":21215:21317   */\n      swap2\n      pop\n        /* \"#utility.yul\":21334:21337   */\n      dup2\n        /* \"#utility.yul\":21327:21337   */\n      swap1\n      pop\n        /* \"#utility.yul\":20804:21343   */\n      swap3\n      swap2\n      pop\n      pop\n      jump\t// out\n        /* \"#utility.yul\":21349:21527   */\n    tag_204:\n        /* \"#utility.yul\":21517:21520   */\n      0x2000000000000000000000000000000000000000000000000000000000000000\n        /* \"#utility.yul\":21512:21515   */\n      dup2\n        /* \"#utility.yul\":21505:21521   */\n      mstore\n        /* \"#utility.yul\":21349:21527   */\n      pop\n      jump\t// out\n        /* \"#utility.yul\":21533:22072   */\n    tag_81:\n        /* \"#utility.yul\":21755:21758   */\n      0x00\n        /* \"#utility.yul\":21777:21872   */\n      tag_429\n        /* \"#utility.yul\":21868:21871   */\n      dup3\n        /* \"#utility.yul\":21859:21865   */\n      dup5\n        /* \"#utility.yul\":21777:21872   */\n      tag_185\n      jump\t// in\n    tag_429:\n        /* \"#utility.yul\":21770:21872   */\n      swap2\n      pop\n        /* \"#utility.yul\":21882:22019   */\n      tag_430\n        /* \"#utility.yul\":22015:22018   */\n      dup3\n        /* \"#utility.yul\":21882:22019   */\n      tag_204\n      jump\t// in\n    tag_430:\n        /* \"#utility.yul\":22044:22045   */\n      0x01\n        /* \"#utility.yul\":22039:22042   */\n      dup3\n        /* \"#utility.yul\":22035:22046   */\n      add\n        /* \"#utility.yul\":22028:22046   */\n      swap2\n      pop\n        /* \"#utility.yul\":22063:22066   */\n      dup2\n        /* \"#utility.yul\":22056:22066   */\n      swap1\n      pop\n        /* \"#utility.yul\":21533:22072   */\n      swap3\n      swap2\n      pop\n      pop\n      jump\t// out\n        /* \"#utility.yul\":22078:22513   */\n    tag_83:\n        /* \"#utility.yul\":22258:22261   */\n      0x00\n        /* \"#utility.yul\":22280:22375   */\n      tag_432\n        /* \"#utility.yul\":22371:22374   */\n      dup3\n        /* \"#utility.yul\":22362:22368   */\n      dup6\n        /* \"#utility.yul\":22280:22375   */\n      tag_185\n      jump\t// in\n    tag_432:\n        /* \"#utility.yul\":22273:22375   */\n      swap2\n      pop\n        /* \"#utility.yul\":22392:22487   */\n      tag_433\n        /* \"#utility.yul\":22483:22486   */\n      dup3\n        /* \"#utility.yul\":22474:22480   */\n      dup5\n        /* \"#utility.yul\":22392:22487   */\n      tag_185\n      jump\t// in\n    tag_433:\n        /* \"#utility.yul\":22385:22487   */\n      swap2\n      pop\n        /* \"#utility.yul\":22504:22507   */\n      dup2\n        /* \"#utility.yul\":22497:22507   */\n      swap1\n      pop\n        /* \"#utility.yul\":22078:22513   */\n      swap4\n      swap3\n      pop\n      pop\n      pop\n      jump\t// out\n        /* \"#utility.yul\":22543:23417   */\n    tag_205:\n        /* \"#utility.yul\":22646:22649   */\n      0x00\n        /* \"#utility.yul\":22683:22688   */\n      dup2\n        /* \"#utility.yul\":22677:22689   */\n      sload\n        /* \"#utility.yul\":22712:22748   */\n      tag_435\n        /* \"#utility.yul\":22738:22747   */\n      dup2\n        /* \"#utility.yul\":22712:22748   */\n      tag_68\n      jump\t// in\n    tag_435:\n        /* \"#utility.yul\":22764:22853   */\n      tag_436\n        /* \"#utility.yul\":22846:22852   */\n      dup2\n        /* \"#utility.yul\":22841:22844   */\n      dup7\n        /* \"#utility.yul\":22764:22853   */\n      tag_184\n      jump\t// in\n    tag_436:\n        /* \"#utility.yul\":22757:22853   */\n      swap5\n      pop\n        /* \"#utility.yul\":22884:22885   */\n      0x01\n        /* \"#utility.yul\":22873:22882   */\n      dup3\n        /* \"#utility.yul\":22869:22886   */\n      and\n        /* \"#utility.yul\":22900:22901   */\n      0x00\n        /* \"#utility.yul\":22895:23061   */\n      dup2\n      eq\n      tag_438\n      jumpi\n        /* \"#utility.yul\":23075:23076   */\n      0x01\n        /* \"#utility.yul\":23070:23411   */\n      dup2\n      eq\n      tag_439\n      jumpi\n        /* \"#utility.yul\":22862:23411   */\n      jump(tag_437)\n        /* \"#utility.yul\":22895:23061   */\n    tag_438:\n        /* \"#utility.yul\":22979:22983   */\n      0xff\n        /* \"#utility.yul\":22975:22984   */\n      not\n        /* \"#utility.yul\":22964:22973   */\n      dup4\n        /* \"#utility.yul\":22960:22985   */\n      and\n        /* \"#utility.yul\":22955:22958   */\n      dup7\n        /* \"#utility.yul\":22948:22986   */\n      mstore\n        /* \"#utility.yul\":23041:23047   */\n      dup2\n        /* \"#utility.yul\":23034:23048   */\n      iszero\n        /* \"#utility.yul\":23027:23049   */\n      iszero\n        /* \"#utility.yul\":23019:23025   */\n      dup3\n        /* \"#utility.yul\":23015:23050   */\n      mul\n        /* \"#utility.yul\":23010:23013   */\n      dup7\n        /* \"#utility.yul\":23006:23051   */\n      add\n        /* \"#utility.yul\":22999:23051   */\n      swap4\n      pop\n        /* \"#utility.yul\":22895:23061   */\n      jump(tag_437)\n        /* \"#utility.yul\":23070:23411   */\n    tag_439:\n        /* \"#utility.yul\":23137:23175   */\n      tag_440\n        /* \"#utility.yul\":23169:23174   */\n      dup6\n        /* \"#utility.yul\":23137:23175   */\n      tag_187\n      jump\t// in\n    tag_440:\n        /* \"#utility.yul\":23197:23198   */\n      0x00\n        /* \"#utility.yul\":23211:23365   */\n    tag_441:\n        /* \"#utility.yul\":23225:23231   */\n      dup4\n        /* \"#utility.yul\":23222:23223   */\n      dup2\n        /* \"#utility.yul\":23219:23232   */\n      lt\n        /* \"#utility.yul\":23211:23365   */\n      iszero\n      tag_443\n      jumpi\n        /* \"#utility.yul\":23299:23306   */\n      dup2\n        /* \"#utility.yul\":23293:23307   */\n      sload\n        /* \"#utility.yul\":23289:23290   */\n      dup2\n        /* \"#utility.yul\":23284:23287   */\n      dup10\n        /* \"#utility.yul\":23280:23291   */\n      add\n        /* \"#utility.yul\":23273:23308   */\n      mstore\n        /* \"#utility.yul\":23349:23350   */\n      0x01\n        /* \"#utility.yul\":23340:23347   */\n      dup3\n        /* \"#utility.yul\":23336:23351   */\n      add\n        /* \"#utility.yul\":23325:23351   */\n      swap2\n      pop\n        /* \"#utility.yul\":23247:23251   */\n      0x20\n        /* \"#utility.yul\":23244:23245   */\n      dup2\n        /* \"#utility.yul\":23240:23252   */\n      add\n        /* \"#utility.yul\":23235:23252   */\n      swap1\n      pop\n        /* \"#utility.yul\":23211:23365   */\n      jump(tag_441)\n    tag_443:\n        /* \"#utility.yul\":23394:23400   */\n      dup4\n        /* \"#utility.yul\":23389:23392   */\n      dup9\n        /* \"#utility.yul\":23385:23401   */\n      add\n        /* \"#utility.yul\":23378:23401   */\n      swap6\n      pop\n        /* \"#utility.yul\":23077:23411   */\n      pop\n      pop\n        /* \"#utility.yul\":22862:23411   */\n    tag_437:\n      pop\n        /* \"#utility.yul\":22650:23417   */\n      pop\n      pop\n        /* \"#utility.yul\":22543:23417   */\n      swap3\n      swap2\n      pop\n      pop\n      jump\t// out\n        /* \"#utility.yul\":23423:23852   */\n    tag_86:\n        /* \"#utility.yul\":23600:23603   */\n      0x00\n        /* \"#utility.yul\":23622:23714   */\n      tag_445\n        /* \"#utility.yul\":23710:23713   */\n      dup3\n        /* \"#utility.yul\":23701:23707   */\n      dup6\n        /* \"#utility.yul\":23622:23714   */\n      tag_205\n      jump\t// in\n    tag_445:\n        /* \"#utility.yul\":23615:23714   */\n      swap2\n      pop\n        /* \"#utility.yul\":23731:23826   */\n      tag_446\n        /* \"#utility.yul\":23822:23825   */\n      dup3\n        /* \"#utility.yul\":23813:23819   */\n      dup5\n        /* \"#utility.yul\":23731:23826   */\n      tag_185\n      jump\t// in\n    tag_446:\n        /* \"#utility.yul\":23724:23826   */\n      swap2\n      pop\n        /* \"#utility.yul\":23843:23846   */\n      dup2\n        /* \"#utility.yul\":23836:23846   */\n      swap1\n      pop\n        /* \"#utility.yul\":23423:23852   */\n      swap4\n      swap3\n      pop\n      pop\n      pop\n      jump\t// out\n        /* \"#utility.yul\":23858:24052   */\n    tag_91:\n        /* \"#utility.yul\":23898:23902   */\n      0x00\n        /* \"#utility.yul\":23918:23938   */\n      tag_448\n        /* \"#utility.yul\":23936:23937   */\n      dup3\n        /* \"#utility.yul\":23918:23938   */\n      tag_161\n      jump\t// in\n    tag_448:\n        /* \"#utility.yul\":23913:23938   */\n      swap2\n      pop\n        /* \"#utility.yul\":23952:23972   */\n      tag_449\n        /* \"#utility.yul\":23970:23971   */\n      dup4\n        /* \"#utility.yul\":23952:23972   */\n      tag_161\n      jump\t// in\n    tag_449:\n        /* \"#utility.yul\":23947:23972   */\n      swap3\n      pop\n        /* \"#utility.yul\":23996:23997   */\n      dup3\n        /* \"#utility.yul\":23993:23994   */\n      dup3\n        /* \"#utility.yul\":23989:23998   */\n      sub\n        /* \"#utility.yul\":23981:23998   */\n      swap1\n      pop\n        /* \"#utility.yul\":24020:24021   */\n      dup2\n        /* \"#utility.yul\":24014:24018   */\n      dup2\n        /* \"#utility.yul\":24011:24022   */\n      gt\n        /* \"#utility.yul\":24008:24045   */\n      iszero\n      tag_450\n      jumpi\n        /* \"#utility.yul\":24025:24043   */\n      tag_451\n      tag_202\n      jump\t// in\n    tag_451:\n        /* \"#utility.yul\":24008:24045   */\n    tag_450:\n        /* \"#utility.yul\":23858:24052   */\n      swap3\n      swap2\n      pop\n      pop\n      jump\t// out\n\n    auxdata: 0xa26469706673582212202f1a8985993fb9dc27c45d11692b5e3cd7b33cfbd90758dd80964848655f3fbe64736f6c63430008120033\n}\n",
				"bytecode": {
					"linkReferences": {},
					"object": "6080604052600060015534801561001557600080fd5b50611611806100256000396000f3fe608060405234801561001057600080fd5b506004361061007d5760003560e01c80637841eb9f1161005b5780637841eb9f146100ea578063a08bc01a1461011a578063a4204e3914610136578063cf39918e146101545761007d565b8063245349d3146100825780632b9123691461009e5780633129e773146100ba575b600080fd5b61009c60048036038101906100979190610ace565b610185565b005b6100b860048036038101906100b39190610bfd565b610223565b005b6100d460048036038101906100cf9190610cab565b610335565b6040516100e19190610d57565b60405180910390f35b61010460048036038101906100ff9190610ace565b6103dd565b6040516101119190610e37565b60405180910390f35b610134600480360381019061012f9190610e59565b610456565b005b61013e610533565b60405161014b9190610f0f565b60405180910390f35b61016e60048036038101906101699190610cab565b610548565b60405161017c929190611036565b60405180910390f35b604051806020016040528060008152506003826040516101a591906110a9565b908152602001604051809103902060000190816101c291906112cc565b50604051806020016040528060008152506003826040516101e391906110a9565b9081526020016040518091039020600101908161020091906112cc565b5060038160405161021191906110a9565b90815260200160405180910390205050565b81600260006001548152602001908152602001600020600001908051906020019061024f92919061089a565b5080600260006001548152602001908152602001600020600101908161027591906112cc565b506001546002600060015481526020019081526020016000206003018190555060005b82518110156103185760038382815181106102b6576102b561139e565b5b60200260200101516040516102cb91906110a9565b908152602001604051809103902060020160015490806001815401808255809150506001900390600052602060002001600090919091909150558080610310906113fc565b915050610298565b506001600081548092919061032c906113fc565b91905055505050565b6060600260008381526020019081526020016000206001018054610358906110ef565b80601f0160208091040260200160405190810160405280929190818152602001828054610384906110ef565b80156103d15780601f106103a6576101008083540402835291602001916103d1565b820191906000526020600020905b8154815290600101906020018083116103b457829003601f168201915b50505050509050919050565b60606003826040516103ef91906110a9565b908152602001604051809103902060020180548060200260200160405190810160405280929190818152602001828054801561044a57602002820191906000526020600020905b815481526020019060010190808311610436575b50505050509050919050565b81604051602001610467919061146a565b60405160208183030381529060405291508160405160200161048991906114b6565b604051602081830303815290604052915081836040516020016104ad9291906114dc565b60405160208183030381529060405291506003816040516104ce91906110a9565b9081526020016040518091039020600101826040516020016104f1929190611583565b60405160208183030381529060405260038260405161051091906110a9565b9081526020016040518091039020600101908161052d91906112cc565b50505050565b60006001805461054391906115a7565b905090565b60608060008060026000868152602001908152602001600020600001805480602002602001604051908101604052809291908181526020016000905b828210156106305783829060005260206000200180546105a3906110ef565b80601f01602080910402602001604051908101604052809291908181526020018280546105cf906110ef565b801561061c5780601f106105f15761010080835404028352916020019161061c565b820191906000526020600020905b8154815290600101906020018083116105ff57829003601f168201915b505050505081526020019060010190610584565b5050505090506000600260008781526020019081526020016000206000018054905067ffffffffffffffff81111561066b5761066a6109a3565b5b60405190808252806020026020018201604052801561069e57816020015b60608152602001906001900390816106895790505b509050600092505b81518310156107a45760038284815181106106c4576106c361139e565b5b60200260200101516040516106d991906110a9565b908152602001604051809103902060010180546106f5906110ef565b80601f0160208091040260200160405190810160405280929190818152602001828054610721906110ef565b801561076e5780601f106107435761010080835404028352916020019161076e565b820191906000526020600020905b81548152906001019060200180831161075157829003601f168201915b50505050508184815181106107865761078561139e565b5b6020026020010181905250828061079c906113fc565b9350506106a6565b806002600088815260200190815260200160002060000180805480602002602001604051908101604052809291908181526020016000905b828210156108885783829060005260206000200180546107fb906110ef565b80601f0160208091040260200160405190810160405280929190818152602001828054610827906110ef565b80156108745780601f1061084957610100808354040283529160200191610874565b820191906000526020600020905b81548152906001019060200180831161085757829003601f168201915b5050505050815260200190600101906107dc565b50505050905094509450505050915091565b8280548282559060005260206000209081019282156108e2579160200282015b828111156108e15782518290816108d191906112cc565b50916020019190600101906108ba565b5b5090506108ef91906108f3565b5090565b5b80821115610913576000818161090a9190610917565b506001016108f4565b5090565b508054610923906110ef565b6000825580601f106109355750610954565b601f0160209004906000526020600020908101906109539190610957565b5b50565b5b80821115610970576000816000905550600101610958565b5090565b6000604051905090565b600080fd5b600080fd5b600080fd5b600080fd5b6000601f19601f8301169050919050565b7f4e487b7100000000000000000000000000000000000000000000000000000000600052604160045260246000fd5b6109db82610992565b810181811067ffffffffffffffff821117156109fa576109f96109a3565b5b80604052505050565b6000610a0d610974565b9050610a1982826109d2565b919050565b600067ffffffffffffffff821115610a3957610a386109a3565b5b610a4282610992565b9050602081019050919050565b82818337600083830152505050565b6000610a71610a6c84610a1e565b610a03565b905082815260208101848484011115610a8d57610a8c61098d565b5b610a98848285610a4f565b509392505050565b600082601f830112610ab557610ab4610988565b5b8135610ac5848260208601610a5e565b91505092915050565b600060208284031215610ae457610ae361097e565b5b600082013567ffffffffffffffff811115610b0257610b01610983565b5b610b0e84828501610aa0565b91505092915050565b600067ffffffffffffffff821115610b3257610b316109a3565b5b602082029050602081019050919050565b600080fd5b6000610b5b610b5684610b17565b610a03565b90508083825260208201905060208402830185811115610b7e57610b7d610b43565b5b835b81811015610bc557803567ffffffffffffffff811115610ba357610ba2610988565b5b808601610bb08982610aa0565b85526020850194505050602081019050610b80565b5050509392505050565b600082601f830112610be457610be3610988565b5b8135610bf4848260208601610b48565b91505092915050565b60008060408385031215610c1457610c1361097e565b5b600083013567ffffffffffffffff811115610c3257610c31610983565b5b610c3e85828601610bcf565b925050602083013567ffffffffffffffff811115610c5f57610c5e610983565b5b610c6b85828601610aa0565b9150509250929050565b6000819050919050565b610c8881610c75565b8114610c9357600080fd5b50565b600081359050610ca581610c7f565b92915050565b600060208284031215610cc157610cc061097e565b5b6000610ccf84828501610c96565b91505092915050565b600081519050919050565b600082825260208201905092915050565b60005b83811015610d12578082015181840152602081019050610cf7565b60008484015250505050565b6000610d2982610cd8565b610d338185610ce3565b9350610d43818560208601610cf4565b610d4c81610992565b840191505092915050565b60006020820190508181036000830152610d718184610d1e565b905092915050565b600081519050919050565b600082825260208201905092915050565b6000819050602082019050919050565b610dae81610c75565b82525050565b6000610dc08383610da5565b60208301905092915050565b6000602082019050919050565b6000610de482610d79565b610dee8185610d84565b9350610df983610d95565b8060005b83811015610e2a578151610e118882610db4565b9750610e1c83610dcc565b925050600181019050610dfd565b5085935050505092915050565b60006020820190508181036000830152610e518184610dd9565b905092915050565b600080600060608486031215610e7257610e7161097e565b5b600084013567ffffffffffffffff811115610e9057610e8f610983565b5b610e9c86828701610aa0565b935050602084013567ffffffffffffffff811115610ebd57610ebc610983565b5b610ec986828701610aa0565b925050604084013567ffffffffffffffff811115610eea57610ee9610983565b5b610ef686828701610aa0565b9150509250925092565b610f0981610c75565b82525050565b6000602082019050610f246000830184610f00565b92915050565b600081519050919050565b600082825260208201905092915050565b6000819050602082019050919050565b600082825260208201905092915050565b6000610f7282610cd8565b610f7c8185610f56565b9350610f8c818560208601610cf4565b610f9581610992565b840191505092915050565b6000610fac8383610f67565b905092915050565b6000602082019050919050565b6000610fcc82610f2a565b610fd68185610f35565b935083602082028501610fe885610f46565b8060005b8581101561102457848403895281516110058582610fa0565b945061101083610fb4565b925060208a01995050600181019050610fec565b50829750879550505050505092915050565b600060408201905081810360008301526110508185610fc1565b905081810360208301526110648184610fc1565b90509392505050565b600081905092915050565b600061108382610cd8565b61108d818561106d565b935061109d818560208601610cf4565b80840191505092915050565b60006110b58284611078565b915081905092915050565b7f4e487b7100000000000000000000000000000000000000000000000000000000600052602260045260246000fd5b6000600282049050600182168061110757607f821691505b60208210810361111a576111196110c0565b5b50919050565b60008190508160005260206000209050919050565b60006020601f8301049050919050565b600082821b905092915050565b6000600883026111827fffffffffffffffffffffffffffffffffffffffffffffffffffffffffffffffff82611145565b61118c8683611145565b95508019841693508086168417925050509392505050565b6000819050919050565b60006111c96111c46111bf84610c75565b6111a4565b610c75565b9050919050565b6000819050919050565b6111e3836111ae565b6111f76111ef826111d0565b848454611152565b825550505050565b600090565b61120c6111ff565b6112178184846111da565b505050565b5b8181101561123b57611230600082611204565b60018101905061121d565b5050565b601f8211156112805761125181611120565b61125a84611135565b81016020851015611269578190505b61127d61127585611135565b83018261121c565b50505b505050565b600082821c905092915050565b60006112a360001984600802611285565b1980831691505092915050565b60006112bc8383611292565b9150826002028217905092915050565b6112d582610cd8565b67ffffffffffffffff8111156112ee576112ed6109a3565b5b6112f882546110ef565b61130382828561123f565b600060209050601f8311600181146113365760008415611324578287015190505b61132e85826112b0565b865550611396565b601f19841661134486611120565b60005b8281101561136c57848901518255600182019150602085019450602081019050611347565b868310156113895784890151611385601f891682611292565b8355505b6001600288020188555050505b505050505050565b7f4e487b7100000000000000000000000000000000000000000000000000000000600052603260045260246000fd5b7f4e487b7100000000000000000000000000000000000000000000000000000000600052601160045260246000fd5b600061140782610c75565b91507fffffffffffffffffffffffffffffffffffffffffffffffffffffffffffffffff8203611439576114386113cd565b5b600182019050919050565b7f2020000000000000000000000000000000000000000000000000000000000000815250565b600061147582611444565b6002820191506114858284611078565b915081905092915050565b7f2000000000000000000000000000000000000000000000000000000000000000815250565b60006114c28284611078565b91506114cd82611490565b60018201915081905092915050565b60006114e88285611078565b91506114f48284611078565b91508190509392505050565b6000815461150d816110ef565b611517818661106d565b9450600182166000811461153257600181146115475761157a565b60ff198316865281151582028601935061157a565b61155085611120565b60005b8381101561157257815481890152600182019150602081019050611553565b838801955050505b50505092915050565b600061158f8285611500565b915061159b8284611078565b91508190509392505050565b60006115b282610c75565b91506115bd83610c75565b92508282039050818111156115d5576115d46113cd565b5b9291505056fea26469706673582212202f1a8985993fb9dc27c45d11692b5e3cd7b33cfbd90758dd80964848655f3fbe64736f6c63430008120033",
					"opcodes": "PUSH1 0x80 PUSH1 0x40 MSTORE PUSH1 0x0 PUSH1 0x1 SSTORE CALLVALUE DUP1 ISZERO PUSH2 0x15 JUMPI PUSH1 0x0 DUP1 REVERT JUMPDEST POP PUSH2 0x1611 DUP1 PUSH2 0x25 PUSH1 0x0 CODECOPY PUSH1 0x0 RETURN INVALID PUSH1 0x80 PUSH1 0x40 MSTORE CALLVALUE DUP1 ISZERO PUSH2 0x10 JUMPI PUSH1 0x0 DUP1 REVERT JUMPDEST POP PUSH1 0x4 CALLDATASIZE LT PUSH2 0x7D JUMPI PUSH1 0x0 CALLDATALOAD PUSH1 0xE0 SHR DUP1 PUSH4 0x7841EB9F GT PUSH2 0x5B JUMPI DUP1 PUSH4 0x7841EB9F EQ PUSH2 0xEA JUMPI DUP1 PUSH4 0xA08BC01A EQ PUSH2 0x11A JUMPI DUP1 PUSH4 0xA4204E39 EQ PUSH2 0x136 JUMPI DUP1 PUSH4 0xCF39918E EQ PUSH2 0x154 JUMPI PUSH2 0x7D JUMP JUMPDEST DUP1 PUSH4 0x245349D3 EQ PUSH2 0x82 JUMPI DUP1 PUSH4 0x2B912369 EQ PUSH2 0x9E JUMPI DUP1 PUSH4 0x3129E773 EQ PUSH2 0xBA JUMPI JUMPDEST PUSH1 0x0 DUP1 REVERT JUMPDEST PUSH2 0x9C PUSH1 0x4 DUP1 CALLDATASIZE SUB DUP2 ADD SWAP1 PUSH2 0x97 SWAP2 SWAP1 PUSH2 0xACE JUMP JUMPDEST PUSH2 0x185 JUMP JUMPDEST STOP JUMPDEST PUSH2 0xB8 PUSH1 0x4 DUP1 CALLDATASIZE SUB DUP2 ADD SWAP1 PUSH2 0xB3 SWAP2 SWAP1 PUSH2 0xBFD JUMP JUMPDEST PUSH2 0x223 JUMP JUMPDEST STOP JUMPDEST PUSH2 0xD4 PUSH1 0x4 DUP1 CALLDATASIZE SUB DUP2 ADD SWAP1 PUSH2 0xCF SWAP2 SWAP1 PUSH2 0xCAB JUMP JUMPDEST PUSH2 0x335 JUMP JUMPDEST PUSH1 0x40 MLOAD PUSH2 0xE1 SWAP2 SWAP1 PUSH2 0xD57 JUMP JUMPDEST PUSH1 0x40 MLOAD DUP1 SWAP2 SUB SWAP1 RETURN JUMPDEST PUSH2 0x104 PUSH1 0x4 DUP1 CALLDATASIZE SUB DUP2 ADD SWAP1 PUSH2 0xFF SWAP2 SWAP1 PUSH2 0xACE JUMP JUMPDEST PUSH2 0x3DD JUMP JUMPDEST PUSH1 0x40 MLOAD PUSH2 0x111 SWAP2 SWAP1 PUSH2 0xE37 JUMP JUMPDEST PUSH1 0x40 MLOAD DUP1 SWAP2 SUB SWAP1 RETURN JUMPDEST PUSH2 0x134 PUSH1 0x4 DUP1 CALLDATASIZE SUB DUP2 ADD SWAP1 PUSH2 0x12F SWAP2 SWAP1 PUSH2 0xE59 JUMP JUMPDEST PUSH2 0x456 JUMP JUMPDEST STOP JUMPDEST PUSH2 0x13E PUSH2 0x533 JUMP JUMPDEST PUSH1 0x40 MLOAD PUSH2 0x14B SWAP2 SWAP1 PUSH2 0xF0F JUMP JUMPDEST PUSH1 0x40 MLOAD DUP1 SWAP2 SUB SWAP1 RETURN JUMPDEST PUSH2 0x16E PUSH1 0x4 DUP1 CALLDATASIZE SUB DUP2 ADD SWAP1 PUSH2 0x169 SWAP2 SWAP1 PUSH2 0xCAB JUMP JUMPDEST PUSH2 0x548 JUMP JUMPDEST PUSH1 0x40 MLOAD PUSH2 0x17C SWAP3 SWAP2 SWAP1 PUSH2 0x1036 JUMP JUMPDEST PUSH1 0x40 MLOAD DUP1 SWAP2 SUB SWAP1 RETURN JUMPDEST PUSH1 0x40 MLOAD DUP1 PUSH1 0x20 ADD PUSH1 0x40 MSTORE DUP1 PUSH1 0x0 DUP2 MSTORE POP PUSH1 0x3 DUP3 PUSH1 0x40 MLOAD PUSH2 0x1A5 SWAP2 SWAP1 PUSH2 0x10A9 JUMP JUMPDEST SWAP1 DUP2 MSTORE PUSH1 0x20 ADD PUSH1 0x40 MLOAD DUP1 SWAP2 SUB SWAP1 KECCAK256 PUSH1 0x0 ADD SWAP1 DUP2 PUSH2 0x1C2 SWAP2 SWAP1 PUSH2 0x12CC JUMP JUMPDEST POP PUSH1 0x40 MLOAD DUP1 PUSH1 0x20 ADD PUSH1 0x40 MSTORE DUP1 PUSH1 0x0 DUP2 MSTORE POP PUSH1 0x3 DUP3 PUSH1 0x40 MLOAD PUSH2 0x1E3 SWAP2 SWAP1 PUSH2 0x10A9 JUMP JUMPDEST SWAP1 DUP2 MSTORE PUSH1 0x20 ADD PUSH1 0x40 MLOAD DUP1 SWAP2 SUB SWAP1 KECCAK256 PUSH1 0x1 ADD SWAP1 DUP2 PUSH2 0x200 SWAP2 SWAP1 PUSH2 0x12CC JUMP JUMPDEST POP PUSH1 0x3 DUP2 PUSH1 0x40 MLOAD PUSH2 0x211 SWAP2 SWAP1 PUSH2 0x10A9 JUMP JUMPDEST SWAP1 DUP2 MSTORE PUSH1 0x20 ADD PUSH1 0x40 MLOAD DUP1 SWAP2 SUB SWAP1 KECCAK256 POP POP JUMP JUMPDEST DUP2 PUSH1 0x2 PUSH1 0x0 PUSH1 0x1 SLOAD DUP2 MSTORE PUSH1 0x20 ADD SWAP1 DUP2 MSTORE PUSH1 0x20 ADD PUSH1 0x0 KECCAK256 PUSH1 0x0 ADD SWAP1 DUP1 MLOAD SWAP1 PUSH1 0x20 ADD SWAP1 PUSH2 0x24F SWAP3 SWAP2 SWAP1 PUSH2 0x89A JUMP JUMPDEST POP DUP1 PUSH1 0x2 PUSH1 0x0 PUSH1 0x1 SLOAD DUP2 MSTORE PUSH1 0x20 ADD SWAP1 DUP2 MSTORE PUSH1 0x20 ADD PUSH1 0x0 KECCAK256 PUSH1 0x1 ADD SWAP1 DUP2 PUSH2 0x275 SWAP2 SWAP1 PUSH2 0x12CC JUMP JUMPDEST POP PUSH1 0x1 SLOAD PUSH1 0x2 PUSH1 0x0 PUSH1 0x1 SLOAD DUP2 MSTORE PUSH1 0x20 ADD SWAP1 DUP2 MSTORE PUSH1 0x20 ADD PUSH1 0x0 KECCAK256 PUSH1 0x3 ADD DUP2 SWAP1 SSTORE POP PUSH1 0x0 JUMPDEST DUP3 MLOAD DUP2 LT ISZERO PUSH2 0x318 JUMPI PUSH1 0x3 DUP4 DUP3 DUP2 MLOAD DUP2 LT PUSH2 0x2B6 JUMPI PUSH2 0x2B5 PUSH2 0x139E JUMP JUMPDEST JUMPDEST PUSH1 0x20 MUL PUSH1 0x20 ADD ADD MLOAD PUSH1 0x40 MLOAD PUSH2 0x2CB SWAP2 SWAP1 PUSH2 0x10A9 JUMP JUMPDEST SWAP1 DUP2 MSTORE PUSH1 0x20 ADD PUSH1 0x40 MLOAD DUP1 SWAP2 SUB SWAP1 KECCAK256 PUSH1 0x2 ADD PUSH1 0x1 SLOAD SWAP1 DUP1 PUSH1 0x1 DUP2 SLOAD ADD DUP1 DUP3 SSTORE DUP1 SWAP2 POP POP PUSH1 0x1 SWAP1 SUB SWAP1 PUSH1 0x0 MSTORE PUSH1 0x20 PUSH1 0x0 KECCAK256 ADD PUSH1 0x0 SWAP1 SWAP2 SWAP1 SWAP2 SWAP1 SWAP2 POP SSTORE DUP1 DUP1 PUSH2 0x310 SWAP1 PUSH2 0x13FC JUMP JUMPDEST SWAP2 POP POP PUSH2 0x298 JUMP JUMPDEST POP PUSH1 0x1 PUSH1 0x0 DUP2 SLOAD DUP1 SWAP3 SWAP2 SWAP1 PUSH2 0x32C SWAP1 PUSH2 0x13FC JUMP JUMPDEST SWAP2 SWAP1 POP SSTORE POP POP POP JUMP JUMPDEST PUSH1 0x60 PUSH1 0x2 PUSH1 0x0 DUP4 DUP2 MSTORE PUSH1 0x20 ADD SWAP1 DUP2 MSTORE PUSH1 0x20 ADD PUSH1 0x0 KECCAK256 PUSH1 0x1 ADD DUP1 SLOAD PUSH2 0x358 SWAP1 PUSH2 0x10EF JUMP JUMPDEST DUP1 PUSH1 0x1F ADD PUSH1 0x20 DUP1 SWAP2 DIV MUL PUSH1 0x20 ADD PUSH1 0x40 MLOAD SWAP1 DUP2 ADD PUSH1 0x40 MSTORE DUP1 SWAP3 SWAP2 SWAP1 DUP2 DUP2 MSTORE PUSH1 0x20 ADD DUP3 DUP1 SLOAD PUSH2 0x384 SWAP1 PUSH2 0x10EF JUMP JUMPDEST DUP1 ISZERO PUSH2 0x3D1 JUMPI DUP1 PUSH1 0x1F LT PUSH2 0x3A6 JUMPI PUSH2 0x100 DUP1 DUP4 SLOAD DIV MUL DUP4 MSTORE SWAP2 PUSH1 0x20 ADD SWAP2 PUSH2 0x3D1 JUMP JUMPDEST DUP3 ADD SWAP2 SWAP1 PUSH1 0x0 MSTORE PUSH1 0x20 PUSH1 0x0 KECCAK256 SWAP1 JUMPDEST DUP2 SLOAD DUP2 MSTORE SWAP1 PUSH1 0x1 ADD SWAP1 PUSH1 0x20 ADD DUP1 DUP4 GT PUSH2 0x3B4 JUMPI DUP3 SWAP1 SUB PUSH1 0x1F AND DUP3 ADD SWAP2 JUMPDEST POP POP POP POP POP SWAP1 POP SWAP2 SWAP1 POP JUMP JUMPDEST PUSH1 0x60 PUSH1 0x3 DUP3 PUSH1 0x40 MLOAD PUSH2 0x3EF SWAP2 SWAP1 PUSH2 0x10A9 JUMP JUMPDEST SWAP1 DUP2 MSTORE PUSH1 0x20 ADD PUSH1 0x40 MLOAD DUP1 SWAP2 SUB SWAP1 KECCAK256 PUSH1 0x2 ADD DUP1 SLOAD DUP1 PUSH1 0x20 MUL PUSH1 0x20 ADD PUSH1 0x40 MLOAD SWAP1 DUP2 ADD PUSH1 0x40 MSTORE DUP1 SWAP3 SWAP2 SWAP1 DUP2 DUP2 MSTORE PUSH1 0x20 ADD DUP3 DUP1 SLOAD DUP1 ISZERO PUSH2 0x44A JUMPI PUSH1 0x20 MUL DUP3 ADD SWAP2 SWAP1 PUSH1 0x0 MSTORE PUSH1 0x20 PUSH1 0x0 KECCAK256 SWAP1 JUMPDEST DUP2 SLOAD DUP2 MSTORE PUSH1 0x20 ADD SWAP1 PUSH1 0x1 ADD SWAP1 DUP1 DUP4 GT PUSH2 0x436 JUMPI JUMPDEST POP POP POP POP POP SWAP1 POP SWAP2 SWAP1 POP JUMP JUMPDEST DUP2 PUSH1 0x40 MLOAD PUSH1 0x20 ADD PUSH2 0x467 SWAP2 SWAP1 PUSH2 0x146A JUMP JUMPDEST PUSH1 0x40 MLOAD PUSH1 0x20 DUP2 DUP4 SUB SUB DUP2 MSTORE SWAP1 PUSH1 0x40 MSTORE SWAP2 POP DUP2 PUSH1 0x40 MLOAD PUSH1 0x20 ADD PUSH2 0x489 SWAP2 SWAP1 PUSH2 0x14B6 JUMP JUMPDEST PUSH1 0x40 MLOAD PUSH1 0x20 DUP2 DUP4 SUB SUB DUP2 MSTORE SWAP1 PUSH1 0x40 MSTORE SWAP2 POP DUP2 DUP4 PUSH1 0x40 MLOAD PUSH1 0x20 ADD PUSH2 0x4AD SWAP3 SWAP2 SWAP1 PUSH2 0x14DC JUMP JUMPDEST PUSH1 0x40 MLOAD PUSH1 0x20 DUP2 DUP4 SUB SUB DUP2 MSTORE SWAP1 PUSH1 0x40 MSTORE SWAP2 POP PUSH1 0x3 DUP2 PUSH1 0x40 MLOAD PUSH2 0x4CE SWAP2 SWAP1 PUSH2 0x10A9 JUMP JUMPDEST SWAP1 DUP2 MSTORE PUSH1 0x20 ADD PUSH1 0x40 MLOAD DUP1 SWAP2 SUB SWAP1 KECCAK256 PUSH1 0x1 ADD DUP3 PUSH1 0x40 MLOAD PUSH1 0x20 ADD PUSH2 0x4F1 SWAP3 SWAP2 SWAP1 PUSH2 0x1583 JUMP JUMPDEST PUSH1 0x40 MLOAD PUSH1 0x20 DUP2 DUP4 SUB SUB DUP2 MSTORE SWAP1 PUSH1 0x40 MSTORE PUSH1 0x3 DUP3 PUSH1 0x40 MLOAD PUSH2 0x510 SWAP2 SWAP1 PUSH2 0x10A9 JUMP JUMPDEST SWAP1 DUP2 MSTORE PUSH1 0x20 ADD PUSH1 0x40 MLOAD DUP1 SWAP2 SUB SWAP1 KECCAK256 PUSH1 0x1 ADD SWAP1 DUP2 PUSH2 0x52D SWAP2 SWAP1 PUSH2 0x12CC JUMP JUMPDEST POP POP POP POP JUMP JUMPDEST PUSH1 0x0 PUSH1 0x1 DUP1 SLOAD PUSH2 0x543 SWAP2 SWAP1 PUSH2 0x15A7 JUMP JUMPDEST SWAP1 POP SWAP1 JUMP JUMPDEST PUSH1 0x60 DUP1 PUSH1 0x0 DUP1 PUSH1 0x2 PUSH1 0x0 DUP7 DUP2 MSTORE PUSH1 0x20 ADD SWAP1 DUP2 MSTORE PUSH1 0x20 ADD PUSH1 0x0 KECCAK256 PUSH1 0x0 ADD DUP1 SLOAD DUP1 PUSH1 0x20 MUL PUSH1 0x20 ADD PUSH1 0x40 MLOAD SWAP1 DUP2 ADD PUSH1 0x40 MSTORE DUP1 SWAP3 SWAP2 SWAP1 DUP2 DUP2 MSTORE PUSH1 0x20 ADD PUSH1 0x0 SWAP1 JUMPDEST DUP3 DUP3 LT ISZERO PUSH2 0x630 JUMPI DUP4 DUP3 SWAP1 PUSH1 0x0 MSTORE PUSH1 0x20 PUSH1 0x0 KECCAK256 ADD DUP1 SLOAD PUSH2 0x5A3 SWAP1 PUSH2 0x10EF JUMP JUMPDEST DUP1 PUSH1 0x1F ADD PUSH1 0x20 DUP1 SWAP2 DIV MUL PUSH1 0x20 ADD PUSH1 0x40 MLOAD SWAP1 DUP2 ADD PUSH1 0x40 MSTORE DUP1 SWAP3 SWAP2 SWAP1 DUP2 DUP2 MSTORE PUSH1 0x20 ADD DUP3 DUP1 SLOAD PUSH2 0x5CF SWAP1 PUSH2 0x10EF JUMP JUMPDEST DUP1 ISZERO PUSH2 0x61C JUMPI DUP1 PUSH1 0x1F LT PUSH2 0x5F1 JUMPI PUSH2 0x100 DUP1 DUP4 SLOAD DIV MUL DUP4 MSTORE SWAP2 PUSH1 0x20 ADD SWAP2 PUSH2 0x61C JUMP JUMPDEST DUP3 ADD SWAP2 SWAP1 PUSH1 0x0 MSTORE PUSH1 0x20 PUSH1 0x0 KECCAK256 SWAP1 JUMPDEST DUP2 SLOAD DUP2 MSTORE SWAP1 PUSH1 0x1 ADD SWAP1 PUSH1 0x20 ADD DUP1 DUP4 GT PUSH2 0x5FF JUMPI DUP3 SWAP1 SUB PUSH1 0x1F AND DUP3 ADD SWAP2 JUMPDEST POP POP POP POP POP DUP2 MSTORE PUSH1 0x20 ADD SWAP1 PUSH1 0x1 ADD SWAP1 PUSH2 0x584 JUMP JUMPDEST POP POP POP POP SWAP1 POP PUSH1 0x0 PUSH1 0x2 PUSH1 0x0 DUP8 DUP2 MSTORE PUSH1 0x20 ADD SWAP1 DUP2 MSTORE PUSH1 0x20 ADD PUSH1 0x0 KECCAK256 PUSH1 0x0 ADD DUP1 SLOAD SWAP1 POP PUSH8 0xFFFFFFFFFFFFFFFF DUP2 GT ISZERO PUSH2 0x66B JUMPI PUSH2 0x66A PUSH2 0x9A3 JUMP JUMPDEST JUMPDEST PUSH1 0x40 MLOAD SWAP1 DUP1 DUP3 MSTORE DUP1 PUSH1 0x20 MUL PUSH1 0x20 ADD DUP3 ADD PUSH1 0x40 MSTORE DUP1 ISZERO PUSH2 0x69E JUMPI DUP2 PUSH1 0x20 ADD JUMPDEST PUSH1 0x60 DUP2 MSTORE PUSH1 0x20 ADD SWAP1 PUSH1 0x1 SWAP1 SUB SWAP1 DUP2 PUSH2 0x689 JUMPI SWAP1 POP JUMPDEST POP SWAP1 POP PUSH1 0x0 SWAP3 POP JUMPDEST DUP2 MLOAD DUP4 LT ISZERO PUSH2 0x7A4 JUMPI PUSH1 0x3 DUP3 DUP5 DUP2 MLOAD DUP2 LT PUSH2 0x6C4 JUMPI PUSH2 0x6C3 PUSH2 0x139E JUMP JUMPDEST JUMPDEST PUSH1 0x20 MUL PUSH1 0x20 ADD ADD MLOAD PUSH1 0x40 MLOAD PUSH2 0x6D9 SWAP2 SWAP1 PUSH2 0x10A9 JUMP JUMPDEST SWAP1 DUP2 MSTORE PUSH1 0x20 ADD PUSH1 0x40 MLOAD DUP1 SWAP2 SUB SWAP1 KECCAK256 PUSH1 0x1 ADD DUP1 SLOAD PUSH2 0x6F5 SWAP1 PUSH2 0x10EF JUMP JUMPDEST DUP1 PUSH1 0x1F ADD PUSH1 0x20 DUP1 SWAP2 DIV MUL PUSH1 0x20 ADD PUSH1 0x40 MLOAD SWAP1 DUP2 ADD PUSH1 0x40 MSTORE DUP1 SWAP3 SWAP2 SWAP1 DUP2 DUP2 MSTORE PUSH1 0x20 ADD DUP3 DUP1 SLOAD PUSH2 0x721 SWAP1 PUSH2 0x10EF JUMP JUMPDEST DUP1 ISZERO PUSH2 0x76E JUMPI DUP1 PUSH1 0x1F LT PUSH2 0x743 JUMPI PUSH2 0x100 DUP1 DUP4 SLOAD DIV MUL DUP4 MSTORE SWAP2 PUSH1 0x20 ADD SWAP2 PUSH2 0x76E JUMP JUMPDEST DUP3 ADD SWAP2 SWAP1 PUSH1 0x0 MSTORE PUSH1 0x20 PUSH1 0x0 KECCAK256 SWAP1 JUMPDEST DUP2 SLOAD DUP2 MSTORE SWAP1 PUSH1 0x1 ADD SWAP1 PUSH1 0x20 ADD DUP1 DUP4 GT PUSH2 0x751 JUMPI DUP3 SWAP1 SUB PUSH1 0x1F AND DUP3 ADD SWAP2 JUMPDEST POP POP POP POP POP DUP2 DUP5 DUP2 MLOAD DUP2 LT PUSH2 0x786 JUMPI PUSH2 0x785 PUSH2 0x139E JUMP JUMPDEST JUMPDEST PUSH1 0x20 MUL PUSH1 0x20 ADD ADD DUP2 SWAP1 MSTORE POP DUP3 DUP1 PUSH2 0x79C SWAP1 PUSH2 0x13FC JUMP JUMPDEST SWAP4 POP POP PUSH2 0x6A6 JUMP JUMPDEST DUP1 PUSH1 0x2 PUSH1 0x0 DUP9 DUP2 MSTORE PUSH1 0x20 ADD SWAP1 DUP2 MSTORE PUSH1 0x20 ADD PUSH1 0x0 KECCAK256 PUSH1 0x0 ADD DUP1 DUP1 SLOAD DUP1 PUSH1 0x20 MUL PUSH1 0x20 ADD PUSH1 0x40 MLOAD SWAP1 DUP2 ADD PUSH1 0x40 MSTORE DUP1 SWAP3 SWAP2 SWAP1 DUP2 DUP2 MSTORE PUSH1 0x20 ADD PUSH1 0x0 SWAP1 JUMPDEST DUP3 DUP3 LT ISZERO PUSH2 0x888 JUMPI DUP4 DUP3 SWAP1 PUSH1 0x0 MSTORE PUSH1 0x20 PUSH1 0x0 KECCAK256 ADD DUP1 SLOAD PUSH2 0x7FB SWAP1 PUSH2 0x10EF JUMP JUMPDEST DUP1 PUSH1 0x1F ADD PUSH1 0x20 DUP1 SWAP2 DIV MUL PUSH1 0x20 ADD PUSH1 0x40 MLOAD SWAP1 DUP2 ADD PUSH1 0x40 MSTORE DUP1 SWAP3 SWAP2 SWAP1 DUP2 DUP2 MSTORE PUSH1 0x20 ADD DUP3 DUP1 SLOAD PUSH2 0x827 SWAP1 PUSH2 0x10EF JUMP JUMPDEST DUP1 ISZERO PUSH2 0x874 JUMPI DUP1 PUSH1 0x1F LT PUSH2 0x849 JUMPI PUSH2 0x100 DUP1 DUP4 SLOAD DIV MUL DUP4 MSTORE SWAP2 PUSH1 0x20 ADD SWAP2 PUSH2 0x874 JUMP JUMPDEST DUP3 ADD SWAP2 SWAP1 PUSH1 0x0 MSTORE PUSH1 0x20 PUSH1 0x0 KECCAK256 SWAP1 JUMPDEST DUP2 SLOAD DUP2 MSTORE SWAP1 PUSH1 0x1 ADD SWAP1 PUSH1 0x20 ADD DUP1 DUP4 GT PUSH2 0x857 JUMPI DUP3 SWAP1 SUB PUSH1 0x1F AND DUP3 ADD SWAP2 JUMPDEST POP POP POP POP POP DUP2 MSTORE PUSH1 0x20 ADD SWAP1 PUSH1 0x1 ADD SWAP1 PUSH2 0x7DC JUMP JUMPDEST POP POP POP POP SWAP1 POP SWAP5 POP SWAP5 POP POP POP POP SWAP2 POP SWAP2 JUMP JUMPDEST DUP3 DUP1 SLOAD DUP3 DUP3 SSTORE SWAP1 PUSH1 0x0 MSTORE PUSH1 0x20 PUSH1 0x0 KECCAK256 SWAP1 DUP2 ADD SWAP3 DUP3 ISZERO PUSH2 0x8E2 JUMPI SWAP2 PUSH1 0x20 MUL DUP3 ADD JUMPDEST DUP3 DUP2 GT ISZERO PUSH2 0x8E1 JUMPI DUP3 MLOAD DUP3 SWAP1 DUP2 PUSH2 0x8D1 SWAP2 SWAP1 PUSH2 0x12CC JUMP JUMPDEST POP SWAP2 PUSH1 0x20 ADD SWAP2 SWAP1 PUSH1 0x1 ADD SWAP1 PUSH2 0x8BA JUMP JUMPDEST JUMPDEST POP SWAP1 POP PUSH2 0x8EF SWAP2 SWAP1 PUSH2 0x8F3 JUMP JUMPDEST POP SWAP1 JUMP JUMPDEST JUMPDEST DUP1 DUP3 GT ISZERO PUSH2 0x913 JUMPI PUSH1 0x0 DUP2 DUP2 PUSH2 0x90A SWAP2 SWAP1 PUSH2 0x917 JUMP JUMPDEST POP PUSH1 0x1 ADD PUSH2 0x8F4 JUMP JUMPDEST POP SWAP1 JUMP JUMPDEST POP DUP1 SLOAD PUSH2 0x923 SWAP1 PUSH2 0x10EF JUMP JUMPDEST PUSH1 0x0 DUP3 SSTORE DUP1 PUSH1 0x1F LT PUSH2 0x935 JUMPI POP PUSH2 0x954 JUMP JUMPDEST PUSH1 0x1F ADD PUSH1 0x20 SWAP1 DIV SWAP1 PUSH1 0x0 MSTORE PUSH1 0x20 PUSH1 0x0 KECCAK256 SWAP1 DUP2 ADD SWAP1 PUSH2 0x953 SWAP2 SWAP1 PUSH2 0x957 JUMP JUMPDEST JUMPDEST POP JUMP JUMPDEST JUMPDEST DUP1 DUP3 GT ISZERO PUSH2 0x970 JUMPI PUSH1 0x0 DUP2 PUSH1 0x0 SWAP1 SSTORE POP PUSH1 0x1 ADD PUSH2 0x958 JUMP JUMPDEST POP SWAP1 JUMP JUMPDEST PUSH1 0x0 PUSH1 0x40 MLOAD SWAP1 POP SWAP1 JUMP JUMPDEST PUSH1 0x0 DUP1 REVERT JUMPDEST PUSH1 0x0 DUP1 REVERT JUMPDEST PUSH1 0x0 DUP1 REVERT JUMPDEST PUSH1 0x0 DUP1 REVERT JUMPDEST PUSH1 0x0 PUSH1 0x1F NOT PUSH1 0x1F DUP4 ADD AND SWAP1 POP SWAP2 SWAP1 POP JUMP JUMPDEST PUSH32 0x4E487B7100000000000000000000000000000000000000000000000000000000 PUSH1 0x0 MSTORE PUSH1 0x41 PUSH1 0x4 MSTORE PUSH1 0x24 PUSH1 0x0 REVERT JUMPDEST PUSH2 0x9DB DUP3 PUSH2 0x992 JUMP JUMPDEST DUP2 ADD DUP2 DUP2 LT PUSH8 0xFFFFFFFFFFFFFFFF DUP3 GT OR ISZERO PUSH2 0x9FA JUMPI PUSH2 0x9F9 PUSH2 0x9A3 JUMP JUMPDEST JUMPDEST DUP1 PUSH1 0x40 MSTORE POP POP POP JUMP JUMPDEST PUSH1 0x0 PUSH2 0xA0D PUSH2 0x974 JUMP JUMPDEST SWAP1 POP PUSH2 0xA19 DUP3 DUP3 PUSH2 0x9D2 JUMP JUMPDEST SWAP2 SWAP1 POP JUMP JUMPDEST PUSH1 0x0 PUSH8 0xFFFFFFFFFFFFFFFF DUP3 GT ISZERO PUSH2 0xA39 JUMPI PUSH2 0xA38 PUSH2 0x9A3 JUMP JUMPDEST JUMPDEST PUSH2 0xA42 DUP3 PUSH2 0x992 JUMP JUMPDEST SWAP1 POP PUSH1 0x20 DUP2 ADD SWAP1 POP SWAP2 SWAP1 POP JUMP JUMPDEST DUP3 DUP2 DUP4 CALLDATACOPY PUSH1 0x0 DUP4 DUP4 ADD MSTORE POP POP POP JUMP JUMPDEST PUSH1 0x0 PUSH2 0xA71 PUSH2 0xA6C DUP5 PUSH2 0xA1E JUMP JUMPDEST PUSH2 0xA03 JUMP JUMPDEST SWAP1 POP DUP3 DUP2 MSTORE PUSH1 0x20 DUP2 ADD DUP5 DUP5 DUP5 ADD GT ISZERO PUSH2 0xA8D JUMPI PUSH2 0xA8C PUSH2 0x98D JUMP JUMPDEST JUMPDEST PUSH2 0xA98 DUP5 DUP3 DUP6 PUSH2 0xA4F JUMP JUMPDEST POP SWAP4 SWAP3 POP POP POP JUMP JUMPDEST PUSH1 0x0 DUP3 PUSH1 0x1F DUP4 ADD SLT PUSH2 0xAB5 JUMPI PUSH2 0xAB4 PUSH2 0x988 JUMP JUMPDEST JUMPDEST DUP2 CALLDATALOAD PUSH2 0xAC5 DUP5 DUP3 PUSH1 0x20 DUP7 ADD PUSH2 0xA5E JUMP JUMPDEST SWAP2 POP POP SWAP3 SWAP2 POP POP JUMP JUMPDEST PUSH1 0x0 PUSH1 0x20 DUP3 DUP5 SUB SLT ISZERO PUSH2 0xAE4 JUMPI PUSH2 0xAE3 PUSH2 0x97E JUMP JUMPDEST JUMPDEST PUSH1 0x0 DUP3 ADD CALLDATALOAD PUSH8 0xFFFFFFFFFFFFFFFF DUP2 GT ISZERO PUSH2 0xB02 JUMPI PUSH2 0xB01 PUSH2 0x983 JUMP JUMPDEST JUMPDEST PUSH2 0xB0E DUP5 DUP3 DUP6 ADD PUSH2 0xAA0 JUMP JUMPDEST SWAP2 POP POP SWAP3 SWAP2 POP POP JUMP JUMPDEST PUSH1 0x0 PUSH8 0xFFFFFFFFFFFFFFFF DUP3 GT ISZERO PUSH2 0xB32 JUMPI PUSH2 0xB31 PUSH2 0x9A3 JUMP JUMPDEST JUMPDEST PUSH1 0x20 DUP3 MUL SWAP1 POP PUSH1 0x20 DUP2 ADD SWAP1 POP SWAP2 SWAP1 POP JUMP JUMPDEST PUSH1 0x0 DUP1 REVERT JUMPDEST PUSH1 0x0 PUSH2 0xB5B PUSH2 0xB56 DUP5 PUSH2 0xB17 JUMP JUMPDEST PUSH2 0xA03 JUMP JUMPDEST SWAP1 POP DUP1 DUP4 DUP3 MSTORE PUSH1 0x20 DUP3 ADD SWAP1 POP PUSH1 0x20 DUP5 MUL DUP4 ADD DUP6 DUP2 GT ISZERO PUSH2 0xB7E JUMPI PUSH2 0xB7D PUSH2 0xB43 JUMP JUMPDEST JUMPDEST DUP4 JUMPDEST DUP2 DUP2 LT ISZERO PUSH2 0xBC5 JUMPI DUP1 CALLDATALOAD PUSH8 0xFFFFFFFFFFFFFFFF DUP2 GT ISZERO PUSH2 0xBA3 JUMPI PUSH2 0xBA2 PUSH2 0x988 JUMP JUMPDEST JUMPDEST DUP1 DUP7 ADD PUSH2 0xBB0 DUP10 DUP3 PUSH2 0xAA0 JUMP JUMPDEST DUP6 MSTORE PUSH1 0x20 DUP6 ADD SWAP5 POP POP POP PUSH1 0x20 DUP2 ADD SWAP1 POP PUSH2 0xB80 JUMP JUMPDEST POP POP POP SWAP4 SWAP3 POP POP POP JUMP JUMPDEST PUSH1 0x0 DUP3 PUSH1 0x1F DUP4 ADD SLT PUSH2 0xBE4 JUMPI PUSH2 0xBE3 PUSH2 0x988 JUMP JUMPDEST JUMPDEST DUP2 CALLDATALOAD PUSH2 0xBF4 DUP5 DUP3 PUSH1 0x20 DUP7 ADD PUSH2 0xB48 JUMP JUMPDEST SWAP2 POP POP SWAP3 SWAP2 POP POP JUMP JUMPDEST PUSH1 0x0 DUP1 PUSH1 0x40 DUP4 DUP6 SUB SLT ISZERO PUSH2 0xC14 JUMPI PUSH2 0xC13 PUSH2 0x97E JUMP JUMPDEST JUMPDEST PUSH1 0x0 DUP4 ADD CALLDATALOAD PUSH8 0xFFFFFFFFFFFFFFFF DUP2 GT ISZERO PUSH2 0xC32 JUMPI PUSH2 0xC31 PUSH2 0x983 JUMP JUMPDEST JUMPDEST PUSH2 0xC3E DUP6 DUP3 DUP7 ADD PUSH2 0xBCF JUMP JUMPDEST SWAP3 POP POP PUSH1 0x20 DUP4 ADD CALLDATALOAD PUSH8 0xFFFFFFFFFFFFFFFF DUP2 GT ISZERO PUSH2 0xC5F JUMPI PUSH2 0xC5E PUSH2 0x983 JUMP JUMPDEST JUMPDEST PUSH2 0xC6B DUP6 DUP3 DUP7 ADD PUSH2 0xAA0 JUMP JUMPDEST SWAP2 POP POP SWAP3 POP SWAP3 SWAP1 POP JUMP JUMPDEST PUSH1 0x0 DUP2 SWAP1 POP SWAP2 SWAP1 POP JUMP JUMPDEST PUSH2 0xC88 DUP2 PUSH2 0xC75 JUMP JUMPDEST DUP2 EQ PUSH2 0xC93 JUMPI PUSH1 0x0 DUP1 REVERT JUMPDEST POP JUMP JUMPDEST PUSH1 0x0 DUP2 CALLDATALOAD SWAP1 POP PUSH2 0xCA5 DUP2 PUSH2 0xC7F JUMP JUMPDEST SWAP3 SWAP2 POP POP JUMP JUMPDEST PUSH1 0x0 PUSH1 0x20 DUP3 DUP5 SUB SLT ISZERO PUSH2 0xCC1 JUMPI PUSH2 0xCC0 PUSH2 0x97E JUMP JUMPDEST JUMPDEST PUSH1 0x0 PUSH2 0xCCF DUP5 DUP3 DUP6 ADD PUSH2 0xC96 JUMP JUMPDEST SWAP2 POP POP SWAP3 SWAP2 POP POP JUMP JUMPDEST PUSH1 0x0 DUP2 MLOAD SWAP1 POP SWAP2 SWAP1 POP JUMP JUMPDEST PUSH1 0x0 DUP3 DUP3 MSTORE PUSH1 0x20 DUP3 ADD SWAP1 POP SWAP3 SWAP2 POP POP JUMP JUMPDEST PUSH1 0x0 JUMPDEST DUP4 DUP2 LT ISZERO PUSH2 0xD12 JUMPI DUP1 DUP3 ADD MLOAD DUP2 DUP5 ADD MSTORE PUSH1 0x20 DUP2 ADD SWAP1 POP PUSH2 0xCF7 JUMP JUMPDEST PUSH1 0x0 DUP5 DUP5 ADD MSTORE POP POP POP POP JUMP JUMPDEST PUSH1 0x0 PUSH2 0xD29 DUP3 PUSH2 0xCD8 JUMP JUMPDEST PUSH2 0xD33 DUP2 DUP6 PUSH2 0xCE3 JUMP JUMPDEST SWAP4 POP PUSH2 0xD43 DUP2 DUP6 PUSH1 0x20 DUP7 ADD PUSH2 0xCF4 JUMP JUMPDEST PUSH2 0xD4C DUP2 PUSH2 0x992 JUMP JUMPDEST DUP5 ADD SWAP2 POP POP SWAP3 SWAP2 POP POP JUMP JUMPDEST PUSH1 0x0 PUSH1 0x20 DUP3 ADD SWAP1 POP DUP2 DUP2 SUB PUSH1 0x0 DUP4 ADD MSTORE PUSH2 0xD71 DUP2 DUP5 PUSH2 0xD1E JUMP JUMPDEST SWAP1 POP SWAP3 SWAP2 POP POP JUMP JUMPDEST PUSH1 0x0 DUP2 MLOAD SWAP1 POP SWAP2 SWAP1 POP JUMP JUMPDEST PUSH1 0x0 DUP3 DUP3 MSTORE PUSH1 0x20 DUP3 ADD SWAP1 POP SWAP3 SWAP2 POP POP JUMP JUMPDEST PUSH1 0x0 DUP2 SWAP1 POP PUSH1 0x20 DUP3 ADD SWAP1 POP SWAP2 SWAP1 POP JUMP JUMPDEST PUSH2 0xDAE DUP2 PUSH2 0xC75 JUMP JUMPDEST DUP3 MSTORE POP POP JUMP JUMPDEST PUSH1 0x0 PUSH2 0xDC0 DUP4 DUP4 PUSH2 0xDA5 JUMP JUMPDEST PUSH1 0x20 DUP4 ADD SWAP1 POP SWAP3 SWAP2 POP POP JUMP JUMPDEST PUSH1 0x0 PUSH1 0x20 DUP3 ADD SWAP1 POP SWAP2 SWAP1 POP JUMP JUMPDEST PUSH1 0x0 PUSH2 0xDE4 DUP3 PUSH2 0xD79 JUMP JUMPDEST PUSH2 0xDEE DUP2 DUP6 PUSH2 0xD84 JUMP JUMPDEST SWAP4 POP PUSH2 0xDF9 DUP4 PUSH2 0xD95 JUMP JUMPDEST DUP1 PUSH1 0x0 JUMPDEST DUP4 DUP2 LT ISZERO PUSH2 0xE2A JUMPI DUP2 MLOAD PUSH2 0xE11 DUP9 DUP3 PUSH2 0xDB4 JUMP JUMPDEST SWAP8 POP PUSH2 0xE1C DUP4 PUSH2 0xDCC JUMP JUMPDEST SWAP3 POP POP PUSH1 0x1 DUP2 ADD SWAP1 POP PUSH2 0xDFD JUMP JUMPDEST POP DUP6 SWAP4 POP POP POP POP SWAP3 SWAP2 POP POP JUMP JUMPDEST PUSH1 0x0 PUSH1 0x20 DUP3 ADD SWAP1 POP DUP2 DUP2 SUB PUSH1 0x0 DUP4 ADD MSTORE PUSH2 0xE51 DUP2 DUP5 PUSH2 0xDD9 JUMP JUMPDEST SWAP1 POP SWAP3 SWAP2 POP POP JUMP JUMPDEST PUSH1 0x0 DUP1 PUSH1 0x0 PUSH1 0x60 DUP5 DUP7 SUB SLT ISZERO PUSH2 0xE72 JUMPI PUSH2 0xE71 PUSH2 0x97E JUMP JUMPDEST JUMPDEST PUSH1 0x0 DUP5 ADD CALLDATALOAD PUSH8 0xFFFFFFFFFFFFFFFF DUP2 GT ISZERO PUSH2 0xE90 JUMPI PUSH2 0xE8F PUSH2 0x983 JUMP JUMPDEST JUMPDEST PUSH2 0xE9C DUP7 DUP3 DUP8 ADD PUSH2 0xAA0 JUMP JUMPDEST SWAP4 POP POP PUSH1 0x20 DUP5 ADD CALLDATALOAD PUSH8 0xFFFFFFFFFFFFFFFF DUP2 GT ISZERO PUSH2 0xEBD JUMPI PUSH2 0xEBC PUSH2 0x983 JUMP JUMPDEST JUMPDEST PUSH2 0xEC9 DUP7 DUP3 DUP8 ADD PUSH2 0xAA0 JUMP JUMPDEST SWAP3 POP POP PUSH1 0x40 DUP5 ADD CALLDATALOAD PUSH8 0xFFFFFFFFFFFFFFFF DUP2 GT ISZERO PUSH2 0xEEA JUMPI PUSH2 0xEE9 PUSH2 0x983 JUMP JUMPDEST JUMPDEST PUSH2 0xEF6 DUP7 DUP3 DUP8 ADD PUSH2 0xAA0 JUMP JUMPDEST SWAP2 POP POP SWAP3 POP SWAP3 POP SWAP3 JUMP JUMPDEST PUSH2 0xF09 DUP2 PUSH2 0xC75 JUMP JUMPDEST DUP3 MSTORE POP POP JUMP JUMPDEST PUSH1 0x0 PUSH1 0x20 DUP3 ADD SWAP1 POP PUSH2 0xF24 PUSH1 0x0 DUP4 ADD DUP5 PUSH2 0xF00 JUMP JUMPDEST SWAP3 SWAP2 POP POP JUMP JUMPDEST PUSH1 0x0 DUP2 MLOAD SWAP1 POP SWAP2 SWAP1 POP JUMP JUMPDEST PUSH1 0x0 DUP3 DUP3 MSTORE PUSH1 0x20 DUP3 ADD SWAP1 POP SWAP3 SWAP2 POP POP JUMP JUMPDEST PUSH1 0x0 DUP2 SWAP1 POP PUSH1 0x20 DUP3 ADD SWAP1 POP SWAP2 SWAP1 POP JUMP JUMPDEST PUSH1 0x0 DUP3 DUP3 MSTORE PUSH1 0x20 DUP3 ADD SWAP1 POP SWAP3 SWAP2 POP POP JUMP JUMPDEST PUSH1 0x0 PUSH2 0xF72 DUP3 PUSH2 0xCD8 JUMP JUMPDEST PUSH2 0xF7C DUP2 DUP6 PUSH2 0xF56 JUMP JUMPDEST SWAP4 POP PUSH2 0xF8C DUP2 DUP6 PUSH1 0x20 DUP7 ADD PUSH2 0xCF4 JUMP JUMPDEST PUSH2 0xF95 DUP2 PUSH2 0x992 JUMP JUMPDEST DUP5 ADD SWAP2 POP POP SWAP3 SWAP2 POP POP JUMP JUMPDEST PUSH1 0x0 PUSH2 0xFAC DUP4 DUP4 PUSH2 0xF67 JUMP JUMPDEST SWAP1 POP SWAP3 SWAP2 POP POP JUMP JUMPDEST PUSH1 0x0 PUSH1 0x20 DUP3 ADD SWAP1 POP SWAP2 SWAP1 POP JUMP JUMPDEST PUSH1 0x0 PUSH2 0xFCC DUP3 PUSH2 0xF2A JUMP JUMPDEST PUSH2 0xFD6 DUP2 DUP6 PUSH2 0xF35 JUMP JUMPDEST SWAP4 POP DUP4 PUSH1 0x20 DUP3 MUL DUP6 ADD PUSH2 0xFE8 DUP6 PUSH2 0xF46 JUMP JUMPDEST DUP1 PUSH1 0x0 JUMPDEST DUP6 DUP2 LT ISZERO PUSH2 0x1024 JUMPI DUP5 DUP5 SUB DUP10 MSTORE DUP2 MLOAD PUSH2 0x1005 DUP6 DUP3 PUSH2 0xFA0 JUMP JUMPDEST SWAP5 POP PUSH2 0x1010 DUP4 PUSH2 0xFB4 JUMP JUMPDEST SWAP3 POP PUSH1 0x20 DUP11 ADD SWAP10 POP POP PUSH1 0x1 DUP2 ADD SWAP1 POP PUSH2 0xFEC JUMP JUMPDEST POP DUP3 SWAP8 POP DUP8 SWAP6 POP POP POP POP POP POP SWAP3 SWAP2 POP POP JUMP JUMPDEST PUSH1 0x0 PUSH1 0x40 DUP3 ADD SWAP1 POP DUP2 DUP2 SUB PUSH1 0x0 DUP4 ADD MSTORE PUSH2 0x1050 DUP2 DUP6 PUSH2 0xFC1 JUMP JUMPDEST SWAP1 POP DUP2 DUP2 SUB PUSH1 0x20 DUP4 ADD MSTORE PUSH2 0x1064 DUP2 DUP5 PUSH2 0xFC1 JUMP JUMPDEST SWAP1 POP SWAP4 SWAP3 POP POP POP JUMP JUMPDEST PUSH1 0x0 DUP2 SWAP1 POP SWAP3 SWAP2 POP POP JUMP JUMPDEST PUSH1 0x0 PUSH2 0x1083 DUP3 PUSH2 0xCD8 JUMP JUMPDEST PUSH2 0x108D DUP2 DUP6 PUSH2 0x106D JUMP JUMPDEST SWAP4 POP PUSH2 0x109D DUP2 DUP6 PUSH1 0x20 DUP7 ADD PUSH2 0xCF4 JUMP JUMPDEST DUP1 DUP5 ADD SWAP2 POP POP SWAP3 SWAP2 POP POP JUMP JUMPDEST PUSH1 0x0 PUSH2 0x10B5 DUP3 DUP5 PUSH2 0x1078 JUMP JUMPDEST SWAP2 POP DUP2 SWAP1 POP SWAP3 SWAP2 POP POP JUMP JUMPDEST PUSH32 0x4E487B7100000000000000000000000000000000000000000000000000000000 PUSH1 0x0 MSTORE PUSH1 0x22 PUSH1 0x4 MSTORE PUSH1 0x24 PUSH1 0x0 REVERT JUMPDEST PUSH1 0x0 PUSH1 0x2 DUP3 DIV SWAP1 POP PUSH1 0x1 DUP3 AND DUP1 PUSH2 0x1107 JUMPI PUSH1 0x7F DUP3 AND SWAP2 POP JUMPDEST PUSH1 0x20 DUP3 LT DUP2 SUB PUSH2 0x111A JUMPI PUSH2 0x1119 PUSH2 0x10C0 JUMP JUMPDEST JUMPDEST POP SWAP2 SWAP1 POP JUMP JUMPDEST PUSH1 0x0 DUP2 SWAP1 POP DUP2 PUSH1 0x0 MSTORE PUSH1 0x20 PUSH1 0x0 KECCAK256 SWAP1 POP SWAP2 SWAP1 POP JUMP JUMPDEST PUSH1 0x0 PUSH1 0x20 PUSH1 0x1F DUP4 ADD DIV SWAP1 POP SWAP2 SWAP1 POP JUMP JUMPDEST PUSH1 0x0 DUP3 DUP3 SHL SWAP1 POP SWAP3 SWAP2 POP POP JUMP JUMPDEST PUSH1 0x0 PUSH1 0x8 DUP4 MUL PUSH2 0x1182 PUSH32 0xFFFFFFFFFFFFFFFFFFFFFFFFFFFFFFFFFFFFFFFFFFFFFFFFFFFFFFFFFFFFFFFF DUP3 PUSH2 0x1145 JUMP JUMPDEST PUSH2 0x118C DUP7 DUP4 PUSH2 0x1145 JUMP JUMPDEST SWAP6 POP DUP1 NOT DUP5 AND SWAP4 POP DUP1 DUP7 AND DUP5 OR SWAP3 POP POP POP SWAP4 SWAP3 POP POP POP JUMP JUMPDEST PUSH1 0x0 DUP2 SWAP1 POP SWAP2 SWAP1 POP JUMP JUMPDEST PUSH1 0x0 PUSH2 0x11C9 PUSH2 0x11C4 PUSH2 0x11BF DUP5 PUSH2 0xC75 JUMP JUMPDEST PUSH2 0x11A4 JUMP JUMPDEST PUSH2 0xC75 JUMP JUMPDEST SWAP1 POP SWAP2 SWAP1 POP JUMP JUMPDEST PUSH1 0x0 DUP2 SWAP1 POP SWAP2 SWAP1 POP JUMP JUMPDEST PUSH2 0x11E3 DUP4 PUSH2 0x11AE JUMP JUMPDEST PUSH2 0x11F7 PUSH2 0x11EF DUP3 PUSH2 0x11D0 JUMP JUMPDEST DUP5 DUP5 SLOAD PUSH2 0x1152 JUMP JUMPDEST DUP3 SSTORE POP POP POP POP JUMP JUMPDEST PUSH1 0x0 SWAP1 JUMP JUMPDEST PUSH2 0x120C PUSH2 0x11FF JUMP JUMPDEST PUSH2 0x1217 DUP2 DUP5 DUP5 PUSH2 0x11DA JUMP JUMPDEST POP POP POP JUMP JUMPDEST JUMPDEST DUP2 DUP2 LT ISZERO PUSH2 0x123B JUMPI PUSH2 0x1230 PUSH1 0x0 DUP3 PUSH2 0x1204 JUMP JUMPDEST PUSH1 0x1 DUP2 ADD SWAP1 POP PUSH2 0x121D JUMP JUMPDEST POP POP JUMP JUMPDEST PUSH1 0x1F DUP3 GT ISZERO PUSH2 0x1280 JUMPI PUSH2 0x1251 DUP2 PUSH2 0x1120 JUMP JUMPDEST PUSH2 0x125A DUP5 PUSH2 0x1135 JUMP JUMPDEST DUP2 ADD PUSH1 0x20 DUP6 LT ISZERO PUSH2 0x1269 JUMPI DUP2 SWAP1 POP JUMPDEST PUSH2 0x127D PUSH2 0x1275 DUP6 PUSH2 0x1135 JUMP JUMPDEST DUP4 ADD DUP3 PUSH2 0x121C JUMP JUMPDEST POP POP JUMPDEST POP POP POP JUMP JUMPDEST PUSH1 0x0 DUP3 DUP3 SHR SWAP1 POP SWAP3 SWAP2 POP POP JUMP JUMPDEST PUSH1 0x0 PUSH2 0x12A3 PUSH1 0x0 NOT DUP5 PUSH1 0x8 MUL PUSH2 0x1285 JUMP JUMPDEST NOT DUP1 DUP4 AND SWAP2 POP POP SWAP3 SWAP2 POP POP JUMP JUMPDEST PUSH1 0x0 PUSH2 0x12BC DUP4 DUP4 PUSH2 0x1292 JUMP JUMPDEST SWAP2 POP DUP3 PUSH1 0x2 MUL DUP3 OR SWAP1 POP SWAP3 SWAP2 POP POP JUMP JUMPDEST PUSH2 0x12D5 DUP3 PUSH2 0xCD8 JUMP JUMPDEST PUSH8 0xFFFFFFFFFFFFFFFF DUP2 GT ISZERO PUSH2 0x12EE JUMPI PUSH2 0x12ED PUSH2 0x9A3 JUMP JUMPDEST JUMPDEST PUSH2 0x12F8 DUP3 SLOAD PUSH2 0x10EF JUMP JUMPDEST PUSH2 0x1303 DUP3 DUP3 DUP6 PUSH2 0x123F JUMP JUMPDEST PUSH1 0x0 PUSH1 0x20 SWAP1 POP PUSH1 0x1F DUP4 GT PUSH1 0x1 DUP2 EQ PUSH2 0x1336 JUMPI PUSH1 0x0 DUP5 ISZERO PUSH2 0x1324 JUMPI DUP3 DUP8 ADD MLOAD SWAP1 POP JUMPDEST PUSH2 0x132E DUP6 DUP3 PUSH2 0x12B0 JUMP JUMPDEST DUP7 SSTORE POP PUSH2 0x1396 JUMP JUMPDEST PUSH1 0x1F NOT DUP5 AND PUSH2 0x1344 DUP7 PUSH2 0x1120 JUMP JUMPDEST PUSH1 0x0 JUMPDEST DUP3 DUP2 LT ISZERO PUSH2 0x136C JUMPI DUP5 DUP10 ADD MLOAD DUP3 SSTORE PUSH1 0x1 DUP3 ADD SWAP2 POP PUSH1 0x20 DUP6 ADD SWAP5 POP PUSH1 0x20 DUP2 ADD SWAP1 POP PUSH2 0x1347 JUMP JUMPDEST DUP7 DUP4 LT ISZERO PUSH2 0x1389 JUMPI DUP5 DUP10 ADD MLOAD PUSH2 0x1385 PUSH1 0x1F DUP10 AND DUP3 PUSH2 0x1292 JUMP JUMPDEST DUP4 SSTORE POP JUMPDEST PUSH1 0x1 PUSH1 0x2 DUP9 MUL ADD DUP9 SSTORE POP POP POP JUMPDEST POP POP POP POP POP POP JUMP JUMPDEST PUSH32 0x4E487B7100000000000000000000000000000000000000000000000000000000 PUSH1 0x0 MSTORE PUSH1 0x32 PUSH1 0x4 MSTORE PUSH1 0x24 PUSH1 0x0 REVERT JUMPDEST PUSH32 0x4E487B7100000000000000000000000000000000000000000000000000000000 PUSH1 0x0 MSTORE PUSH1 0x11 PUSH1 0x4 MSTORE PUSH1 0x24 PUSH1 0x0 REVERT JUMPDEST PUSH1 0x0 PUSH2 0x1407 DUP3 PUSH2 0xC75 JUMP JUMPDEST SWAP2 POP PUSH32 0xFFFFFFFFFFFFFFFFFFFFFFFFFFFFFFFFFFFFFFFFFFFFFFFFFFFFFFFFFFFFFFFF DUP3 SUB PUSH2 0x1439 JUMPI PUSH2 0x1438 PUSH2 0x13CD JUMP JUMPDEST JUMPDEST PUSH1 0x1 DUP3 ADD SWAP1 POP SWAP2 SWAP1 POP JUMP JUMPDEST PUSH32 0x2020000000000000000000000000000000000000000000000000000000000000 DUP2 MSTORE POP JUMP JUMPDEST PUSH1 0x0 PUSH2 0x1475 DUP3 PUSH2 0x1444 JUMP JUMPDEST PUSH1 0x2 DUP3 ADD SWAP2 POP PUSH2 0x1485 DUP3 DUP5 PUSH2 0x1078 JUMP JUMPDEST SWAP2 POP DUP2 SWAP1 POP SWAP3 SWAP2 POP POP JUMP JUMPDEST PUSH32 0x2000000000000000000000000000000000000000000000000000000000000000 DUP2 MSTORE POP JUMP JUMPDEST PUSH1 0x0 PUSH2 0x14C2 DUP3 DUP5 PUSH2 0x1078 JUMP JUMPDEST SWAP2 POP PUSH2 0x14CD DUP3 PUSH2 0x1490 JUMP JUMPDEST PUSH1 0x1 DUP3 ADD SWAP2 POP DUP2 SWAP1 POP SWAP3 SWAP2 POP POP JUMP JUMPDEST PUSH1 0x0 PUSH2 0x14E8 DUP3 DUP6 PUSH2 0x1078 JUMP JUMPDEST SWAP2 POP PUSH2 0x14F4 DUP3 DUP5 PUSH2 0x1078 JUMP JUMPDEST SWAP2 POP DUP2 SWAP1 POP SWAP4 SWAP3 POP POP POP JUMP JUMPDEST PUSH1 0x0 DUP2 SLOAD PUSH2 0x150D DUP2 PUSH2 0x10EF JUMP JUMPDEST PUSH2 0x1517 DUP2 DUP7 PUSH2 0x106D JUMP JUMPDEST SWAP5 POP PUSH1 0x1 DUP3 AND PUSH1 0x0 DUP2 EQ PUSH2 0x1532 JUMPI PUSH1 0x1 DUP2 EQ PUSH2 0x1547 JUMPI PUSH2 0x157A JUMP JUMPDEST PUSH1 0xFF NOT DUP4 AND DUP7 MSTORE DUP2 ISZERO ISZERO DUP3 MUL DUP7 ADD SWAP4 POP PUSH2 0x157A JUMP JUMPDEST PUSH2 0x1550 DUP6 PUSH2 0x1120 JUMP JUMPDEST PUSH1 0x0 JUMPDEST DUP4 DUP2 LT ISZERO PUSH2 0x1572 JUMPI DUP2 SLOAD DUP2 DUP10 ADD MSTORE PUSH1 0x1 DUP3 ADD SWAP2 POP PUSH1 0x20 DUP2 ADD SWAP1 POP PUSH2 0x1553 JUMP JUMPDEST DUP4 DUP9 ADD SWAP6 POP POP POP JUMPDEST POP POP POP SWAP3 SWAP2 POP POP JUMP JUMPDEST PUSH1 0x0 PUSH2 0x158F DUP3 DUP6 PUSH2 0x1500 JUMP JUMPDEST SWAP2 POP PUSH2 0x159B DUP3 DUP5 PUSH2 0x1078 JUMP JUMPDEST SWAP2 POP DUP2 SWAP1 POP SWAP4 SWAP3 POP POP POP JUMP JUMPDEST PUSH1 0x0 PUSH2 0x15B2 DUP3 PUSH2 0xC75 JUMP JUMPDEST SWAP2 POP PUSH2 0x15BD DUP4 PUSH2 0xC75 JUMP JUMPDEST SWAP3 POP DUP3 DUP3 SUB SWAP1 POP DUP2 DUP2 GT ISZERO PUSH2 0x15D5 JUMPI PUSH2 0x15D4 PUSH2 0x13CD JUMP JUMPDEST JUMPDEST SWAP3 SWAP2 POP POP JUMP INVALID LOG2 PUSH5 0x6970667358 0x22 SLT KECCAK256 0x2F BYTE DUP10 DUP6 SWAP10 EXTCODEHASH 0xB9 0xDC 0x27 0xC4 0x5D GT PUSH10 0x2B5E3CD7B33CFBD90758 0xDD DUP1 SWAP7 BASEFEE BASEFEE PUSH6 0x5F3FBE64736F PUSH13 0x63430008120033000000000000 "
				},
				"gasEstimates": {
					"creation": {
						"codeDepositCost": "1129800",
						"executionCost": "6180",
						"totalCost": "1135980"
					},
					"external": {
						"addSeller(string)": "infinite",
						"getAllItems(string)": "infinite",
						"getItem(uint256)": "infinite",
						"getQuote(uint256)": "infinite",
						"getQuotes()": "infinite",
						"setItems(string[],string)": "infinite",
						"setQuote(string,string,string)": "infinite"
					}
				},
				"methodIdentifiers": {
					"addSeller(string)": "245349d3",
					"getAllItems(string)": "7841eb9f",
					"getItem(uint256)": "3129e773",
					"getQuote(uint256)": "cf39918e",
					"getQuotes()": "a4204e39",
					"setItems(string[],string)": "2b912369",
					"setQuote(string,string,string)": "a08bc01a"
				}
			},
			"storageLayout": {
				"storage": [
					{
						"astId": 3,
						"contract": "buyerToSeller2.sol:bTs",
						"label": "buyer",
						"offset": 0,
						"slot": "0",
						"type": "t_address_payable"
					},
					{
						"astId": 6,
						"contract": "buyerToSeller2.sol:bTs",
						"label": "count",
						"offset": 0,
						"slot": "1",
						"type": "t_uint256"
					},
					{
						"astId": 29,
						"contract": "buyerToSeller2.sol:bTs",
						"label": "B",
						"offset": 0,
						"slot": "2",
						"type": "t_mapping(t_uint256,t_struct(Items)16_storage)"
					},
					{
						"astId": 34,
						"contract": "buyerToSeller2.sol:bTs",
						"label": "tender",
						"offset": 0,
						"slot": "3",
						"type": "t_mapping(t_string_memory_ptr,t_struct(Sellers)24_storage)"
					}
				],
				"types": {
					"t_address_payable": {
						"encoding": "inplace",
						"label": "address payable",
						"numberOfBytes": "20"
					},
					"t_array(t_string_storage)dyn_storage": {
						"base": "t_string_storage",
						"encoding": "dynamic_array",
						"label": "string[]",
						"numberOfBytes": "32"
					},
					"t_array(t_uint256)dyn_storage": {
						"base": "t_uint256",
						"encoding": "dynamic_array",
						"label": "uint256[]",
						"numberOfBytes": "32"
					},
					"t_mapping(t_string_memory_ptr,t_struct(Sellers)24_storage)": {
						"encoding": "mapping",
						"key": "t_string_memory_ptr",
						"label": "mapping(string => struct bTs.Sellers)",
						"numberOfBytes": "32",
						"value": "t_struct(Sellers)24_storage"
					},
					"t_mapping(t_uint256,t_struct(Items)16_storage)": {
						"encoding": "mapping",
						"key": "t_uint256",
						"label": "mapping(uint256 => struct bTs.Items)",
						"numberOfBytes": "32",
						"value": "t_struct(Items)16_storage"
					},
					"t_string_memory_ptr": {
						"encoding": "bytes",
						"label": "string",
						"numberOfBytes": "32"
					},
					"t_string_storage": {
						"encoding": "bytes",
						"label": "string",
						"numberOfBytes": "32"
					},
					"t_struct(Items)16_storage": {
						"encoding": "inplace",
						"label": "struct bTs.Items",
						"members": [
							{
								"astId": 9,
								"contract": "buyerToSeller2.sol:bTs",
								"label": "emails",
								"offset": 0,
								"slot": "0",
								"type": "t_array(t_string_storage)dyn_storage"
							},
							{
								"astId": 11,
								"contract": "buyerToSeller2.sol:bTs",
								"label": "item",
								"offset": 0,
								"slot": "1",
								"type": "t_string_storage"
							},
							{
								"astId": 13,
								"contract": "buyerToSeller2.sol:bTs",
								"label": "quantity",
								"offset": 0,
								"slot": "2",
								"type": "t_string_storage"
							},
							{
								"astId": 15,
								"contract": "buyerToSeller2.sol:bTs",
								"label": "p",
								"offset": 0,
								"slot": "3",
								"type": "t_uint256"
							}
						],
						"numberOfBytes": "128"
					},
					"t_struct(Sellers)24_storage": {
						"encoding": "inplace",
						"label": "struct bTs.Sellers",
						"members": [
							{
								"astId": 18,
								"contract": "buyerToSeller2.sol:bTs",
								"label": "order",
								"offset": 0,
								"slot": "0",
								"type": "t_string_storage"
							},
							{
								"astId": 20,
								"contract": "buyerToSeller2.sol:bTs",
								"label": "quote",
								"offset": 0,
								"slot": "1",
								"type": "t_string_storage"
							},
							{
								"astId": 23,
								"contract": "buyerToSeller2.sol:bTs",
								"label": "n",
								"offset": 0,
								"slot": "2",
								"type": "t_array(t_uint256)dyn_storage"
							}
						],
						"numberOfBytes": "96"
					},
					"t_uint256": {
						"encoding": "inplace",
						"label": "uint256",
						"numberOfBytes": "32"
					}
				}
			},
			"userdoc": {
				"kind": "user",
				"methods": {},
				"version": 1
			}
		}
	}
}