{
	"Desktop/buyerSender/html/buyerToSeller2.sol": {
		"bTs": {
			"abi": [
				{
					"inputs": [
						{
							"internalType": "string",
							"name": "email",
							"type": "string"
						}
					],
					"name": "addSeller",
					"outputs": [],
					"stateMutability": "nonpayable",
					"type": "function"
				},
				{
					"inputs": [
						{
							"internalType": "string",
							"name": "mail",
							"type": "string"
						}
					],
					"name": "getAllItems",
					"outputs": [
						{
							"internalType": "uint256[]",
							"name": "arr",
							"type": "uint256[]"
						}
					],
					"stateMutability": "view",
					"type": "function"
				},
				{
					"inputs": [
						{
							"internalType": "uint256",
							"name": "id",
							"type": "uint256"
						}
					],
					"name": "getItem",
					"outputs": [
						{
							"internalType": "string",
							"name": "",
							"type": "string"
						}
					],
					"stateMutability": "view",
					"type": "function"
				},
				{
					"inputs": [
						{
							"internalType": "string",
							"name": "mail",
							"type": "string"
						}
					],
					"name": "getItems",
					"outputs": [
						{
							"internalType": "string",
							"name": "",
							"type": "string"
						},
						{
							"internalType": "uint256",
							"name": "",
							"type": "uint256"
						}
					],
					"stateMutability": "nonpayable",
					"type": "function"
				},
				{
					"inputs": [
						{
							"internalType": "uint256",
							"name": "id",
							"type": "uint256"
						}
					],
					"name": "getQuote",
					"outputs": [
						{
							"internalType": "string[]",
							"name": "",
							"type": "string[]"
						}
					],
					"stateMutability": "view",
					"type": "function"
				},
				{
					"inputs": [],
					"name": "getQuotes",
					"outputs": [
						{
							"internalType": "uint256",
							"name": "",
							"type": "uint256"
						}
					],
					"stateMutability": "view",
					"type": "function"
				},
				{
					"inputs": [
						{
							"internalType": "string[]",
							"name": "_emails",
							"type": "string[]"
						},
						{
							"internalType": "string",
							"name": "_item",
							"type": "string"
						}
					],
					"name": "setItems",
					"outputs": [],
					"stateMutability": "nonpayable",
					"type": "function"
				},
				{
					"inputs": [
						{
							"internalType": "string",
							"name": "_quote",
							"type": "string"
						},
						{
							"internalType": "string",
							"name": "id",
							"type": "string"
						},
						{
							"internalType": "string",
							"name": "_email",
							"type": "string"
						}
					],
					"name": "setQuote",
					"outputs": [],
					"stateMutability": "nonpayable",
					"type": "function"
				}
			],
			"devdoc": {
				"kind": "dev",
				"methods": {},
				"version": 1
			},
			"evm": {
				"assembly": "    /* \"Desktop/buyerSender/html/buyerToSeller2.sol\":58:2226  contract bTs{... */\n  mstore(0x40, 0x80)\n    /* \"Desktop/buyerSender/html/buyerToSeller2.sol\":116:117  0 */\n  0x00\n    /* \"Desktop/buyerSender/html/buyerToSeller2.sol\":105:117  uint count=0 */\n  0x01\n  sstore\n    /* \"Desktop/buyerSender/html/buyerToSeller2.sol\":58:2226  contract bTs{... */\n  callvalue\n  dup1\n  iszero\n  tag_1\n  jumpi\n  0x00\n  dup1\n  revert\ntag_1:\n  pop\n  dataSize(sub_0)\n  dup1\n  dataOffset(sub_0)\n  0x00\n  codecopy\n  0x00\n  return\nstop\n\nsub_0: assembly {\n        /* \"Desktop/buyerSender/html/buyerToSeller2.sol\":58:2226  contract bTs{... */\n      mstore(0x40, 0x80)\n      callvalue\n      dup1\n      iszero\n      tag_1\n      jumpi\n      0x00\n      dup1\n      revert\n    tag_1:\n      pop\n      jumpi(tag_2, lt(calldatasize, 0x04))\n      shr(0xe0, calldataload(0x00))\n      dup1\n      0xa08bc01a\n      gt\n      tag_11\n      jumpi\n      dup1\n      0xa08bc01a\n      eq\n      tag_7\n      jumpi\n      dup1\n      0xa4204e39\n      eq\n      tag_8\n      jumpi\n      dup1\n      0xcb78b527\n      eq\n      tag_9\n      jumpi\n      dup1\n      0xcf39918e\n      eq\n      tag_10\n      jumpi\n      jump(tag_2)\n    tag_11:\n      dup1\n      0x245349d3\n      eq\n      tag_3\n      jumpi\n      dup1\n      0x2b912369\n      eq\n      tag_4\n      jumpi\n      dup1\n      0x3129e773\n      eq\n      tag_5\n      jumpi\n      dup1\n      0x7841eb9f\n      eq\n      tag_6\n      jumpi\n    tag_2:\n      0x00\n      dup1\n      revert\n        /* \"Desktop/buyerSender/html/buyerToSeller2.sol\":401:491  function addSeller(string memory email)public{... */\n    tag_3:\n      tag_12\n      0x04\n      dup1\n      calldatasize\n      sub\n      dup2\n      add\n      swap1\n      tag_13\n      swap2\n      swap1\n      tag_14\n      jump\t// in\n    tag_13:\n      tag_15\n      jump\t// in\n    tag_12:\n      stop\n        /* \"Desktop/buyerSender/html/buyerToSeller2.sol\":497:690  function setItems(string[] memory _emails,string memory _item)public{... */\n    tag_4:\n      tag_16\n      0x04\n      dup1\n      calldatasize\n      sub\n      dup2\n      add\n      swap1\n      tag_17\n      swap2\n      swap1\n      tag_18\n      jump\t// in\n    tag_17:\n      tag_19\n      jump\t// in\n    tag_16:\n      stop\n        /* \"Desktop/buyerSender/html/buyerToSeller2.sol\":1361:1456  function getItem(uint id)public view returns(string memory){... */\n    tag_5:\n      tag_20\n      0x04\n      dup1\n      calldatasize\n      sub\n      dup2\n      add\n      swap1\n      tag_21\n      swap2\n      swap1\n      tag_22\n      jump\t// in\n    tag_21:\n      tag_23\n      jump\t// in\n    tag_20:\n      mload(0x40)\n      tag_24\n      swap2\n      swap1\n      tag_25\n      jump\t// in\n    tag_24:\n      mload(0x40)\n      dup1\n      swap2\n      sub\n      swap1\n      return\n        /* \"Desktop/buyerSender/html/buyerToSeller2.sol\":1237:1355  function getAllItems(string memory mail)public view returns(uint[] memory arr){... */\n    tag_6:\n      tag_26\n      0x04\n      dup1\n      calldatasize\n      sub\n      dup2\n      add\n      swap1\n      tag_27\n      swap2\n      swap1\n      tag_14\n      jump\t// in\n    tag_27:\n      tag_28\n      jump\t// in\n    tag_26:\n      mload(0x40)\n      tag_29\n      swap2\n      swap1\n      tag_30\n      jump\t// in\n    tag_29:\n      mload(0x40)\n      dup1\n      swap2\n      sub\n      swap1\n      return\n        /* \"Desktop/buyerSender/html/buyerToSeller2.sol\":1462:1646  function setQuote(string memory _quote,string memory id,string memory _email)public{... */\n    tag_7:\n      tag_31\n      0x04\n      dup1\n      calldatasize\n      sub\n      dup2\n      add\n      swap1\n      tag_32\n      swap2\n      swap1\n      tag_33\n      jump\t// in\n    tag_32:\n      tag_34\n      jump\t// in\n    tag_31:\n      stop\n        /* \"Desktop/buyerSender/html/buyerToSeller2.sol\":2145:2223  function getQuotes()public view returns(uint){... */\n    tag_8:\n      tag_35\n      tag_36\n      jump\t// in\n    tag_35:\n      mload(0x40)\n      tag_37\n      swap2\n      swap1\n      tag_38\n      jump\t// in\n    tag_37:\n      mload(0x40)\n      dup1\n      swap2\n      sub\n      swap1\n      return\n        /* \"Desktop/buyerSender/html/buyerToSeller2.sol\":696:1231  function getItems(string memory mail)public returns(string memory,uint){... */\n    tag_9:\n      tag_39\n      0x04\n      dup1\n      calldatasize\n      sub\n      dup2\n      add\n      swap1\n      tag_40\n      swap2\n      swap1\n      tag_14\n      jump\t// in\n    tag_40:\n      tag_41\n      jump\t// in\n    tag_39:\n      mload(0x40)\n      tag_42\n      swap3\n      swap2\n      swap1\n      tag_43\n      jump\t// in\n    tag_42:\n      mload(0x40)\n      dup1\n      swap2\n      sub\n      swap1\n      return\n        /* \"Desktop/buyerSender/html/buyerToSeller2.sol\":1652:1918  function getQuote(uint id)public view returns(string[] memory){... */\n    tag_10:\n      tag_44\n      0x04\n      dup1\n      calldatasize\n      sub\n      dup2\n      add\n      swap1\n      tag_45\n      swap2\n      swap1\n      tag_22\n      jump\t// in\n    tag_45:\n      tag_46\n      jump\t// in\n    tag_44:\n      mload(0x40)\n      tag_47\n      swap2\n      swap1\n      tag_48\n      jump\t// in\n    tag_47:\n      mload(0x40)\n      dup1\n      swap2\n      sub\n      swap1\n      return\n        /* \"Desktop/buyerSender/html/buyerToSeller2.sol\":401:491  function addSeller(string memory email)public{... */\n    tag_15:\n        /* \"Desktop/buyerSender/html/buyerToSeller2.sol\":461:483  tender[email].order=\"\" */\n      mload(0x40)\n      dup1\n      0x20\n      add\n      0x40\n      mstore\n      dup1\n      0x00\n      dup2\n      mstore\n      pop\n        /* \"Desktop/buyerSender/html/buyerToSeller2.sol\":461:467  tender */\n      0x03\n        /* \"Desktop/buyerSender/html/buyerToSeller2.sol\":468:473  email */\n      dup3\n        /* \"Desktop/buyerSender/html/buyerToSeller2.sol\":461:474  tender[email] */\n      mload(0x40)\n      tag_50\n      swap2\n      swap1\n      tag_51\n      jump\t// in\n    tag_50:\n      swap1\n      dup2\n      mstore\n      0x20\n      add\n      mload(0x40)\n      dup1\n      swap2\n      sub\n      swap1\n      keccak256\n        /* \"Desktop/buyerSender/html/buyerToSeller2.sol\":461:480  tender[email].order */\n      0x00\n      add\n        /* \"Desktop/buyerSender/html/buyerToSeller2.sol\":461:483  tender[email].order=\"\" */\n      swap1\n      dup2\n      tag_52\n      swap2\n      swap1\n      tag_53\n      jump\t// in\n    tag_52:\n      pop\n        /* \"Desktop/buyerSender/html/buyerToSeller2.sol\":401:491  function addSeller(string memory email)public{... */\n      pop\n      jump\t// out\n        /* \"Desktop/buyerSender/html/buyerToSeller2.sol\":497:690  function setItems(string[] memory _emails,string memory _item)public{... */\n    tag_19:\n        /* \"Desktop/buyerSender/html/buyerToSeller2.sol\":592:599  _emails */\n      dup2\n        /* \"Desktop/buyerSender/html/buyerToSeller2.sol\":576:577  B */\n      0x02\n        /* \"Desktop/buyerSender/html/buyerToSeller2.sol\":576:584  B[count] */\n      0x00\n        /* \"Desktop/buyerSender/html/buyerToSeller2.sol\":578:583  count */\n      sload(0x01)\n        /* \"Desktop/buyerSender/html/buyerToSeller2.sol\":576:584  B[count] */\n      dup2\n      mstore\n      0x20\n      add\n      swap1\n      dup2\n      mstore\n      0x20\n      add\n      0x00\n      keccak256\n        /* \"Desktop/buyerSender/html/buyerToSeller2.sol\":576:591  B[count].emails */\n      0x00\n      add\n        /* \"Desktop/buyerSender/html/buyerToSeller2.sol\":576:599  B[count].emails=_emails */\n      swap1\n      dup1\n      mload\n      swap1\n      0x20\n      add\n      swap1\n      tag_55\n      swap3\n      swap2\n      swap1\n      tag_56\n      jump\t// in\n    tag_55:\n      pop\n        /* \"Desktop/buyerSender/html/buyerToSeller2.sol\":624:629  _item */\n      dup1\n        /* \"Desktop/buyerSender/html/buyerToSeller2.sol\":610:611  B */\n      0x02\n        /* \"Desktop/buyerSender/html/buyerToSeller2.sol\":610:618  B[count] */\n      0x00\n        /* \"Desktop/buyerSender/html/buyerToSeller2.sol\":612:617  count */\n      sload(0x01)\n        /* \"Desktop/buyerSender/html/buyerToSeller2.sol\":610:618  B[count] */\n      dup2\n      mstore\n      0x20\n      add\n      swap1\n      dup2\n      mstore\n      0x20\n      add\n      0x00\n      keccak256\n        /* \"Desktop/buyerSender/html/buyerToSeller2.sol\":610:623  B[count].item */\n      0x01\n      add\n        /* \"Desktop/buyerSender/html/buyerToSeller2.sol\":610:629  B[count].item=_item */\n      swap1\n      dup2\n      tag_57\n      swap2\n      swap1\n      tag_53\n      jump\t// in\n    tag_57:\n      pop\n        /* \"Desktop/buyerSender/html/buyerToSeller2.sol\":651:656  count */\n      sload(0x01)\n        /* \"Desktop/buyerSender/html/buyerToSeller2.sol\":640:641  B */\n      0x02\n        /* \"Desktop/buyerSender/html/buyerToSeller2.sol\":640:648  B[count] */\n      0x00\n        /* \"Desktop/buyerSender/html/buyerToSeller2.sol\":642:647  count */\n      sload(0x01)\n        /* \"Desktop/buyerSender/html/buyerToSeller2.sol\":640:648  B[count] */\n      dup2\n      mstore\n      0x20\n      add\n      swap1\n      dup2\n      mstore\n      0x20\n      add\n      0x00\n      keccak256\n        /* \"Desktop/buyerSender/html/buyerToSeller2.sol\":640:650  B[count].p */\n      0x03\n      add\n        /* \"Desktop/buyerSender/html/buyerToSeller2.sol\":640:656  B[count].p=count */\n      dup2\n      swap1\n      sstore\n      pop\n        /* \"Desktop/buyerSender/html/buyerToSeller2.sol\":667:672  count */\n      0x01\n      0x00\n        /* \"Desktop/buyerSender/html/buyerToSeller2.sol\":667:674  count++ */\n      dup2\n      sload\n      dup1\n      swap3\n      swap2\n      swap1\n      tag_58\n      swap1\n      tag_59\n      jump\t// in\n    tag_58:\n      swap2\n      swap1\n      pop\n      sstore\n      pop\n        /* \"Desktop/buyerSender/html/buyerToSeller2.sol\":497:690  function setItems(string[] memory _emails,string memory _item)public{... */\n      pop\n      pop\n      jump\t// out\n        /* \"Desktop/buyerSender/html/buyerToSeller2.sol\":1361:1456  function getItem(uint id)public view returns(string memory){... */\n    tag_23:\n        /* \"Desktop/buyerSender/html/buyerToSeller2.sol\":1406:1419  string memory */\n      0x60\n        /* \"Desktop/buyerSender/html/buyerToSeller2.sol\":1438:1439  B */\n      0x02\n        /* \"Desktop/buyerSender/html/buyerToSeller2.sol\":1438:1443  B[id] */\n      0x00\n        /* \"Desktop/buyerSender/html/buyerToSeller2.sol\":1440:1442  id */\n      dup4\n        /* \"Desktop/buyerSender/html/buyerToSeller2.sol\":1438:1443  B[id] */\n      dup2\n      mstore\n      0x20\n      add\n      swap1\n      dup2\n      mstore\n      0x20\n      add\n      0x00\n      keccak256\n        /* \"Desktop/buyerSender/html/buyerToSeller2.sol\":1438:1448  B[id].item */\n      0x01\n      add\n        /* \"Desktop/buyerSender/html/buyerToSeller2.sol\":1431:1448  return B[id].item */\n      dup1\n      sload\n      tag_61\n      swap1\n      tag_62\n      jump\t// in\n    tag_61:\n      dup1\n      0x1f\n      add\n      0x20\n      dup1\n      swap2\n      div\n      mul\n      0x20\n      add\n      mload(0x40)\n      swap1\n      dup2\n      add\n      0x40\n      mstore\n      dup1\n      swap3\n      swap2\n      swap1\n      dup2\n      dup2\n      mstore\n      0x20\n      add\n      dup3\n      dup1\n      sload\n      tag_63\n      swap1\n      tag_62\n      jump\t// in\n    tag_63:\n      dup1\n      iszero\n      tag_64\n      jumpi\n      dup1\n      0x1f\n      lt\n      tag_65\n      jumpi\n      0x0100\n      dup1\n      dup4\n      sload\n      div\n      mul\n      dup4\n      mstore\n      swap2\n      0x20\n      add\n      swap2\n      jump(tag_64)\n    tag_65:\n      dup3\n      add\n      swap2\n      swap1\n      0x00\n      mstore\n      keccak256(0x00, 0x20)\n      swap1\n    tag_66:\n      dup2\n      sload\n      dup2\n      mstore\n      swap1\n      0x01\n      add\n      swap1\n      0x20\n      add\n      dup1\n      dup4\n      gt\n      tag_66\n      jumpi\n      dup3\n      swap1\n      sub\n      0x1f\n      and\n      dup3\n      add\n      swap2\n    tag_64:\n      pop\n      pop\n      pop\n      pop\n      pop\n      swap1\n      pop\n        /* \"Desktop/buyerSender/html/buyerToSeller2.sol\":1361:1456  function getItem(uint id)public view returns(string memory){... */\n      swap2\n      swap1\n      pop\n      jump\t// out\n        /* \"Desktop/buyerSender/html/buyerToSeller2.sol\":1237:1355  function getAllItems(string memory mail)public view returns(uint[] memory arr){... */\n    tag_28:\n        /* \"Desktop/buyerSender/html/buyerToSeller2.sol\":1297:1314  uint[] memory arr */\n      0x60\n        /* \"Desktop/buyerSender/html/buyerToSeller2.sol\":1333:1339  tender */\n      0x03\n        /* \"Desktop/buyerSender/html/buyerToSeller2.sol\":1340:1344  mail */\n      dup3\n        /* \"Desktop/buyerSender/html/buyerToSeller2.sol\":1333:1345  tender[mail] */\n      mload(0x40)\n      tag_68\n      swap2\n      swap1\n      tag_51\n      jump\t// in\n    tag_68:\n      swap1\n      dup2\n      mstore\n      0x20\n      add\n      mload(0x40)\n      dup1\n      swap2\n      sub\n      swap1\n      keccak256\n        /* \"Desktop/buyerSender/html/buyerToSeller2.sol\":1333:1347  tender[mail].n */\n      0x02\n      add\n        /* \"Desktop/buyerSender/html/buyerToSeller2.sol\":1326:1347  return tender[mail].n */\n      dup1\n      sload\n      dup1\n      0x20\n      mul\n      0x20\n      add\n      mload(0x40)\n      swap1\n      dup2\n      add\n      0x40\n      mstore\n      dup1\n      swap3\n      swap2\n      swap1\n      dup2\n      dup2\n      mstore\n      0x20\n      add\n      dup3\n      dup1\n      sload\n      dup1\n      iszero\n      tag_69\n      jumpi\n      0x20\n      mul\n      dup3\n      add\n      swap2\n      swap1\n      0x00\n      mstore\n      keccak256(0x00, 0x20)\n      swap1\n    tag_70:\n      dup2\n      sload\n      dup2\n      mstore\n      0x20\n      add\n      swap1\n      0x01\n      add\n      swap1\n      dup1\n      dup4\n      gt\n      tag_70\n      jumpi\n    tag_69:\n      pop\n      pop\n      pop\n      pop\n      pop\n      swap1\n      pop\n        /* \"Desktop/buyerSender/html/buyerToSeller2.sol\":1237:1355  function getAllItems(string memory mail)public view returns(uint[] memory arr){... */\n      swap2\n      swap1\n      pop\n      jump\t// out\n        /* \"Desktop/buyerSender/html/buyerToSeller2.sol\":1462:1646  function setQuote(string memory _quote,string memory id,string memory _email)public{... */\n    tag_34:\n        /* \"Desktop/buyerSender/html/buyerToSeller2.sol\":1574:1576  id */\n      dup2\n        /* \"Desktop/buyerSender/html/buyerToSeller2.sol\":1559:1582  string.concat((id),\" \") */\n      add(0x20, mload(0x40))\n      tag_72\n      swap2\n      swap1\n      tag_73\n      jump\t// in\n    tag_72:\n      mload(0x40)\n      0x20\n      dup2\n      dup4\n      sub\n      sub\n      dup2\n      mstore\n      swap1\n      0x40\n      mstore\n        /* \"Desktop/buyerSender/html/buyerToSeller2.sol\":1556:1582  id=string.concat((id),\" \") */\n      swap2\n      pop\n        /* \"Desktop/buyerSender/html/buyerToSeller2.sol\":1628:1630  id */\n      dup2\n        /* \"Desktop/buyerSender/html/buyerToSeller2.sol\":1631:1637  _quote */\n      dup4\n        /* \"Desktop/buyerSender/html/buyerToSeller2.sol\":1614:1638  string.concat(id,_quote) */\n      add(0x20, mload(0x40))\n      tag_74\n      swap3\n      swap2\n      swap1\n      tag_75\n      jump\t// in\n    tag_74:\n      mload(0x40)\n      0x20\n      dup2\n      dup4\n      sub\n      sub\n      dup2\n      mstore\n      swap1\n      0x40\n      mstore\n        /* \"Desktop/buyerSender/html/buyerToSeller2.sol\":1593:1599  tender */\n      0x03\n        /* \"Desktop/buyerSender/html/buyerToSeller2.sol\":1600:1606  _email */\n      dup3\n        /* \"Desktop/buyerSender/html/buyerToSeller2.sol\":1593:1607  tender[_email] */\n      mload(0x40)\n      tag_76\n      swap2\n      swap1\n      tag_51\n      jump\t// in\n    tag_76:\n      swap1\n      dup2\n      mstore\n      0x20\n      add\n      mload(0x40)\n      dup1\n      swap2\n      sub\n      swap1\n      keccak256\n        /* \"Desktop/buyerSender/html/buyerToSeller2.sol\":1593:1613  tender[_email].quote */\n      0x01\n      add\n        /* \"Desktop/buyerSender/html/buyerToSeller2.sol\":1593:1638  tender[_email].quote=string.concat(id,_quote) */\n      swap1\n      dup2\n      tag_77\n      swap2\n      swap1\n      tag_53\n      jump\t// in\n    tag_77:\n      pop\n        /* \"Desktop/buyerSender/html/buyerToSeller2.sol\":1462:1646  function setQuote(string memory _quote,string memory id,string memory _email)public{... */\n      pop\n      pop\n      pop\n      jump\t// out\n        /* \"Desktop/buyerSender/html/buyerToSeller2.sol\":2145:2223  function getQuotes()public view returns(uint){... */\n    tag_36:\n        /* \"Desktop/buyerSender/html/buyerToSeller2.sol\":2185:2189  uint */\n      0x00\n        /* \"Desktop/buyerSender/html/buyerToSeller2.sol\":2214:2215  1 */\n      0x01\n        /* \"Desktop/buyerSender/html/buyerToSeller2.sol\":2208:2213  count */\n      dup1\n      sload\n        /* \"Desktop/buyerSender/html/buyerToSeller2.sol\":2208:2215  count-1 */\n      tag_79\n      swap2\n      swap1\n      tag_80\n      jump\t// in\n    tag_79:\n        /* \"Desktop/buyerSender/html/buyerToSeller2.sol\":2201:2215  return count-1 */\n      swap1\n      pop\n        /* \"Desktop/buyerSender/html/buyerToSeller2.sol\":2145:2223  function getQuotes()public view returns(uint){... */\n      swap1\n      jump\t// out\n        /* \"Desktop/buyerSender/html/buyerToSeller2.sol\":696:1231  function getItems(string memory mail)public returns(string memory,uint){... */\n    tag_41:\n        /* \"Desktop/buyerSender/html/buyerToSeller2.sol\":748:761  string memory */\n      0x60\n        /* \"Desktop/buyerSender/html/buyerToSeller2.sol\":762:766  uint */\n      0x00\n        /* \"Desktop/buyerSender/html/buyerToSeller2.sol\":778:795  string[] memory e */\n      dup1\n        /* \"Desktop/buyerSender/html/buyerToSeller2.sol\":796:797  B */\n      0x02\n        /* \"Desktop/buyerSender/html/buyerToSeller2.sol\":796:806  B[count-1] */\n      0x00\n        /* \"Desktop/buyerSender/html/buyerToSeller2.sol\":804:805  1 */\n      0x01\n        /* \"Desktop/buyerSender/html/buyerToSeller2.sol\":798:803  count */\n      dup1\n      sload\n        /* \"Desktop/buyerSender/html/buyerToSeller2.sol\":798:805  count-1 */\n      tag_82\n      swap2\n      swap1\n      tag_80\n      jump\t// in\n    tag_82:\n        /* \"Desktop/buyerSender/html/buyerToSeller2.sol\":796:806  B[count-1] */\n      dup2\n      mstore\n      0x20\n      add\n      swap1\n      dup2\n      mstore\n      0x20\n      add\n      0x00\n      keccak256\n        /* \"Desktop/buyerSender/html/buyerToSeller2.sol\":796:813  B[count-1].emails */\n      0x00\n      add\n        /* \"Desktop/buyerSender/html/buyerToSeller2.sol\":778:813  string[] memory e=B[count-1].emails */\n      dup1\n      sload\n      dup1\n      0x20\n      mul\n      0x20\n      add\n      mload(0x40)\n      swap1\n      dup2\n      add\n      0x40\n      mstore\n      dup1\n      swap3\n      swap2\n      swap1\n      dup2\n      dup2\n      mstore\n      0x20\n      add\n      0x00\n      swap1\n    tag_83:\n      dup3\n      dup3\n      lt\n      iszero\n      tag_84\n      jumpi\n      dup4\n      dup3\n      swap1\n      0x00\n      mstore\n      keccak256(0x00, 0x20)\n      add\n      dup1\n      sload\n      tag_86\n      swap1\n      tag_62\n      jump\t// in\n    tag_86:\n      dup1\n      0x1f\n      add\n      0x20\n      dup1\n      swap2\n      div\n      mul\n      0x20\n      add\n      mload(0x40)\n      swap1\n      dup2\n      add\n      0x40\n      mstore\n      dup1\n      swap3\n      swap2\n      swap1\n      dup2\n      dup2\n      mstore\n      0x20\n      add\n      dup3\n      dup1\n      sload\n      tag_87\n      swap1\n      tag_62\n      jump\t// in\n    tag_87:\n      dup1\n      iszero\n      tag_88\n      jumpi\n      dup1\n      0x1f\n      lt\n      tag_89\n      jumpi\n      0x0100\n      dup1\n      dup4\n      sload\n      div\n      mul\n      dup4\n      mstore\n      swap2\n      0x20\n      add\n      swap2\n      jump(tag_88)\n    tag_89:\n      dup3\n      add\n      swap2\n      swap1\n      0x00\n      mstore\n      keccak256(0x00, 0x20)\n      swap1\n    tag_90:\n      dup2\n      sload\n      dup2\n      mstore\n      swap1\n      0x01\n      add\n      swap1\n      0x20\n      add\n      dup1\n      dup4\n      gt\n      tag_90\n      jumpi\n      dup3\n      swap1\n      sub\n      0x1f\n      and\n      dup3\n      add\n      swap2\n    tag_88:\n      pop\n      pop\n      pop\n      pop\n      pop\n      dup2\n      mstore\n      0x20\n      add\n      swap1\n      0x01\n      add\n      swap1\n      jump(tag_83)\n    tag_84:\n      pop\n      pop\n      pop\n      pop\n      swap1\n      pop\n        /* \"Desktop/buyerSender/html/buyerToSeller2.sol\":824:830  uint i */\n      0x00\n        /* \"Desktop/buyerSender/html/buyerToSeller2.sol\":831:837  uint j */\n      dup1\n        /* \"Desktop/buyerSender/html/buyerToSeller2.sol\":854:855  0 */\n      0x00\n        /* \"Desktop/buyerSender/html/buyerToSeller2.sol\":852:855  i=0 */\n      swap2\n      pop\n        /* \"Desktop/buyerSender/html/buyerToSeller2.sol\":848:1034  for(i=0;i<e.length;i++){... */\n    tag_91:\n        /* \"Desktop/buyerSender/html/buyerToSeller2.sol\":858:859  e */\n      dup3\n        /* \"Desktop/buyerSender/html/buyerToSeller2.sol\":858:866  e.length */\n      mload\n        /* \"Desktop/buyerSender/html/buyerToSeller2.sol\":856:857  i */\n      dup3\n        /* \"Desktop/buyerSender/html/buyerToSeller2.sol\":856:866  i<e.length */\n      lt\n        /* \"Desktop/buyerSender/html/buyerToSeller2.sol\":848:1034  for(i=0;i<e.length;i++){... */\n      iszero\n      tag_92\n      jumpi\n        /* \"Desktop/buyerSender/html/buyerToSeller2.sol\":954:955  e */\n      dup3\n        /* \"Desktop/buyerSender/html/buyerToSeller2.sol\":956:957  i */\n      dup3\n        /* \"Desktop/buyerSender/html/buyerToSeller2.sol\":954:958  e[i] */\n      dup2\n      mload\n      dup2\n      lt\n      tag_94\n      jumpi\n      tag_95\n      tag_96\n      jump\t// in\n    tag_95:\n    tag_94:\n      0x20\n      mul\n      0x20\n      add\n      add\n      mload\n        /* \"Desktop/buyerSender/html/buyerToSeller2.sol\":937:959  abi.encodePacked(e[i]) */\n      add(0x20, mload(0x40))\n      tag_97\n      swap2\n      swap1\n      tag_51\n      jump\t// in\n    tag_97:\n      mload(0x40)\n      0x20\n      dup2\n      dup4\n      sub\n      sub\n      dup2\n      mstore\n      swap1\n      0x40\n      mstore\n        /* \"Desktop/buyerSender/html/buyerToSeller2.sol\":927:960  keccak256(abi.encodePacked(e[i])) */\n      dup1\n      mload\n      swap1\n      0x20\n      add\n      keccak256\n        /* \"Desktop/buyerSender/html/buyerToSeller2.sol\":917:921  mail */\n      dup7\n        /* \"Desktop/buyerSender/html/buyerToSeller2.sol\":900:922  abi.encodePacked(mail) */\n      add(0x20, mload(0x40))\n      tag_98\n      swap2\n      swap1\n      tag_51\n      jump\t// in\n    tag_98:\n      mload(0x40)\n      0x20\n      dup2\n      dup4\n      sub\n      sub\n      dup2\n      mstore\n      swap1\n      0x40\n      mstore\n        /* \"Desktop/buyerSender/html/buyerToSeller2.sol\":890:923  keccak256(abi.encodePacked(mail)) */\n      dup1\n      mload\n      swap1\n      0x20\n      add\n      keccak256\n        /* \"Desktop/buyerSender/html/buyerToSeller2.sol\":890:960  keccak256(abi.encodePacked(mail)) == keccak256(abi.encodePacked(e[i])) */\n      sub\n        /* \"Desktop/buyerSender/html/buyerToSeller2.sol\":886:1023  if( keccak256(abi.encodePacked(mail)) == keccak256(abi.encodePacked(e[i]))){... */\n      tag_99\n      jumpi\n        /* \"Desktop/buyerSender/html/buyerToSeller2.sol\":982:983  1 */\n      0x01\n        /* \"Desktop/buyerSender/html/buyerToSeller2.sol\":980:983  j=1 */\n      swap1\n      pop\n        /* \"Desktop/buyerSender/html/buyerToSeller2.sol\":1002:1007  break */\n      jump(tag_92)\n        /* \"Desktop/buyerSender/html/buyerToSeller2.sol\":886:1023  if( keccak256(abi.encodePacked(mail)) == keccak256(abi.encodePacked(e[i]))){... */\n    tag_99:\n        /* \"Desktop/buyerSender/html/buyerToSeller2.sol\":867:870  i++ */\n      dup2\n      dup1\n      tag_100\n      swap1\n      tag_59\n      jump\t// in\n    tag_100:\n      swap3\n      pop\n      pop\n        /* \"Desktop/buyerSender/html/buyerToSeller2.sol\":848:1034  for(i=0;i<e.length;i++){... */\n      jump(tag_91)\n    tag_92:\n        /* \"Desktop/buyerSender/html/buyerToSeller2.sol\":1050:1051  0 */\n      0x00\n        /* \"Desktop/buyerSender/html/buyerToSeller2.sol\":1047:1048  j */\n      dup2\n        /* \"Desktop/buyerSender/html/buyerToSeller2.sol\":1047:1051  j==0 */\n      sub\n        /* \"Desktop/buyerSender/html/buyerToSeller2.sol\":1044:1222  if(j==0){... */\n      tag_101\n      jumpi\n        /* \"Desktop/buyerSender/html/buyerToSeller2.sol\":1078:1079  0 */\n      0x00\n        /* \"Desktop/buyerSender/html/buyerToSeller2.sol\":1067:1080  return (\"\",0) */\n      mload(0x40)\n      dup1\n      0x20\n      add\n      0x40\n      mstore\n      dup1\n      0x00\n      dup2\n      mstore\n      pop\n      swap1\n      swap5\n      pop\n      swap5\n      pop\n      pop\n      pop\n      pop\n      jump(tag_81)\n        /* \"Desktop/buyerSender/html/buyerToSeller2.sol\":1044:1222  if(j==0){... */\n    tag_101:\n        /* \"Desktop/buyerSender/html/buyerToSeller2.sol\":1121:1127  tender */\n      0x03\n        /* \"Desktop/buyerSender/html/buyerToSeller2.sol\":1128:1132  mail */\n      dup7\n        /* \"Desktop/buyerSender/html/buyerToSeller2.sol\":1121:1133  tender[mail] */\n      mload(0x40)\n      tag_103\n      swap2\n      swap1\n      tag_51\n      jump\t// in\n    tag_103:\n      swap1\n      dup2\n      mstore\n      0x20\n      add\n      mload(0x40)\n      dup1\n      swap2\n      sub\n      swap1\n      keccak256\n        /* \"Desktop/buyerSender/html/buyerToSeller2.sol\":1121:1135  tender[mail].n */\n      0x02\n      add\n        /* \"Desktop/buyerSender/html/buyerToSeller2.sol\":1147:1148  1 */\n      0x01\n        /* \"Desktop/buyerSender/html/buyerToSeller2.sol\":1141:1146  count */\n      dup1\n      sload\n        /* \"Desktop/buyerSender/html/buyerToSeller2.sol\":1141:1148  count-1 */\n      tag_104\n      swap2\n      swap1\n      tag_80\n      jump\t// in\n    tag_104:\n        /* \"Desktop/buyerSender/html/buyerToSeller2.sol\":1121:1149  tender[mail].n.push(count-1) */\n      swap1\n      dup1\n      0x01\n      dup2\n      sload\n      add\n      dup1\n      dup3\n      sstore\n      dup1\n      swap2\n      pop\n      pop\n      0x01\n      swap1\n      sub\n      swap1\n      0x00\n      mstore\n      keccak256(0x00, 0x20)\n      add\n      0x00\n      swap1\n      swap2\n      swap1\n      swap2\n      swap1\n      swap2\n      pop\n      sstore\n        /* \"Desktop/buyerSender/html/buyerToSeller2.sol\":1172:1173  B */\n      0x02\n        /* \"Desktop/buyerSender/html/buyerToSeller2.sol\":1172:1182  B[count-1] */\n      0x00\n        /* \"Desktop/buyerSender/html/buyerToSeller2.sol\":1180:1181  1 */\n      0x01\n        /* \"Desktop/buyerSender/html/buyerToSeller2.sol\":1174:1179  count */\n      dup1\n      sload\n        /* \"Desktop/buyerSender/html/buyerToSeller2.sol\":1174:1181  count-1 */\n      tag_106\n      swap2\n      swap1\n      tag_80\n      jump\t// in\n    tag_106:\n        /* \"Desktop/buyerSender/html/buyerToSeller2.sol\":1172:1182  B[count-1] */\n      dup2\n      mstore\n      0x20\n      add\n      swap1\n      dup2\n      mstore\n      0x20\n      add\n      0x00\n      keccak256\n        /* \"Desktop/buyerSender/html/buyerToSeller2.sol\":1172:1187  B[count-1].item */\n      0x01\n      add\n        /* \"Desktop/buyerSender/html/buyerToSeller2.sol\":1194:1195  1 */\n      0x01\n        /* \"Desktop/buyerSender/html/buyerToSeller2.sol\":1188:1193  count */\n      dup1\n      sload\n        /* \"Desktop/buyerSender/html/buyerToSeller2.sol\":1188:1195  count-1 */\n      tag_107\n      swap2\n      swap1\n      tag_80\n      jump\t// in\n    tag_107:\n        /* \"Desktop/buyerSender/html/buyerToSeller2.sol\":1164:1196  return (B[count-1].item,count-1) */\n      dup2\n      dup1\n      sload\n      tag_108\n      swap1\n      tag_62\n      jump\t// in\n    tag_108:\n      dup1\n      0x1f\n      add\n      0x20\n      dup1\n      swap2\n      div\n      mul\n      0x20\n      add\n      mload(0x40)\n      swap1\n      dup2\n      add\n      0x40\n      mstore\n      dup1\n      swap3\n      swap2\n      swap1\n      dup2\n      dup2\n      mstore\n      0x20\n      add\n      dup3\n      dup1\n      sload\n      tag_109\n      swap1\n      tag_62\n      jump\t// in\n    tag_109:\n      dup1\n      iszero\n      tag_110\n      jumpi\n      dup1\n      0x1f\n      lt\n      tag_111\n      jumpi\n      0x0100\n      dup1\n      dup4\n      sload\n      div\n      mul\n      dup4\n      mstore\n      swap2\n      0x20\n      add\n      swap2\n      jump(tag_110)\n    tag_111:\n      dup3\n      add\n      swap2\n      swap1\n      0x00\n      mstore\n      keccak256(0x00, 0x20)\n      swap1\n    tag_112:\n      dup2\n      sload\n      dup2\n      mstore\n      swap1\n      0x01\n      add\n      swap1\n      0x20\n      add\n      dup1\n      dup4\n      gt\n      tag_112\n      jumpi\n      dup3\n      swap1\n      sub\n      0x1f\n      and\n      dup3\n      add\n      swap2\n    tag_110:\n      pop\n      pop\n      pop\n      pop\n      pop\n      swap2\n      pop\n      swap5\n      pop\n      swap5\n      pop\n      pop\n      pop\n      pop\n        /* \"Desktop/buyerSender/html/buyerToSeller2.sol\":696:1231  function getItems(string memory mail)public returns(string memory,uint){... */\n    tag_81:\n      swap2\n      pop\n      swap2\n      jump\t// out\n        /* \"Desktop/buyerSender/html/buyerToSeller2.sol\":1652:1918  function getQuote(uint id)public view returns(string[] memory){... */\n    tag_46:\n        /* \"Desktop/buyerSender/html/buyerToSeller2.sol\":1698:1713  string[] memory */\n      0x60\n        /* \"Desktop/buyerSender/html/buyerToSeller2.sol\":1725:1731  uint i */\n      0x00\n        /* \"Desktop/buyerSender/html/buyerToSeller2.sol\":1742:1761  string[] memory str */\n      dup1\n        /* \"Desktop/buyerSender/html/buyerToSeller2.sol\":1762:1763  B */\n      0x02\n        /* \"Desktop/buyerSender/html/buyerToSeller2.sol\":1762:1767  B[id] */\n      0x00\n        /* \"Desktop/buyerSender/html/buyerToSeller2.sol\":1764:1766  id */\n      dup6\n        /* \"Desktop/buyerSender/html/buyerToSeller2.sol\":1762:1767  B[id] */\n      dup2\n      mstore\n      0x20\n      add\n      swap1\n      dup2\n      mstore\n      0x20\n      add\n      0x00\n      keccak256\n        /* \"Desktop/buyerSender/html/buyerToSeller2.sol\":1762:1774  B[id].emails */\n      0x00\n      add\n        /* \"Desktop/buyerSender/html/buyerToSeller2.sol\":1742:1774  string[] memory str=B[id].emails */\n      dup1\n      sload\n      dup1\n      0x20\n      mul\n      0x20\n      add\n      mload(0x40)\n      swap1\n      dup2\n      add\n      0x40\n      mstore\n      dup1\n      swap3\n      swap2\n      swap1\n      dup2\n      dup2\n      mstore\n      0x20\n      add\n      0x00\n      swap1\n    tag_114:\n      dup3\n      dup3\n      lt\n      iszero\n      tag_115\n      jumpi\n      dup4\n      dup3\n      swap1\n      0x00\n      mstore\n      keccak256(0x00, 0x20)\n      add\n      dup1\n      sload\n      tag_117\n      swap1\n      tag_62\n      jump\t// in\n    tag_117:\n      dup1\n      0x1f\n      add\n      0x20\n      dup1\n      swap2\n      div\n      mul\n      0x20\n      add\n      mload(0x40)\n      swap1\n      dup2\n      add\n      0x40\n      mstore\n      dup1\n      swap3\n      swap2\n      swap1\n      dup2\n      dup2\n      mstore\n      0x20\n      add\n      dup3\n      dup1\n      sload\n      tag_118\n      swap1\n      tag_62\n      jump\t// in\n    tag_118:\n      dup1\n      iszero\n      tag_119\n      jumpi\n      dup1\n      0x1f\n      lt\n      tag_120\n      jumpi\n      0x0100\n      dup1\n      dup4\n      sload\n      div\n      mul\n      dup4\n      mstore\n      swap2\n      0x20\n      add\n      swap2\n      jump(tag_119)\n    tag_120:\n      dup3\n      add\n      swap2\n      swap1\n      0x00\n      mstore\n      keccak256(0x00, 0x20)\n      swap1\n    tag_121:\n      dup2\n      sload\n      dup2\n      mstore\n      swap1\n      0x01\n      add\n      swap1\n      0x20\n      add\n      dup1\n      dup4\n      gt\n      tag_121\n      jumpi\n      dup3\n      swap1\n      sub\n      0x1f\n      and\n      dup3\n      add\n      swap2\n    tag_119:\n      pop\n      pop\n      pop\n      pop\n      pop\n      dup2\n      mstore\n      0x20\n      add\n      swap1\n      0x01\n      add\n      swap1\n      jump(tag_114)\n    tag_115:\n      pop\n      pop\n      pop\n      pop\n      swap1\n      pop\n        /* \"Desktop/buyerSender/html/buyerToSeller2.sol\":1785:1802  string[] memory q */\n      0x60\n        /* \"Desktop/buyerSender/html/buyerToSeller2.sol\":1819:1820  0 */\n      0x00\n        /* \"Desktop/buyerSender/html/buyerToSeller2.sol\":1817:1820  i=0 */\n      swap3\n      pop\n        /* \"Desktop/buyerSender/html/buyerToSeller2.sol\":1813:1892  for(i=0;i<str.length;i++){... */\n    tag_122:\n        /* \"Desktop/buyerSender/html/buyerToSeller2.sol\":1823:1826  str */\n      dup2\n        /* \"Desktop/buyerSender/html/buyerToSeller2.sol\":1823:1833  str.length */\n      mload\n        /* \"Desktop/buyerSender/html/buyerToSeller2.sol\":1821:1822  i */\n      dup4\n        /* \"Desktop/buyerSender/html/buyerToSeller2.sol\":1821:1833  i<str.length */\n      lt\n        /* \"Desktop/buyerSender/html/buyerToSeller2.sol\":1813:1892  for(i=0;i<str.length;i++){... */\n      iszero\n      tag_123\n      jumpi\n        /* \"Desktop/buyerSender/html/buyerToSeller2.sol\":1859:1865  tender */\n      0x03\n        /* \"Desktop/buyerSender/html/buyerToSeller2.sol\":1866:1869  str */\n      dup3\n        /* \"Desktop/buyerSender/html/buyerToSeller2.sol\":1870:1871  i */\n      dup5\n        /* \"Desktop/buyerSender/html/buyerToSeller2.sol\":1866:1872  str[i] */\n      dup2\n      mload\n      dup2\n      lt\n      tag_125\n      jumpi\n      tag_126\n      tag_96\n      jump\t// in\n    tag_126:\n    tag_125:\n      0x20\n      mul\n      0x20\n      add\n      add\n      mload\n        /* \"Desktop/buyerSender/html/buyerToSeller2.sol\":1859:1873  tender[str[i]] */\n      mload(0x40)\n      tag_127\n      swap2\n      swap1\n      tag_51\n      jump\t// in\n    tag_127:\n      swap1\n      dup2\n      mstore\n      0x20\n      add\n      mload(0x40)\n      dup1\n      swap2\n      sub\n      swap1\n      keccak256\n        /* \"Desktop/buyerSender/html/buyerToSeller2.sol\":1859:1879  tender[str[i]].quote */\n      0x01\n      add\n        /* \"Desktop/buyerSender/html/buyerToSeller2.sol\":1853:1880  q[i]=(tender[str[i]].quote) */\n      dup1\n      sload\n      tag_128\n      swap1\n      tag_62\n      jump\t// in\n    tag_128:\n      dup1\n      0x1f\n      add\n      0x20\n      dup1\n      swap2\n      div\n      mul\n      0x20\n      add\n      mload(0x40)\n      swap1\n      dup2\n      add\n      0x40\n      mstore\n      dup1\n      swap3\n      swap2\n      swap1\n      dup2\n      dup2\n      mstore\n      0x20\n      add\n      dup3\n      dup1\n      sload\n      tag_129\n      swap1\n      tag_62\n      jump\t// in\n    tag_129:\n      dup1\n      iszero\n      tag_130\n      jumpi\n      dup1\n      0x1f\n      lt\n      tag_131\n      jumpi\n      0x0100\n      dup1\n      dup4\n      sload\n      div\n      mul\n      dup4\n      mstore\n      swap2\n      0x20\n      add\n      swap2\n      jump(tag_130)\n    tag_131:\n      dup3\n      add\n      swap2\n      swap1\n      0x00\n      mstore\n      keccak256(0x00, 0x20)\n      swap1\n    tag_132:\n      dup2\n      sload\n      dup2\n      mstore\n      swap1\n      0x01\n      add\n      swap1\n      0x20\n      add\n      dup1\n      dup4\n      gt\n      tag_132\n      jumpi\n      dup3\n      swap1\n      sub\n      0x1f\n      and\n      dup3\n      add\n      swap2\n    tag_130:\n      pop\n      pop\n      pop\n      pop\n      pop\n        /* \"Desktop/buyerSender/html/buyerToSeller2.sol\":1853:1854  q */\n      dup2\n        /* \"Desktop/buyerSender/html/buyerToSeller2.sol\":1855:1856  i */\n      dup5\n        /* \"Desktop/buyerSender/html/buyerToSeller2.sol\":1853:1857  q[i] */\n      dup2\n      mload\n      dup2\n      lt\n      tag_133\n      jumpi\n      tag_134\n      tag_96\n      jump\t// in\n    tag_134:\n    tag_133:\n      0x20\n      mul\n      0x20\n      add\n      add\n        /* \"Desktop/buyerSender/html/buyerToSeller2.sol\":1853:1880  q[i]=(tender[str[i]].quote) */\n      dup2\n      swap1\n      mstore\n      pop\n        /* \"Desktop/buyerSender/html/buyerToSeller2.sol\":1834:1837  i++ */\n      dup3\n      dup1\n      tag_135\n      swap1\n      tag_59\n      jump\t// in\n    tag_135:\n      swap4\n      pop\n      pop\n        /* \"Desktop/buyerSender/html/buyerToSeller2.sol\":1813:1892  for(i=0;i<str.length;i++){... */\n      jump(tag_122)\n    tag_123:\n        /* \"Desktop/buyerSender/html/buyerToSeller2.sol\":1909:1910  q */\n      dup1\n        /* \"Desktop/buyerSender/html/buyerToSeller2.sol\":1902:1910  return q */\n      swap4\n      pop\n      pop\n      pop\n      pop\n        /* \"Desktop/buyerSender/html/buyerToSeller2.sol\":1652:1918  function getQuote(uint id)public view returns(string[] memory){... */\n      swap2\n      swap1\n      pop\n      jump\t// out\n    tag_56:\n      dup3\n      dup1\n      sload\n      dup3\n      dup3\n      sstore\n      swap1\n      0x00\n      mstore\n      keccak256(0x00, 0x20)\n      swap1\n      dup2\n      add\n      swap3\n      dup3\n      iszero\n      tag_136\n      jumpi\n      swap2\n      0x20\n      mul\n      dup3\n      add\n    tag_137:\n      dup3\n      dup2\n      gt\n      iszero\n      tag_138\n      jumpi\n      dup3\n      mload\n      dup3\n      swap1\n      dup2\n      tag_139\n      swap2\n      swap1\n      tag_53\n      jump\t// in\n    tag_139:\n      pop\n      swap2\n      0x20\n      add\n      swap2\n      swap1\n      0x01\n      add\n      swap1\n      jump(tag_137)\n    tag_138:\n    tag_136:\n      pop\n      swap1\n      pop\n      tag_140\n      swap2\n      swap1\n      tag_141\n      jump\t// in\n    tag_140:\n      pop\n      swap1\n      jump\t// out\n    tag_141:\n    tag_142:\n      dup1\n      dup3\n      gt\n      iszero\n      tag_143\n      jumpi\n      0x00\n      dup2\n      dup2\n      tag_144\n      swap2\n      swap1\n      tag_145\n      jump\t// in\n    tag_144:\n      pop\n      0x01\n      add\n      jump(tag_142)\n    tag_143:\n      pop\n      swap1\n      jump\t// out\n    tag_145:\n      pop\n      dup1\n      sload\n      tag_146\n      swap1\n      tag_62\n      jump\t// in\n    tag_146:\n      0x00\n      dup3\n      sstore\n      dup1\n      0x1f\n      lt\n      tag_148\n      jumpi\n      pop\n      jump(tag_147)\n    tag_148:\n      0x1f\n      add\n      0x20\n      swap1\n      div\n      swap1\n      0x00\n      mstore\n      keccak256(0x00, 0x20)\n      swap1\n      dup2\n      add\n      swap1\n      tag_149\n      swap2\n      swap1\n      tag_150\n      jump\t// in\n    tag_149:\n    tag_147:\n      pop\n      jump\t// out\n    tag_150:\n    tag_151:\n      dup1\n      dup3\n      gt\n      iszero\n      tag_152\n      jumpi\n      0x00\n      dup2\n      0x00\n      swap1\n      sstore\n      pop\n      0x01\n      add\n      jump(tag_151)\n    tag_152:\n      pop\n      swap1\n      jump\t// out\n        /* \"#utility.yul\":7:82   */\n    tag_153:\n        /* \"#utility.yul\":40:46   */\n      0x00\n        /* \"#utility.yul\":73:75   */\n      0x40\n        /* \"#utility.yul\":67:76   */\n      mload\n        /* \"#utility.yul\":57:76   */\n      swap1\n      pop\n        /* \"#utility.yul\":7:82   */\n      swap1\n      jump\t// out\n        /* \"#utility.yul\":88:205   */\n    tag_154:\n        /* \"#utility.yul\":197:198   */\n      0x00\n        /* \"#utility.yul\":194:195   */\n      dup1\n        /* \"#utility.yul\":187:199   */\n      revert\n        /* \"#utility.yul\":211:328   */\n    tag_155:\n        /* \"#utility.yul\":320:321   */\n      0x00\n        /* \"#utility.yul\":317:318   */\n      dup1\n        /* \"#utility.yul\":310:322   */\n      revert\n        /* \"#utility.yul\":334:451   */\n    tag_156:\n        /* \"#utility.yul\":443:444   */\n      0x00\n        /* \"#utility.yul\":440:441   */\n      dup1\n        /* \"#utility.yul\":433:445   */\n      revert\n        /* \"#utility.yul\":457:574   */\n    tag_157:\n        /* \"#utility.yul\":566:567   */\n      0x00\n        /* \"#utility.yul\":563:564   */\n      dup1\n        /* \"#utility.yul\":556:568   */\n      revert\n        /* \"#utility.yul\":580:682   */\n    tag_158:\n        /* \"#utility.yul\":621:627   */\n      0x00\n        /* \"#utility.yul\":672:674   */\n      0x1f\n        /* \"#utility.yul\":668:675   */\n      not\n        /* \"#utility.yul\":663:665   */\n      0x1f\n        /* \"#utility.yul\":656:661   */\n      dup4\n        /* \"#utility.yul\":652:666   */\n      add\n        /* \"#utility.yul\":648:676   */\n      and\n        /* \"#utility.yul\":638:676   */\n      swap1\n      pop\n        /* \"#utility.yul\":580:682   */\n      swap2\n      swap1\n      pop\n      jump\t// out\n        /* \"#utility.yul\":688:868   */\n    tag_159:\n        /* \"#utility.yul\":736:813   */\n      0x4e487b7100000000000000000000000000000000000000000000000000000000\n        /* \"#utility.yul\":733:734   */\n      0x00\n        /* \"#utility.yul\":726:814   */\n      mstore\n        /* \"#utility.yul\":833:837   */\n      0x41\n        /* \"#utility.yul\":830:831   */\n      0x04\n        /* \"#utility.yul\":823:838   */\n      mstore\n        /* \"#utility.yul\":857:861   */\n      0x24\n        /* \"#utility.yul\":854:855   */\n      0x00\n        /* \"#utility.yul\":847:862   */\n      revert\n        /* \"#utility.yul\":874:1155   */\n    tag_160:\n        /* \"#utility.yul\":957:984   */\n      tag_222\n        /* \"#utility.yul\":979:983   */\n      dup3\n        /* \"#utility.yul\":957:984   */\n      tag_158\n      jump\t// in\n    tag_222:\n        /* \"#utility.yul\":949:955   */\n      dup2\n        /* \"#utility.yul\":945:985   */\n      add\n        /* \"#utility.yul\":1087:1093   */\n      dup2\n        /* \"#utility.yul\":1075:1085   */\n      dup2\n        /* \"#utility.yul\":1072:1094   */\n      lt\n        /* \"#utility.yul\":1051:1069   */\n      0xffffffffffffffff\n        /* \"#utility.yul\":1039:1049   */\n      dup3\n        /* \"#utility.yul\":1036:1070   */\n      gt\n        /* \"#utility.yul\":1033:1095   */\n      or\n        /* \"#utility.yul\":1030:1118   */\n      iszero\n      tag_223\n      jumpi\n        /* \"#utility.yul\":1098:1116   */\n      tag_224\n      tag_159\n      jump\t// in\n    tag_224:\n        /* \"#utility.yul\":1030:1118   */\n    tag_223:\n        /* \"#utility.yul\":1138:1148   */\n      dup1\n        /* \"#utility.yul\":1134:1136   */\n      0x40\n        /* \"#utility.yul\":1127:1149   */\n      mstore\n        /* \"#utility.yul\":917:1155   */\n      pop\n        /* \"#utility.yul\":874:1155   */\n      pop\n      pop\n      jump\t// out\n        /* \"#utility.yul\":1161:1290   */\n    tag_161:\n        /* \"#utility.yul\":1195:1201   */\n      0x00\n        /* \"#utility.yul\":1222:1242   */\n      tag_226\n      tag_153\n      jump\t// in\n    tag_226:\n        /* \"#utility.yul\":1212:1242   */\n      swap1\n      pop\n        /* \"#utility.yul\":1251:1284   */\n      tag_227\n        /* \"#utility.yul\":1279:1283   */\n      dup3\n        /* \"#utility.yul\":1271:1277   */\n      dup3\n        /* \"#utility.yul\":1251:1284   */\n      tag_160\n      jump\t// in\n    tag_227:\n        /* \"#utility.yul\":1161:1290   */\n      swap2\n      swap1\n      pop\n      jump\t// out\n        /* \"#utility.yul\":1296:1604   */\n    tag_162:\n        /* \"#utility.yul\":1358:1362   */\n      0x00\n        /* \"#utility.yul\":1448:1466   */\n      0xffffffffffffffff\n        /* \"#utility.yul\":1440:1446   */\n      dup3\n        /* \"#utility.yul\":1437:1467   */\n      gt\n        /* \"#utility.yul\":1434:1490   */\n      iszero\n      tag_229\n      jumpi\n        /* \"#utility.yul\":1470:1488   */\n      tag_230\n      tag_159\n      jump\t// in\n    tag_230:\n        /* \"#utility.yul\":1434:1490   */\n    tag_229:\n        /* \"#utility.yul\":1508:1537   */\n      tag_231\n        /* \"#utility.yul\":1530:1536   */\n      dup3\n        /* \"#utility.yul\":1508:1537   */\n      tag_158\n      jump\t// in\n    tag_231:\n        /* \"#utility.yul\":1500:1537   */\n      swap1\n      pop\n        /* \"#utility.yul\":1592:1596   */\n      0x20\n        /* \"#utility.yul\":1586:1590   */\n      dup2\n        /* \"#utility.yul\":1582:1597   */\n      add\n        /* \"#utility.yul\":1574:1597   */\n      swap1\n      pop\n        /* \"#utility.yul\":1296:1604   */\n      swap2\n      swap1\n      pop\n      jump\t// out\n        /* \"#utility.yul\":1610:1756   */\n    tag_163:\n        /* \"#utility.yul\":1707:1713   */\n      dup3\n        /* \"#utility.yul\":1702:1705   */\n      dup2\n        /* \"#utility.yul\":1697:1700   */\n      dup4\n        /* \"#utility.yul\":1684:1714   */\n      calldatacopy\n        /* \"#utility.yul\":1748:1749   */\n      0x00\n        /* \"#utility.yul\":1739:1745   */\n      dup4\n        /* \"#utility.yul\":1734:1737   */\n      dup4\n        /* \"#utility.yul\":1730:1746   */\n      add\n        /* \"#utility.yul\":1723:1750   */\n      mstore\n        /* \"#utility.yul\":1610:1756   */\n      pop\n      pop\n      pop\n      jump\t// out\n        /* \"#utility.yul\":1762:2187   */\n    tag_164:\n        /* \"#utility.yul\":1840:1845   */\n      0x00\n        /* \"#utility.yul\":1865:1931   */\n      tag_234\n        /* \"#utility.yul\":1881:1930   */\n      tag_235\n        /* \"#utility.yul\":1923:1929   */\n      dup5\n        /* \"#utility.yul\":1881:1930   */\n      tag_162\n      jump\t// in\n    tag_235:\n        /* \"#utility.yul\":1865:1931   */\n      tag_161\n      jump\t// in\n    tag_234:\n        /* \"#utility.yul\":1856:1931   */\n      swap1\n      pop\n        /* \"#utility.yul\":1954:1960   */\n      dup3\n        /* \"#utility.yul\":1947:1952   */\n      dup2\n        /* \"#utility.yul\":1940:1961   */\n      mstore\n        /* \"#utility.yul\":1992:1996   */\n      0x20\n        /* \"#utility.yul\":1985:1990   */\n      dup2\n        /* \"#utility.yul\":1981:1997   */\n      add\n        /* \"#utility.yul\":2030:2033   */\n      dup5\n        /* \"#utility.yul\":2021:2027   */\n      dup5\n        /* \"#utility.yul\":2016:2019   */\n      dup5\n        /* \"#utility.yul\":2012:2028   */\n      add\n        /* \"#utility.yul\":2009:2034   */\n      gt\n        /* \"#utility.yul\":2006:2118   */\n      iszero\n      tag_236\n      jumpi\n        /* \"#utility.yul\":2037:2116   */\n      tag_237\n      tag_157\n      jump\t// in\n    tag_237:\n        /* \"#utility.yul\":2006:2118   */\n    tag_236:\n        /* \"#utility.yul\":2127:2181   */\n      tag_238\n        /* \"#utility.yul\":2174:2180   */\n      dup5\n        /* \"#utility.yul\":2169:2172   */\n      dup3\n        /* \"#utility.yul\":2164:2167   */\n      dup6\n        /* \"#utility.yul\":2127:2181   */\n      tag_163\n      jump\t// in\n    tag_238:\n        /* \"#utility.yul\":1846:2187   */\n      pop\n        /* \"#utility.yul\":1762:2187   */\n      swap4\n      swap3\n      pop\n      pop\n      pop\n      jump\t// out\n        /* \"#utility.yul\":2207:2547   */\n    tag_165:\n        /* \"#utility.yul\":2263:2268   */\n      0x00\n        /* \"#utility.yul\":2312:2315   */\n      dup3\n        /* \"#utility.yul\":2305:2309   */\n      0x1f\n        /* \"#utility.yul\":2297:2303   */\n      dup4\n        /* \"#utility.yul\":2293:2310   */\n      add\n        /* \"#utility.yul\":2289:2316   */\n      slt\n        /* \"#utility.yul\":2279:2401   */\n      tag_240\n      jumpi\n        /* \"#utility.yul\":2320:2399   */\n      tag_241\n      tag_156\n      jump\t// in\n    tag_241:\n        /* \"#utility.yul\":2279:2401   */\n    tag_240:\n        /* \"#utility.yul\":2437:2443   */\n      dup2\n        /* \"#utility.yul\":2424:2444   */\n      calldataload\n        /* \"#utility.yul\":2462:2541   */\n      tag_242\n        /* \"#utility.yul\":2537:2540   */\n      dup5\n        /* \"#utility.yul\":2529:2535   */\n      dup3\n        /* \"#utility.yul\":2522:2526   */\n      0x20\n        /* \"#utility.yul\":2514:2520   */\n      dup7\n        /* \"#utility.yul\":2510:2527   */\n      add\n        /* \"#utility.yul\":2462:2541   */\n      tag_164\n      jump\t// in\n    tag_242:\n        /* \"#utility.yul\":2453:2541   */\n      swap2\n      pop\n        /* \"#utility.yul\":2269:2547   */\n      pop\n        /* \"#utility.yul\":2207:2547   */\n      swap3\n      swap2\n      pop\n      pop\n      jump\t// out\n        /* \"#utility.yul\":2553:3062   */\n    tag_14:\n        /* \"#utility.yul\":2622:2628   */\n      0x00\n        /* \"#utility.yul\":2671:2673   */\n      0x20\n        /* \"#utility.yul\":2659:2668   */\n      dup3\n        /* \"#utility.yul\":2650:2657   */\n      dup5\n        /* \"#utility.yul\":2646:2669   */\n      sub\n        /* \"#utility.yul\":2642:2674   */\n      slt\n        /* \"#utility.yul\":2639:2758   */\n      iszero\n      tag_244\n      jumpi\n        /* \"#utility.yul\":2677:2756   */\n      tag_245\n      tag_154\n      jump\t// in\n    tag_245:\n        /* \"#utility.yul\":2639:2758   */\n    tag_244:\n        /* \"#utility.yul\":2825:2826   */\n      0x00\n        /* \"#utility.yul\":2814:2823   */\n      dup3\n        /* \"#utility.yul\":2810:2827   */\n      add\n        /* \"#utility.yul\":2797:2828   */\n      calldataload\n        /* \"#utility.yul\":2855:2873   */\n      0xffffffffffffffff\n        /* \"#utility.yul\":2847:2853   */\n      dup2\n        /* \"#utility.yul\":2844:2874   */\n      gt\n        /* \"#utility.yul\":2841:2958   */\n      iszero\n      tag_246\n      jumpi\n        /* \"#utility.yul\":2877:2956   */\n      tag_247\n      tag_155\n      jump\t// in\n    tag_247:\n        /* \"#utility.yul\":2841:2958   */\n    tag_246:\n        /* \"#utility.yul\":2982:3045   */\n      tag_248\n        /* \"#utility.yul\":3037:3044   */\n      dup5\n        /* \"#utility.yul\":3028:3034   */\n      dup3\n        /* \"#utility.yul\":3017:3026   */\n      dup6\n        /* \"#utility.yul\":3013:3035   */\n      add\n        /* \"#utility.yul\":2982:3045   */\n      tag_165\n      jump\t// in\n    tag_248:\n        /* \"#utility.yul\":2972:3045   */\n      swap2\n      pop\n        /* \"#utility.yul\":2768:3055   */\n      pop\n        /* \"#utility.yul\":2553:3062   */\n      swap3\n      swap2\n      pop\n      pop\n      jump\t// out\n        /* \"#utility.yul\":3068:3389   */\n    tag_166:\n        /* \"#utility.yul\":3155:3159   */\n      0x00\n        /* \"#utility.yul\":3245:3263   */\n      0xffffffffffffffff\n        /* \"#utility.yul\":3237:3243   */\n      dup3\n        /* \"#utility.yul\":3234:3264   */\n      gt\n        /* \"#utility.yul\":3231:3287   */\n      iszero\n      tag_250\n      jumpi\n        /* \"#utility.yul\":3267:3285   */\n      tag_251\n      tag_159\n      jump\t// in\n    tag_251:\n        /* \"#utility.yul\":3231:3287   */\n    tag_250:\n        /* \"#utility.yul\":3317:3321   */\n      0x20\n        /* \"#utility.yul\":3309:3315   */\n      dup3\n        /* \"#utility.yul\":3305:3322   */\n      mul\n        /* \"#utility.yul\":3297:3322   */\n      swap1\n      pop\n        /* \"#utility.yul\":3377:3381   */\n      0x20\n        /* \"#utility.yul\":3371:3375   */\n      dup2\n        /* \"#utility.yul\":3367:3382   */\n      add\n        /* \"#utility.yul\":3359:3382   */\n      swap1\n      pop\n        /* \"#utility.yul\":3068:3389   */\n      swap2\n      swap1\n      pop\n      jump\t// out\n        /* \"#utility.yul\":3395:3512   */\n    tag_167:\n        /* \"#utility.yul\":3504:3505   */\n      0x00\n        /* \"#utility.yul\":3501:3502   */\n      dup1\n        /* \"#utility.yul\":3494:3506   */\n      revert\n        /* \"#utility.yul\":3534:4479   */\n    tag_168:\n        /* \"#utility.yul\":3640:3645   */\n      0x00\n        /* \"#utility.yul\":3665:3756   */\n      tag_254\n        /* \"#utility.yul\":3681:3755   */\n      tag_255\n        /* \"#utility.yul\":3748:3754   */\n      dup5\n        /* \"#utility.yul\":3681:3755   */\n      tag_166\n      jump\t// in\n    tag_255:\n        /* \"#utility.yul\":3665:3756   */\n      tag_161\n      jump\t// in\n    tag_254:\n        /* \"#utility.yul\":3656:3756   */\n      swap1\n      pop\n        /* \"#utility.yul\":3776:3781   */\n      dup1\n        /* \"#utility.yul\":3805:3811   */\n      dup4\n        /* \"#utility.yul\":3798:3803   */\n      dup3\n        /* \"#utility.yul\":3791:3812   */\n      mstore\n        /* \"#utility.yul\":3839:3843   */\n      0x20\n        /* \"#utility.yul\":3832:3837   */\n      dup3\n        /* \"#utility.yul\":3828:3844   */\n      add\n        /* \"#utility.yul\":3821:3844   */\n      swap1\n      pop\n        /* \"#utility.yul\":3892:3896   */\n      0x20\n        /* \"#utility.yul\":3884:3890   */\n      dup5\n        /* \"#utility.yul\":3880:3897   */\n      mul\n        /* \"#utility.yul\":3872:3878   */\n      dup4\n        /* \"#utility.yul\":3868:3898   */\n      add\n        /* \"#utility.yul\":3921:3924   */\n      dup6\n        /* \"#utility.yul\":3913:3919   */\n      dup2\n        /* \"#utility.yul\":3910:3925   */\n      gt\n        /* \"#utility.yul\":3907:4029   */\n      iszero\n      tag_256\n      jumpi\n        /* \"#utility.yul\":3940:4019   */\n      tag_257\n      tag_167\n      jump\t// in\n    tag_257:\n        /* \"#utility.yul\":3907:4029   */\n    tag_256:\n        /* \"#utility.yul\":4055:4061   */\n      dup4\n        /* \"#utility.yul\":4038:4473   */\n    tag_258:\n        /* \"#utility.yul\":4072:4078   */\n      dup2\n        /* \"#utility.yul\":4067:4070   */\n      dup2\n        /* \"#utility.yul\":4064:4079   */\n      lt\n        /* \"#utility.yul\":4038:4473   */\n      iszero\n      tag_260\n      jumpi\n        /* \"#utility.yul\":4161:4164   */\n      dup1\n        /* \"#utility.yul\":4148:4165   */\n      calldataload\n        /* \"#utility.yul\":4197:4215   */\n      0xffffffffffffffff\n        /* \"#utility.yul\":4184:4195   */\n      dup2\n        /* \"#utility.yul\":4181:4216   */\n      gt\n        /* \"#utility.yul\":4178:4300   */\n      iszero\n      tag_261\n      jumpi\n        /* \"#utility.yul\":4219:4298   */\n      tag_262\n      tag_156\n      jump\t// in\n    tag_262:\n        /* \"#utility.yul\":4178:4300   */\n    tag_261:\n        /* \"#utility.yul\":4343:4354   */\n      dup1\n        /* \"#utility.yul\":4335:4341   */\n      dup7\n        /* \"#utility.yul\":4331:4355   */\n      add\n        /* \"#utility.yul\":4381:4428   */\n      tag_263\n        /* \"#utility.yul\":4424:4427   */\n      dup10\n        /* \"#utility.yul\":4412:4422   */\n      dup3\n        /* \"#utility.yul\":4381:4428   */\n      tag_165\n      jump\t// in\n    tag_263:\n        /* \"#utility.yul\":4376:4379   */\n      dup6\n        /* \"#utility.yul\":4369:4429   */\n      mstore\n        /* \"#utility.yul\":4458:4462   */\n      0x20\n        /* \"#utility.yul\":4453:4456   */\n      dup6\n        /* \"#utility.yul\":4449:4463   */\n      add\n        /* \"#utility.yul\":4442:4463   */\n      swap5\n      pop\n        /* \"#utility.yul\":4114:4473   */\n      pop\n      pop\n        /* \"#utility.yul\":4098:4102   */\n      0x20\n        /* \"#utility.yul\":4093:4096   */\n      dup2\n        /* \"#utility.yul\":4089:4103   */\n      add\n        /* \"#utility.yul\":4082:4103   */\n      swap1\n      pop\n        /* \"#utility.yul\":4038:4473   */\n      jump(tag_258)\n    tag_260:\n        /* \"#utility.yul\":4042:4063   */\n      pop\n        /* \"#utility.yul\":3646:4479   */\n      pop\n      pop\n        /* \"#utility.yul\":3534:4479   */\n      swap4\n      swap3\n      pop\n      pop\n      pop\n      jump\t// out\n        /* \"#utility.yul\":4501:4891   */\n    tag_169:\n        /* \"#utility.yul\":4582:4587   */\n      0x00\n        /* \"#utility.yul\":4631:4634   */\n      dup3\n        /* \"#utility.yul\":4624:4628   */\n      0x1f\n        /* \"#utility.yul\":4616:4622   */\n      dup4\n        /* \"#utility.yul\":4612:4629   */\n      add\n        /* \"#utility.yul\":4608:4635   */\n      slt\n        /* \"#utility.yul\":4598:4720   */\n      tag_265\n      jumpi\n        /* \"#utility.yul\":4639:4718   */\n      tag_266\n      tag_156\n      jump\t// in\n    tag_266:\n        /* \"#utility.yul\":4598:4720   */\n    tag_265:\n        /* \"#utility.yul\":4756:4762   */\n      dup2\n        /* \"#utility.yul\":4743:4763   */\n      calldataload\n        /* \"#utility.yul\":4781:4885   */\n      tag_267\n        /* \"#utility.yul\":4881:4884   */\n      dup5\n        /* \"#utility.yul\":4873:4879   */\n      dup3\n        /* \"#utility.yul\":4866:4870   */\n      0x20\n        /* \"#utility.yul\":4858:4864   */\n      dup7\n        /* \"#utility.yul\":4854:4871   */\n      add\n        /* \"#utility.yul\":4781:4885   */\n      tag_168\n      jump\t// in\n    tag_267:\n        /* \"#utility.yul\":4772:4885   */\n      swap2\n      pop\n        /* \"#utility.yul\":4588:4891   */\n      pop\n        /* \"#utility.yul\":4501:4891   */\n      swap3\n      swap2\n      pop\n      pop\n      jump\t// out\n        /* \"#utility.yul\":4897:5781   */\n    tag_18:\n        /* \"#utility.yul\":5010:5016   */\n      0x00\n        /* \"#utility.yul\":5018:5024   */\n      dup1\n        /* \"#utility.yul\":5067:5069   */\n      0x40\n        /* \"#utility.yul\":5055:5064   */\n      dup4\n        /* \"#utility.yul\":5046:5053   */\n      dup6\n        /* \"#utility.yul\":5042:5065   */\n      sub\n        /* \"#utility.yul\":5038:5070   */\n      slt\n        /* \"#utility.yul\":5035:5154   */\n      iszero\n      tag_269\n      jumpi\n        /* \"#utility.yul\":5073:5152   */\n      tag_270\n      tag_154\n      jump\t// in\n    tag_270:\n        /* \"#utility.yul\":5035:5154   */\n    tag_269:\n        /* \"#utility.yul\":5221:5222   */\n      0x00\n        /* \"#utility.yul\":5210:5219   */\n      dup4\n        /* \"#utility.yul\":5206:5223   */\n      add\n        /* \"#utility.yul\":5193:5224   */\n      calldataload\n        /* \"#utility.yul\":5251:5269   */\n      0xffffffffffffffff\n        /* \"#utility.yul\":5243:5249   */\n      dup2\n        /* \"#utility.yul\":5240:5270   */\n      gt\n        /* \"#utility.yul\":5237:5354   */\n      iszero\n      tag_271\n      jumpi\n        /* \"#utility.yul\":5273:5352   */\n      tag_272\n      tag_155\n      jump\t// in\n    tag_272:\n        /* \"#utility.yul\":5237:5354   */\n    tag_271:\n        /* \"#utility.yul\":5378:5466   */\n      tag_273\n        /* \"#utility.yul\":5458:5465   */\n      dup6\n        /* \"#utility.yul\":5449:5455   */\n      dup3\n        /* \"#utility.yul\":5438:5447   */\n      dup7\n        /* \"#utility.yul\":5434:5456   */\n      add\n        /* \"#utility.yul\":5378:5466   */\n      tag_169\n      jump\t// in\n    tag_273:\n        /* \"#utility.yul\":5368:5466   */\n      swap3\n      pop\n        /* \"#utility.yul\":5164:5476   */\n      pop\n        /* \"#utility.yul\":5543:5545   */\n      0x20\n        /* \"#utility.yul\":5532:5541   */\n      dup4\n        /* \"#utility.yul\":5528:5546   */\n      add\n        /* \"#utility.yul\":5515:5547   */\n      calldataload\n        /* \"#utility.yul\":5574:5592   */\n      0xffffffffffffffff\n        /* \"#utility.yul\":5566:5572   */\n      dup2\n        /* \"#utility.yul\":5563:5593   */\n      gt\n        /* \"#utility.yul\":5560:5677   */\n      iszero\n      tag_274\n      jumpi\n        /* \"#utility.yul\":5596:5675   */\n      tag_275\n      tag_155\n      jump\t// in\n    tag_275:\n        /* \"#utility.yul\":5560:5677   */\n    tag_274:\n        /* \"#utility.yul\":5701:5764   */\n      tag_276\n        /* \"#utility.yul\":5756:5763   */\n      dup6\n        /* \"#utility.yul\":5747:5753   */\n      dup3\n        /* \"#utility.yul\":5736:5745   */\n      dup7\n        /* \"#utility.yul\":5732:5754   */\n      add\n        /* \"#utility.yul\":5701:5764   */\n      tag_165\n      jump\t// in\n    tag_276:\n        /* \"#utility.yul\":5691:5764   */\n      swap2\n      pop\n        /* \"#utility.yul\":5486:5774   */\n      pop\n        /* \"#utility.yul\":4897:5781   */\n      swap3\n      pop\n      swap3\n      swap1\n      pop\n      jump\t// out\n        /* \"#utility.yul\":5787:5864   */\n    tag_170:\n        /* \"#utility.yul\":5824:5831   */\n      0x00\n        /* \"#utility.yul\":5853:5858   */\n      dup2\n        /* \"#utility.yul\":5842:5858   */\n      swap1\n      pop\n        /* \"#utility.yul\":5787:5864   */\n      swap2\n      swap1\n      pop\n      jump\t// out\n        /* \"#utility.yul\":5870:5992   */\n    tag_171:\n        /* \"#utility.yul\":5943:5967   */\n      tag_279\n        /* \"#utility.yul\":5961:5966   */\n      dup2\n        /* \"#utility.yul\":5943:5967   */\n      tag_170\n      jump\t// in\n    tag_279:\n        /* \"#utility.yul\":5936:5941   */\n      dup2\n        /* \"#utility.yul\":5933:5968   */\n      eq\n        /* \"#utility.yul\":5923:5986   */\n      tag_280\n      jumpi\n        /* \"#utility.yul\":5982:5983   */\n      0x00\n        /* \"#utility.yul\":5979:5980   */\n      dup1\n        /* \"#utility.yul\":5972:5984   */\n      revert\n        /* \"#utility.yul\":5923:5986   */\n    tag_280:\n        /* \"#utility.yul\":5870:5992   */\n      pop\n      jump\t// out\n        /* \"#utility.yul\":5998:6137   */\n    tag_172:\n        /* \"#utility.yul\":6044:6049   */\n      0x00\n        /* \"#utility.yul\":6082:6088   */\n      dup2\n        /* \"#utility.yul\":6069:6089   */\n      calldataload\n        /* \"#utility.yul\":6060:6089   */\n      swap1\n      pop\n        /* \"#utility.yul\":6098:6131   */\n      tag_282\n        /* \"#utility.yul\":6125:6130   */\n      dup2\n        /* \"#utility.yul\":6098:6131   */\n      tag_171\n      jump\t// in\n    tag_282:\n        /* \"#utility.yul\":5998:6137   */\n      swap3\n      swap2\n      pop\n      pop\n      jump\t// out\n        /* \"#utility.yul\":6143:6472   */\n    tag_22:\n        /* \"#utility.yul\":6202:6208   */\n      0x00\n        /* \"#utility.yul\":6251:6253   */\n      0x20\n        /* \"#utility.yul\":6239:6248   */\n      dup3\n        /* \"#utility.yul\":6230:6237   */\n      dup5\n        /* \"#utility.yul\":6226:6249   */\n      sub\n        /* \"#utility.yul\":6222:6254   */\n      slt\n        /* \"#utility.yul\":6219:6338   */\n      iszero\n      tag_284\n      jumpi\n        /* \"#utility.yul\":6257:6336   */\n      tag_285\n      tag_154\n      jump\t// in\n    tag_285:\n        /* \"#utility.yul\":6219:6338   */\n    tag_284:\n        /* \"#utility.yul\":6377:6378   */\n      0x00\n        /* \"#utility.yul\":6402:6455   */\n      tag_286\n        /* \"#utility.yul\":6447:6454   */\n      dup5\n        /* \"#utility.yul\":6438:6444   */\n      dup3\n        /* \"#utility.yul\":6427:6436   */\n      dup6\n        /* \"#utility.yul\":6423:6445   */\n      add\n        /* \"#utility.yul\":6402:6455   */\n      tag_172\n      jump\t// in\n    tag_286:\n        /* \"#utility.yul\":6392:6455   */\n      swap2\n      pop\n        /* \"#utility.yul\":6348:6465   */\n      pop\n        /* \"#utility.yul\":6143:6472   */\n      swap3\n      swap2\n      pop\n      pop\n      jump\t// out\n        /* \"#utility.yul\":6478:6577   */\n    tag_173:\n        /* \"#utility.yul\":6530:6536   */\n      0x00\n        /* \"#utility.yul\":6564:6569   */\n      dup2\n        /* \"#utility.yul\":6558:6570   */\n      mload\n        /* \"#utility.yul\":6548:6570   */\n      swap1\n      pop\n        /* \"#utility.yul\":6478:6577   */\n      swap2\n      swap1\n      pop\n      jump\t// out\n        /* \"#utility.yul\":6583:6752   */\n    tag_174:\n        /* \"#utility.yul\":6667:6678   */\n      0x00\n        /* \"#utility.yul\":6701:6707   */\n      dup3\n        /* \"#utility.yul\":6696:6699   */\n      dup3\n        /* \"#utility.yul\":6689:6708   */\n      mstore\n        /* \"#utility.yul\":6741:6745   */\n      0x20\n        /* \"#utility.yul\":6736:6739   */\n      dup3\n        /* \"#utility.yul\":6732:6746   */\n      add\n        /* \"#utility.yul\":6717:6746   */\n      swap1\n      pop\n        /* \"#utility.yul\":6583:6752   */\n      swap3\n      swap2\n      pop\n      pop\n      jump\t// out\n        /* \"#utility.yul\":6758:7004   */\n    tag_175:\n        /* \"#utility.yul\":6839:6840   */\n      0x00\n        /* \"#utility.yul\":6849:6962   */\n    tag_290:\n        /* \"#utility.yul\":6863:6869   */\n      dup4\n        /* \"#utility.yul\":6860:6861   */\n      dup2\n        /* \"#utility.yul\":6857:6870   */\n      lt\n        /* \"#utility.yul\":6849:6962   */\n      iszero\n      tag_292\n      jumpi\n        /* \"#utility.yul\":6948:6949   */\n      dup1\n        /* \"#utility.yul\":6943:6946   */\n      dup3\n        /* \"#utility.yul\":6939:6950   */\n      add\n        /* \"#utility.yul\":6933:6951   */\n      mload\n        /* \"#utility.yul\":6929:6930   */\n      dup2\n        /* \"#utility.yul\":6924:6927   */\n      dup5\n        /* \"#utility.yul\":6920:6931   */\n      add\n        /* \"#utility.yul\":6913:6952   */\n      mstore\n        /* \"#utility.yul\":6885:6887   */\n      0x20\n        /* \"#utility.yul\":6882:6883   */\n      dup2\n        /* \"#utility.yul\":6878:6888   */\n      add\n        /* \"#utility.yul\":6873:6888   */\n      swap1\n      pop\n        /* \"#utility.yul\":6849:6962   */\n      jump(tag_290)\n    tag_292:\n        /* \"#utility.yul\":6996:6997   */\n      0x00\n        /* \"#utility.yul\":6987:6993   */\n      dup5\n        /* \"#utility.yul\":6982:6985   */\n      dup5\n        /* \"#utility.yul\":6978:6994   */\n      add\n        /* \"#utility.yul\":6971:6998   */\n      mstore\n        /* \"#utility.yul\":6820:7004   */\n      pop\n        /* \"#utility.yul\":6758:7004   */\n      pop\n      pop\n      pop\n      jump\t// out\n        /* \"#utility.yul\":7010:7387   */\n    tag_176:\n        /* \"#utility.yul\":7098:7101   */\n      0x00\n        /* \"#utility.yul\":7126:7165   */\n      tag_294\n        /* \"#utility.yul\":7159:7164   */\n      dup3\n        /* \"#utility.yul\":7126:7165   */\n      tag_173\n      jump\t// in\n    tag_294:\n        /* \"#utility.yul\":7181:7252   */\n      tag_295\n        /* \"#utility.yul\":7245:7251   */\n      dup2\n        /* \"#utility.yul\":7240:7243   */\n      dup6\n        /* \"#utility.yul\":7181:7252   */\n      tag_174\n      jump\t// in\n    tag_295:\n        /* \"#utility.yul\":7174:7252   */\n      swap4\n      pop\n        /* \"#utility.yul\":7261:7326   */\n      tag_296\n        /* \"#utility.yul\":7319:7325   */\n      dup2\n        /* \"#utility.yul\":7314:7317   */\n      dup6\n        /* \"#utility.yul\":7307:7311   */\n      0x20\n        /* \"#utility.yul\":7300:7305   */\n      dup7\n        /* \"#utility.yul\":7296:7312   */\n      add\n        /* \"#utility.yul\":7261:7326   */\n      tag_175\n      jump\t// in\n    tag_296:\n        /* \"#utility.yul\":7351:7380   */\n      tag_297\n        /* \"#utility.yul\":7373:7379   */\n      dup2\n        /* \"#utility.yul\":7351:7380   */\n      tag_158\n      jump\t// in\n    tag_297:\n        /* \"#utility.yul\":7346:7349   */\n      dup5\n        /* \"#utility.yul\":7342:7381   */\n      add\n        /* \"#utility.yul\":7335:7381   */\n      swap2\n      pop\n        /* \"#utility.yul\":7102:7387   */\n      pop\n        /* \"#utility.yul\":7010:7387   */\n      swap3\n      swap2\n      pop\n      pop\n      jump\t// out\n        /* \"#utility.yul\":7393:7706   */\n    tag_25:\n        /* \"#utility.yul\":7506:7510   */\n      0x00\n        /* \"#utility.yul\":7544:7546   */\n      0x20\n        /* \"#utility.yul\":7533:7542   */\n      dup3\n        /* \"#utility.yul\":7529:7547   */\n      add\n        /* \"#utility.yul\":7521:7547   */\n      swap1\n      pop\n        /* \"#utility.yul\":7593:7602   */\n      dup2\n        /* \"#utility.yul\":7587:7591   */\n      dup2\n        /* \"#utility.yul\":7583:7603   */\n      sub\n        /* \"#utility.yul\":7579:7580   */\n      0x00\n        /* \"#utility.yul\":7568:7577   */\n      dup4\n        /* \"#utility.yul\":7564:7581   */\n      add\n        /* \"#utility.yul\":7557:7604   */\n      mstore\n        /* \"#utility.yul\":7621:7699   */\n      tag_299\n        /* \"#utility.yul\":7694:7698   */\n      dup2\n        /* \"#utility.yul\":7685:7691   */\n      dup5\n        /* \"#utility.yul\":7621:7699   */\n      tag_176\n      jump\t// in\n    tag_299:\n        /* \"#utility.yul\":7613:7699   */\n      swap1\n      pop\n        /* \"#utility.yul\":7393:7706   */\n      swap3\n      swap2\n      pop\n      pop\n      jump\t// out\n        /* \"#utility.yul\":7712:7826   */\n    tag_177:\n        /* \"#utility.yul\":7779:7785   */\n      0x00\n        /* \"#utility.yul\":7813:7818   */\n      dup2\n        /* \"#utility.yul\":7807:7819   */\n      mload\n        /* \"#utility.yul\":7797:7819   */\n      swap1\n      pop\n        /* \"#utility.yul\":7712:7826   */\n      swap2\n      swap1\n      pop\n      jump\t// out\n        /* \"#utility.yul\":7832:8016   */\n    tag_178:\n        /* \"#utility.yul\":7931:7942   */\n      0x00\n        /* \"#utility.yul\":7965:7971   */\n      dup3\n        /* \"#utility.yul\":7960:7963   */\n      dup3\n        /* \"#utility.yul\":7953:7972   */\n      mstore\n        /* \"#utility.yul\":8005:8009   */\n      0x20\n        /* \"#utility.yul\":8000:8003   */\n      dup3\n        /* \"#utility.yul\":7996:8010   */\n      add\n        /* \"#utility.yul\":7981:8010   */\n      swap1\n      pop\n        /* \"#utility.yul\":7832:8016   */\n      swap3\n      swap2\n      pop\n      pop\n      jump\t// out\n        /* \"#utility.yul\":8022:8154   */\n    tag_179:\n        /* \"#utility.yul\":8089:8093   */\n      0x00\n        /* \"#utility.yul\":8112:8115   */\n      dup2\n        /* \"#utility.yul\":8104:8115   */\n      swap1\n      pop\n        /* \"#utility.yul\":8142:8146   */\n      0x20\n        /* \"#utility.yul\":8137:8140   */\n      dup3\n        /* \"#utility.yul\":8133:8147   */\n      add\n        /* \"#utility.yul\":8125:8147   */\n      swap1\n      pop\n        /* \"#utility.yul\":8022:8154   */\n      swap2\n      swap1\n      pop\n      jump\t// out\n        /* \"#utility.yul\":8160:8268   */\n    tag_180:\n        /* \"#utility.yul\":8237:8261   */\n      tag_304\n        /* \"#utility.yul\":8255:8260   */\n      dup2\n        /* \"#utility.yul\":8237:8261   */\n      tag_170\n      jump\t// in\n    tag_304:\n        /* \"#utility.yul\":8232:8235   */\n      dup3\n        /* \"#utility.yul\":8225:8262   */\n      mstore\n        /* \"#utility.yul\":8160:8268   */\n      pop\n      pop\n      jump\t// out\n        /* \"#utility.yul\":8274:8453   */\n    tag_181:\n        /* \"#utility.yul\":8343:8353   */\n      0x00\n        /* \"#utility.yul\":8364:8410   */\n      tag_306\n        /* \"#utility.yul\":8406:8409   */\n      dup4\n        /* \"#utility.yul\":8398:8404   */\n      dup4\n        /* \"#utility.yul\":8364:8410   */\n      tag_180\n      jump\t// in\n    tag_306:\n        /* \"#utility.yul\":8442:8446   */\n      0x20\n        /* \"#utility.yul\":8437:8440   */\n      dup4\n        /* \"#utility.yul\":8433:8447   */\n      add\n        /* \"#utility.yul\":8419:8447   */\n      swap1\n      pop\n        /* \"#utility.yul\":8274:8453   */\n      swap3\n      swap2\n      pop\n      pop\n      jump\t// out\n        /* \"#utility.yul\":8459:8572   */\n    tag_182:\n        /* \"#utility.yul\":8529:8533   */\n      0x00\n        /* \"#utility.yul\":8561:8565   */\n      0x20\n        /* \"#utility.yul\":8556:8559   */\n      dup3\n        /* \"#utility.yul\":8552:8566   */\n      add\n        /* \"#utility.yul\":8544:8566   */\n      swap1\n      pop\n        /* \"#utility.yul\":8459:8572   */\n      swap2\n      swap1\n      pop\n      jump\t// out\n        /* \"#utility.yul\":8608:9340   */\n    tag_183:\n        /* \"#utility.yul\":8727:8730   */\n      0x00\n        /* \"#utility.yul\":8756:8810   */\n      tag_309\n        /* \"#utility.yul\":8804:8809   */\n      dup3\n        /* \"#utility.yul\":8756:8810   */\n      tag_177\n      jump\t// in\n    tag_309:\n        /* \"#utility.yul\":8826:8912   */\n      tag_310\n        /* \"#utility.yul\":8905:8911   */\n      dup2\n        /* \"#utility.yul\":8900:8903   */\n      dup6\n        /* \"#utility.yul\":8826:8912   */\n      tag_178\n      jump\t// in\n    tag_310:\n        /* \"#utility.yul\":8819:8912   */\n      swap4\n      pop\n        /* \"#utility.yul\":8936:8992   */\n      tag_311\n        /* \"#utility.yul\":8986:8991   */\n      dup4\n        /* \"#utility.yul\":8936:8992   */\n      tag_179\n      jump\t// in\n    tag_311:\n        /* \"#utility.yul\":9015:9022   */\n      dup1\n        /* \"#utility.yul\":9046:9047   */\n      0x00\n        /* \"#utility.yul\":9031:9315   */\n    tag_312:\n        /* \"#utility.yul\":9056:9062   */\n      dup4\n        /* \"#utility.yul\":9053:9054   */\n      dup2\n        /* \"#utility.yul\":9050:9063   */\n      lt\n        /* \"#utility.yul\":9031:9315   */\n      iszero\n      tag_314\n      jumpi\n        /* \"#utility.yul\":9132:9138   */\n      dup2\n        /* \"#utility.yul\":9126:9139   */\n      mload\n        /* \"#utility.yul\":9159:9222   */\n      tag_315\n        /* \"#utility.yul\":9218:9221   */\n      dup9\n        /* \"#utility.yul\":9203:9216   */\n      dup3\n        /* \"#utility.yul\":9159:9222   */\n      tag_181\n      jump\t// in\n    tag_315:\n        /* \"#utility.yul\":9152:9222   */\n      swap8\n      pop\n        /* \"#utility.yul\":9245:9305   */\n      tag_316\n        /* \"#utility.yul\":9298:9304   */\n      dup4\n        /* \"#utility.yul\":9245:9305   */\n      tag_182\n      jump\t// in\n    tag_316:\n        /* \"#utility.yul\":9235:9305   */\n      swap3\n      pop\n        /* \"#utility.yul\":9091:9315   */\n      pop\n        /* \"#utility.yul\":9078:9079   */\n      0x01\n        /* \"#utility.yul\":9075:9076   */\n      dup2\n        /* \"#utility.yul\":9071:9080   */\n      add\n        /* \"#utility.yul\":9066:9080   */\n      swap1\n      pop\n        /* \"#utility.yul\":9031:9315   */\n      jump(tag_312)\n    tag_314:\n        /* \"#utility.yul\":9035:9049   */\n      pop\n        /* \"#utility.yul\":9331:9334   */\n      dup6\n        /* \"#utility.yul\":9324:9334   */\n      swap4\n      pop\n        /* \"#utility.yul\":8732:9340   */\n      pop\n      pop\n      pop\n        /* \"#utility.yul\":8608:9340   */\n      swap3\n      swap2\n      pop\n      pop\n      jump\t// out\n        /* \"#utility.yul\":9346:9719   */\n    tag_30:\n        /* \"#utility.yul\":9489:9493   */\n      0x00\n        /* \"#utility.yul\":9527:9529   */\n      0x20\n        /* \"#utility.yul\":9516:9525   */\n      dup3\n        /* \"#utility.yul\":9512:9530   */\n      add\n        /* \"#utility.yul\":9504:9530   */\n      swap1\n      pop\n        /* \"#utility.yul\":9576:9585   */\n      dup2\n        /* \"#utility.yul\":9570:9574   */\n      dup2\n        /* \"#utility.yul\":9566:9586   */\n      sub\n        /* \"#utility.yul\":9562:9563   */\n      0x00\n        /* \"#utility.yul\":9551:9560   */\n      dup4\n        /* \"#utility.yul\":9547:9564   */\n      add\n        /* \"#utility.yul\":9540:9587   */\n      mstore\n        /* \"#utility.yul\":9604:9712   */\n      tag_318\n        /* \"#utility.yul\":9707:9711   */\n      dup2\n        /* \"#utility.yul\":9698:9704   */\n      dup5\n        /* \"#utility.yul\":9604:9712   */\n      tag_183\n      jump\t// in\n    tag_318:\n        /* \"#utility.yul\":9596:9712   */\n      swap1\n      pop\n        /* \"#utility.yul\":9346:9719   */\n      swap3\n      swap2\n      pop\n      pop\n      jump\t// out\n        /* \"#utility.yul\":9725:10884   */\n    tag_33:\n        /* \"#utility.yul\":9832:9838   */\n      0x00\n        /* \"#utility.yul\":9840:9846   */\n      dup1\n        /* \"#utility.yul\":9848:9854   */\n      0x00\n        /* \"#utility.yul\":9897:9899   */\n      0x60\n        /* \"#utility.yul\":9885:9894   */\n      dup5\n        /* \"#utility.yul\":9876:9883   */\n      dup7\n        /* \"#utility.yul\":9872:9895   */\n      sub\n        /* \"#utility.yul\":9868:9900   */\n      slt\n        /* \"#utility.yul\":9865:9984   */\n      iszero\n      tag_320\n      jumpi\n        /* \"#utility.yul\":9903:9982   */\n      tag_321\n      tag_154\n      jump\t// in\n    tag_321:\n        /* \"#utility.yul\":9865:9984   */\n    tag_320:\n        /* \"#utility.yul\":10051:10052   */\n      0x00\n        /* \"#utility.yul\":10040:10049   */\n      dup5\n        /* \"#utility.yul\":10036:10053   */\n      add\n        /* \"#utility.yul\":10023:10054   */\n      calldataload\n        /* \"#utility.yul\":10081:10099   */\n      0xffffffffffffffff\n        /* \"#utility.yul\":10073:10079   */\n      dup2\n        /* \"#utility.yul\":10070:10100   */\n      gt\n        /* \"#utility.yul\":10067:10184   */\n      iszero\n      tag_322\n      jumpi\n        /* \"#utility.yul\":10103:10182   */\n      tag_323\n      tag_155\n      jump\t// in\n    tag_323:\n        /* \"#utility.yul\":10067:10184   */\n    tag_322:\n        /* \"#utility.yul\":10208:10271   */\n      tag_324\n        /* \"#utility.yul\":10263:10270   */\n      dup7\n        /* \"#utility.yul\":10254:10260   */\n      dup3\n        /* \"#utility.yul\":10243:10252   */\n      dup8\n        /* \"#utility.yul\":10239:10261   */\n      add\n        /* \"#utility.yul\":10208:10271   */\n      tag_165\n      jump\t// in\n    tag_324:\n        /* \"#utility.yul\":10198:10271   */\n      swap4\n      pop\n        /* \"#utility.yul\":9994:10281   */\n      pop\n        /* \"#utility.yul\":10348:10350   */\n      0x20\n        /* \"#utility.yul\":10337:10346   */\n      dup5\n        /* \"#utility.yul\":10333:10351   */\n      add\n        /* \"#utility.yul\":10320:10352   */\n      calldataload\n        /* \"#utility.yul\":10379:10397   */\n      0xffffffffffffffff\n        /* \"#utility.yul\":10371:10377   */\n      dup2\n        /* \"#utility.yul\":10368:10398   */\n      gt\n        /* \"#utility.yul\":10365:10482   */\n      iszero\n      tag_325\n      jumpi\n        /* \"#utility.yul\":10401:10480   */\n      tag_326\n      tag_155\n      jump\t// in\n    tag_326:\n        /* \"#utility.yul\":10365:10482   */\n    tag_325:\n        /* \"#utility.yul\":10506:10569   */\n      tag_327\n        /* \"#utility.yul\":10561:10568   */\n      dup7\n        /* \"#utility.yul\":10552:10558   */\n      dup3\n        /* \"#utility.yul\":10541:10550   */\n      dup8\n        /* \"#utility.yul\":10537:10559   */\n      add\n        /* \"#utility.yul\":10506:10569   */\n      tag_165\n      jump\t// in\n    tag_327:\n        /* \"#utility.yul\":10496:10569   */\n      swap3\n      pop\n        /* \"#utility.yul\":10291:10579   */\n      pop\n        /* \"#utility.yul\":10646:10648   */\n      0x40\n        /* \"#utility.yul\":10635:10644   */\n      dup5\n        /* \"#utility.yul\":10631:10649   */\n      add\n        /* \"#utility.yul\":10618:10650   */\n      calldataload\n        /* \"#utility.yul\":10677:10695   */\n      0xffffffffffffffff\n        /* \"#utility.yul\":10669:10675   */\n      dup2\n        /* \"#utility.yul\":10666:10696   */\n      gt\n        /* \"#utility.yul\":10663:10780   */\n      iszero\n      tag_328\n      jumpi\n        /* \"#utility.yul\":10699:10778   */\n      tag_329\n      tag_155\n      jump\t// in\n    tag_329:\n        /* \"#utility.yul\":10663:10780   */\n    tag_328:\n        /* \"#utility.yul\":10804:10867   */\n      tag_330\n        /* \"#utility.yul\":10859:10866   */\n      dup7\n        /* \"#utility.yul\":10850:10856   */\n      dup3\n        /* \"#utility.yul\":10839:10848   */\n      dup8\n        /* \"#utility.yul\":10835:10857   */\n      add\n        /* \"#utility.yul\":10804:10867   */\n      tag_165\n      jump\t// in\n    tag_330:\n        /* \"#utility.yul\":10794:10867   */\n      swap2\n      pop\n        /* \"#utility.yul\":10589:10877   */\n      pop\n        /* \"#utility.yul\":9725:10884   */\n      swap3\n      pop\n      swap3\n      pop\n      swap3\n      jump\t// out\n        /* \"#utility.yul\":10890:11008   */\n    tag_184:\n        /* \"#utility.yul\":10977:11001   */\n      tag_332\n        /* \"#utility.yul\":10995:11000   */\n      dup2\n        /* \"#utility.yul\":10977:11001   */\n      tag_170\n      jump\t// in\n    tag_332:\n        /* \"#utility.yul\":10972:10975   */\n      dup3\n        /* \"#utility.yul\":10965:11002   */\n      mstore\n        /* \"#utility.yul\":10890:11008   */\n      pop\n      pop\n      jump\t// out\n        /* \"#utility.yul\":11014:11236   */\n    tag_38:\n        /* \"#utility.yul\":11107:11111   */\n      0x00\n        /* \"#utility.yul\":11145:11147   */\n      0x20\n        /* \"#utility.yul\":11134:11143   */\n      dup3\n        /* \"#utility.yul\":11130:11148   */\n      add\n        /* \"#utility.yul\":11122:11148   */\n      swap1\n      pop\n        /* \"#utility.yul\":11158:11229   */\n      tag_334\n        /* \"#utility.yul\":11226:11227   */\n      0x00\n        /* \"#utility.yul\":11215:11224   */\n      dup4\n        /* \"#utility.yul\":11211:11228   */\n      add\n        /* \"#utility.yul\":11202:11208   */\n      dup5\n        /* \"#utility.yul\":11158:11229   */\n      tag_184\n      jump\t// in\n    tag_334:\n        /* \"#utility.yul\":11014:11236   */\n      swap3\n      swap2\n      pop\n      pop\n      jump\t// out\n        /* \"#utility.yul\":11242:11665   */\n    tag_43:\n        /* \"#utility.yul\":11383:11387   */\n      0x00\n        /* \"#utility.yul\":11421:11423   */\n      0x40\n        /* \"#utility.yul\":11410:11419   */\n      dup3\n        /* \"#utility.yul\":11406:11424   */\n      add\n        /* \"#utility.yul\":11398:11424   */\n      swap1\n      pop\n        /* \"#utility.yul\":11470:11479   */\n      dup2\n        /* \"#utility.yul\":11464:11468   */\n      dup2\n        /* \"#utility.yul\":11460:11480   */\n      sub\n        /* \"#utility.yul\":11456:11457   */\n      0x00\n        /* \"#utility.yul\":11445:11454   */\n      dup4\n        /* \"#utility.yul\":11441:11458   */\n      add\n        /* \"#utility.yul\":11434:11481   */\n      mstore\n        /* \"#utility.yul\":11498:11576   */\n      tag_336\n        /* \"#utility.yul\":11571:11575   */\n      dup2\n        /* \"#utility.yul\":11562:11568   */\n      dup6\n        /* \"#utility.yul\":11498:11576   */\n      tag_176\n      jump\t// in\n    tag_336:\n        /* \"#utility.yul\":11490:11576   */\n      swap1\n      pop\n        /* \"#utility.yul\":11586:11658   */\n      tag_337\n        /* \"#utility.yul\":11654:11656   */\n      0x20\n        /* \"#utility.yul\":11643:11652   */\n      dup4\n        /* \"#utility.yul\":11639:11657   */\n      add\n        /* \"#utility.yul\":11630:11636   */\n      dup5\n        /* \"#utility.yul\":11586:11658   */\n      tag_184\n      jump\t// in\n    tag_337:\n        /* \"#utility.yul\":11242:11665   */\n      swap4\n      swap3\n      pop\n      pop\n      pop\n      jump\t// out\n        /* \"#utility.yul\":11671:11795   */\n    tag_185:\n        /* \"#utility.yul\":11748:11754   */\n      0x00\n        /* \"#utility.yul\":11782:11787   */\n      dup2\n        /* \"#utility.yul\":11776:11788   */\n      mload\n        /* \"#utility.yul\":11766:11788   */\n      swap1\n      pop\n        /* \"#utility.yul\":11671:11795   */\n      swap2\n      swap1\n      pop\n      jump\t// out\n        /* \"#utility.yul\":11801:11995   */\n    tag_186:\n        /* \"#utility.yul\":11910:11921   */\n      0x00\n        /* \"#utility.yul\":11944:11950   */\n      dup3\n        /* \"#utility.yul\":11939:11942   */\n      dup3\n        /* \"#utility.yul\":11932:11951   */\n      mstore\n        /* \"#utility.yul\":11984:11988   */\n      0x20\n        /* \"#utility.yul\":11979:11982   */\n      dup3\n        /* \"#utility.yul\":11975:11989   */\n      add\n        /* \"#utility.yul\":11960:11989   */\n      swap1\n      pop\n        /* \"#utility.yul\":11801:11995   */\n      swap3\n      swap2\n      pop\n      pop\n      jump\t// out\n        /* \"#utility.yul\":12001:12143   */\n    tag_187:\n        /* \"#utility.yul\":12078:12082   */\n      0x00\n        /* \"#utility.yul\":12101:12104   */\n      dup2\n        /* \"#utility.yul\":12093:12104   */\n      swap1\n      pop\n        /* \"#utility.yul\":12131:12135   */\n      0x20\n        /* \"#utility.yul\":12126:12129   */\n      dup3\n        /* \"#utility.yul\":12122:12136   */\n      add\n        /* \"#utility.yul\":12114:12136   */\n      swap1\n      pop\n        /* \"#utility.yul\":12001:12143   */\n      swap2\n      swap1\n      pop\n      jump\t// out\n        /* \"#utility.yul\":12149:12308   */\n    tag_188:\n        /* \"#utility.yul\":12223:12234   */\n      0x00\n        /* \"#utility.yul\":12257:12263   */\n      dup3\n        /* \"#utility.yul\":12252:12255   */\n      dup3\n        /* \"#utility.yul\":12245:12264   */\n      mstore\n        /* \"#utility.yul\":12297:12301   */\n      0x20\n        /* \"#utility.yul\":12292:12295   */\n      dup3\n        /* \"#utility.yul\":12288:12302   */\n      add\n        /* \"#utility.yul\":12273:12302   */\n      swap1\n      pop\n        /* \"#utility.yul\":12149:12308   */\n      swap3\n      swap2\n      pop\n      pop\n      jump\t// out\n        /* \"#utility.yul\":12314:12671   */\n    tag_189:\n        /* \"#utility.yul\":12392:12395   */\n      0x00\n        /* \"#utility.yul\":12420:12459   */\n      tag_343\n        /* \"#utility.yul\":12453:12458   */\n      dup3\n        /* \"#utility.yul\":12420:12459   */\n      tag_173\n      jump\t// in\n    tag_343:\n        /* \"#utility.yul\":12475:12536   */\n      tag_344\n        /* \"#utility.yul\":12529:12535   */\n      dup2\n        /* \"#utility.yul\":12524:12527   */\n      dup6\n        /* \"#utility.yul\":12475:12536   */\n      tag_188\n      jump\t// in\n    tag_344:\n        /* \"#utility.yul\":12468:12536   */\n      swap4\n      pop\n        /* \"#utility.yul\":12545:12610   */\n      tag_345\n        /* \"#utility.yul\":12603:12609   */\n      dup2\n        /* \"#utility.yul\":12598:12601   */\n      dup6\n        /* \"#utility.yul\":12591:12595   */\n      0x20\n        /* \"#utility.yul\":12584:12589   */\n      dup7\n        /* \"#utility.yul\":12580:12596   */\n      add\n        /* \"#utility.yul\":12545:12610   */\n      tag_175\n      jump\t// in\n    tag_345:\n        /* \"#utility.yul\":12635:12664   */\n      tag_346\n        /* \"#utility.yul\":12657:12663   */\n      dup2\n        /* \"#utility.yul\":12635:12664   */\n      tag_158\n      jump\t// in\n    tag_346:\n        /* \"#utility.yul\":12630:12633   */\n      dup5\n        /* \"#utility.yul\":12626:12665   */\n      add\n        /* \"#utility.yul\":12619:12665   */\n      swap2\n      pop\n        /* \"#utility.yul\":12396:12671   */\n      pop\n        /* \"#utility.yul\":12314:12671   */\n      swap3\n      swap2\n      pop\n      pop\n      jump\t// out\n        /* \"#utility.yul\":12677:12873   */\n    tag_190:\n        /* \"#utility.yul\":12766:12776   */\n      0x00\n        /* \"#utility.yul\":12801:12867   */\n      tag_348\n        /* \"#utility.yul\":12863:12866   */\n      dup4\n        /* \"#utility.yul\":12855:12861   */\n      dup4\n        /* \"#utility.yul\":12801:12867   */\n      tag_189\n      jump\t// in\n    tag_348:\n        /* \"#utility.yul\":12787:12867   */\n      swap1\n      pop\n        /* \"#utility.yul\":12677:12873   */\n      swap3\n      swap2\n      pop\n      pop\n      jump\t// out\n        /* \"#utility.yul\":12879:13002   */\n    tag_191:\n        /* \"#utility.yul\":12959:12963   */\n      0x00\n        /* \"#utility.yul\":12991:12995   */\n      0x20\n        /* \"#utility.yul\":12986:12989   */\n      dup3\n        /* \"#utility.yul\":12982:12996   */\n      add\n        /* \"#utility.yul\":12974:12996   */\n      swap1\n      pop\n        /* \"#utility.yul\":12879:13002   */\n      swap2\n      swap1\n      pop\n      jump\t// out\n        /* \"#utility.yul\":13036:14027   */\n    tag_192:\n        /* \"#utility.yul\":13175:13178   */\n      0x00\n        /* \"#utility.yul\":13204:13268   */\n      tag_351\n        /* \"#utility.yul\":13262:13267   */\n      dup3\n        /* \"#utility.yul\":13204:13268   */\n      tag_185\n      jump\t// in\n    tag_351:\n        /* \"#utility.yul\":13284:13380   */\n      tag_352\n        /* \"#utility.yul\":13373:13379   */\n      dup2\n        /* \"#utility.yul\":13368:13371   */\n      dup6\n        /* \"#utility.yul\":13284:13380   */\n      tag_186\n      jump\t// in\n    tag_352:\n        /* \"#utility.yul\":13277:13380   */\n      swap4\n      pop\n        /* \"#utility.yul\":13406:13409   */\n      dup4\n        /* \"#utility.yul\":13451:13455   */\n      0x20\n        /* \"#utility.yul\":13443:13449   */\n      dup3\n        /* \"#utility.yul\":13439:13456   */\n      mul\n        /* \"#utility.yul\":13434:13437   */\n      dup6\n        /* \"#utility.yul\":13430:13457   */\n      add\n        /* \"#utility.yul\":13481:13547   */\n      tag_353\n        /* \"#utility.yul\":13541:13546   */\n      dup6\n        /* \"#utility.yul\":13481:13547   */\n      tag_187\n      jump\t// in\n    tag_353:\n        /* \"#utility.yul\":13570:13577   */\n      dup1\n        /* \"#utility.yul\":13601:13602   */\n      0x00\n        /* \"#utility.yul\":13586:13982   */\n    tag_354:\n        /* \"#utility.yul\":13611:13617   */\n      dup6\n        /* \"#utility.yul\":13608:13609   */\n      dup2\n        /* \"#utility.yul\":13605:13618   */\n      lt\n        /* \"#utility.yul\":13586:13982   */\n      iszero\n      tag_356\n      jumpi\n        /* \"#utility.yul\":13682:13691   */\n      dup5\n        /* \"#utility.yul\":13676:13680   */\n      dup5\n        /* \"#utility.yul\":13672:13692   */\n      sub\n        /* \"#utility.yul\":13667:13670   */\n      dup10\n        /* \"#utility.yul\":13660:13693   */\n      mstore\n        /* \"#utility.yul\":13733:13739   */\n      dup2\n        /* \"#utility.yul\":13727:13740   */\n      mload\n        /* \"#utility.yul\":13761:13845   */\n      tag_357\n        /* \"#utility.yul\":13840:13844   */\n      dup6\n        /* \"#utility.yul\":13825:13838   */\n      dup3\n        /* \"#utility.yul\":13761:13845   */\n      tag_190\n      jump\t// in\n    tag_357:\n        /* \"#utility.yul\":13753:13845   */\n      swap5\n      pop\n        /* \"#utility.yul\":13868:13938   */\n      tag_358\n        /* \"#utility.yul\":13931:13937   */\n      dup4\n        /* \"#utility.yul\":13868:13938   */\n      tag_191\n      jump\t// in\n    tag_358:\n        /* \"#utility.yul\":13858:13938   */\n      swap3\n      pop\n        /* \"#utility.yul\":13967:13971   */\n      0x20\n        /* \"#utility.yul\":13962:13965   */\n      dup11\n        /* \"#utility.yul\":13958:13972   */\n      add\n        /* \"#utility.yul\":13951:13972   */\n      swap10\n      pop\n        /* \"#utility.yul\":13646:13982   */\n      pop\n        /* \"#utility.yul\":13633:13634   */\n      0x01\n        /* \"#utility.yul\":13630:13631   */\n      dup2\n        /* \"#utility.yul\":13626:13635   */\n      add\n        /* \"#utility.yul\":13621:13635   */\n      swap1\n      pop\n        /* \"#utility.yul\":13586:13982   */\n      jump(tag_354)\n    tag_356:\n        /* \"#utility.yul\":13590:13604   */\n      pop\n        /* \"#utility.yul\":13998:14002   */\n      dup3\n        /* \"#utility.yul\":13991:14002   */\n      swap8\n      pop\n        /* \"#utility.yul\":14018:14021   */\n      dup8\n        /* \"#utility.yul\":14011:14021   */\n      swap6\n      pop\n        /* \"#utility.yul\":13180:14027   */\n      pop\n      pop\n      pop\n      pop\n      pop\n        /* \"#utility.yul\":13036:14027   */\n      swap3\n      swap2\n      pop\n      pop\n      jump\t// out\n        /* \"#utility.yul\":14033:14446   */\n    tag_48:\n        /* \"#utility.yul\":14196:14200   */\n      0x00\n        /* \"#utility.yul\":14234:14236   */\n      0x20\n        /* \"#utility.yul\":14223:14232   */\n      dup3\n        /* \"#utility.yul\":14219:14237   */\n      add\n        /* \"#utility.yul\":14211:14237   */\n      swap1\n      pop\n        /* \"#utility.yul\":14283:14292   */\n      dup2\n        /* \"#utility.yul\":14277:14281   */\n      dup2\n        /* \"#utility.yul\":14273:14293   */\n      sub\n        /* \"#utility.yul\":14269:14270   */\n      0x00\n        /* \"#utility.yul\":14258:14267   */\n      dup4\n        /* \"#utility.yul\":14254:14271   */\n      add\n        /* \"#utility.yul\":14247:14294   */\n      mstore\n        /* \"#utility.yul\":14311:14439   */\n      tag_360\n        /* \"#utility.yul\":14434:14438   */\n      dup2\n        /* \"#utility.yul\":14425:14431   */\n      dup5\n        /* \"#utility.yul\":14311:14439   */\n      tag_192\n      jump\t// in\n    tag_360:\n        /* \"#utility.yul\":14303:14439   */\n      swap1\n      pop\n        /* \"#utility.yul\":14033:14446   */\n      swap3\n      swap2\n      pop\n      pop\n      jump\t// out\n        /* \"#utility.yul\":14452:14600   */\n    tag_193:\n        /* \"#utility.yul\":14554:14565   */\n      0x00\n        /* \"#utility.yul\":14591:14594   */\n      dup2\n        /* \"#utility.yul\":14576:14594   */\n      swap1\n      pop\n        /* \"#utility.yul\":14452:14600   */\n      swap3\n      swap2\n      pop\n      pop\n      jump\t// out\n        /* \"#utility.yul\":14606:14996   */\n    tag_194:\n        /* \"#utility.yul\":14712:14715   */\n      0x00\n        /* \"#utility.yul\":14740:14779   */\n      tag_363\n        /* \"#utility.yul\":14773:14778   */\n      dup3\n        /* \"#utility.yul\":14740:14779   */\n      tag_173\n      jump\t// in\n    tag_363:\n        /* \"#utility.yul\":14795:14884   */\n      tag_364\n        /* \"#utility.yul\":14877:14883   */\n      dup2\n        /* \"#utility.yul\":14872:14875   */\n      dup6\n        /* \"#utility.yul\":14795:14884   */\n      tag_193\n      jump\t// in\n    tag_364:\n        /* \"#utility.yul\":14788:14884   */\n      swap4\n      pop\n        /* \"#utility.yul\":14893:14958   */\n      tag_365\n        /* \"#utility.yul\":14951:14957   */\n      dup2\n        /* \"#utility.yul\":14946:14949   */\n      dup6\n        /* \"#utility.yul\":14939:14943   */\n      0x20\n        /* \"#utility.yul\":14932:14937   */\n      dup7\n        /* \"#utility.yul\":14928:14944   */\n      add\n        /* \"#utility.yul\":14893:14958   */\n      tag_175\n      jump\t// in\n    tag_365:\n        /* \"#utility.yul\":14983:14989   */\n      dup1\n        /* \"#utility.yul\":14978:14981   */\n      dup5\n        /* \"#utility.yul\":14974:14990   */\n      add\n        /* \"#utility.yul\":14967:14990   */\n      swap2\n      pop\n        /* \"#utility.yul\":14716:14996   */\n      pop\n        /* \"#utility.yul\":14606:14996   */\n      swap3\n      swap2\n      pop\n      pop\n      jump\t// out\n        /* \"#utility.yul\":15002:15277   */\n    tag_51:\n        /* \"#utility.yul\":15134:15137   */\n      0x00\n        /* \"#utility.yul\":15156:15251   */\n      tag_367\n        /* \"#utility.yul\":15247:15250   */\n      dup3\n        /* \"#utility.yul\":15238:15244   */\n      dup5\n        /* \"#utility.yul\":15156:15251   */\n      tag_194\n      jump\t// in\n    tag_367:\n        /* \"#utility.yul\":15149:15251   */\n      swap2\n      pop\n        /* \"#utility.yul\":15268:15271   */\n      dup2\n        /* \"#utility.yul\":15261:15271   */\n      swap1\n      pop\n        /* \"#utility.yul\":15002:15277   */\n      swap3\n      swap2\n      pop\n      pop\n      jump\t// out\n        /* \"#utility.yul\":15283:15463   */\n    tag_195:\n        /* \"#utility.yul\":15331:15408   */\n      0x4e487b7100000000000000000000000000000000000000000000000000000000\n        /* \"#utility.yul\":15328:15329   */\n      0x00\n        /* \"#utility.yul\":15321:15409   */\n      mstore\n        /* \"#utility.yul\":15428:15432   */\n      0x22\n        /* \"#utility.yul\":15425:15426   */\n      0x04\n        /* \"#utility.yul\":15418:15433   */\n      mstore\n        /* \"#utility.yul\":15452:15456   */\n      0x24\n        /* \"#utility.yul\":15449:15450   */\n      0x00\n        /* \"#utility.yul\":15442:15457   */\n      revert\n        /* \"#utility.yul\":15469:15789   */\n    tag_62:\n        /* \"#utility.yul\":15513:15519   */\n      0x00\n        /* \"#utility.yul\":15550:15551   */\n      0x02\n        /* \"#utility.yul\":15544:15548   */\n      dup3\n        /* \"#utility.yul\":15540:15552   */\n      div\n        /* \"#utility.yul\":15530:15552   */\n      swap1\n      pop\n        /* \"#utility.yul\":15597:15598   */\n      0x01\n        /* \"#utility.yul\":15591:15595   */\n      dup3\n        /* \"#utility.yul\":15587:15599   */\n      and\n        /* \"#utility.yul\":15618:15636   */\n      dup1\n        /* \"#utility.yul\":15608:15689   */\n      tag_370\n      jumpi\n        /* \"#utility.yul\":15674:15678   */\n      0x7f\n        /* \"#utility.yul\":15666:15672   */\n      dup3\n        /* \"#utility.yul\":15662:15679   */\n      and\n        /* \"#utility.yul\":15652:15679   */\n      swap2\n      pop\n        /* \"#utility.yul\":15608:15689   */\n    tag_370:\n        /* \"#utility.yul\":15736:15738   */\n      0x20\n        /* \"#utility.yul\":15728:15734   */\n      dup3\n        /* \"#utility.yul\":15725:15739   */\n      lt\n        /* \"#utility.yul\":15705:15723   */\n      dup2\n        /* \"#utility.yul\":15702:15740   */\n      sub\n        /* \"#utility.yul\":15699:15783   */\n      tag_371\n      jumpi\n        /* \"#utility.yul\":15755:15773   */\n      tag_372\n      tag_195\n      jump\t// in\n    tag_372:\n        /* \"#utility.yul\":15699:15783   */\n    tag_371:\n        /* \"#utility.yul\":15520:15789   */\n      pop\n        /* \"#utility.yul\":15469:15789   */\n      swap2\n      swap1\n      pop\n      jump\t// out\n        /* \"#utility.yul\":15795:15936   */\n    tag_196:\n        /* \"#utility.yul\":15844:15848   */\n      0x00\n        /* \"#utility.yul\":15867:15870   */\n      dup2\n        /* \"#utility.yul\":15859:15870   */\n      swap1\n      pop\n        /* \"#utility.yul\":15890:15893   */\n      dup2\n        /* \"#utility.yul\":15887:15888   */\n      0x00\n        /* \"#utility.yul\":15880:15894   */\n      mstore\n        /* \"#utility.yul\":15924:15928   */\n      0x20\n        /* \"#utility.yul\":15921:15922   */\n      0x00\n        /* \"#utility.yul\":15911:15929   */\n      keccak256\n        /* \"#utility.yul\":15903:15929   */\n      swap1\n      pop\n        /* \"#utility.yul\":15795:15936   */\n      swap2\n      swap1\n      pop\n      jump\t// out\n        /* \"#utility.yul\":15942:16035   */\n    tag_197:\n        /* \"#utility.yul\":15979:15985   */\n      0x00\n        /* \"#utility.yul\":16026:16028   */\n      0x20\n        /* \"#utility.yul\":16021:16023   */\n      0x1f\n        /* \"#utility.yul\":16014:16019   */\n      dup4\n        /* \"#utility.yul\":16010:16024   */\n      add\n        /* \"#utility.yul\":16006:16029   */\n      div\n        /* \"#utility.yul\":15996:16029   */\n      swap1\n      pop\n        /* \"#utility.yul\":15942:16035   */\n      swap2\n      swap1\n      pop\n      jump\t// out\n        /* \"#utility.yul\":16041:16148   */\n    tag_198:\n        /* \"#utility.yul\":16085:16093   */\n      0x00\n        /* \"#utility.yul\":16135:16140   */\n      dup3\n        /* \"#utility.yul\":16129:16133   */\n      dup3\n        /* \"#utility.yul\":16125:16141   */\n      shl\n        /* \"#utility.yul\":16104:16141   */\n      swap1\n      pop\n        /* \"#utility.yul\":16041:16148   */\n      swap3\n      swap2\n      pop\n      pop\n      jump\t// out\n        /* \"#utility.yul\":16154:16547   */\n    tag_199:\n        /* \"#utility.yul\":16223:16229   */\n      0x00\n        /* \"#utility.yul\":16273:16274   */\n      0x08\n        /* \"#utility.yul\":16261:16271   */\n      dup4\n        /* \"#utility.yul\":16257:16275   */\n      mul\n        /* \"#utility.yul\":16296:16393   */\n      tag_377\n        /* \"#utility.yul\":16326:16392   */\n      0xffffffffffffffffffffffffffffffffffffffffffffffffffffffffffffffff\n        /* \"#utility.yul\":16315:16324   */\n      dup3\n        /* \"#utility.yul\":16296:16393   */\n      tag_198\n      jump\t// in\n    tag_377:\n        /* \"#utility.yul\":16414:16453   */\n      tag_378\n        /* \"#utility.yul\":16444:16452   */\n      dup7\n        /* \"#utility.yul\":16433:16442   */\n      dup4\n        /* \"#utility.yul\":16414:16453   */\n      tag_198\n      jump\t// in\n    tag_378:\n        /* \"#utility.yul\":16402:16453   */\n      swap6\n      pop\n        /* \"#utility.yul\":16486:16490   */\n      dup1\n        /* \"#utility.yul\":16482:16491   */\n      not\n        /* \"#utility.yul\":16475:16480   */\n      dup5\n        /* \"#utility.yul\":16471:16492   */\n      and\n        /* \"#utility.yul\":16462:16492   */\n      swap4\n      pop\n        /* \"#utility.yul\":16535:16539   */\n      dup1\n        /* \"#utility.yul\":16525:16533   */\n      dup7\n        /* \"#utility.yul\":16521:16540   */\n      and\n        /* \"#utility.yul\":16514:16519   */\n      dup5\n        /* \"#utility.yul\":16511:16541   */\n      or\n        /* \"#utility.yul\":16501:16541   */\n      swap3\n      pop\n        /* \"#utility.yul\":16230:16547   */\n      pop\n      pop\n        /* \"#utility.yul\":16154:16547   */\n      swap4\n      swap3\n      pop\n      pop\n      pop\n      jump\t// out\n        /* \"#utility.yul\":16553:16613   */\n    tag_200:\n        /* \"#utility.yul\":16581:16584   */\n      0x00\n        /* \"#utility.yul\":16602:16607   */\n      dup2\n        /* \"#utility.yul\":16595:16607   */\n      swap1\n      pop\n        /* \"#utility.yul\":16553:16613   */\n      swap2\n      swap1\n      pop\n      jump\t// out\n        /* \"#utility.yul\":16619:16761   */\n    tag_201:\n        /* \"#utility.yul\":16669:16678   */\n      0x00\n        /* \"#utility.yul\":16702:16755   */\n      tag_381\n        /* \"#utility.yul\":16720:16754   */\n      tag_382\n        /* \"#utility.yul\":16729:16753   */\n      tag_383\n        /* \"#utility.yul\":16747:16752   */\n      dup5\n        /* \"#utility.yul\":16729:16753   */\n      tag_170\n      jump\t// in\n    tag_383:\n        /* \"#utility.yul\":16720:16754   */\n      tag_200\n      jump\t// in\n    tag_382:\n        /* \"#utility.yul\":16702:16755   */\n      tag_170\n      jump\t// in\n    tag_381:\n        /* \"#utility.yul\":16689:16755   */\n      swap1\n      pop\n        /* \"#utility.yul\":16619:16761   */\n      swap2\n      swap1\n      pop\n      jump\t// out\n        /* \"#utility.yul\":16767:16842   */\n    tag_202:\n        /* \"#utility.yul\":16810:16813   */\n      0x00\n        /* \"#utility.yul\":16831:16836   */\n      dup2\n        /* \"#utility.yul\":16824:16836   */\n      swap1\n      pop\n        /* \"#utility.yul\":16767:16842   */\n      swap2\n      swap1\n      pop\n      jump\t// out\n        /* \"#utility.yul\":16848:17117   */\n    tag_203:\n        /* \"#utility.yul\":16958:16997   */\n      tag_386\n        /* \"#utility.yul\":16989:16996   */\n      dup4\n        /* \"#utility.yul\":16958:16997   */\n      tag_201\n      jump\t// in\n    tag_386:\n        /* \"#utility.yul\":17019:17110   */\n      tag_387\n        /* \"#utility.yul\":17068:17109   */\n      tag_388\n        /* \"#utility.yul\":17092:17108   */\n      dup3\n        /* \"#utility.yul\":17068:17109   */\n      tag_202\n      jump\t// in\n    tag_388:\n        /* \"#utility.yul\":17060:17066   */\n      dup5\n        /* \"#utility.yul\":17053:17057   */\n      dup5\n        /* \"#utility.yul\":17047:17058   */\n      sload\n        /* \"#utility.yul\":17019:17110   */\n      tag_199\n      jump\t// in\n    tag_387:\n        /* \"#utility.yul\":17013:17017   */\n      dup3\n        /* \"#utility.yul\":17006:17111   */\n      sstore\n        /* \"#utility.yul\":16924:17117   */\n      pop\n        /* \"#utility.yul\":16848:17117   */\n      pop\n      pop\n      pop\n      jump\t// out\n        /* \"#utility.yul\":17123:17196   */\n    tag_204:\n        /* \"#utility.yul\":17168:17171   */\n      0x00\n        /* \"#utility.yul\":17123:17196   */\n      swap1\n      jump\t// out\n        /* \"#utility.yul\":17202:17391   */\n    tag_205:\n        /* \"#utility.yul\":17279:17311   */\n      tag_391\n      tag_204\n      jump\t// in\n    tag_391:\n        /* \"#utility.yul\":17320:17385   */\n      tag_392\n        /* \"#utility.yul\":17378:17384   */\n      dup2\n        /* \"#utility.yul\":17370:17376   */\n      dup5\n        /* \"#utility.yul\":17364:17368   */\n      dup5\n        /* \"#utility.yul\":17320:17385   */\n      tag_203\n      jump\t// in\n    tag_392:\n        /* \"#utility.yul\":17255:17391   */\n      pop\n        /* \"#utility.yul\":17202:17391   */\n      pop\n      pop\n      jump\t// out\n        /* \"#utility.yul\":17397:17583   */\n    tag_206:\n        /* \"#utility.yul\":17457:17577   */\n    tag_394:\n        /* \"#utility.yul\":17474:17477   */\n      dup2\n        /* \"#utility.yul\":17467:17472   */\n      dup2\n        /* \"#utility.yul\":17464:17478   */\n      lt\n        /* \"#utility.yul\":17457:17577   */\n      iszero\n      tag_396\n      jumpi\n        /* \"#utility.yul\":17528:17567   */\n      tag_397\n        /* \"#utility.yul\":17565:17566   */\n      0x00\n        /* \"#utility.yul\":17558:17563   */\n      dup3\n        /* \"#utility.yul\":17528:17567   */\n      tag_205\n      jump\t// in\n    tag_397:\n        /* \"#utility.yul\":17501:17502   */\n      0x01\n        /* \"#utility.yul\":17494:17499   */\n      dup2\n        /* \"#utility.yul\":17490:17503   */\n      add\n        /* \"#utility.yul\":17481:17503   */\n      swap1\n      pop\n        /* \"#utility.yul\":17457:17577   */\n      jump(tag_394)\n    tag_396:\n        /* \"#utility.yul\":17397:17583   */\n      pop\n      pop\n      jump\t// out\n        /* \"#utility.yul\":17589:18132   */\n    tag_207:\n        /* \"#utility.yul\":17690:17692   */\n      0x1f\n        /* \"#utility.yul\":17685:17688   */\n      dup3\n        /* \"#utility.yul\":17682:17693   */\n      gt\n        /* \"#utility.yul\":17679:18125   */\n      iszero\n      tag_399\n      jumpi\n        /* \"#utility.yul\":17724:17762   */\n      tag_400\n        /* \"#utility.yul\":17756:17761   */\n      dup2\n        /* \"#utility.yul\":17724:17762   */\n      tag_196\n      jump\t// in\n    tag_400:\n        /* \"#utility.yul\":17808:17837   */\n      tag_401\n        /* \"#utility.yul\":17826:17836   */\n      dup5\n        /* \"#utility.yul\":17808:17837   */\n      tag_197\n      jump\t// in\n    tag_401:\n        /* \"#utility.yul\":17798:17806   */\n      dup2\n        /* \"#utility.yul\":17794:17838   */\n      add\n        /* \"#utility.yul\":17991:17993   */\n      0x20\n        /* \"#utility.yul\":17979:17989   */\n      dup6\n        /* \"#utility.yul\":17976:17994   */\n      lt\n        /* \"#utility.yul\":17973:18022   */\n      iszero\n      tag_402\n      jumpi\n        /* \"#utility.yul\":18012:18020   */\n      dup2\n        /* \"#utility.yul\":17997:18020   */\n      swap1\n      pop\n        /* \"#utility.yul\":17973:18022   */\n    tag_402:\n        /* \"#utility.yul\":18035:18115   */\n      tag_403\n        /* \"#utility.yul\":18091:18113   */\n      tag_404\n        /* \"#utility.yul\":18109:18112   */\n      dup6\n        /* \"#utility.yul\":18091:18113   */\n      tag_197\n      jump\t// in\n    tag_404:\n        /* \"#utility.yul\":18081:18089   */\n      dup4\n        /* \"#utility.yul\":18077:18114   */\n      add\n        /* \"#utility.yul\":18064:18075   */\n      dup3\n        /* \"#utility.yul\":18035:18115   */\n      tag_206\n      jump\t// in\n    tag_403:\n        /* \"#utility.yul\":17694:18125   */\n      pop\n      pop\n        /* \"#utility.yul\":17679:18125   */\n    tag_399:\n        /* \"#utility.yul\":17589:18132   */\n      pop\n      pop\n      pop\n      jump\t// out\n        /* \"#utility.yul\":18138:18255   */\n    tag_208:\n        /* \"#utility.yul\":18192:18200   */\n      0x00\n        /* \"#utility.yul\":18242:18247   */\n      dup3\n        /* \"#utility.yul\":18236:18240   */\n      dup3\n        /* \"#utility.yul\":18232:18248   */\n      shr\n        /* \"#utility.yul\":18211:18248   */\n      swap1\n      pop\n        /* \"#utility.yul\":18138:18255   */\n      swap3\n      swap2\n      pop\n      pop\n      jump\t// out\n        /* \"#utility.yul\":18261:18430   */\n    tag_209:\n        /* \"#utility.yul\":18305:18311   */\n      0x00\n        /* \"#utility.yul\":18338:18389   */\n      tag_407\n        /* \"#utility.yul\":18386:18387   */\n      0x00\n        /* \"#utility.yul\":18382:18388   */\n      not\n        /* \"#utility.yul\":18374:18379   */\n      dup5\n        /* \"#utility.yul\":18371:18372   */\n      0x08\n        /* \"#utility.yul\":18367:18380   */\n      mul\n        /* \"#utility.yul\":18338:18389   */\n      tag_208\n      jump\t// in\n    tag_407:\n        /* \"#utility.yul\":18334:18390   */\n      not\n        /* \"#utility.yul\":18419:18423   */\n      dup1\n        /* \"#utility.yul\":18413:18417   */\n      dup4\n        /* \"#utility.yul\":18409:18424   */\n      and\n        /* \"#utility.yul\":18399:18424   */\n      swap2\n      pop\n        /* \"#utility.yul\":18312:18430   */\n      pop\n        /* \"#utility.yul\":18261:18430   */\n      swap3\n      swap2\n      pop\n      pop\n      jump\t// out\n        /* \"#utility.yul\":18435:18730   */\n    tag_210:\n        /* \"#utility.yul\":18511:18515   */\n      0x00\n        /* \"#utility.yul\":18657:18686   */\n      tag_409\n        /* \"#utility.yul\":18682:18685   */\n      dup4\n        /* \"#utility.yul\":18676:18680   */\n      dup4\n        /* \"#utility.yul\":18657:18686   */\n      tag_209\n      jump\t// in\n    tag_409:\n        /* \"#utility.yul\":18649:18686   */\n      swap2\n      pop\n        /* \"#utility.yul\":18719:18722   */\n      dup3\n        /* \"#utility.yul\":18716:18717   */\n      0x02\n        /* \"#utility.yul\":18712:18723   */\n      mul\n        /* \"#utility.yul\":18706:18710   */\n      dup3\n        /* \"#utility.yul\":18703:18724   */\n      or\n        /* \"#utility.yul\":18695:18724   */\n      swap1\n      pop\n        /* \"#utility.yul\":18435:18730   */\n      swap3\n      swap2\n      pop\n      pop\n      jump\t// out\n        /* \"#utility.yul\":18735:20130   */\n    tag_53:\n        /* \"#utility.yul\":18852:18889   */\n      tag_411\n        /* \"#utility.yul\":18885:18888   */\n      dup3\n        /* \"#utility.yul\":18852:18889   */\n      tag_173\n      jump\t// in\n    tag_411:\n        /* \"#utility.yul\":18954:18972   */\n      0xffffffffffffffff\n        /* \"#utility.yul\":18946:18952   */\n      dup2\n        /* \"#utility.yul\":18943:18973   */\n      gt\n        /* \"#utility.yul\":18940:18996   */\n      iszero\n      tag_412\n      jumpi\n        /* \"#utility.yul\":18976:18994   */\n      tag_413\n      tag_159\n      jump\t// in\n    tag_413:\n        /* \"#utility.yul\":18940:18996   */\n    tag_412:\n        /* \"#utility.yul\":19020:19058   */\n      tag_414\n        /* \"#utility.yul\":19052:19056   */\n      dup3\n        /* \"#utility.yul\":19046:19057   */\n      sload\n        /* \"#utility.yul\":19020:19058   */\n      tag_62\n      jump\t// in\n    tag_414:\n        /* \"#utility.yul\":19105:19172   */\n      tag_415\n        /* \"#utility.yul\":19165:19171   */\n      dup3\n        /* \"#utility.yul\":19157:19163   */\n      dup3\n        /* \"#utility.yul\":19151:19155   */\n      dup6\n        /* \"#utility.yul\":19105:19172   */\n      tag_207\n      jump\t// in\n    tag_415:\n        /* \"#utility.yul\":19199:19200   */\n      0x00\n        /* \"#utility.yul\":19223:19227   */\n      0x20\n        /* \"#utility.yul\":19210:19227   */\n      swap1\n      pop\n        /* \"#utility.yul\":19255:19257   */\n      0x1f\n        /* \"#utility.yul\":19247:19253   */\n      dup4\n        /* \"#utility.yul\":19244:19258   */\n      gt\n        /* \"#utility.yul\":19272:19273   */\n      0x01\n        /* \"#utility.yul\":19267:19885   */\n      dup2\n      eq\n      tag_417\n      jumpi\n        /* \"#utility.yul\":19929:19930   */\n      0x00\n        /* \"#utility.yul\":19946:19952   */\n      dup5\n        /* \"#utility.yul\":19943:20020   */\n      iszero\n      tag_418\n      jumpi\n        /* \"#utility.yul\":19995:20004   */\n      dup3\n        /* \"#utility.yul\":19990:19993   */\n      dup8\n        /* \"#utility.yul\":19986:20005   */\n      add\n        /* \"#utility.yul\":19980:20006   */\n      mload\n        /* \"#utility.yul\":19971:20006   */\n      swap1\n      pop\n        /* \"#utility.yul\":19943:20020   */\n    tag_418:\n        /* \"#utility.yul\":20046:20113   */\n      tag_419\n        /* \"#utility.yul\":20106:20112   */\n      dup6\n        /* \"#utility.yul\":20099:20104   */\n      dup3\n        /* \"#utility.yul\":20046:20113   */\n      tag_210\n      jump\t// in\n    tag_419:\n        /* \"#utility.yul\":20040:20044   */\n      dup7\n        /* \"#utility.yul\":20033:20114   */\n      sstore\n        /* \"#utility.yul\":19902:20124   */\n      pop\n        /* \"#utility.yul\":19237:20124   */\n      jump(tag_416)\n        /* \"#utility.yul\":19267:19885   */\n    tag_417:\n        /* \"#utility.yul\":19319:19323   */\n      0x1f\n        /* \"#utility.yul\":19315:19324   */\n      not\n        /* \"#utility.yul\":19307:19313   */\n      dup5\n        /* \"#utility.yul\":19303:19325   */\n      and\n        /* \"#utility.yul\":19353:19390   */\n      tag_420\n        /* \"#utility.yul\":19385:19389   */\n      dup7\n        /* \"#utility.yul\":19353:19390   */\n      tag_196\n      jump\t// in\n    tag_420:\n        /* \"#utility.yul\":19412:19413   */\n      0x00\n        /* \"#utility.yul\":19426:19634   */\n    tag_421:\n        /* \"#utility.yul\":19440:19447   */\n      dup3\n        /* \"#utility.yul\":19437:19438   */\n      dup2\n        /* \"#utility.yul\":19434:19448   */\n      lt\n        /* \"#utility.yul\":19426:19634   */\n      iszero\n      tag_423\n      jumpi\n        /* \"#utility.yul\":19519:19528   */\n      dup5\n        /* \"#utility.yul\":19514:19517   */\n      dup10\n        /* \"#utility.yul\":19510:19529   */\n      add\n        /* \"#utility.yul\":19504:19530   */\n      mload\n        /* \"#utility.yul\":19496:19502   */\n      dup3\n        /* \"#utility.yul\":19489:19531   */\n      sstore\n        /* \"#utility.yul\":19570:19571   */\n      0x01\n        /* \"#utility.yul\":19562:19568   */\n      dup3\n        /* \"#utility.yul\":19558:19572   */\n      add\n        /* \"#utility.yul\":19548:19572   */\n      swap2\n      pop\n        /* \"#utility.yul\":19617:19619   */\n      0x20\n        /* \"#utility.yul\":19606:19615   */\n      dup6\n        /* \"#utility.yul\":19602:19620   */\n      add\n        /* \"#utility.yul\":19589:19620   */\n      swap5\n      pop\n        /* \"#utility.yul\":19463:19467   */\n      0x20\n        /* \"#utility.yul\":19460:19461   */\n      dup2\n        /* \"#utility.yul\":19456:19468   */\n      add\n        /* \"#utility.yul\":19451:19468   */\n      swap1\n      pop\n        /* \"#utility.yul\":19426:19634   */\n      jump(tag_421)\n    tag_423:\n        /* \"#utility.yul\":19662:19668   */\n      dup7\n        /* \"#utility.yul\":19653:19660   */\n      dup4\n        /* \"#utility.yul\":19650:19669   */\n      lt\n        /* \"#utility.yul\":19647:19826   */\n      iszero\n      tag_424\n      jumpi\n        /* \"#utility.yul\":19720:19729   */\n      dup5\n        /* \"#utility.yul\":19715:19718   */\n      dup10\n        /* \"#utility.yul\":19711:19730   */\n      add\n        /* \"#utility.yul\":19705:19731   */\n      mload\n        /* \"#utility.yul\":19763:19811   */\n      tag_425\n        /* \"#utility.yul\":19805:19809   */\n      0x1f\n        /* \"#utility.yul\":19797:19803   */\n      dup10\n        /* \"#utility.yul\":19793:19810   */\n      and\n        /* \"#utility.yul\":19782:19791   */\n      dup3\n        /* \"#utility.yul\":19763:19811   */\n      tag_209\n      jump\t// in\n    tag_425:\n        /* \"#utility.yul\":19755:19761   */\n      dup4\n        /* \"#utility.yul\":19748:19812   */\n      sstore\n        /* \"#utility.yul\":19670:19826   */\n      pop\n        /* \"#utility.yul\":19647:19826   */\n    tag_424:\n        /* \"#utility.yul\":19872:19873   */\n      0x01\n        /* \"#utility.yul\":19868:19869   */\n      0x02\n        /* \"#utility.yul\":19860:19866   */\n      dup9\n        /* \"#utility.yul\":19856:19870   */\n      mul\n        /* \"#utility.yul\":19852:19874   */\n      add\n        /* \"#utility.yul\":19846:19850   */\n      dup9\n        /* \"#utility.yul\":19839:19875   */\n      sstore\n        /* \"#utility.yul\":19274:19885   */\n      pop\n      pop\n      pop\n        /* \"#utility.yul\":19237:20124   */\n    tag_416:\n      pop\n        /* \"#utility.yul\":18827:20130   */\n      pop\n      pop\n      pop\n        /* \"#utility.yul\":18735:20130   */\n      pop\n      pop\n      jump\t// out\n        /* \"#utility.yul\":20136:20316   */\n    tag_211:\n        /* \"#utility.yul\":20184:20261   */\n      0x4e487b7100000000000000000000000000000000000000000000000000000000\n        /* \"#utility.yul\":20181:20182   */\n      0x00\n        /* \"#utility.yul\":20174:20262   */\n      mstore\n        /* \"#utility.yul\":20281:20285   */\n      0x11\n        /* \"#utility.yul\":20278:20279   */\n      0x04\n        /* \"#utility.yul\":20271:20286   */\n      mstore\n        /* \"#utility.yul\":20305:20309   */\n      0x24\n        /* \"#utility.yul\":20302:20303   */\n      0x00\n        /* \"#utility.yul\":20295:20310   */\n      revert\n        /* \"#utility.yul\":20322:20555   */\n    tag_59:\n        /* \"#utility.yul\":20361:20364   */\n      0x00\n        /* \"#utility.yul\":20384:20408   */\n      tag_428\n        /* \"#utility.yul\":20402:20407   */\n      dup3\n        /* \"#utility.yul\":20384:20408   */\n      tag_170\n      jump\t// in\n    tag_428:\n        /* \"#utility.yul\":20375:20408   */\n      swap2\n      pop\n        /* \"#utility.yul\":20430:20496   */\n      0xffffffffffffffffffffffffffffffffffffffffffffffffffffffffffffffff\n        /* \"#utility.yul\":20423:20428   */\n      dup3\n        /* \"#utility.yul\":20420:20497   */\n      sub\n        /* \"#utility.yul\":20417:20520   */\n      tag_429\n      jumpi\n        /* \"#utility.yul\":20500:20518   */\n      tag_430\n      tag_211\n      jump\t// in\n    tag_430:\n        /* \"#utility.yul\":20417:20520   */\n    tag_429:\n        /* \"#utility.yul\":20547:20548   */\n      0x01\n        /* \"#utility.yul\":20540:20545   */\n      dup3\n        /* \"#utility.yul\":20536:20549   */\n      add\n        /* \"#utility.yul\":20529:20549   */\n      swap1\n      pop\n        /* \"#utility.yul\":20322:20555   */\n      swap2\n      swap1\n      pop\n      jump\t// out\n        /* \"#utility.yul\":20561:20739   */\n    tag_212:\n        /* \"#utility.yul\":20729:20732   */\n      0x2000000000000000000000000000000000000000000000000000000000000000\n        /* \"#utility.yul\":20724:20727   */\n      dup2\n        /* \"#utility.yul\":20717:20733   */\n      mstore\n        /* \"#utility.yul\":20561:20739   */\n      pop\n      jump\t// out\n        /* \"#utility.yul\":20745:21284   */\n    tag_73:\n        /* \"#utility.yul\":20967:20970   */\n      0x00\n        /* \"#utility.yul\":20989:21084   */\n      tag_433\n        /* \"#utility.yul\":21080:21083   */\n      dup3\n        /* \"#utility.yul\":21071:21077   */\n      dup5\n        /* \"#utility.yul\":20989:21084   */\n      tag_194\n      jump\t// in\n    tag_433:\n        /* \"#utility.yul\":20982:21084   */\n      swap2\n      pop\n        /* \"#utility.yul\":21094:21231   */\n      tag_434\n        /* \"#utility.yul\":21227:21230   */\n      dup3\n        /* \"#utility.yul\":21094:21231   */\n      tag_212\n      jump\t// in\n    tag_434:\n        /* \"#utility.yul\":21256:21257   */\n      0x01\n        /* \"#utility.yul\":21251:21254   */\n      dup3\n        /* \"#utility.yul\":21247:21258   */\n      add\n        /* \"#utility.yul\":21240:21258   */\n      swap2\n      pop\n        /* \"#utility.yul\":21275:21278   */\n      dup2\n        /* \"#utility.yul\":21268:21278   */\n      swap1\n      pop\n        /* \"#utility.yul\":20745:21284   */\n      swap3\n      swap2\n      pop\n      pop\n      jump\t// out\n        /* \"#utility.yul\":21290:21725   */\n    tag_75:\n        /* \"#utility.yul\":21470:21473   */\n      0x00\n        /* \"#utility.yul\":21492:21587   */\n      tag_436\n        /* \"#utility.yul\":21583:21586   */\n      dup3\n        /* \"#utility.yul\":21574:21580   */\n      dup6\n        /* \"#utility.yul\":21492:21587   */\n      tag_194\n      jump\t// in\n    tag_436:\n        /* \"#utility.yul\":21485:21587   */\n      swap2\n      pop\n        /* \"#utility.yul\":21604:21699   */\n      tag_437\n        /* \"#utility.yul\":21695:21698   */\n      dup3\n        /* \"#utility.yul\":21686:21692   */\n      dup5\n        /* \"#utility.yul\":21604:21699   */\n      tag_194\n      jump\t// in\n    tag_437:\n        /* \"#utility.yul\":21597:21699   */\n      swap2\n      pop\n        /* \"#utility.yul\":21716:21719   */\n      dup2\n        /* \"#utility.yul\":21709:21719   */\n      swap1\n      pop\n        /* \"#utility.yul\":21290:21725   */\n      swap4\n      swap3\n      pop\n      pop\n      pop\n      jump\t// out\n        /* \"#utility.yul\":21731:21925   */\n    tag_80:\n        /* \"#utility.yul\":21771:21775   */\n      0x00\n        /* \"#utility.yul\":21791:21811   */\n      tag_439\n        /* \"#utility.yul\":21809:21810   */\n      dup3\n        /* \"#utility.yul\":21791:21811   */\n      tag_170\n      jump\t// in\n    tag_439:\n        /* \"#utility.yul\":21786:21811   */\n      swap2\n      pop\n        /* \"#utility.yul\":21825:21845   */\n      tag_440\n        /* \"#utility.yul\":21843:21844   */\n      dup4\n        /* \"#utility.yul\":21825:21845   */\n      tag_170\n      jump\t// in\n    tag_440:\n        /* \"#utility.yul\":21820:21845   */\n      swap3\n      pop\n        /* \"#utility.yul\":21869:21870   */\n      dup3\n        /* \"#utility.yul\":21866:21867   */\n      dup3\n        /* \"#utility.yul\":21862:21871   */\n      sub\n        /* \"#utility.yul\":21854:21871   */\n      swap1\n      pop\n        /* \"#utility.yul\":21893:21894   */\n      dup2\n        /* \"#utility.yul\":21887:21891   */\n      dup2\n        /* \"#utility.yul\":21884:21895   */\n      gt\n        /* \"#utility.yul\":21881:21918   */\n      iszero\n      tag_441\n      jumpi\n        /* \"#utility.yul\":21898:21916   */\n      tag_442\n      tag_211\n      jump\t// in\n    tag_442:\n        /* \"#utility.yul\":21881:21918   */\n    tag_441:\n        /* \"#utility.yul\":21731:21925   */\n      swap3\n      swap2\n      pop\n      pop\n      jump\t// out\n        /* \"#utility.yul\":21931:22111   */\n    tag_96:\n        /* \"#utility.yul\":21979:22056   */\n      0x4e487b7100000000000000000000000000000000000000000000000000000000\n        /* \"#utility.yul\":21976:21977   */\n      0x00\n        /* \"#utility.yul\":21969:22057   */\n      mstore\n        /* \"#utility.yul\":22076:22080   */\n      0x32\n        /* \"#utility.yul\":22073:22074   */\n      0x04\n        /* \"#utility.yul\":22066:22081   */\n      mstore\n        /* \"#utility.yul\":22100:22104   */\n      0x24\n        /* \"#utility.yul\":22097:22098   */\n      0x00\n        /* \"#utility.yul\":22090:22105   */\n      revert\n\n    auxdata: 0xa26469706673582212200b819fd28b5bbc8de43dce419d4d38b48594c668c9da732a3a7a45167a58c9d864736f6c63430008120033\n}\n",
				"bytecode": {
					"linkReferences": {},
					"object": "6080604052600060015534801561001557600080fd5b506115b2806100256000396000f3fe608060405234801561001057600080fd5b50600436106100885760003560e01c8063a08bc01a1161005b578063a08bc01a14610125578063a4204e3914610141578063cb78b5271461015f578063cf39918e1461019057610088565b8063245349d31461008d5780632b912369146100a95780633129e773146100c55780637841eb9f146100f5575b600080fd5b6100a760048036038101906100a29190610b47565b6101c0565b005b6100c360048036038101906100be9190610c76565b610201565b005b6100df60048036038101906100da9190610d24565b61028f565b6040516100ec9190610dd0565b60405180910390f35b61010f600480360381019061010a9190610b47565b610337565b60405161011c9190610eb0565b60405180910390f35b61013f600480360381019061013a9190610ed2565b6103b0565b005b610149610427565b6040516101569190610f88565b60405180910390f35b61017960048036038101906101749190610b47565b61043c565b604051610187929190610fa3565b60405180910390f35b6101aa60048036038101906101a59190610d24565b610716565b6040516101b791906110df565b60405180910390f35b604051806020016040528060008152506003826040516101e0919061113d565b908152602001604051809103902060000190816101fd9190611360565b5050565b81600260006001548152602001908152602001600020600001908051906020019061022d929190610913565b508060026000600154815260200190815260200160002060010190816102539190611360565b50600154600260006001548152602001908152602001600020600301819055506001600081548092919061028690611461565b91905055505050565b60606002600083815260200190815260200160002060010180546102b290611183565b80601f01602080910402602001604051908101604052809291908181526020018280546102de90611183565b801561032b5780601f106103005761010080835404028352916020019161032b565b820191906000526020600020905b81548152906001019060200180831161030e57829003601f168201915b50505050509050919050565b6060600382604051610349919061113d565b90815260200160405180910390206002018054806020026020016040519081016040528092919081815260200182805480156103a457602002820191906000526020600020905b815481526020019060010190808311610390575b50505050509050919050565b816040516020016103c191906114cf565b604051602081830303815290604052915081836040516020016103e59291906114f5565b604051602081830303815290604052600382604051610404919061113d565b908152602001604051809103902060010190816104219190611360565b50505050565b6000600180546104379190611519565b905090565b606060008060026000600180546104539190611519565b8152602001908152602001600020600001805480602002602001604051908101604052809291908181526020016000905b828210156105305783829060005260206000200180546104a390611183565b80601f01602080910402602001604051908101604052809291908181526020018280546104cf90611183565b801561051c5780601f106104f15761010080835404028352916020019161051c565b820191906000526020600020905b8154815290600101906020018083116104ff57829003601f168201915b505050505081526020019060010190610484565b505050509050600080600091505b82518210156105d05782828151811061055a5761055961154d565b5b6020026020010151604051602001610572919061113d565b6040516020818303038152906040528051906020012086604051602001610599919061113d565b60405160208183030381529060405280519060200120036105bd57600190506105d0565b81806105c890611461565b92505061053e565b600081036105f7576000604051806020016040528060008152509094509450505050610711565b600386604051610607919061113d565b9081526020016040518091039020600201600180546106269190611519565b9080600181540180825580915050600190039060005260206000200160009091909190915055600260006001805461065e9190611519565b81526020019081526020016000206001016001805461067d9190611519565b81805461068990611183565b80601f01602080910402602001604051908101604052809291908181526020018280546106b590611183565b80156107025780601f106106d757610100808354040283529160200191610702565b820191906000526020600020905b8154815290600101906020018083116106e557829003601f168201915b50505050509150945094505050505b915091565b606060008060026000858152602001908152602001600020600001805480602002602001604051908101604052809291908181526020016000905b828210156107fd57838290600052602060002001805461077090611183565b80601f016020809104026020016040519081016040528092919081815260200182805461079c90611183565b80156107e95780601f106107be576101008083540402835291602001916107e9565b820191906000526020600020905b8154815290600101906020018083116107cc57829003601f168201915b505050505081526020019060010190610751565b5050505090506060600092505b81518310156109085760038284815181106108285761082761154d565b5b602002602001015160405161083d919061113d565b9081526020016040518091039020600101805461085990611183565b80601f016020809104026020016040519081016040528092919081815260200182805461088590611183565b80156108d25780601f106108a7576101008083540402835291602001916108d2565b820191906000526020600020905b8154815290600101906020018083116108b557829003601f168201915b50505050508184815181106108ea576108e961154d565b5b6020026020010181905250828061090090611461565b93505061080a565b809350505050919050565b82805482825590600052602060002090810192821561095b579160200282015b8281111561095a57825182908161094a9190611360565b5091602001919060010190610933565b5b509050610968919061096c565b5090565b5b8082111561098c57600081816109839190610990565b5060010161096d565b5090565b50805461099c90611183565b6000825580601f106109ae57506109cd565b601f0160209004906000526020600020908101906109cc91906109d0565b5b50565b5b808211156109e95760008160009055506001016109d1565b5090565b6000604051905090565b600080fd5b600080fd5b600080fd5b600080fd5b6000601f19601f8301169050919050565b7f4e487b7100000000000000000000000000000000000000000000000000000000600052604160045260246000fd5b610a5482610a0b565b810181811067ffffffffffffffff82111715610a7357610a72610a1c565b5b80604052505050565b6000610a866109ed565b9050610a928282610a4b565b919050565b600067ffffffffffffffff821115610ab257610ab1610a1c565b5b610abb82610a0b565b9050602081019050919050565b82818337600083830152505050565b6000610aea610ae584610a97565b610a7c565b905082815260208101848484011115610b0657610b05610a06565b5b610b11848285610ac8565b509392505050565b600082601f830112610b2e57610b2d610a01565b5b8135610b3e848260208601610ad7565b91505092915050565b600060208284031215610b5d57610b5c6109f7565b5b600082013567ffffffffffffffff811115610b7b57610b7a6109fc565b5b610b8784828501610b19565b91505092915050565b600067ffffffffffffffff821115610bab57610baa610a1c565b5b602082029050602081019050919050565b600080fd5b6000610bd4610bcf84610b90565b610a7c565b90508083825260208201905060208402830185811115610bf757610bf6610bbc565b5b835b81811015610c3e57803567ffffffffffffffff811115610c1c57610c1b610a01565b5b808601610c298982610b19565b85526020850194505050602081019050610bf9565b5050509392505050565b600082601f830112610c5d57610c5c610a01565b5b8135610c6d848260208601610bc1565b91505092915050565b60008060408385031215610c8d57610c8c6109f7565b5b600083013567ffffffffffffffff811115610cab57610caa6109fc565b5b610cb785828601610c48565b925050602083013567ffffffffffffffff811115610cd857610cd76109fc565b5b610ce485828601610b19565b9150509250929050565b6000819050919050565b610d0181610cee565b8114610d0c57600080fd5b50565b600081359050610d1e81610cf8565b92915050565b600060208284031215610d3a57610d396109f7565b5b6000610d4884828501610d0f565b91505092915050565b600081519050919050565b600082825260208201905092915050565b60005b83811015610d8b578082015181840152602081019050610d70565b60008484015250505050565b6000610da282610d51565b610dac8185610d5c565b9350610dbc818560208601610d6d565b610dc581610a0b565b840191505092915050565b60006020820190508181036000830152610dea8184610d97565b905092915050565b600081519050919050565b600082825260208201905092915050565b6000819050602082019050919050565b610e2781610cee565b82525050565b6000610e398383610e1e565b60208301905092915050565b6000602082019050919050565b6000610e5d82610df2565b610e678185610dfd565b9350610e7283610e0e565b8060005b83811015610ea3578151610e8a8882610e2d565b9750610e9583610e45565b925050600181019050610e76565b5085935050505092915050565b60006020820190508181036000830152610eca8184610e52565b905092915050565b600080600060608486031215610eeb57610eea6109f7565b5b600084013567ffffffffffffffff811115610f0957610f086109fc565b5b610f1586828701610b19565b935050602084013567ffffffffffffffff811115610f3657610f356109fc565b5b610f4286828701610b19565b925050604084013567ffffffffffffffff811115610f6357610f626109fc565b5b610f6f86828701610b19565b9150509250925092565b610f8281610cee565b82525050565b6000602082019050610f9d6000830184610f79565b92915050565b60006040820190508181036000830152610fbd8185610d97565b9050610fcc6020830184610f79565b9392505050565b600081519050919050565b600082825260208201905092915050565b6000819050602082019050919050565b600082825260208201905092915050565b600061101b82610d51565b6110258185610fff565b9350611035818560208601610d6d565b61103e81610a0b565b840191505092915050565b60006110558383611010565b905092915050565b6000602082019050919050565b600061107582610fd3565b61107f8185610fde565b93508360208202850161109185610fef565b8060005b858110156110cd57848403895281516110ae8582611049565b94506110b98361105d565b925060208a01995050600181019050611095565b50829750879550505050505092915050565b600060208201905081810360008301526110f9818461106a565b905092915050565b600081905092915050565b600061111782610d51565b6111218185611101565b9350611131818560208601610d6d565b80840191505092915050565b6000611149828461110c565b915081905092915050565b7f4e487b7100000000000000000000000000000000000000000000000000000000600052602260045260246000fd5b6000600282049050600182168061119b57607f821691505b6020821081036111ae576111ad611154565b5b50919050565b60008190508160005260206000209050919050565b60006020601f8301049050919050565b600082821b905092915050565b6000600883026112167fffffffffffffffffffffffffffffffffffffffffffffffffffffffffffffffff826111d9565b61122086836111d9565b95508019841693508086168417925050509392505050565b6000819050919050565b600061125d61125861125384610cee565b611238565b610cee565b9050919050565b6000819050919050565b61127783611242565b61128b61128382611264565b8484546111e6565b825550505050565b600090565b6112a0611293565b6112ab81848461126e565b505050565b5b818110156112cf576112c4600082611298565b6001810190506112b1565b5050565b601f821115611314576112e5816111b4565b6112ee846111c9565b810160208510156112fd578190505b611311611309856111c9565b8301826112b0565b50505b505050565b600082821c905092915050565b600061133760001984600802611319565b1980831691505092915050565b60006113508383611326565b9150826002028217905092915050565b61136982610d51565b67ffffffffffffffff81111561138257611381610a1c565b5b61138c8254611183565b6113978282856112d3565b600060209050601f8311600181146113ca57600084156113b8578287015190505b6113c28582611344565b86555061142a565b601f1984166113d8866111b4565b60005b82811015611400578489015182556001820191506020850194506020810190506113db565b8683101561141d5784890151611419601f891682611326565b8355505b6001600288020188555050505b505050505050565b7f4e487b7100000000000000000000000000000000000000000000000000000000600052601160045260246000fd5b600061146c82610cee565b91507fffffffffffffffffffffffffffffffffffffffffffffffffffffffffffffffff820361149e5761149d611432565b5b600182019050919050565b7f2000000000000000000000000000000000000000000000000000000000000000815250565b60006114db828461110c565b91506114e6826114a9565b60018201915081905092915050565b6000611501828561110c565b915061150d828461110c565b91508190509392505050565b600061152482610cee565b915061152f83610cee565b925082820390508181111561154757611546611432565b5b92915050565b7f4e487b7100000000000000000000000000000000000000000000000000000000600052603260045260246000fdfea26469706673582212200b819fd28b5bbc8de43dce419d4d38b48594c668c9da732a3a7a45167a58c9d864736f6c63430008120033",
					"opcodes": "PUSH1 0x80 PUSH1 0x40 MSTORE PUSH1 0x0 PUSH1 0x1 SSTORE CALLVALUE DUP1 ISZERO PUSH2 0x15 JUMPI PUSH1 0x0 DUP1 REVERT JUMPDEST POP PUSH2 0x15B2 DUP1 PUSH2 0x25 PUSH1 0x0 CODECOPY PUSH1 0x0 RETURN INVALID PUSH1 0x80 PUSH1 0x40 MSTORE CALLVALUE DUP1 ISZERO PUSH2 0x10 JUMPI PUSH1 0x0 DUP1 REVERT JUMPDEST POP PUSH1 0x4 CALLDATASIZE LT PUSH2 0x88 JUMPI PUSH1 0x0 CALLDATALOAD PUSH1 0xE0 SHR DUP1 PUSH4 0xA08BC01A GT PUSH2 0x5B JUMPI DUP1 PUSH4 0xA08BC01A EQ PUSH2 0x125 JUMPI DUP1 PUSH4 0xA4204E39 EQ PUSH2 0x141 JUMPI DUP1 PUSH4 0xCB78B527 EQ PUSH2 0x15F JUMPI DUP1 PUSH4 0xCF39918E EQ PUSH2 0x190 JUMPI PUSH2 0x88 JUMP JUMPDEST DUP1 PUSH4 0x245349D3 EQ PUSH2 0x8D JUMPI DUP1 PUSH4 0x2B912369 EQ PUSH2 0xA9 JUMPI DUP1 PUSH4 0x3129E773 EQ PUSH2 0xC5 JUMPI DUP1 PUSH4 0x7841EB9F EQ PUSH2 0xF5 JUMPI JUMPDEST PUSH1 0x0 DUP1 REVERT JUMPDEST PUSH2 0xA7 PUSH1 0x4 DUP1 CALLDATASIZE SUB DUP2 ADD SWAP1 PUSH2 0xA2 SWAP2 SWAP1 PUSH2 0xB47 JUMP JUMPDEST PUSH2 0x1C0 JUMP JUMPDEST STOP JUMPDEST PUSH2 0xC3 PUSH1 0x4 DUP1 CALLDATASIZE SUB DUP2 ADD SWAP1 PUSH2 0xBE SWAP2 SWAP1 PUSH2 0xC76 JUMP JUMPDEST PUSH2 0x201 JUMP JUMPDEST STOP JUMPDEST PUSH2 0xDF PUSH1 0x4 DUP1 CALLDATASIZE SUB DUP2 ADD SWAP1 PUSH2 0xDA SWAP2 SWAP1 PUSH2 0xD24 JUMP JUMPDEST PUSH2 0x28F JUMP JUMPDEST PUSH1 0x40 MLOAD PUSH2 0xEC SWAP2 SWAP1 PUSH2 0xDD0 JUMP JUMPDEST PUSH1 0x40 MLOAD DUP1 SWAP2 SUB SWAP1 RETURN JUMPDEST PUSH2 0x10F PUSH1 0x4 DUP1 CALLDATASIZE SUB DUP2 ADD SWAP1 PUSH2 0x10A SWAP2 SWAP1 PUSH2 0xB47 JUMP JUMPDEST PUSH2 0x337 JUMP JUMPDEST PUSH1 0x40 MLOAD PUSH2 0x11C SWAP2 SWAP1 PUSH2 0xEB0 JUMP JUMPDEST PUSH1 0x40 MLOAD DUP1 SWAP2 SUB SWAP1 RETURN JUMPDEST PUSH2 0x13F PUSH1 0x4 DUP1 CALLDATASIZE SUB DUP2 ADD SWAP1 PUSH2 0x13A SWAP2 SWAP1 PUSH2 0xED2 JUMP JUMPDEST PUSH2 0x3B0 JUMP JUMPDEST STOP JUMPDEST PUSH2 0x149 PUSH2 0x427 JUMP JUMPDEST PUSH1 0x40 MLOAD PUSH2 0x156 SWAP2 SWAP1 PUSH2 0xF88 JUMP JUMPDEST PUSH1 0x40 MLOAD DUP1 SWAP2 SUB SWAP1 RETURN JUMPDEST PUSH2 0x179 PUSH1 0x4 DUP1 CALLDATASIZE SUB DUP2 ADD SWAP1 PUSH2 0x174 SWAP2 SWAP1 PUSH2 0xB47 JUMP JUMPDEST PUSH2 0x43C JUMP JUMPDEST PUSH1 0x40 MLOAD PUSH2 0x187 SWAP3 SWAP2 SWAP1 PUSH2 0xFA3 JUMP JUMPDEST PUSH1 0x40 MLOAD DUP1 SWAP2 SUB SWAP1 RETURN JUMPDEST PUSH2 0x1AA PUSH1 0x4 DUP1 CALLDATASIZE SUB DUP2 ADD SWAP1 PUSH2 0x1A5 SWAP2 SWAP1 PUSH2 0xD24 JUMP JUMPDEST PUSH2 0x716 JUMP JUMPDEST PUSH1 0x40 MLOAD PUSH2 0x1B7 SWAP2 SWAP1 PUSH2 0x10DF JUMP JUMPDEST PUSH1 0x40 MLOAD DUP1 SWAP2 SUB SWAP1 RETURN JUMPDEST PUSH1 0x40 MLOAD DUP1 PUSH1 0x20 ADD PUSH1 0x40 MSTORE DUP1 PUSH1 0x0 DUP2 MSTORE POP PUSH1 0x3 DUP3 PUSH1 0x40 MLOAD PUSH2 0x1E0 SWAP2 SWAP1 PUSH2 0x113D JUMP JUMPDEST SWAP1 DUP2 MSTORE PUSH1 0x20 ADD PUSH1 0x40 MLOAD DUP1 SWAP2 SUB SWAP1 KECCAK256 PUSH1 0x0 ADD SWAP1 DUP2 PUSH2 0x1FD SWAP2 SWAP1 PUSH2 0x1360 JUMP JUMPDEST POP POP JUMP JUMPDEST DUP2 PUSH1 0x2 PUSH1 0x0 PUSH1 0x1 SLOAD DUP2 MSTORE PUSH1 0x20 ADD SWAP1 DUP2 MSTORE PUSH1 0x20 ADD PUSH1 0x0 KECCAK256 PUSH1 0x0 ADD SWAP1 DUP1 MLOAD SWAP1 PUSH1 0x20 ADD SWAP1 PUSH2 0x22D SWAP3 SWAP2 SWAP1 PUSH2 0x913 JUMP JUMPDEST POP DUP1 PUSH1 0x2 PUSH1 0x0 PUSH1 0x1 SLOAD DUP2 MSTORE PUSH1 0x20 ADD SWAP1 DUP2 MSTORE PUSH1 0x20 ADD PUSH1 0x0 KECCAK256 PUSH1 0x1 ADD SWAP1 DUP2 PUSH2 0x253 SWAP2 SWAP1 PUSH2 0x1360 JUMP JUMPDEST POP PUSH1 0x1 SLOAD PUSH1 0x2 PUSH1 0x0 PUSH1 0x1 SLOAD DUP2 MSTORE PUSH1 0x20 ADD SWAP1 DUP2 MSTORE PUSH1 0x20 ADD PUSH1 0x0 KECCAK256 PUSH1 0x3 ADD DUP2 SWAP1 SSTORE POP PUSH1 0x1 PUSH1 0x0 DUP2 SLOAD DUP1 SWAP3 SWAP2 SWAP1 PUSH2 0x286 SWAP1 PUSH2 0x1461 JUMP JUMPDEST SWAP2 SWAP1 POP SSTORE POP POP POP JUMP JUMPDEST PUSH1 0x60 PUSH1 0x2 PUSH1 0x0 DUP4 DUP2 MSTORE PUSH1 0x20 ADD SWAP1 DUP2 MSTORE PUSH1 0x20 ADD PUSH1 0x0 KECCAK256 PUSH1 0x1 ADD DUP1 SLOAD PUSH2 0x2B2 SWAP1 PUSH2 0x1183 JUMP JUMPDEST DUP1 PUSH1 0x1F ADD PUSH1 0x20 DUP1 SWAP2 DIV MUL PUSH1 0x20 ADD PUSH1 0x40 MLOAD SWAP1 DUP2 ADD PUSH1 0x40 MSTORE DUP1 SWAP3 SWAP2 SWAP1 DUP2 DUP2 MSTORE PUSH1 0x20 ADD DUP3 DUP1 SLOAD PUSH2 0x2DE SWAP1 PUSH2 0x1183 JUMP JUMPDEST DUP1 ISZERO PUSH2 0x32B JUMPI DUP1 PUSH1 0x1F LT PUSH2 0x300 JUMPI PUSH2 0x100 DUP1 DUP4 SLOAD DIV MUL DUP4 MSTORE SWAP2 PUSH1 0x20 ADD SWAP2 PUSH2 0x32B JUMP JUMPDEST DUP3 ADD SWAP2 SWAP1 PUSH1 0x0 MSTORE PUSH1 0x20 PUSH1 0x0 KECCAK256 SWAP1 JUMPDEST DUP2 SLOAD DUP2 MSTORE SWAP1 PUSH1 0x1 ADD SWAP1 PUSH1 0x20 ADD DUP1 DUP4 GT PUSH2 0x30E JUMPI DUP3 SWAP1 SUB PUSH1 0x1F AND DUP3 ADD SWAP2 JUMPDEST POP POP POP POP POP SWAP1 POP SWAP2 SWAP1 POP JUMP JUMPDEST PUSH1 0x60 PUSH1 0x3 DUP3 PUSH1 0x40 MLOAD PUSH2 0x349 SWAP2 SWAP1 PUSH2 0x113D JUMP JUMPDEST SWAP1 DUP2 MSTORE PUSH1 0x20 ADD PUSH1 0x40 MLOAD DUP1 SWAP2 SUB SWAP1 KECCAK256 PUSH1 0x2 ADD DUP1 SLOAD DUP1 PUSH1 0x20 MUL PUSH1 0x20 ADD PUSH1 0x40 MLOAD SWAP1 DUP2 ADD PUSH1 0x40 MSTORE DUP1 SWAP3 SWAP2 SWAP1 DUP2 DUP2 MSTORE PUSH1 0x20 ADD DUP3 DUP1 SLOAD DUP1 ISZERO PUSH2 0x3A4 JUMPI PUSH1 0x20 MUL DUP3 ADD SWAP2 SWAP1 PUSH1 0x0 MSTORE PUSH1 0x20 PUSH1 0x0 KECCAK256 SWAP1 JUMPDEST DUP2 SLOAD DUP2 MSTORE PUSH1 0x20 ADD SWAP1 PUSH1 0x1 ADD SWAP1 DUP1 DUP4 GT PUSH2 0x390 JUMPI JUMPDEST POP POP POP POP POP SWAP1 POP SWAP2 SWAP1 POP JUMP JUMPDEST DUP2 PUSH1 0x40 MLOAD PUSH1 0x20 ADD PUSH2 0x3C1 SWAP2 SWAP1 PUSH2 0x14CF JUMP JUMPDEST PUSH1 0x40 MLOAD PUSH1 0x20 DUP2 DUP4 SUB SUB DUP2 MSTORE SWAP1 PUSH1 0x40 MSTORE SWAP2 POP DUP2 DUP4 PUSH1 0x40 MLOAD PUSH1 0x20 ADD PUSH2 0x3E5 SWAP3 SWAP2 SWAP1 PUSH2 0x14F5 JUMP JUMPDEST PUSH1 0x40 MLOAD PUSH1 0x20 DUP2 DUP4 SUB SUB DUP2 MSTORE SWAP1 PUSH1 0x40 MSTORE PUSH1 0x3 DUP3 PUSH1 0x40 MLOAD PUSH2 0x404 SWAP2 SWAP1 PUSH2 0x113D JUMP JUMPDEST SWAP1 DUP2 MSTORE PUSH1 0x20 ADD PUSH1 0x40 MLOAD DUP1 SWAP2 SUB SWAP1 KECCAK256 PUSH1 0x1 ADD SWAP1 DUP2 PUSH2 0x421 SWAP2 SWAP1 PUSH2 0x1360 JUMP JUMPDEST POP POP POP POP JUMP JUMPDEST PUSH1 0x0 PUSH1 0x1 DUP1 SLOAD PUSH2 0x437 SWAP2 SWAP1 PUSH2 0x1519 JUMP JUMPDEST SWAP1 POP SWAP1 JUMP JUMPDEST PUSH1 0x60 PUSH1 0x0 DUP1 PUSH1 0x2 PUSH1 0x0 PUSH1 0x1 DUP1 SLOAD PUSH2 0x453 SWAP2 SWAP1 PUSH2 0x1519 JUMP JUMPDEST DUP2 MSTORE PUSH1 0x20 ADD SWAP1 DUP2 MSTORE PUSH1 0x20 ADD PUSH1 0x0 KECCAK256 PUSH1 0x0 ADD DUP1 SLOAD DUP1 PUSH1 0x20 MUL PUSH1 0x20 ADD PUSH1 0x40 MLOAD SWAP1 DUP2 ADD PUSH1 0x40 MSTORE DUP1 SWAP3 SWAP2 SWAP1 DUP2 DUP2 MSTORE PUSH1 0x20 ADD PUSH1 0x0 SWAP1 JUMPDEST DUP3 DUP3 LT ISZERO PUSH2 0x530 JUMPI DUP4 DUP3 SWAP1 PUSH1 0x0 MSTORE PUSH1 0x20 PUSH1 0x0 KECCAK256 ADD DUP1 SLOAD PUSH2 0x4A3 SWAP1 PUSH2 0x1183 JUMP JUMPDEST DUP1 PUSH1 0x1F ADD PUSH1 0x20 DUP1 SWAP2 DIV MUL PUSH1 0x20 ADD PUSH1 0x40 MLOAD SWAP1 DUP2 ADD PUSH1 0x40 MSTORE DUP1 SWAP3 SWAP2 SWAP1 DUP2 DUP2 MSTORE PUSH1 0x20 ADD DUP3 DUP1 SLOAD PUSH2 0x4CF SWAP1 PUSH2 0x1183 JUMP JUMPDEST DUP1 ISZERO PUSH2 0x51C JUMPI DUP1 PUSH1 0x1F LT PUSH2 0x4F1 JUMPI PUSH2 0x100 DUP1 DUP4 SLOAD DIV MUL DUP4 MSTORE SWAP2 PUSH1 0x20 ADD SWAP2 PUSH2 0x51C JUMP JUMPDEST DUP3 ADD SWAP2 SWAP1 PUSH1 0x0 MSTORE PUSH1 0x20 PUSH1 0x0 KECCAK256 SWAP1 JUMPDEST DUP2 SLOAD DUP2 MSTORE SWAP1 PUSH1 0x1 ADD SWAP1 PUSH1 0x20 ADD DUP1 DUP4 GT PUSH2 0x4FF JUMPI DUP3 SWAP1 SUB PUSH1 0x1F AND DUP3 ADD SWAP2 JUMPDEST POP POP POP POP POP DUP2 MSTORE PUSH1 0x20 ADD SWAP1 PUSH1 0x1 ADD SWAP1 PUSH2 0x484 JUMP JUMPDEST POP POP POP POP SWAP1 POP PUSH1 0x0 DUP1 PUSH1 0x0 SWAP2 POP JUMPDEST DUP3 MLOAD DUP3 LT ISZERO PUSH2 0x5D0 JUMPI DUP3 DUP3 DUP2 MLOAD DUP2 LT PUSH2 0x55A JUMPI PUSH2 0x559 PUSH2 0x154D JUMP JUMPDEST JUMPDEST PUSH1 0x20 MUL PUSH1 0x20 ADD ADD MLOAD PUSH1 0x40 MLOAD PUSH1 0x20 ADD PUSH2 0x572 SWAP2 SWAP1 PUSH2 0x113D JUMP JUMPDEST PUSH1 0x40 MLOAD PUSH1 0x20 DUP2 DUP4 SUB SUB DUP2 MSTORE SWAP1 PUSH1 0x40 MSTORE DUP1 MLOAD SWAP1 PUSH1 0x20 ADD KECCAK256 DUP7 PUSH1 0x40 MLOAD PUSH1 0x20 ADD PUSH2 0x599 SWAP2 SWAP1 PUSH2 0x113D JUMP JUMPDEST PUSH1 0x40 MLOAD PUSH1 0x20 DUP2 DUP4 SUB SUB DUP2 MSTORE SWAP1 PUSH1 0x40 MSTORE DUP1 MLOAD SWAP1 PUSH1 0x20 ADD KECCAK256 SUB PUSH2 0x5BD JUMPI PUSH1 0x1 SWAP1 POP PUSH2 0x5D0 JUMP JUMPDEST DUP2 DUP1 PUSH2 0x5C8 SWAP1 PUSH2 0x1461 JUMP JUMPDEST SWAP3 POP POP PUSH2 0x53E JUMP JUMPDEST PUSH1 0x0 DUP2 SUB PUSH2 0x5F7 JUMPI PUSH1 0x0 PUSH1 0x40 MLOAD DUP1 PUSH1 0x20 ADD PUSH1 0x40 MSTORE DUP1 PUSH1 0x0 DUP2 MSTORE POP SWAP1 SWAP5 POP SWAP5 POP POP POP POP PUSH2 0x711 JUMP JUMPDEST PUSH1 0x3 DUP7 PUSH1 0x40 MLOAD PUSH2 0x607 SWAP2 SWAP1 PUSH2 0x113D JUMP JUMPDEST SWAP1 DUP2 MSTORE PUSH1 0x20 ADD PUSH1 0x40 MLOAD DUP1 SWAP2 SUB SWAP1 KECCAK256 PUSH1 0x2 ADD PUSH1 0x1 DUP1 SLOAD PUSH2 0x626 SWAP2 SWAP1 PUSH2 0x1519 JUMP JUMPDEST SWAP1 DUP1 PUSH1 0x1 DUP2 SLOAD ADD DUP1 DUP3 SSTORE DUP1 SWAP2 POP POP PUSH1 0x1 SWAP1 SUB SWAP1 PUSH1 0x0 MSTORE PUSH1 0x20 PUSH1 0x0 KECCAK256 ADD PUSH1 0x0 SWAP1 SWAP2 SWAP1 SWAP2 SWAP1 SWAP2 POP SSTORE PUSH1 0x2 PUSH1 0x0 PUSH1 0x1 DUP1 SLOAD PUSH2 0x65E SWAP2 SWAP1 PUSH2 0x1519 JUMP JUMPDEST DUP2 MSTORE PUSH1 0x20 ADD SWAP1 DUP2 MSTORE PUSH1 0x20 ADD PUSH1 0x0 KECCAK256 PUSH1 0x1 ADD PUSH1 0x1 DUP1 SLOAD PUSH2 0x67D SWAP2 SWAP1 PUSH2 0x1519 JUMP JUMPDEST DUP2 DUP1 SLOAD PUSH2 0x689 SWAP1 PUSH2 0x1183 JUMP JUMPDEST DUP1 PUSH1 0x1F ADD PUSH1 0x20 DUP1 SWAP2 DIV MUL PUSH1 0x20 ADD PUSH1 0x40 MLOAD SWAP1 DUP2 ADD PUSH1 0x40 MSTORE DUP1 SWAP3 SWAP2 SWAP1 DUP2 DUP2 MSTORE PUSH1 0x20 ADD DUP3 DUP1 SLOAD PUSH2 0x6B5 SWAP1 PUSH2 0x1183 JUMP JUMPDEST DUP1 ISZERO PUSH2 0x702 JUMPI DUP1 PUSH1 0x1F LT PUSH2 0x6D7 JUMPI PUSH2 0x100 DUP1 DUP4 SLOAD DIV MUL DUP4 MSTORE SWAP2 PUSH1 0x20 ADD SWAP2 PUSH2 0x702 JUMP JUMPDEST DUP3 ADD SWAP2 SWAP1 PUSH1 0x0 MSTORE PUSH1 0x20 PUSH1 0x0 KECCAK256 SWAP1 JUMPDEST DUP2 SLOAD DUP2 MSTORE SWAP1 PUSH1 0x1 ADD SWAP1 PUSH1 0x20 ADD DUP1 DUP4 GT PUSH2 0x6E5 JUMPI DUP3 SWAP1 SUB PUSH1 0x1F AND DUP3 ADD SWAP2 JUMPDEST POP POP POP POP POP SWAP2 POP SWAP5 POP SWAP5 POP POP POP POP JUMPDEST SWAP2 POP SWAP2 JUMP JUMPDEST PUSH1 0x60 PUSH1 0x0 DUP1 PUSH1 0x2 PUSH1 0x0 DUP6 DUP2 MSTORE PUSH1 0x20 ADD SWAP1 DUP2 MSTORE PUSH1 0x20 ADD PUSH1 0x0 KECCAK256 PUSH1 0x0 ADD DUP1 SLOAD DUP1 PUSH1 0x20 MUL PUSH1 0x20 ADD PUSH1 0x40 MLOAD SWAP1 DUP2 ADD PUSH1 0x40 MSTORE DUP1 SWAP3 SWAP2 SWAP1 DUP2 DUP2 MSTORE PUSH1 0x20 ADD PUSH1 0x0 SWAP1 JUMPDEST DUP3 DUP3 LT ISZERO PUSH2 0x7FD JUMPI DUP4 DUP3 SWAP1 PUSH1 0x0 MSTORE PUSH1 0x20 PUSH1 0x0 KECCAK256 ADD DUP1 SLOAD PUSH2 0x770 SWAP1 PUSH2 0x1183 JUMP JUMPDEST DUP1 PUSH1 0x1F ADD PUSH1 0x20 DUP1 SWAP2 DIV MUL PUSH1 0x20 ADD PUSH1 0x40 MLOAD SWAP1 DUP2 ADD PUSH1 0x40 MSTORE DUP1 SWAP3 SWAP2 SWAP1 DUP2 DUP2 MSTORE PUSH1 0x20 ADD DUP3 DUP1 SLOAD PUSH2 0x79C SWAP1 PUSH2 0x1183 JUMP JUMPDEST DUP1 ISZERO PUSH2 0x7E9 JUMPI DUP1 PUSH1 0x1F LT PUSH2 0x7BE JUMPI PUSH2 0x100 DUP1 DUP4 SLOAD DIV MUL DUP4 MSTORE SWAP2 PUSH1 0x20 ADD SWAP2 PUSH2 0x7E9 JUMP JUMPDEST DUP3 ADD SWAP2 SWAP1 PUSH1 0x0 MSTORE PUSH1 0x20 PUSH1 0x0 KECCAK256 SWAP1 JUMPDEST DUP2 SLOAD DUP2 MSTORE SWAP1 PUSH1 0x1 ADD SWAP1 PUSH1 0x20 ADD DUP1 DUP4 GT PUSH2 0x7CC JUMPI DUP3 SWAP1 SUB PUSH1 0x1F AND DUP3 ADD SWAP2 JUMPDEST POP POP POP POP POP DUP2 MSTORE PUSH1 0x20 ADD SWAP1 PUSH1 0x1 ADD SWAP1 PUSH2 0x751 JUMP JUMPDEST POP POP POP POP SWAP1 POP PUSH1 0x60 PUSH1 0x0 SWAP3 POP JUMPDEST DUP2 MLOAD DUP4 LT ISZERO PUSH2 0x908 JUMPI PUSH1 0x3 DUP3 DUP5 DUP2 MLOAD DUP2 LT PUSH2 0x828 JUMPI PUSH2 0x827 PUSH2 0x154D JUMP JUMPDEST JUMPDEST PUSH1 0x20 MUL PUSH1 0x20 ADD ADD MLOAD PUSH1 0x40 MLOAD PUSH2 0x83D SWAP2 SWAP1 PUSH2 0x113D JUMP JUMPDEST SWAP1 DUP2 MSTORE PUSH1 0x20 ADD PUSH1 0x40 MLOAD DUP1 SWAP2 SUB SWAP1 KECCAK256 PUSH1 0x1 ADD DUP1 SLOAD PUSH2 0x859 SWAP1 PUSH2 0x1183 JUMP JUMPDEST DUP1 PUSH1 0x1F ADD PUSH1 0x20 DUP1 SWAP2 DIV MUL PUSH1 0x20 ADD PUSH1 0x40 MLOAD SWAP1 DUP2 ADD PUSH1 0x40 MSTORE DUP1 SWAP3 SWAP2 SWAP1 DUP2 DUP2 MSTORE PUSH1 0x20 ADD DUP3 DUP1 SLOAD PUSH2 0x885 SWAP1 PUSH2 0x1183 JUMP JUMPDEST DUP1 ISZERO PUSH2 0x8D2 JUMPI DUP1 PUSH1 0x1F LT PUSH2 0x8A7 JUMPI PUSH2 0x100 DUP1 DUP4 SLOAD DIV MUL DUP4 MSTORE SWAP2 PUSH1 0x20 ADD SWAP2 PUSH2 0x8D2 JUMP JUMPDEST DUP3 ADD SWAP2 SWAP1 PUSH1 0x0 MSTORE PUSH1 0x20 PUSH1 0x0 KECCAK256 SWAP1 JUMPDEST DUP2 SLOAD DUP2 MSTORE SWAP1 PUSH1 0x1 ADD SWAP1 PUSH1 0x20 ADD DUP1 DUP4 GT PUSH2 0x8B5 JUMPI DUP3 SWAP1 SUB PUSH1 0x1F AND DUP3 ADD SWAP2 JUMPDEST POP POP POP POP POP DUP2 DUP5 DUP2 MLOAD DUP2 LT PUSH2 0x8EA JUMPI PUSH2 0x8E9 PUSH2 0x154D JUMP JUMPDEST JUMPDEST PUSH1 0x20 MUL PUSH1 0x20 ADD ADD DUP2 SWAP1 MSTORE POP DUP3 DUP1 PUSH2 0x900 SWAP1 PUSH2 0x1461 JUMP JUMPDEST SWAP4 POP POP PUSH2 0x80A JUMP JUMPDEST DUP1 SWAP4 POP POP POP POP SWAP2 SWAP1 POP JUMP JUMPDEST DUP3 DUP1 SLOAD DUP3 DUP3 SSTORE SWAP1 PUSH1 0x0 MSTORE PUSH1 0x20 PUSH1 0x0 KECCAK256 SWAP1 DUP2 ADD SWAP3 DUP3 ISZERO PUSH2 0x95B JUMPI SWAP2 PUSH1 0x20 MUL DUP3 ADD JUMPDEST DUP3 DUP2 GT ISZERO PUSH2 0x95A JUMPI DUP3 MLOAD DUP3 SWAP1 DUP2 PUSH2 0x94A SWAP2 SWAP1 PUSH2 0x1360 JUMP JUMPDEST POP SWAP2 PUSH1 0x20 ADD SWAP2 SWAP1 PUSH1 0x1 ADD SWAP1 PUSH2 0x933 JUMP JUMPDEST JUMPDEST POP SWAP1 POP PUSH2 0x968 SWAP2 SWAP1 PUSH2 0x96C JUMP JUMPDEST POP SWAP1 JUMP JUMPDEST JUMPDEST DUP1 DUP3 GT ISZERO PUSH2 0x98C JUMPI PUSH1 0x0 DUP2 DUP2 PUSH2 0x983 SWAP2 SWAP1 PUSH2 0x990 JUMP JUMPDEST POP PUSH1 0x1 ADD PUSH2 0x96D JUMP JUMPDEST POP SWAP1 JUMP JUMPDEST POP DUP1 SLOAD PUSH2 0x99C SWAP1 PUSH2 0x1183 JUMP JUMPDEST PUSH1 0x0 DUP3 SSTORE DUP1 PUSH1 0x1F LT PUSH2 0x9AE JUMPI POP PUSH2 0x9CD JUMP JUMPDEST PUSH1 0x1F ADD PUSH1 0x20 SWAP1 DIV SWAP1 PUSH1 0x0 MSTORE PUSH1 0x20 PUSH1 0x0 KECCAK256 SWAP1 DUP2 ADD SWAP1 PUSH2 0x9CC SWAP2 SWAP1 PUSH2 0x9D0 JUMP JUMPDEST JUMPDEST POP JUMP JUMPDEST JUMPDEST DUP1 DUP3 GT ISZERO PUSH2 0x9E9 JUMPI PUSH1 0x0 DUP2 PUSH1 0x0 SWAP1 SSTORE POP PUSH1 0x1 ADD PUSH2 0x9D1 JUMP JUMPDEST POP SWAP1 JUMP JUMPDEST PUSH1 0x0 PUSH1 0x40 MLOAD SWAP1 POP SWAP1 JUMP JUMPDEST PUSH1 0x0 DUP1 REVERT JUMPDEST PUSH1 0x0 DUP1 REVERT JUMPDEST PUSH1 0x0 DUP1 REVERT JUMPDEST PUSH1 0x0 DUP1 REVERT JUMPDEST PUSH1 0x0 PUSH1 0x1F NOT PUSH1 0x1F DUP4 ADD AND SWAP1 POP SWAP2 SWAP1 POP JUMP JUMPDEST PUSH32 0x4E487B7100000000000000000000000000000000000000000000000000000000 PUSH1 0x0 MSTORE PUSH1 0x41 PUSH1 0x4 MSTORE PUSH1 0x24 PUSH1 0x0 REVERT JUMPDEST PUSH2 0xA54 DUP3 PUSH2 0xA0B JUMP JUMPDEST DUP2 ADD DUP2 DUP2 LT PUSH8 0xFFFFFFFFFFFFFFFF DUP3 GT OR ISZERO PUSH2 0xA73 JUMPI PUSH2 0xA72 PUSH2 0xA1C JUMP JUMPDEST JUMPDEST DUP1 PUSH1 0x40 MSTORE POP POP POP JUMP JUMPDEST PUSH1 0x0 PUSH2 0xA86 PUSH2 0x9ED JUMP JUMPDEST SWAP1 POP PUSH2 0xA92 DUP3 DUP3 PUSH2 0xA4B JUMP JUMPDEST SWAP2 SWAP1 POP JUMP JUMPDEST PUSH1 0x0 PUSH8 0xFFFFFFFFFFFFFFFF DUP3 GT ISZERO PUSH2 0xAB2 JUMPI PUSH2 0xAB1 PUSH2 0xA1C JUMP JUMPDEST JUMPDEST PUSH2 0xABB DUP3 PUSH2 0xA0B JUMP JUMPDEST SWAP1 POP PUSH1 0x20 DUP2 ADD SWAP1 POP SWAP2 SWAP1 POP JUMP JUMPDEST DUP3 DUP2 DUP4 CALLDATACOPY PUSH1 0x0 DUP4 DUP4 ADD MSTORE POP POP POP JUMP JUMPDEST PUSH1 0x0 PUSH2 0xAEA PUSH2 0xAE5 DUP5 PUSH2 0xA97 JUMP JUMPDEST PUSH2 0xA7C JUMP JUMPDEST SWAP1 POP DUP3 DUP2 MSTORE PUSH1 0x20 DUP2 ADD DUP5 DUP5 DUP5 ADD GT ISZERO PUSH2 0xB06 JUMPI PUSH2 0xB05 PUSH2 0xA06 JUMP JUMPDEST JUMPDEST PUSH2 0xB11 DUP5 DUP3 DUP6 PUSH2 0xAC8 JUMP JUMPDEST POP SWAP4 SWAP3 POP POP POP JUMP JUMPDEST PUSH1 0x0 DUP3 PUSH1 0x1F DUP4 ADD SLT PUSH2 0xB2E JUMPI PUSH2 0xB2D PUSH2 0xA01 JUMP JUMPDEST JUMPDEST DUP2 CALLDATALOAD PUSH2 0xB3E DUP5 DUP3 PUSH1 0x20 DUP7 ADD PUSH2 0xAD7 JUMP JUMPDEST SWAP2 POP POP SWAP3 SWAP2 POP POP JUMP JUMPDEST PUSH1 0x0 PUSH1 0x20 DUP3 DUP5 SUB SLT ISZERO PUSH2 0xB5D JUMPI PUSH2 0xB5C PUSH2 0x9F7 JUMP JUMPDEST JUMPDEST PUSH1 0x0 DUP3 ADD CALLDATALOAD PUSH8 0xFFFFFFFFFFFFFFFF DUP2 GT ISZERO PUSH2 0xB7B JUMPI PUSH2 0xB7A PUSH2 0x9FC JUMP JUMPDEST JUMPDEST PUSH2 0xB87 DUP5 DUP3 DUP6 ADD PUSH2 0xB19 JUMP JUMPDEST SWAP2 POP POP SWAP3 SWAP2 POP POP JUMP JUMPDEST PUSH1 0x0 PUSH8 0xFFFFFFFFFFFFFFFF DUP3 GT ISZERO PUSH2 0xBAB JUMPI PUSH2 0xBAA PUSH2 0xA1C JUMP JUMPDEST JUMPDEST PUSH1 0x20 DUP3 MUL SWAP1 POP PUSH1 0x20 DUP2 ADD SWAP1 POP SWAP2 SWAP1 POP JUMP JUMPDEST PUSH1 0x0 DUP1 REVERT JUMPDEST PUSH1 0x0 PUSH2 0xBD4 PUSH2 0xBCF DUP5 PUSH2 0xB90 JUMP JUMPDEST PUSH2 0xA7C JUMP JUMPDEST SWAP1 POP DUP1 DUP4 DUP3 MSTORE PUSH1 0x20 DUP3 ADD SWAP1 POP PUSH1 0x20 DUP5 MUL DUP4 ADD DUP6 DUP2 GT ISZERO PUSH2 0xBF7 JUMPI PUSH2 0xBF6 PUSH2 0xBBC JUMP JUMPDEST JUMPDEST DUP4 JUMPDEST DUP2 DUP2 LT ISZERO PUSH2 0xC3E JUMPI DUP1 CALLDATALOAD PUSH8 0xFFFFFFFFFFFFFFFF DUP2 GT ISZERO PUSH2 0xC1C JUMPI PUSH2 0xC1B PUSH2 0xA01 JUMP JUMPDEST JUMPDEST DUP1 DUP7 ADD PUSH2 0xC29 DUP10 DUP3 PUSH2 0xB19 JUMP JUMPDEST DUP6 MSTORE PUSH1 0x20 DUP6 ADD SWAP5 POP POP POP PUSH1 0x20 DUP2 ADD SWAP1 POP PUSH2 0xBF9 JUMP JUMPDEST POP POP POP SWAP4 SWAP3 POP POP POP JUMP JUMPDEST PUSH1 0x0 DUP3 PUSH1 0x1F DUP4 ADD SLT PUSH2 0xC5D JUMPI PUSH2 0xC5C PUSH2 0xA01 JUMP JUMPDEST JUMPDEST DUP2 CALLDATALOAD PUSH2 0xC6D DUP5 DUP3 PUSH1 0x20 DUP7 ADD PUSH2 0xBC1 JUMP JUMPDEST SWAP2 POP POP SWAP3 SWAP2 POP POP JUMP JUMPDEST PUSH1 0x0 DUP1 PUSH1 0x40 DUP4 DUP6 SUB SLT ISZERO PUSH2 0xC8D JUMPI PUSH2 0xC8C PUSH2 0x9F7 JUMP JUMPDEST JUMPDEST PUSH1 0x0 DUP4 ADD CALLDATALOAD PUSH8 0xFFFFFFFFFFFFFFFF DUP2 GT ISZERO PUSH2 0xCAB JUMPI PUSH2 0xCAA PUSH2 0x9FC JUMP JUMPDEST JUMPDEST PUSH2 0xCB7 DUP6 DUP3 DUP7 ADD PUSH2 0xC48 JUMP JUMPDEST SWAP3 POP POP PUSH1 0x20 DUP4 ADD CALLDATALOAD PUSH8 0xFFFFFFFFFFFFFFFF DUP2 GT ISZERO PUSH2 0xCD8 JUMPI PUSH2 0xCD7 PUSH2 0x9FC JUMP JUMPDEST JUMPDEST PUSH2 0xCE4 DUP6 DUP3 DUP7 ADD PUSH2 0xB19 JUMP JUMPDEST SWAP2 POP POP SWAP3 POP SWAP3 SWAP1 POP JUMP JUMPDEST PUSH1 0x0 DUP2 SWAP1 POP SWAP2 SWAP1 POP JUMP JUMPDEST PUSH2 0xD01 DUP2 PUSH2 0xCEE JUMP JUMPDEST DUP2 EQ PUSH2 0xD0C JUMPI PUSH1 0x0 DUP1 REVERT JUMPDEST POP JUMP JUMPDEST PUSH1 0x0 DUP2 CALLDATALOAD SWAP1 POP PUSH2 0xD1E DUP2 PUSH2 0xCF8 JUMP JUMPDEST SWAP3 SWAP2 POP POP JUMP JUMPDEST PUSH1 0x0 PUSH1 0x20 DUP3 DUP5 SUB SLT ISZERO PUSH2 0xD3A JUMPI PUSH2 0xD39 PUSH2 0x9F7 JUMP JUMPDEST JUMPDEST PUSH1 0x0 PUSH2 0xD48 DUP5 DUP3 DUP6 ADD PUSH2 0xD0F JUMP JUMPDEST SWAP2 POP POP SWAP3 SWAP2 POP POP JUMP JUMPDEST PUSH1 0x0 DUP2 MLOAD SWAP1 POP SWAP2 SWAP1 POP JUMP JUMPDEST PUSH1 0x0 DUP3 DUP3 MSTORE PUSH1 0x20 DUP3 ADD SWAP1 POP SWAP3 SWAP2 POP POP JUMP JUMPDEST PUSH1 0x0 JUMPDEST DUP4 DUP2 LT ISZERO PUSH2 0xD8B JUMPI DUP1 DUP3 ADD MLOAD DUP2 DUP5 ADD MSTORE PUSH1 0x20 DUP2 ADD SWAP1 POP PUSH2 0xD70 JUMP JUMPDEST PUSH1 0x0 DUP5 DUP5 ADD MSTORE POP POP POP POP JUMP JUMPDEST PUSH1 0x0 PUSH2 0xDA2 DUP3 PUSH2 0xD51 JUMP JUMPDEST PUSH2 0xDAC DUP2 DUP6 PUSH2 0xD5C JUMP JUMPDEST SWAP4 POP PUSH2 0xDBC DUP2 DUP6 PUSH1 0x20 DUP7 ADD PUSH2 0xD6D JUMP JUMPDEST PUSH2 0xDC5 DUP2 PUSH2 0xA0B JUMP JUMPDEST DUP5 ADD SWAP2 POP POP SWAP3 SWAP2 POP POP JUMP JUMPDEST PUSH1 0x0 PUSH1 0x20 DUP3 ADD SWAP1 POP DUP2 DUP2 SUB PUSH1 0x0 DUP4 ADD MSTORE PUSH2 0xDEA DUP2 DUP5 PUSH2 0xD97 JUMP JUMPDEST SWAP1 POP SWAP3 SWAP2 POP POP JUMP JUMPDEST PUSH1 0x0 DUP2 MLOAD SWAP1 POP SWAP2 SWAP1 POP JUMP JUMPDEST PUSH1 0x0 DUP3 DUP3 MSTORE PUSH1 0x20 DUP3 ADD SWAP1 POP SWAP3 SWAP2 POP POP JUMP JUMPDEST PUSH1 0x0 DUP2 SWAP1 POP PUSH1 0x20 DUP3 ADD SWAP1 POP SWAP2 SWAP1 POP JUMP JUMPDEST PUSH2 0xE27 DUP2 PUSH2 0xCEE JUMP JUMPDEST DUP3 MSTORE POP POP JUMP JUMPDEST PUSH1 0x0 PUSH2 0xE39 DUP4 DUP4 PUSH2 0xE1E JUMP JUMPDEST PUSH1 0x20 DUP4 ADD SWAP1 POP SWAP3 SWAP2 POP POP JUMP JUMPDEST PUSH1 0x0 PUSH1 0x20 DUP3 ADD SWAP1 POP SWAP2 SWAP1 POP JUMP JUMPDEST PUSH1 0x0 PUSH2 0xE5D DUP3 PUSH2 0xDF2 JUMP JUMPDEST PUSH2 0xE67 DUP2 DUP6 PUSH2 0xDFD JUMP JUMPDEST SWAP4 POP PUSH2 0xE72 DUP4 PUSH2 0xE0E JUMP JUMPDEST DUP1 PUSH1 0x0 JUMPDEST DUP4 DUP2 LT ISZERO PUSH2 0xEA3 JUMPI DUP2 MLOAD PUSH2 0xE8A DUP9 DUP3 PUSH2 0xE2D JUMP JUMPDEST SWAP8 POP PUSH2 0xE95 DUP4 PUSH2 0xE45 JUMP JUMPDEST SWAP3 POP POP PUSH1 0x1 DUP2 ADD SWAP1 POP PUSH2 0xE76 JUMP JUMPDEST POP DUP6 SWAP4 POP POP POP POP SWAP3 SWAP2 POP POP JUMP JUMPDEST PUSH1 0x0 PUSH1 0x20 DUP3 ADD SWAP1 POP DUP2 DUP2 SUB PUSH1 0x0 DUP4 ADD MSTORE PUSH2 0xECA DUP2 DUP5 PUSH2 0xE52 JUMP JUMPDEST SWAP1 POP SWAP3 SWAP2 POP POP JUMP JUMPDEST PUSH1 0x0 DUP1 PUSH1 0x0 PUSH1 0x60 DUP5 DUP7 SUB SLT ISZERO PUSH2 0xEEB JUMPI PUSH2 0xEEA PUSH2 0x9F7 JUMP JUMPDEST JUMPDEST PUSH1 0x0 DUP5 ADD CALLDATALOAD PUSH8 0xFFFFFFFFFFFFFFFF DUP2 GT ISZERO PUSH2 0xF09 JUMPI PUSH2 0xF08 PUSH2 0x9FC JUMP JUMPDEST JUMPDEST PUSH2 0xF15 DUP7 DUP3 DUP8 ADD PUSH2 0xB19 JUMP JUMPDEST SWAP4 POP POP PUSH1 0x20 DUP5 ADD CALLDATALOAD PUSH8 0xFFFFFFFFFFFFFFFF DUP2 GT ISZERO PUSH2 0xF36 JUMPI PUSH2 0xF35 PUSH2 0x9FC JUMP JUMPDEST JUMPDEST PUSH2 0xF42 DUP7 DUP3 DUP8 ADD PUSH2 0xB19 JUMP JUMPDEST SWAP3 POP POP PUSH1 0x40 DUP5 ADD CALLDATALOAD PUSH8 0xFFFFFFFFFFFFFFFF DUP2 GT ISZERO PUSH2 0xF63 JUMPI PUSH2 0xF62 PUSH2 0x9FC JUMP JUMPDEST JUMPDEST PUSH2 0xF6F DUP7 DUP3 DUP8 ADD PUSH2 0xB19 JUMP JUMPDEST SWAP2 POP POP SWAP3 POP SWAP3 POP SWAP3 JUMP JUMPDEST PUSH2 0xF82 DUP2 PUSH2 0xCEE JUMP JUMPDEST DUP3 MSTORE POP POP JUMP JUMPDEST PUSH1 0x0 PUSH1 0x20 DUP3 ADD SWAP1 POP PUSH2 0xF9D PUSH1 0x0 DUP4 ADD DUP5 PUSH2 0xF79 JUMP JUMPDEST SWAP3 SWAP2 POP POP JUMP JUMPDEST PUSH1 0x0 PUSH1 0x40 DUP3 ADD SWAP1 POP DUP2 DUP2 SUB PUSH1 0x0 DUP4 ADD MSTORE PUSH2 0xFBD DUP2 DUP6 PUSH2 0xD97 JUMP JUMPDEST SWAP1 POP PUSH2 0xFCC PUSH1 0x20 DUP4 ADD DUP5 PUSH2 0xF79 JUMP JUMPDEST SWAP4 SWAP3 POP POP POP JUMP JUMPDEST PUSH1 0x0 DUP2 MLOAD SWAP1 POP SWAP2 SWAP1 POP JUMP JUMPDEST PUSH1 0x0 DUP3 DUP3 MSTORE PUSH1 0x20 DUP3 ADD SWAP1 POP SWAP3 SWAP2 POP POP JUMP JUMPDEST PUSH1 0x0 DUP2 SWAP1 POP PUSH1 0x20 DUP3 ADD SWAP1 POP SWAP2 SWAP1 POP JUMP JUMPDEST PUSH1 0x0 DUP3 DUP3 MSTORE PUSH1 0x20 DUP3 ADD SWAP1 POP SWAP3 SWAP2 POP POP JUMP JUMPDEST PUSH1 0x0 PUSH2 0x101B DUP3 PUSH2 0xD51 JUMP JUMPDEST PUSH2 0x1025 DUP2 DUP6 PUSH2 0xFFF JUMP JUMPDEST SWAP4 POP PUSH2 0x1035 DUP2 DUP6 PUSH1 0x20 DUP7 ADD PUSH2 0xD6D JUMP JUMPDEST PUSH2 0x103E DUP2 PUSH2 0xA0B JUMP JUMPDEST DUP5 ADD SWAP2 POP POP SWAP3 SWAP2 POP POP JUMP JUMPDEST PUSH1 0x0 PUSH2 0x1055 DUP4 DUP4 PUSH2 0x1010 JUMP JUMPDEST SWAP1 POP SWAP3 SWAP2 POP POP JUMP JUMPDEST PUSH1 0x0 PUSH1 0x20 DUP3 ADD SWAP1 POP SWAP2 SWAP1 POP JUMP JUMPDEST PUSH1 0x0 PUSH2 0x1075 DUP3 PUSH2 0xFD3 JUMP JUMPDEST PUSH2 0x107F DUP2 DUP6 PUSH2 0xFDE JUMP JUMPDEST SWAP4 POP DUP4 PUSH1 0x20 DUP3 MUL DUP6 ADD PUSH2 0x1091 DUP6 PUSH2 0xFEF JUMP JUMPDEST DUP1 PUSH1 0x0 JUMPDEST DUP6 DUP2 LT ISZERO PUSH2 0x10CD JUMPI DUP5 DUP5 SUB DUP10 MSTORE DUP2 MLOAD PUSH2 0x10AE DUP6 DUP3 PUSH2 0x1049 JUMP JUMPDEST SWAP5 POP PUSH2 0x10B9 DUP4 PUSH2 0x105D JUMP JUMPDEST SWAP3 POP PUSH1 0x20 DUP11 ADD SWAP10 POP POP PUSH1 0x1 DUP2 ADD SWAP1 POP PUSH2 0x1095 JUMP JUMPDEST POP DUP3 SWAP8 POP DUP8 SWAP6 POP POP POP POP POP POP SWAP3 SWAP2 POP POP JUMP JUMPDEST PUSH1 0x0 PUSH1 0x20 DUP3 ADD SWAP1 POP DUP2 DUP2 SUB PUSH1 0x0 DUP4 ADD MSTORE PUSH2 0x10F9 DUP2 DUP5 PUSH2 0x106A JUMP JUMPDEST SWAP1 POP SWAP3 SWAP2 POP POP JUMP JUMPDEST PUSH1 0x0 DUP2 SWAP1 POP SWAP3 SWAP2 POP POP JUMP JUMPDEST PUSH1 0x0 PUSH2 0x1117 DUP3 PUSH2 0xD51 JUMP JUMPDEST PUSH2 0x1121 DUP2 DUP6 PUSH2 0x1101 JUMP JUMPDEST SWAP4 POP PUSH2 0x1131 DUP2 DUP6 PUSH1 0x20 DUP7 ADD PUSH2 0xD6D JUMP JUMPDEST DUP1 DUP5 ADD SWAP2 POP POP SWAP3 SWAP2 POP POP JUMP JUMPDEST PUSH1 0x0 PUSH2 0x1149 DUP3 DUP5 PUSH2 0x110C JUMP JUMPDEST SWAP2 POP DUP2 SWAP1 POP SWAP3 SWAP2 POP POP JUMP JUMPDEST PUSH32 0x4E487B7100000000000000000000000000000000000000000000000000000000 PUSH1 0x0 MSTORE PUSH1 0x22 PUSH1 0x4 MSTORE PUSH1 0x24 PUSH1 0x0 REVERT JUMPDEST PUSH1 0x0 PUSH1 0x2 DUP3 DIV SWAP1 POP PUSH1 0x1 DUP3 AND DUP1 PUSH2 0x119B JUMPI PUSH1 0x7F DUP3 AND SWAP2 POP JUMPDEST PUSH1 0x20 DUP3 LT DUP2 SUB PUSH2 0x11AE JUMPI PUSH2 0x11AD PUSH2 0x1154 JUMP JUMPDEST JUMPDEST POP SWAP2 SWAP1 POP JUMP JUMPDEST PUSH1 0x0 DUP2 SWAP1 POP DUP2 PUSH1 0x0 MSTORE PUSH1 0x20 PUSH1 0x0 KECCAK256 SWAP1 POP SWAP2 SWAP1 POP JUMP JUMPDEST PUSH1 0x0 PUSH1 0x20 PUSH1 0x1F DUP4 ADD DIV SWAP1 POP SWAP2 SWAP1 POP JUMP JUMPDEST PUSH1 0x0 DUP3 DUP3 SHL SWAP1 POP SWAP3 SWAP2 POP POP JUMP JUMPDEST PUSH1 0x0 PUSH1 0x8 DUP4 MUL PUSH2 0x1216 PUSH32 0xFFFFFFFFFFFFFFFFFFFFFFFFFFFFFFFFFFFFFFFFFFFFFFFFFFFFFFFFFFFFFFFF DUP3 PUSH2 0x11D9 JUMP JUMPDEST PUSH2 0x1220 DUP7 DUP4 PUSH2 0x11D9 JUMP JUMPDEST SWAP6 POP DUP1 NOT DUP5 AND SWAP4 POP DUP1 DUP7 AND DUP5 OR SWAP3 POP POP POP SWAP4 SWAP3 POP POP POP JUMP JUMPDEST PUSH1 0x0 DUP2 SWAP1 POP SWAP2 SWAP1 POP JUMP JUMPDEST PUSH1 0x0 PUSH2 0x125D PUSH2 0x1258 PUSH2 0x1253 DUP5 PUSH2 0xCEE JUMP JUMPDEST PUSH2 0x1238 JUMP JUMPDEST PUSH2 0xCEE JUMP JUMPDEST SWAP1 POP SWAP2 SWAP1 POP JUMP JUMPDEST PUSH1 0x0 DUP2 SWAP1 POP SWAP2 SWAP1 POP JUMP JUMPDEST PUSH2 0x1277 DUP4 PUSH2 0x1242 JUMP JUMPDEST PUSH2 0x128B PUSH2 0x1283 DUP3 PUSH2 0x1264 JUMP JUMPDEST DUP5 DUP5 SLOAD PUSH2 0x11E6 JUMP JUMPDEST DUP3 SSTORE POP POP POP POP JUMP JUMPDEST PUSH1 0x0 SWAP1 JUMP JUMPDEST PUSH2 0x12A0 PUSH2 0x1293 JUMP JUMPDEST PUSH2 0x12AB DUP2 DUP5 DUP5 PUSH2 0x126E JUMP JUMPDEST POP POP POP JUMP JUMPDEST JUMPDEST DUP2 DUP2 LT ISZERO PUSH2 0x12CF JUMPI PUSH2 0x12C4 PUSH1 0x0 DUP3 PUSH2 0x1298 JUMP JUMPDEST PUSH1 0x1 DUP2 ADD SWAP1 POP PUSH2 0x12B1 JUMP JUMPDEST POP POP JUMP JUMPDEST PUSH1 0x1F DUP3 GT ISZERO PUSH2 0x1314 JUMPI PUSH2 0x12E5 DUP2 PUSH2 0x11B4 JUMP JUMPDEST PUSH2 0x12EE DUP5 PUSH2 0x11C9 JUMP JUMPDEST DUP2 ADD PUSH1 0x20 DUP6 LT ISZERO PUSH2 0x12FD JUMPI DUP2 SWAP1 POP JUMPDEST PUSH2 0x1311 PUSH2 0x1309 DUP6 PUSH2 0x11C9 JUMP JUMPDEST DUP4 ADD DUP3 PUSH2 0x12B0 JUMP JUMPDEST POP POP JUMPDEST POP POP POP JUMP JUMPDEST PUSH1 0x0 DUP3 DUP3 SHR SWAP1 POP SWAP3 SWAP2 POP POP JUMP JUMPDEST PUSH1 0x0 PUSH2 0x1337 PUSH1 0x0 NOT DUP5 PUSH1 0x8 MUL PUSH2 0x1319 JUMP JUMPDEST NOT DUP1 DUP4 AND SWAP2 POP POP SWAP3 SWAP2 POP POP JUMP JUMPDEST PUSH1 0x0 PUSH2 0x1350 DUP4 DUP4 PUSH2 0x1326 JUMP JUMPDEST SWAP2 POP DUP3 PUSH1 0x2 MUL DUP3 OR SWAP1 POP SWAP3 SWAP2 POP POP JUMP JUMPDEST PUSH2 0x1369 DUP3 PUSH2 0xD51 JUMP JUMPDEST PUSH8 0xFFFFFFFFFFFFFFFF DUP2 GT ISZERO PUSH2 0x1382 JUMPI PUSH2 0x1381 PUSH2 0xA1C JUMP JUMPDEST JUMPDEST PUSH2 0x138C DUP3 SLOAD PUSH2 0x1183 JUMP JUMPDEST PUSH2 0x1397 DUP3 DUP3 DUP6 PUSH2 0x12D3 JUMP JUMPDEST PUSH1 0x0 PUSH1 0x20 SWAP1 POP PUSH1 0x1F DUP4 GT PUSH1 0x1 DUP2 EQ PUSH2 0x13CA JUMPI PUSH1 0x0 DUP5 ISZERO PUSH2 0x13B8 JUMPI DUP3 DUP8 ADD MLOAD SWAP1 POP JUMPDEST PUSH2 0x13C2 DUP6 DUP3 PUSH2 0x1344 JUMP JUMPDEST DUP7 SSTORE POP PUSH2 0x142A JUMP JUMPDEST PUSH1 0x1F NOT DUP5 AND PUSH2 0x13D8 DUP7 PUSH2 0x11B4 JUMP JUMPDEST PUSH1 0x0 JUMPDEST DUP3 DUP2 LT ISZERO PUSH2 0x1400 JUMPI DUP5 DUP10 ADD MLOAD DUP3 SSTORE PUSH1 0x1 DUP3 ADD SWAP2 POP PUSH1 0x20 DUP6 ADD SWAP5 POP PUSH1 0x20 DUP2 ADD SWAP1 POP PUSH2 0x13DB JUMP JUMPDEST DUP7 DUP4 LT ISZERO PUSH2 0x141D JUMPI DUP5 DUP10 ADD MLOAD PUSH2 0x1419 PUSH1 0x1F DUP10 AND DUP3 PUSH2 0x1326 JUMP JUMPDEST DUP4 SSTORE POP JUMPDEST PUSH1 0x1 PUSH1 0x2 DUP9 MUL ADD DUP9 SSTORE POP POP POP JUMPDEST POP POP POP POP POP POP JUMP JUMPDEST PUSH32 0x4E487B7100000000000000000000000000000000000000000000000000000000 PUSH1 0x0 MSTORE PUSH1 0x11 PUSH1 0x4 MSTORE PUSH1 0x24 PUSH1 0x0 REVERT JUMPDEST PUSH1 0x0 PUSH2 0x146C DUP3 PUSH2 0xCEE JUMP JUMPDEST SWAP2 POP PUSH32 0xFFFFFFFFFFFFFFFFFFFFFFFFFFFFFFFFFFFFFFFFFFFFFFFFFFFFFFFFFFFFFFFF DUP3 SUB PUSH2 0x149E JUMPI PUSH2 0x149D PUSH2 0x1432 JUMP JUMPDEST JUMPDEST PUSH1 0x1 DUP3 ADD SWAP1 POP SWAP2 SWAP1 POP JUMP JUMPDEST PUSH32 0x2000000000000000000000000000000000000000000000000000000000000000 DUP2 MSTORE POP JUMP JUMPDEST PUSH1 0x0 PUSH2 0x14DB DUP3 DUP5 PUSH2 0x110C JUMP JUMPDEST SWAP2 POP PUSH2 0x14E6 DUP3 PUSH2 0x14A9 JUMP JUMPDEST PUSH1 0x1 DUP3 ADD SWAP2 POP DUP2 SWAP1 POP SWAP3 SWAP2 POP POP JUMP JUMPDEST PUSH1 0x0 PUSH2 0x1501 DUP3 DUP6 PUSH2 0x110C JUMP JUMPDEST SWAP2 POP PUSH2 0x150D DUP3 DUP5 PUSH2 0x110C JUMP JUMPDEST SWAP2 POP DUP2 SWAP1 POP SWAP4 SWAP3 POP POP POP JUMP JUMPDEST PUSH1 0x0 PUSH2 0x1524 DUP3 PUSH2 0xCEE JUMP JUMPDEST SWAP2 POP PUSH2 0x152F DUP4 PUSH2 0xCEE JUMP JUMPDEST SWAP3 POP DUP3 DUP3 SUB SWAP1 POP DUP2 DUP2 GT ISZERO PUSH2 0x1547 JUMPI PUSH2 0x1546 PUSH2 0x1432 JUMP JUMPDEST JUMPDEST SWAP3 SWAP2 POP POP JUMP JUMPDEST PUSH32 0x4E487B7100000000000000000000000000000000000000000000000000000000 PUSH1 0x0 MSTORE PUSH1 0x32 PUSH1 0x4 MSTORE PUSH1 0x24 PUSH1 0x0 REVERT INVALID LOG2 PUSH5 0x6970667358 0x22 SLT KECCAK256 SIGNEXTEND DUP2 SWAP16 0xD2 DUP12 JUMPDEST 0xBC DUP14 0xE4 RETURNDATASIZE 0xCE COINBASE SWAP14 0x4D CODESIZE 0xB4 DUP6 SWAP5 0xC6 PUSH9 0xC9DA732A3A7A45167A PC 0xC9 0xD8 PUSH5 0x736F6C6343 STOP ADDMOD SLT STOP CALLER "
				},
				"gasEstimates": {
					"creation": {
						"codeDepositCost": "1110800",
						"executionCost": "6160",
						"totalCost": "1116960"
					},
					"external": {
						"addSeller(string)": "infinite",
						"getAllItems(string)": "infinite",
						"getItem(uint256)": "infinite",
						"getItems(string)": "infinite",
						"getQuote(uint256)": "infinite",
						"getQuotes()": "infinite",
						"setItems(string[],string)": "infinite",
						"setQuote(string,string,string)": "infinite"
					}
				},
				"methodIdentifiers": {
					"addSeller(string)": "245349d3",
					"getAllItems(string)": "7841eb9f",
					"getItem(uint256)": "3129e773",
					"getItems(string)": "cb78b527",
					"getQuote(uint256)": "cf39918e",
					"getQuotes()": "a4204e39",
					"setItems(string[],string)": "2b912369",
					"setQuote(string,string,string)": "a08bc01a"
				}
			},
			"storageLayout": {
				"storage": [
					{
						"astId": 3,
						"contract": "Desktop/buyerSender/html/buyerToSeller2.sol:bTs",
						"label": "buyer",
						"offset": 0,
						"slot": "0",
						"type": "t_address_payable"
					},
					{
						"astId": 6,
						"contract": "Desktop/buyerSender/html/buyerToSeller2.sol:bTs",
						"label": "count",
						"offset": 0,
						"slot": "1",
						"type": "t_uint256"
					},
					{
						"astId": 29,
						"contract": "Desktop/buyerSender/html/buyerToSeller2.sol:bTs",
						"label": "B",
						"offset": 0,
						"slot": "2",
						"type": "t_mapping(t_uint256,t_struct(Items)16_storage)"
					},
					{
						"astId": 34,
						"contract": "Desktop/buyerSender/html/buyerToSeller2.sol:bTs",
						"label": "tender",
						"offset": 0,
						"slot": "3",
						"type": "t_mapping(t_string_memory_ptr,t_struct(Sellers)24_storage)"
					}
				],
				"types": {
					"t_address_payable": {
						"encoding": "inplace",
						"label": "address payable",
						"numberOfBytes": "20"
					},
					"t_array(t_string_storage)dyn_storage": {
						"base": "t_string_storage",
						"encoding": "dynamic_array",
						"label": "string[]",
						"numberOfBytes": "32"
					},
					"t_array(t_uint256)dyn_storage": {
						"base": "t_uint256",
						"encoding": "dynamic_array",
						"label": "uint256[]",
						"numberOfBytes": "32"
					},
					"t_mapping(t_string_memory_ptr,t_struct(Sellers)24_storage)": {
						"encoding": "mapping",
						"key": "t_string_memory_ptr",
						"label": "mapping(string => struct bTs.Sellers)",
						"numberOfBytes": "32",
						"value": "t_struct(Sellers)24_storage"
					},
					"t_mapping(t_uint256,t_struct(Items)16_storage)": {
						"encoding": "mapping",
						"key": "t_uint256",
						"label": "mapping(uint256 => struct bTs.Items)",
						"numberOfBytes": "32",
						"value": "t_struct(Items)16_storage"
					},
					"t_string_memory_ptr": {
						"encoding": "bytes",
						"label": "string",
						"numberOfBytes": "32"
					},
					"t_string_storage": {
						"encoding": "bytes",
						"label": "string",
						"numberOfBytes": "32"
					},
					"t_struct(Items)16_storage": {
						"encoding": "inplace",
						"label": "struct bTs.Items",
						"members": [
							{
								"astId": 9,
								"contract": "Desktop/buyerSender/html/buyerToSeller2.sol:bTs",
								"label": "emails",
								"offset": 0,
								"slot": "0",
								"type": "t_array(t_string_storage)dyn_storage"
							},
							{
								"astId": 11,
								"contract": "Desktop/buyerSender/html/buyerToSeller2.sol:bTs",
								"label": "item",
								"offset": 0,
								"slot": "1",
								"type": "t_string_storage"
							},
							{
								"astId": 13,
								"contract": "Desktop/buyerSender/html/buyerToSeller2.sol:bTs",
								"label": "quantity",
								"offset": 0,
								"slot": "2",
								"type": "t_string_storage"
							},
							{
								"astId": 15,
								"contract": "Desktop/buyerSender/html/buyerToSeller2.sol:bTs",
								"label": "p",
								"offset": 0,
								"slot": "3",
								"type": "t_uint256"
							}
						],
						"numberOfBytes": "128"
					},
					"t_struct(Sellers)24_storage": {
						"encoding": "inplace",
						"label": "struct bTs.Sellers",
						"members": [
							{
								"astId": 18,
								"contract": "Desktop/buyerSender/html/buyerToSeller2.sol:bTs",
								"label": "order",
								"offset": 0,
								"slot": "0",
								"type": "t_string_storage"
							},
							{
								"astId": 20,
								"contract": "Desktop/buyerSender/html/buyerToSeller2.sol:bTs",
								"label": "quote",
								"offset": 0,
								"slot": "1",
								"type": "t_string_storage"
							},
							{
								"astId": 23,
								"contract": "Desktop/buyerSender/html/buyerToSeller2.sol:bTs",
								"label": "n",
								"offset": 0,
								"slot": "2",
								"type": "t_array(t_uint256)dyn_storage"
							}
						],
						"numberOfBytes": "96"
					},
					"t_uint256": {
						"encoding": "inplace",
						"label": "uint256",
						"numberOfBytes": "32"
					}
				}
			},
			"userdoc": {
				"kind": "user",
				"methods": {},
				"version": 1
			}
		}
	}
}